{
	"StorageAndMemory1.sol": {
		"StorageAndMemory": {
			"abi": [
				{
					"inputs": [
						{
							"internalType": "uint256[]",
							"name": "_arr",
							"type": "uint256[]"
						}
					],
					"name": "getStruct",
					"outputs": [
						{
							"internalType": "uint256[]",
							"name": "",
							"type": "uint256[]"
						}
					],
					"stateMutability": "view",
					"type": "function"
				},
				{
					"inputs": [
						{
							"internalType": "string",
							"name": "_str",
							"type": "string"
						}
					],
					"name": "updateStruct",
					"outputs": [],
					"stateMutability": "nonpayable",
					"type": "function"
				}
			],
			"devdoc": {
				"kind": "dev",
				"methods": {},
				"version": 1
			},
			"evm": {
				"assembly": "    /* \"StorageAndMemory1.sol\":56:496  contract StorageAndMemory {... */\n  mstore(0x40, 0x80)\n  callvalue\n  dup1\n  iszero\n  tag_1\n  jumpi\n  0x00\n  dup1\n  revert\ntag_1:\n  pop\n  dataSize(sub_0)\n  dup1\n  dataOffset(sub_0)\n  0x00\n  codecopy\n  0x00\n  return\nstop\n\nsub_0: assembly {\n        /* \"StorageAndMemory1.sol\":56:496  contract StorageAndMemory {... */\n      mstore(0x40, 0x80)\n      callvalue\n      dup1\n      iszero\n      tag_1\n      jumpi\n      0x00\n      dup1\n      revert\n    tag_1:\n      pop\n      jumpi(tag_2, lt(calldatasize, 0x04))\n      shr(0xe0, calldataload(0x00))\n      dup1\n      0x8c794afc\n      eq\n      tag_3\n      jumpi\n      dup1\n      0xef4093fe\n      eq\n      tag_4\n      jumpi\n    tag_2:\n      0x00\n      dup1\n      revert\n        /* \"StorageAndMemory1.sol\":312:493  function getStruct(uint [] calldata _arr) external view returns(uint[] memory){... */\n    tag_3:\n      tag_5\n      0x04\n      dup1\n      calldatasize\n      sub\n      dup2\n      add\n      swap1\n      tag_6\n      swap2\n      swap1\n      tag_7\n      jump\t// in\n    tag_6:\n      tag_8\n      jump\t// in\n    tag_5:\n      mload(0x40)\n      tag_9\n      swap2\n      swap1\n      tag_10\n      jump\t// in\n    tag_9:\n      mload(0x40)\n      dup1\n      swap2\n      sub\n      swap1\n      return\n        /* \"StorageAndMemory1.sol\":177:306  function updateStruct(string calldata _str) external{... */\n    tag_4:\n      tag_11\n      0x04\n      dup1\n      calldatasize\n      sub\n      dup2\n      add\n      swap1\n      tag_12\n      swap2\n      swap1\n      tag_13\n      jump\t// in\n    tag_12:\n      tag_14\n      jump\t// in\n    tag_11:\n      stop\n        /* \"StorageAndMemory1.sol\":312:493  function getStruct(uint [] calldata _arr) external view returns(uint[] memory){... */\n    tag_8:\n        /* \"StorageAndMemory1.sol\":376:389  uint[] memory */\n      0x60\n        /* \"StorageAndMemory1.sol\":399:420  Struct memory _struct */\n      0x00\n        /* \"StorageAndMemory1.sol\":424:432  myStruct */\n      dup1\n        /* \"StorageAndMemory1.sol\":399:432  Struct memory _struct  = myStruct */\n      mload(0x40)\n      dup1\n      0x40\n      add\n      0x40\n      mstore\n      swap1\n      dup2\n      0x00\n      dup3\n      add\n      dup1\n      sload\n      tag_16\n      swap1\n      tag_17\n      jump\t// in\n    tag_16:\n      dup1\n      0x1f\n      add\n      0x20\n      dup1\n      swap2\n      div\n      mul\n      0x20\n      add\n      mload(0x40)\n      swap1\n      dup2\n      add\n      0x40\n      mstore\n      dup1\n      swap3\n      swap2\n      swap1\n      dup2\n      dup2\n      mstore\n      0x20\n      add\n      dup3\n      dup1\n      sload\n      tag_18\n      swap1\n      tag_17\n      jump\t// in\n    tag_18:\n      dup1\n      iszero\n      tag_19\n      jumpi\n      dup1\n      0x1f\n      lt\n      tag_20\n      jumpi\n      0x0100\n      dup1\n      dup4\n      sload\n      div\n      mul\n      dup4\n      mstore\n      swap2\n      0x20\n      add\n      swap2\n      jump(tag_19)\n    tag_20:\n      dup3\n      add\n      swap2\n      swap1\n      0x00\n      mstore\n      keccak256(0x00, 0x20)\n      swap1\n    tag_21:\n      dup2\n      sload\n      dup2\n      mstore\n      swap1\n      0x01\n      add\n      swap1\n      0x20\n      add\n      dup1\n      dup4\n      gt\n      tag_21\n      jumpi\n      dup3\n      swap1\n      sub\n      0x1f\n      and\n      dup3\n      add\n      swap2\n    tag_19:\n      pop\n      pop\n      pop\n      pop\n      pop\n      dup2\n      mstore\n      0x20\n      add\n      0x01\n      dup3\n      add\n      dup1\n      sload\n      dup1\n      0x20\n      mul\n      0x20\n      add\n      mload(0x40)\n      swap1\n      dup2\n      add\n      0x40\n      mstore\n      dup1\n      swap3\n      swap2\n      swap1\n      dup2\n      dup2\n      mstore\n      0x20\n      add\n      dup3\n      dup1\n      sload\n      dup1\n      iszero\n      tag_22\n      jumpi\n      0x20\n      mul\n      dup3\n      add\n      swap2\n      swap1\n      0x00\n      mstore\n      keccak256(0x00, 0x20)\n      swap1\n    tag_23:\n      dup2\n      sload\n      dup2\n      mstore\n      0x20\n      add\n      swap1\n      0x01\n      add\n      swap1\n      dup1\n      dup4\n      gt\n      tag_23\n      jumpi\n    tag_22:\n      pop\n      pop\n      pop\n      pop\n      pop\n      dup2\n      mstore\n      pop\n      pop\n      swap1\n      pop\n        /* \"StorageAndMemory1.sol\":455:459  _arr */\n      dup4\n      dup4\n        /* \"StorageAndMemory1.sol\":441:459  _struct.arr = _arr */\n      dup1\n      dup1\n      0x20\n      mul\n      0x20\n      add\n      mload(0x40)\n      swap1\n      dup2\n      add\n      0x40\n      mstore\n      dup1\n      swap4\n      swap3\n      swap2\n      swap1\n      dup2\n      dup2\n      mstore\n      0x20\n      add\n      dup4\n      dup4\n      0x20\n      mul\n      dup1\n      dup3\n      dup5\n      calldatacopy\n      0x00\n      dup2\n      dup5\n      add\n      mstore\n      not(0x1f)\n      0x1f\n      dup3\n      add\n      and\n      swap1\n      pop\n      dup1\n      dup4\n      add\n      swap3\n      pop\n      pop\n      pop\n      pop\n      pop\n      pop\n      pop\n        /* \"StorageAndMemory1.sol\":441:448  _struct */\n      dup2\n        /* \"StorageAndMemory1.sol\":441:452  _struct.arr */\n      0x20\n      add\n        /* \"StorageAndMemory1.sol\":441:459  _struct.arr = _arr */\n      dup2\n      swap1\n      mstore\n      pop\n        /* \"StorageAndMemory1.sol\":475:482  _struct */\n      dup1\n        /* \"StorageAndMemory1.sol\":475:486  _struct.arr */\n      0x20\n      add\n      mload\n        /* \"StorageAndMemory1.sol\":468:486  return _struct.arr */\n      swap2\n      pop\n      pop\n        /* \"StorageAndMemory1.sol\":312:493  function getStruct(uint [] calldata _arr) external view returns(uint[] memory){... */\n      swap3\n      swap2\n      pop\n      pop\n      jump\t// out\n        /* \"StorageAndMemory1.sol\":177:306  function updateStruct(string calldata _str) external{... */\n    tag_14:\n        /* \"StorageAndMemory1.sol\":238:260  Struct storage _struct */\n      0x00\n        /* \"StorageAndMemory1.sol\":295:299  _str */\n      dup3\n      dup3\n        /* \"StorageAndMemory1.sol\":281:288  _struct */\n      dup3\n        /* \"StorageAndMemory1.sol\":281:292  _struct.str */\n      0x00\n      add\n        /* \"StorageAndMemory1.sol\":281:299  _struct.str = _str */\n      swap2\n      swap1\n      tag_25\n      swap3\n      swap2\n      swap1\n      tag_26\n      jump\t// in\n    tag_25:\n      pop\n        /* \"StorageAndMemory1.sol\":229:306  {... */\n      pop\n        /* \"StorageAndMemory1.sol\":177:306  function updateStruct(string calldata _str) external{... */\n      pop\n      pop\n      jump\t// out\n    tag_26:\n      dup3\n      dup1\n      sload\n      tag_27\n      swap1\n      tag_17\n      jump\t// in\n    tag_27:\n      swap1\n      0x00\n      mstore\n      keccak256(0x00, 0x20)\n      swap1\n      0x1f\n      add\n      0x20\n      swap1\n      div\n      dup2\n      add\n      swap3\n      dup3\n      tag_29\n      jumpi\n      0x00\n      dup6\n      sstore\n      jump(tag_28)\n    tag_29:\n      dup3\n      0x1f\n      lt\n      tag_30\n      jumpi\n      dup1\n      calldataload\n      not(0xff)\n      and\n      dup4\n      dup1\n      add\n      or\n      dup6\n      sstore\n      jump(tag_28)\n    tag_30:\n      dup3\n      dup1\n      add\n      0x01\n      add\n      dup6\n      sstore\n      dup3\n      iszero\n      tag_28\n      jumpi\n      swap2\n      dup3\n      add\n    tag_31:\n      dup3\n      dup2\n      gt\n      iszero\n      tag_32\n      jumpi\n      dup3\n      calldataload\n      dup3\n      sstore\n      swap2\n      0x20\n      add\n      swap2\n      swap1\n      0x01\n      add\n      swap1\n      jump(tag_31)\n    tag_32:\n    tag_28:\n      pop\n      swap1\n      pop\n      tag_33\n      swap2\n      swap1\n      tag_34\n      jump\t// in\n    tag_33:\n      pop\n      swap1\n      jump\t// out\n    tag_34:\n    tag_35:\n      dup1\n      dup3\n      gt\n      iszero\n      tag_36\n      jumpi\n      0x00\n      dup2\n      0x00\n      swap1\n      sstore\n      pop\n      0x01\n      add\n      jump(tag_35)\n    tag_36:\n      pop\n      swap1\n      jump\t// out\n        /* \"#utility.yul\":24:592   */\n    tag_38:\n        /* \"#utility.yul\":97:105   */\n      0x00\n        /* \"#utility.yul\":107:113   */\n      dup1\n        /* \"#utility.yul\":157:160   */\n      dup4\n        /* \"#utility.yul\":150:154   */\n      0x1f\n        /* \"#utility.yul\":142:148   */\n      dup5\n        /* \"#utility.yul\":138:155   */\n      add\n        /* \"#utility.yul\":134:161   */\n      slt\n        /* \"#utility.yul\":124:246   */\n      tag_40\n      jumpi\n        /* \"#utility.yul\":165:244   */\n      tag_41\n      tag_42\n      jump\t// in\n    tag_41:\n        /* \"#utility.yul\":124:246   */\n    tag_40:\n        /* \"#utility.yul\":278:284   */\n      dup3\n        /* \"#utility.yul\":265:285   */\n      calldataload\n        /* \"#utility.yul\":255:285   */\n      swap1\n      pop\n        /* \"#utility.yul\":308:326   */\n      0xffffffffffffffff\n        /* \"#utility.yul\":300:306   */\n      dup2\n        /* \"#utility.yul\":297:327   */\n      gt\n        /* \"#utility.yul\":294:411   */\n      iszero\n      tag_43\n      jumpi\n        /* \"#utility.yul\":330:409   */\n      tag_44\n      tag_45\n      jump\t// in\n    tag_44:\n        /* \"#utility.yul\":294:411   */\n    tag_43:\n        /* \"#utility.yul\":444:448   */\n      0x20\n        /* \"#utility.yul\":436:442   */\n      dup4\n        /* \"#utility.yul\":432:449   */\n      add\n        /* \"#utility.yul\":420:449   */\n      swap2\n      pop\n        /* \"#utility.yul\":498:501   */\n      dup4\n        /* \"#utility.yul\":490:494   */\n      0x20\n        /* \"#utility.yul\":482:488   */\n      dup3\n        /* \"#utility.yul\":478:495   */\n      mul\n        /* \"#utility.yul\":468:476   */\n      dup4\n        /* \"#utility.yul\":464:496   */\n      add\n        /* \"#utility.yul\":461:502   */\n      gt\n        /* \"#utility.yul\":458:586   */\n      iszero\n      tag_46\n      jumpi\n        /* \"#utility.yul\":505:584   */\n      tag_47\n      tag_48\n      jump\t// in\n    tag_47:\n        /* \"#utility.yul\":458:586   */\n    tag_46:\n        /* \"#utility.yul\":24:592   */\n      swap3\n      pop\n      swap3\n      swap1\n      pop\n      jump\t// out\n        /* \"#utility.yul\":612:1165   */\n    tag_49:\n        /* \"#utility.yul\":670:678   */\n      0x00\n        /* \"#utility.yul\":680:686   */\n      dup1\n        /* \"#utility.yul\":730:733   */\n      dup4\n        /* \"#utility.yul\":723:727   */\n      0x1f\n        /* \"#utility.yul\":715:721   */\n      dup5\n        /* \"#utility.yul\":711:728   */\n      add\n        /* \"#utility.yul\":707:734   */\n      slt\n        /* \"#utility.yul\":697:819   */\n      tag_51\n      jumpi\n        /* \"#utility.yul\":738:817   */\n      tag_52\n      tag_42\n      jump\t// in\n    tag_52:\n        /* \"#utility.yul\":697:819   */\n    tag_51:\n        /* \"#utility.yul\":851:857   */\n      dup3\n        /* \"#utility.yul\":838:858   */\n      calldataload\n        /* \"#utility.yul\":828:858   */\n      swap1\n      pop\n        /* \"#utility.yul\":881:899   */\n      0xffffffffffffffff\n        /* \"#utility.yul\":873:879   */\n      dup2\n        /* \"#utility.yul\":870:900   */\n      gt\n        /* \"#utility.yul\":867:984   */\n      iszero\n      tag_53\n      jumpi\n        /* \"#utility.yul\":903:982   */\n      tag_54\n      tag_45\n      jump\t// in\n    tag_54:\n        /* \"#utility.yul\":867:984   */\n    tag_53:\n        /* \"#utility.yul\":1017:1021   */\n      0x20\n        /* \"#utility.yul\":1009:1015   */\n      dup4\n        /* \"#utility.yul\":1005:1022   */\n      add\n        /* \"#utility.yul\":993:1022   */\n      swap2\n      pop\n        /* \"#utility.yul\":1071:1074   */\n      dup4\n        /* \"#utility.yul\":1063:1067   */\n      0x01\n        /* \"#utility.yul\":1055:1061   */\n      dup3\n        /* \"#utility.yul\":1051:1068   */\n      mul\n        /* \"#utility.yul\":1041:1049   */\n      dup4\n        /* \"#utility.yul\":1037:1069   */\n      add\n        /* \"#utility.yul\":1034:1075   */\n      gt\n        /* \"#utility.yul\":1031:1159   */\n      iszero\n      tag_55\n      jumpi\n        /* \"#utility.yul\":1078:1157   */\n      tag_56\n      tag_48\n      jump\t// in\n    tag_56:\n        /* \"#utility.yul\":1031:1159   */\n    tag_55:\n        /* \"#utility.yul\":612:1165   */\n      swap3\n      pop\n      swap3\n      swap1\n      pop\n      jump\t// out\n        /* \"#utility.yul\":1171:1730   */\n    tag_7:\n        /* \"#utility.yul\":1257:1263   */\n      0x00\n        /* \"#utility.yul\":1265:1271   */\n      dup1\n        /* \"#utility.yul\":1314:1316   */\n      0x20\n        /* \"#utility.yul\":1302:1311   */\n      dup4\n        /* \"#utility.yul\":1293:1300   */\n      dup6\n        /* \"#utility.yul\":1289:1312   */\n      sub\n        /* \"#utility.yul\":1285:1317   */\n      slt\n        /* \"#utility.yul\":1282:1401   */\n      iszero\n      tag_58\n      jumpi\n        /* \"#utility.yul\":1320:1399   */\n      tag_59\n      tag_60\n      jump\t// in\n    tag_59:\n        /* \"#utility.yul\":1282:1401   */\n    tag_58:\n        /* \"#utility.yul\":1468:1469   */\n      0x00\n        /* \"#utility.yul\":1457:1466   */\n      dup4\n        /* \"#utility.yul\":1453:1470   */\n      add\n        /* \"#utility.yul\":1440:1471   */\n      calldataload\n        /* \"#utility.yul\":1498:1516   */\n      0xffffffffffffffff\n        /* \"#utility.yul\":1490:1496   */\n      dup2\n        /* \"#utility.yul\":1487:1517   */\n      gt\n        /* \"#utility.yul\":1484:1601   */\n      iszero\n      tag_61\n      jumpi\n        /* \"#utility.yul\":1520:1599   */\n      tag_62\n      tag_63\n      jump\t// in\n    tag_62:\n        /* \"#utility.yul\":1484:1601   */\n    tag_61:\n        /* \"#utility.yul\":1633:1713   */\n      tag_64\n        /* \"#utility.yul\":1705:1712   */\n      dup6\n        /* \"#utility.yul\":1696:1702   */\n      dup3\n        /* \"#utility.yul\":1685:1694   */\n      dup7\n        /* \"#utility.yul\":1681:1703   */\n      add\n        /* \"#utility.yul\":1633:1713   */\n      tag_38\n      jump\t// in\n    tag_64:\n        /* \"#utility.yul\":1615:1713   */\n      swap3\n      pop\n      swap3\n      pop\n        /* \"#utility.yul\":1411:1723   */\n      pop\n        /* \"#utility.yul\":1171:1730   */\n      swap3\n      pop\n      swap3\n      swap1\n      pop\n      jump\t// out\n        /* \"#utility.yul\":1736:2265   */\n    tag_13:\n        /* \"#utility.yul\":1807:1813   */\n      0x00\n        /* \"#utility.yul\":1815:1821   */\n      dup1\n        /* \"#utility.yul\":1864:1866   */\n      0x20\n        /* \"#utility.yul\":1852:1861   */\n      dup4\n        /* \"#utility.yul\":1843:1850   */\n      dup6\n        /* \"#utility.yul\":1839:1862   */\n      sub\n        /* \"#utility.yul\":1835:1867   */\n      slt\n        /* \"#utility.yul\":1832:1951   */\n      iszero\n      tag_66\n      jumpi\n        /* \"#utility.yul\":1870:1949   */\n      tag_67\n      tag_60\n      jump\t// in\n    tag_67:\n        /* \"#utility.yul\":1832:1951   */\n    tag_66:\n        /* \"#utility.yul\":2018:2019   */\n      0x00\n        /* \"#utility.yul\":2007:2016   */\n      dup4\n        /* \"#utility.yul\":2003:2020   */\n      add\n        /* \"#utility.yul\":1990:2021   */\n      calldataload\n        /* \"#utility.yul\":2048:2066   */\n      0xffffffffffffffff\n        /* \"#utility.yul\":2040:2046   */\n      dup2\n        /* \"#utility.yul\":2037:2067   */\n      gt\n        /* \"#utility.yul\":2034:2151   */\n      iszero\n      tag_68\n      jumpi\n        /* \"#utility.yul\":2070:2149   */\n      tag_69\n      tag_63\n      jump\t// in\n    tag_69:\n        /* \"#utility.yul\":2034:2151   */\n    tag_68:\n        /* \"#utility.yul\":2183:2248   */\n      tag_70\n        /* \"#utility.yul\":2240:2247   */\n      dup6\n        /* \"#utility.yul\":2231:2237   */\n      dup3\n        /* \"#utility.yul\":2220:2229   */\n      dup7\n        /* \"#utility.yul\":2216:2238   */\n      add\n        /* \"#utility.yul\":2183:2248   */\n      tag_49\n      jump\t// in\n    tag_70:\n        /* \"#utility.yul\":2165:2248   */\n      swap3\n      pop\n      swap3\n      pop\n        /* \"#utility.yul\":1961:2258   */\n      pop\n        /* \"#utility.yul\":1736:2265   */\n      swap3\n      pop\n      swap3\n      swap1\n      pop\n      jump\t// out\n        /* \"#utility.yul\":2271:2450   */\n    tag_71:\n        /* \"#utility.yul\":2340:2350   */\n      0x00\n        /* \"#utility.yul\":2361:2407   */\n      tag_73\n        /* \"#utility.yul\":2403:2406   */\n      dup4\n        /* \"#utility.yul\":2395:2401   */\n      dup4\n        /* \"#utility.yul\":2361:2407   */\n      tag_74\n      jump\t// in\n    tag_73:\n        /* \"#utility.yul\":2439:2443   */\n      0x20\n        /* \"#utility.yul\":2434:2437   */\n      dup4\n        /* \"#utility.yul\":2430:2444   */\n      add\n        /* \"#utility.yul\":2416:2444   */\n      swap1\n      pop\n        /* \"#utility.yul\":2271:2450   */\n      swap3\n      swap2\n      pop\n      pop\n      jump\t// out\n        /* \"#utility.yul\":2486:3218   */\n    tag_75:\n        /* \"#utility.yul\":2605:2608   */\n      0x00\n        /* \"#utility.yul\":2634:2688   */\n      tag_77\n        /* \"#utility.yul\":2682:2687   */\n      dup3\n        /* \"#utility.yul\":2634:2688   */\n      tag_78\n      jump\t// in\n    tag_77:\n        /* \"#utility.yul\":2704:2790   */\n      tag_79\n        /* \"#utility.yul\":2783:2789   */\n      dup2\n        /* \"#utility.yul\":2778:2781   */\n      dup6\n        /* \"#utility.yul\":2704:2790   */\n      tag_80\n      jump\t// in\n    tag_79:\n        /* \"#utility.yul\":2697:2790   */\n      swap4\n      pop\n        /* \"#utility.yul\":2814:2870   */\n      tag_81\n        /* \"#utility.yul\":2864:2869   */\n      dup4\n        /* \"#utility.yul\":2814:2870   */\n      tag_82\n      jump\t// in\n    tag_81:\n        /* \"#utility.yul\":2893:2900   */\n      dup1\n        /* \"#utility.yul\":2924:2925   */\n      0x00\n        /* \"#utility.yul\":2909:3193   */\n    tag_83:\n        /* \"#utility.yul\":2934:2940   */\n      dup4\n        /* \"#utility.yul\":2931:2932   */\n      dup2\n        /* \"#utility.yul\":2928:2941   */\n      lt\n        /* \"#utility.yul\":2909:3193   */\n      iszero\n      tag_85\n      jumpi\n        /* \"#utility.yul\":3010:3016   */\n      dup2\n        /* \"#utility.yul\":3004:3017   */\n      mload\n        /* \"#utility.yul\":3037:3100   */\n      tag_86\n        /* \"#utility.yul\":3096:3099   */\n      dup9\n        /* \"#utility.yul\":3081:3094   */\n      dup3\n        /* \"#utility.yul\":3037:3100   */\n      tag_71\n      jump\t// in\n    tag_86:\n        /* \"#utility.yul\":3030:3100   */\n      swap8\n      pop\n        /* \"#utility.yul\":3123:3183   */\n      tag_87\n        /* \"#utility.yul\":3176:3182   */\n      dup4\n        /* \"#utility.yul\":3123:3183   */\n      tag_88\n      jump\t// in\n    tag_87:\n        /* \"#utility.yul\":3113:3183   */\n      swap3\n      pop\n        /* \"#utility.yul\":2969:3193   */\n      pop\n        /* \"#utility.yul\":2956:2957   */\n      0x01\n        /* \"#utility.yul\":2953:2954   */\n      dup2\n        /* \"#utility.yul\":2949:2958   */\n      add\n        /* \"#utility.yul\":2944:2958   */\n      swap1\n      pop\n        /* \"#utility.yul\":2909:3193   */\n      jump(tag_83)\n    tag_85:\n        /* \"#utility.yul\":2913:2927   */\n      pop\n        /* \"#utility.yul\":3209:3212   */\n      dup6\n        /* \"#utility.yul\":3202:3212   */\n      swap4\n      pop\n        /* \"#utility.yul\":2610:3218   */\n      pop\n      pop\n      pop\n        /* \"#utility.yul\":2486:3218   */\n      swap3\n      swap2\n      pop\n      pop\n      jump\t// out\n        /* \"#utility.yul\":3224:3332   */\n    tag_74:\n        /* \"#utility.yul\":3301:3325   */\n      tag_90\n        /* \"#utility.yul\":3319:3324   */\n      dup2\n        /* \"#utility.yul\":3301:3325   */\n      tag_91\n      jump\t// in\n    tag_90:\n        /* \"#utility.yul\":3296:3299   */\n      dup3\n        /* \"#utility.yul\":3289:3326   */\n      mstore\n        /* \"#utility.yul\":3224:3332   */\n      pop\n      pop\n      jump\t// out\n        /* \"#utility.yul\":3338:3711   */\n    tag_10:\n        /* \"#utility.yul\":3481:3485   */\n      0x00\n        /* \"#utility.yul\":3519:3521   */\n      0x20\n        /* \"#utility.yul\":3508:3517   */\n      dup3\n        /* \"#utility.yul\":3504:3522   */\n      add\n        /* \"#utility.yul\":3496:3522   */\n      swap1\n      pop\n        /* \"#utility.yul\":3568:3577   */\n      dup2\n        /* \"#utility.yul\":3562:3566   */\n      dup2\n        /* \"#utility.yul\":3558:3578   */\n      sub\n        /* \"#utility.yul\":3554:3555   */\n      0x00\n        /* \"#utility.yul\":3543:3552   */\n      dup4\n        /* \"#utility.yul\":3539:3556   */\n      add\n        /* \"#utility.yul\":3532:3579   */\n      mstore\n        /* \"#utility.yul\":3596:3704   */\n      tag_93\n        /* \"#utility.yul\":3699:3703   */\n      dup2\n        /* \"#utility.yul\":3690:3696   */\n      dup5\n        /* \"#utility.yul\":3596:3704   */\n      tag_75\n      jump\t// in\n    tag_93:\n        /* \"#utility.yul\":3588:3704   */\n      swap1\n      pop\n        /* \"#utility.yul\":3338:3711   */\n      swap3\n      swap2\n      pop\n      pop\n      jump\t// out\n        /* \"#utility.yul\":3798:3930   */\n    tag_82:\n        /* \"#utility.yul\":3865:3869   */\n      0x00\n        /* \"#utility.yul\":3888:3891   */\n      dup2\n        /* \"#utility.yul\":3880:3891   */\n      swap1\n      pop\n        /* \"#utility.yul\":3918:3922   */\n      0x20\n        /* \"#utility.yul\":3913:3916   */\n      dup3\n        /* \"#utility.yul\":3909:3923   */\n      add\n        /* \"#utility.yul\":3901:3923   */\n      swap1\n      pop\n        /* \"#utility.yul\":3798:3930   */\n      swap2\n      swap1\n      pop\n      jump\t// out\n        /* \"#utility.yul\":3936:4050   */\n    tag_78:\n        /* \"#utility.yul\":4003:4009   */\n      0x00\n        /* \"#utility.yul\":4037:4042   */\n      dup2\n        /* \"#utility.yul\":4031:4043   */\n      mload\n        /* \"#utility.yul\":4021:4043   */\n      swap1\n      pop\n        /* \"#utility.yul\":3936:4050   */\n      swap2\n      swap1\n      pop\n      jump\t// out\n        /* \"#utility.yul\":4056:4169   */\n    tag_88:\n        /* \"#utility.yul\":4126:4130   */\n      0x00\n        /* \"#utility.yul\":4158:4162   */\n      0x20\n        /* \"#utility.yul\":4153:4156   */\n      dup3\n        /* \"#utility.yul\":4149:4163   */\n      add\n        /* \"#utility.yul\":4141:4163   */\n      swap1\n      pop\n        /* \"#utility.yul\":4056:4169   */\n      swap2\n      swap1\n      pop\n      jump\t// out\n        /* \"#utility.yul\":4175:4359   */\n    tag_80:\n        /* \"#utility.yul\":4274:4285   */\n      0x00\n        /* \"#utility.yul\":4308:4314   */\n      dup3\n        /* \"#utility.yul\":4303:4306   */\n      dup3\n        /* \"#utility.yul\":4296:4315   */\n      mstore\n        /* \"#utility.yul\":4348:4352   */\n      0x20\n        /* \"#utility.yul\":4343:4346   */\n      dup3\n        /* \"#utility.yul\":4339:4353   */\n      add\n        /* \"#utility.yul\":4324:4353   */\n      swap1\n      pop\n        /* \"#utility.yul\":4175:4359   */\n      swap3\n      swap2\n      pop\n      pop\n      jump\t// out\n        /* \"#utility.yul\":4365:4442   */\n    tag_91:\n        /* \"#utility.yul\":4402:4409   */\n      0x00\n        /* \"#utility.yul\":4431:4436   */\n      dup2\n        /* \"#utility.yul\":4420:4436   */\n      swap1\n      pop\n        /* \"#utility.yul\":4365:4442   */\n      swap2\n      swap1\n      pop\n      jump\t// out\n        /* \"#utility.yul\":4448:4768   */\n    tag_17:\n        /* \"#utility.yul\":4492:4498   */\n      0x00\n        /* \"#utility.yul\":4529:4530   */\n      0x02\n        /* \"#utility.yul\":4523:4527   */\n      dup3\n        /* \"#utility.yul\":4519:4531   */\n      div\n        /* \"#utility.yul\":4509:4531   */\n      swap1\n      pop\n        /* \"#utility.yul\":4576:4577   */\n      0x01\n        /* \"#utility.yul\":4570:4574   */\n      dup3\n        /* \"#utility.yul\":4566:4578   */\n      and\n        /* \"#utility.yul\":4597:4615   */\n      dup1\n        /* \"#utility.yul\":4587:4668   */\n      tag_102\n      jumpi\n        /* \"#utility.yul\":4653:4657   */\n      0x7f\n        /* \"#utility.yul\":4645:4651   */\n      dup3\n        /* \"#utility.yul\":4641:4658   */\n      and\n        /* \"#utility.yul\":4631:4658   */\n      swap2\n      pop\n        /* \"#utility.yul\":4587:4668   */\n    tag_102:\n        /* \"#utility.yul\":4715:4717   */\n      0x20\n        /* \"#utility.yul\":4707:4713   */\n      dup3\n        /* \"#utility.yul\":4704:4718   */\n      lt\n        /* \"#utility.yul\":4684:4702   */\n      dup2\n        /* \"#utility.yul\":4681:4719   */\n      eq\n        /* \"#utility.yul\":4678:4762   */\n      iszero\n      tag_103\n      jumpi\n        /* \"#utility.yul\":4734:4752   */\n      tag_104\n      tag_105\n      jump\t// in\n    tag_104:\n        /* \"#utility.yul\":4678:4762   */\n    tag_103:\n        /* \"#utility.yul\":4499:4768   */\n      pop\n        /* \"#utility.yul\":4448:4768   */\n      swap2\n      swap1\n      pop\n      jump\t// out\n        /* \"#utility.yul\":4774:4954   */\n    tag_105:\n        /* \"#utility.yul\":4822:4899   */\n      0x4e487b7100000000000000000000000000000000000000000000000000000000\n        /* \"#utility.yul\":4819:4820   */\n      0x00\n        /* \"#utility.yul\":4812:4900   */\n      mstore\n        /* \"#utility.yul\":4919:4923   */\n      0x22\n        /* \"#utility.yul\":4916:4917   */\n      0x04\n        /* \"#utility.yul\":4909:4924   */\n      mstore\n        /* \"#utility.yul\":4943:4947   */\n      0x24\n        /* \"#utility.yul\":4940:4941   */\n      0x00\n        /* \"#utility.yul\":4933:4948   */\n      revert\n        /* \"#utility.yul\":4960:5077   */\n    tag_45:\n        /* \"#utility.yul\":5069:5070   */\n      0x00\n        /* \"#utility.yul\":5066:5067   */\n      dup1\n        /* \"#utility.yul\":5059:5071   */\n      revert\n        /* \"#utility.yul\":5083:5200   */\n    tag_42:\n        /* \"#utility.yul\":5192:5193   */\n      0x00\n        /* \"#utility.yul\":5189:5190   */\n      dup1\n        /* \"#utility.yul\":5182:5194   */\n      revert\n        /* \"#utility.yul\":5206:5323   */\n    tag_48:\n        /* \"#utility.yul\":5315:5316   */\n      0x00\n        /* \"#utility.yul\":5312:5313   */\n      dup1\n        /* \"#utility.yul\":5305:5317   */\n      revert\n        /* \"#utility.yul\":5329:5446   */\n    tag_63:\n        /* \"#utility.yul\":5438:5439   */\n      0x00\n        /* \"#utility.yul\":5435:5436   */\n      dup1\n        /* \"#utility.yul\":5428:5440   */\n      revert\n        /* \"#utility.yul\":5452:5569   */\n    tag_60:\n        /* \"#utility.yul\":5561:5562   */\n      0x00\n        /* \"#utility.yul\":5558:5559   */\n      dup1\n        /* \"#utility.yul\":5551:5563   */\n      revert\n\n    auxdata: 0xa264697066735822122099ae6f45088c16f81d5f82e2d53788c7ba8ebfedacdacbc2ff16965f6738497a64736f6c63430008070033\n}\n",
				"bytecode": {
					"linkReferences": {},
					"object": "608060405234801561001057600080fd5b50610579806100206000396000f3fe608060405234801561001057600080fd5b50600436106100365760003560e01c80638c794afc1461003b578063ef4093fe1461006b575b600080fd5b61005560048036038101906100509190610345565b610087565b6040516100629190610464565b60405180910390f35b61008560048036038101906100809190610392565b6101db565b005b60606000806040518060400160405290816000820180546100a7906104c9565b80601f01602080910402602001604051908101604052809291908181526020018280546100d3906104c9565b80156101205780601f106100f557610100808354040283529160200191610120565b820191906000526020600020905b81548152906001019060200180831161010357829003601f168201915b505050505081526020016001820180548060200260200160405190810160405280929190818152602001828054801561017857602002820191906000526020600020905b815481526020019060010190808311610164575b5050505050815250509050838380806020026020016040519081016040528093929190818152602001838360200280828437600081840152601f19601f820116905080830192505050505050508160200181905250806020015191505092915050565b600082828260000191906101f09291906101f6565b50505050565b828054610202906104c9565b90600052602060002090601f016020900481019282610224576000855561026b565b82601f1061023d57803560ff191683800117855561026b565b8280016001018555821561026b579182015b8281111561026a57823582559160200191906001019061024f565b5b509050610278919061027c565b5090565b5b8082111561029557600081600090555060010161027d565b5090565b60008083601f8401126102af576102ae61052f565b5b8235905067ffffffffffffffff8111156102cc576102cb61052a565b5b6020830191508360208202830111156102e8576102e7610534565b5b9250929050565b60008083601f8401126103055761030461052f565b5b8235905067ffffffffffffffff8111156103225761032161052a565b5b60208301915083600182028301111561033e5761033d610534565b5b9250929050565b6000806020838503121561035c5761035b61053e565b5b600083013567ffffffffffffffff81111561037a57610379610539565b5b61038685828601610299565b92509250509250929050565b600080602083850312156103a9576103a861053e565b5b600083013567ffffffffffffffff8111156103c7576103c6610539565b5b6103d3858286016102ef565b92509250509250929050565b60006103eb8383610455565b60208301905092915050565b600061040282610496565b61040c81856104ae565b935061041783610486565b8060005b8381101561044857815161042f88826103df565b975061043a836104a1565b92505060018101905061041b565b5085935050505092915050565b61045e816104bf565b82525050565b6000602082019050818103600083015261047e81846103f7565b905092915050565b6000819050602082019050919050565b600081519050919050565b6000602082019050919050565b600082825260208201905092915050565b6000819050919050565b600060028204905060018216806104e157607f821691505b602082108114156104f5576104f46104fb565b5b50919050565b7f4e487b7100000000000000000000000000000000000000000000000000000000600052602260045260246000fd5b600080fd5b600080fd5b600080fd5b600080fd5b600080fdfea264697066735822122099ae6f45088c16f81d5f82e2d53788c7ba8ebfedacdacbc2ff16965f6738497a64736f6c63430008070033",
					"opcodes": "PUSH1 0x80 PUSH1 0x40 MSTORE CALLVALUE DUP1 ISZERO PUSH2 0x10 JUMPI PUSH1 0x0 DUP1 REVERT JUMPDEST POP PUSH2 0x579 DUP1 PUSH2 0x20 PUSH1 0x0 CODECOPY PUSH1 0x0 RETURN INVALID PUSH1 0x80 PUSH1 0x40 MSTORE CALLVALUE DUP1 ISZERO PUSH2 0x10 JUMPI PUSH1 0x0 DUP1 REVERT JUMPDEST POP PUSH1 0x4 CALLDATASIZE LT PUSH2 0x36 JUMPI PUSH1 0x0 CALLDATALOAD PUSH1 0xE0 SHR DUP1 PUSH4 0x8C794AFC EQ PUSH2 0x3B JUMPI DUP1 PUSH4 0xEF4093FE EQ PUSH2 0x6B JUMPI JUMPDEST PUSH1 0x0 DUP1 REVERT JUMPDEST PUSH2 0x55 PUSH1 0x4 DUP1 CALLDATASIZE SUB DUP2 ADD SWAP1 PUSH2 0x50 SWAP2 SWAP1 PUSH2 0x345 JUMP JUMPDEST PUSH2 0x87 JUMP JUMPDEST PUSH1 0x40 MLOAD PUSH2 0x62 SWAP2 SWAP1 PUSH2 0x464 JUMP JUMPDEST PUSH1 0x40 MLOAD DUP1 SWAP2 SUB SWAP1 RETURN JUMPDEST PUSH2 0x85 PUSH1 0x4 DUP1 CALLDATASIZE SUB DUP2 ADD SWAP1 PUSH2 0x80 SWAP2 SWAP1 PUSH2 0x392 JUMP JUMPDEST PUSH2 0x1DB JUMP JUMPDEST STOP JUMPDEST PUSH1 0x60 PUSH1 0x0 DUP1 PUSH1 0x40 MLOAD DUP1 PUSH1 0x40 ADD PUSH1 0x40 MSTORE SWAP1 DUP2 PUSH1 0x0 DUP3 ADD DUP1 SLOAD PUSH2 0xA7 SWAP1 PUSH2 0x4C9 JUMP JUMPDEST DUP1 PUSH1 0x1F ADD PUSH1 0x20 DUP1 SWAP2 DIV MUL PUSH1 0x20 ADD PUSH1 0x40 MLOAD SWAP1 DUP2 ADD PUSH1 0x40 MSTORE DUP1 SWAP3 SWAP2 SWAP1 DUP2 DUP2 MSTORE PUSH1 0x20 ADD DUP3 DUP1 SLOAD PUSH2 0xD3 SWAP1 PUSH2 0x4C9 JUMP JUMPDEST DUP1 ISZERO PUSH2 0x120 JUMPI DUP1 PUSH1 0x1F LT PUSH2 0xF5 JUMPI PUSH2 0x100 DUP1 DUP4 SLOAD DIV MUL DUP4 MSTORE SWAP2 PUSH1 0x20 ADD SWAP2 PUSH2 0x120 JUMP JUMPDEST DUP3 ADD SWAP2 SWAP1 PUSH1 0x0 MSTORE PUSH1 0x20 PUSH1 0x0 KECCAK256 SWAP1 JUMPDEST DUP2 SLOAD DUP2 MSTORE SWAP1 PUSH1 0x1 ADD SWAP1 PUSH1 0x20 ADD DUP1 DUP4 GT PUSH2 0x103 JUMPI DUP3 SWAP1 SUB PUSH1 0x1F AND DUP3 ADD SWAP2 JUMPDEST POP POP POP POP POP DUP2 MSTORE PUSH1 0x20 ADD PUSH1 0x1 DUP3 ADD DUP1 SLOAD DUP1 PUSH1 0x20 MUL PUSH1 0x20 ADD PUSH1 0x40 MLOAD SWAP1 DUP2 ADD PUSH1 0x40 MSTORE DUP1 SWAP3 SWAP2 SWAP1 DUP2 DUP2 MSTORE PUSH1 0x20 ADD DUP3 DUP1 SLOAD DUP1 ISZERO PUSH2 0x178 JUMPI PUSH1 0x20 MUL DUP3 ADD SWAP2 SWAP1 PUSH1 0x0 MSTORE PUSH1 0x20 PUSH1 0x0 KECCAK256 SWAP1 JUMPDEST DUP2 SLOAD DUP2 MSTORE PUSH1 0x20 ADD SWAP1 PUSH1 0x1 ADD SWAP1 DUP1 DUP4 GT PUSH2 0x164 JUMPI JUMPDEST POP POP POP POP POP DUP2 MSTORE POP POP SWAP1 POP DUP4 DUP4 DUP1 DUP1 PUSH1 0x20 MUL PUSH1 0x20 ADD PUSH1 0x40 MLOAD SWAP1 DUP2 ADD PUSH1 0x40 MSTORE DUP1 SWAP4 SWAP3 SWAP2 SWAP1 DUP2 DUP2 MSTORE PUSH1 0x20 ADD DUP4 DUP4 PUSH1 0x20 MUL DUP1 DUP3 DUP5 CALLDATACOPY PUSH1 0x0 DUP2 DUP5 ADD MSTORE PUSH1 0x1F NOT PUSH1 0x1F DUP3 ADD AND SWAP1 POP DUP1 DUP4 ADD SWAP3 POP POP POP POP POP POP POP DUP2 PUSH1 0x20 ADD DUP2 SWAP1 MSTORE POP DUP1 PUSH1 0x20 ADD MLOAD SWAP2 POP POP SWAP3 SWAP2 POP POP JUMP JUMPDEST PUSH1 0x0 DUP3 DUP3 DUP3 PUSH1 0x0 ADD SWAP2 SWAP1 PUSH2 0x1F0 SWAP3 SWAP2 SWAP1 PUSH2 0x1F6 JUMP JUMPDEST POP POP POP POP JUMP JUMPDEST DUP3 DUP1 SLOAD PUSH2 0x202 SWAP1 PUSH2 0x4C9 JUMP JUMPDEST SWAP1 PUSH1 0x0 MSTORE PUSH1 0x20 PUSH1 0x0 KECCAK256 SWAP1 PUSH1 0x1F ADD PUSH1 0x20 SWAP1 DIV DUP2 ADD SWAP3 DUP3 PUSH2 0x224 JUMPI PUSH1 0x0 DUP6 SSTORE PUSH2 0x26B JUMP JUMPDEST DUP3 PUSH1 0x1F LT PUSH2 0x23D JUMPI DUP1 CALLDATALOAD PUSH1 0xFF NOT AND DUP4 DUP1 ADD OR DUP6 SSTORE PUSH2 0x26B JUMP JUMPDEST DUP3 DUP1 ADD PUSH1 0x1 ADD DUP6 SSTORE DUP3 ISZERO PUSH2 0x26B JUMPI SWAP2 DUP3 ADD JUMPDEST DUP3 DUP2 GT ISZERO PUSH2 0x26A JUMPI DUP3 CALLDATALOAD DUP3 SSTORE SWAP2 PUSH1 0x20 ADD SWAP2 SWAP1 PUSH1 0x1 ADD SWAP1 PUSH2 0x24F JUMP JUMPDEST JUMPDEST POP SWAP1 POP PUSH2 0x278 SWAP2 SWAP1 PUSH2 0x27C JUMP JUMPDEST POP SWAP1 JUMP JUMPDEST JUMPDEST DUP1 DUP3 GT ISZERO PUSH2 0x295 JUMPI PUSH1 0x0 DUP2 PUSH1 0x0 SWAP1 SSTORE POP PUSH1 0x1 ADD PUSH2 0x27D JUMP JUMPDEST POP SWAP1 JUMP JUMPDEST PUSH1 0x0 DUP1 DUP4 PUSH1 0x1F DUP5 ADD SLT PUSH2 0x2AF JUMPI PUSH2 0x2AE PUSH2 0x52F JUMP JUMPDEST JUMPDEST DUP3 CALLDATALOAD SWAP1 POP PUSH8 0xFFFFFFFFFFFFFFFF DUP2 GT ISZERO PUSH2 0x2CC JUMPI PUSH2 0x2CB PUSH2 0x52A JUMP JUMPDEST JUMPDEST PUSH1 0x20 DUP4 ADD SWAP2 POP DUP4 PUSH1 0x20 DUP3 MUL DUP4 ADD GT ISZERO PUSH2 0x2E8 JUMPI PUSH2 0x2E7 PUSH2 0x534 JUMP JUMPDEST JUMPDEST SWAP3 POP SWAP3 SWAP1 POP JUMP JUMPDEST PUSH1 0x0 DUP1 DUP4 PUSH1 0x1F DUP5 ADD SLT PUSH2 0x305 JUMPI PUSH2 0x304 PUSH2 0x52F JUMP JUMPDEST JUMPDEST DUP3 CALLDATALOAD SWAP1 POP PUSH8 0xFFFFFFFFFFFFFFFF DUP2 GT ISZERO PUSH2 0x322 JUMPI PUSH2 0x321 PUSH2 0x52A JUMP JUMPDEST JUMPDEST PUSH1 0x20 DUP4 ADD SWAP2 POP DUP4 PUSH1 0x1 DUP3 MUL DUP4 ADD GT ISZERO PUSH2 0x33E JUMPI PUSH2 0x33D PUSH2 0x534 JUMP JUMPDEST JUMPDEST SWAP3 POP SWAP3 SWAP1 POP JUMP JUMPDEST PUSH1 0x0 DUP1 PUSH1 0x20 DUP4 DUP6 SUB SLT ISZERO PUSH2 0x35C JUMPI PUSH2 0x35B PUSH2 0x53E JUMP JUMPDEST JUMPDEST PUSH1 0x0 DUP4 ADD CALLDATALOAD PUSH8 0xFFFFFFFFFFFFFFFF DUP2 GT ISZERO PUSH2 0x37A JUMPI PUSH2 0x379 PUSH2 0x539 JUMP JUMPDEST JUMPDEST PUSH2 0x386 DUP6 DUP3 DUP7 ADD PUSH2 0x299 JUMP JUMPDEST SWAP3 POP SWAP3 POP POP SWAP3 POP SWAP3 SWAP1 POP JUMP JUMPDEST PUSH1 0x0 DUP1 PUSH1 0x20 DUP4 DUP6 SUB SLT ISZERO PUSH2 0x3A9 JUMPI PUSH2 0x3A8 PUSH2 0x53E JUMP JUMPDEST JUMPDEST PUSH1 0x0 DUP4 ADD CALLDATALOAD PUSH8 0xFFFFFFFFFFFFFFFF DUP2 GT ISZERO PUSH2 0x3C7 JUMPI PUSH2 0x3C6 PUSH2 0x539 JUMP JUMPDEST JUMPDEST PUSH2 0x3D3 DUP6 DUP3 DUP7 ADD PUSH2 0x2EF JUMP JUMPDEST SWAP3 POP SWAP3 POP POP SWAP3 POP SWAP3 SWAP1 POP JUMP JUMPDEST PUSH1 0x0 PUSH2 0x3EB DUP4 DUP4 PUSH2 0x455 JUMP JUMPDEST PUSH1 0x20 DUP4 ADD SWAP1 POP SWAP3 SWAP2 POP POP JUMP JUMPDEST PUSH1 0x0 PUSH2 0x402 DUP3 PUSH2 0x496 JUMP JUMPDEST PUSH2 0x40C DUP2 DUP6 PUSH2 0x4AE JUMP JUMPDEST SWAP4 POP PUSH2 0x417 DUP4 PUSH2 0x486 JUMP JUMPDEST DUP1 PUSH1 0x0 JUMPDEST DUP4 DUP2 LT ISZERO PUSH2 0x448 JUMPI DUP2 MLOAD PUSH2 0x42F DUP9 DUP3 PUSH2 0x3DF JUMP JUMPDEST SWAP8 POP PUSH2 0x43A DUP4 PUSH2 0x4A1 JUMP JUMPDEST SWAP3 POP POP PUSH1 0x1 DUP2 ADD SWAP1 POP PUSH2 0x41B JUMP JUMPDEST POP DUP6 SWAP4 POP POP POP POP SWAP3 SWAP2 POP POP JUMP JUMPDEST PUSH2 0x45E DUP2 PUSH2 0x4BF JUMP JUMPDEST DUP3 MSTORE POP POP JUMP JUMPDEST PUSH1 0x0 PUSH1 0x20 DUP3 ADD SWAP1 POP DUP2 DUP2 SUB PUSH1 0x0 DUP4 ADD MSTORE PUSH2 0x47E DUP2 DUP5 PUSH2 0x3F7 JUMP JUMPDEST SWAP1 POP SWAP3 SWAP2 POP POP JUMP JUMPDEST PUSH1 0x0 DUP2 SWAP1 POP PUSH1 0x20 DUP3 ADD SWAP1 POP SWAP2 SWAP1 POP JUMP JUMPDEST PUSH1 0x0 DUP2 MLOAD SWAP1 POP SWAP2 SWAP1 POP JUMP JUMPDEST PUSH1 0x0 PUSH1 0x20 DUP3 ADD SWAP1 POP SWAP2 SWAP1 POP JUMP JUMPDEST PUSH1 0x0 DUP3 DUP3 MSTORE PUSH1 0x20 DUP3 ADD SWAP1 POP SWAP3 SWAP2 POP POP JUMP JUMPDEST PUSH1 0x0 DUP2 SWAP1 POP SWAP2 SWAP1 POP JUMP JUMPDEST PUSH1 0x0 PUSH1 0x2 DUP3 DIV SWAP1 POP PUSH1 0x1 DUP3 AND DUP1 PUSH2 0x4E1 JUMPI PUSH1 0x7F DUP3 AND SWAP2 POP JUMPDEST PUSH1 0x20 DUP3 LT DUP2 EQ ISZERO PUSH2 0x4F5 JUMPI PUSH2 0x4F4 PUSH2 0x4FB JUMP JUMPDEST JUMPDEST POP SWAP2 SWAP1 POP JUMP JUMPDEST PUSH32 0x4E487B7100000000000000000000000000000000000000000000000000000000 PUSH1 0x0 MSTORE PUSH1 0x22 PUSH1 0x4 MSTORE PUSH1 0x24 PUSH1 0x0 REVERT JUMPDEST PUSH1 0x0 DUP1 REVERT JUMPDEST PUSH1 0x0 DUP1 REVERT JUMPDEST PUSH1 0x0 DUP1 REVERT JUMPDEST PUSH1 0x0 DUP1 REVERT JUMPDEST PUSH1 0x0 DUP1 REVERT INVALID LOG2 PUSH5 0x6970667358 0x22 SLT KECCAK256 SWAP10 0xAE PUSH16 0x45088C16F81D5F82E2D53788C7BA8EBF 0xED 0xAC 0xDA 0xCB 0xC2 SELFDESTRUCT AND SWAP7 0x5F PUSH8 0x38497A64736F6C63 NUMBER STOP ADDMOD SMOD STOP CALLER "
				},
				"gasEstimates": {
					"creation": {
						"codeDepositCost": "280200",
						"executionCost": "318",
						"totalCost": "280518"
					},
					"external": {
						"getStruct(uint256[])": "infinite",
						"updateStruct(string)": "infinite"
					}
				},
				"methodIdentifiers": {
					"getStruct(uint256[])": "8c794afc",
					"updateStruct(string)": "ef4093fe"
				}
			},
			"storageLayout": {
				"storage": [
					{
						"astId": 10,
						"contract": "StorageAndMemory1.sol:StorageAndMemory",
						"label": "myStruct",
						"offset": 0,
						"slot": "0",
						"type": "t_struct(Struct)7_storage"
					}
				],
				"types": {
					"t_array(t_uint256)dyn_storage": {
						"base": "t_uint256",
						"encoding": "dynamic_array",
						"label": "uint256[]",
						"numberOfBytes": "32"
					},
					"t_string_storage": {
						"encoding": "bytes",
						"label": "string",
						"numberOfBytes": "32"
					},
					"t_struct(Struct)7_storage": {
						"encoding": "inplace",
						"label": "struct StorageAndMemory.Struct",
						"members": [
							{
								"astId": 3,
								"contract": "StorageAndMemory1.sol:StorageAndMemory",
								"label": "str",
								"offset": 0,
								"slot": "0",
								"type": "t_string_storage"
							},
							{
								"astId": 6,
								"contract": "StorageAndMemory1.sol:StorageAndMemory",
								"label": "arr",
								"offset": 0,
								"slot": "1",
								"type": "t_array(t_uint256)dyn_storage"
							}
						],
						"numberOfBytes": "64"
					},
					"t_uint256": {
						"encoding": "inplace",
						"label": "uint256",
						"numberOfBytes": "32"
					}
				}
			},
			"userdoc": {
				"kind": "user",
				"methods": {},
				"version": 1
			}
		}
	}
}