{
	"TestContract.sol": {
		"Caller": {
			"abi": [
				{
					"inputs": [
						{
							"internalType": "address",
							"name": "_testContract",
							"type": "address"
						},
						{
							"internalType": "string",
							"name": "_msg",
							"type": "string"
						},
						{
							"internalType": "uint256",
							"name": "_num",
							"type": "uint256"
						}
					],
					"name": "callFoo",
					"outputs": [],
					"stateMutability": "nonpayable",
					"type": "function"
				},
				{
					"inputs": [
						{
							"internalType": "address",
							"name": "_testContract",
							"type": "address"
						}
					],
					"name": "callNonExistentFunction",
					"outputs": [],
					"stateMutability": "nonpayable",
					"type": "function"
				}
			],
			"devdoc": {
				"kind": "dev",
				"methods": {},
				"version": 1
			},
			"evm": {
				"assembly": "    /* \"TestContract.sol\":433:944  contract Caller {... */\n  mstore(0x40, 0x80)\n  callvalue\n  dup1\n  iszero\n  tag_1\n  jumpi\n  0x00\n  dup1\n  revert\ntag_1:\n  pop\n  dataSize(sub_0)\n  dup1\n  dataOffset(sub_0)\n  0x00\n  codecopy\n  0x00\n  return\nstop\n\nsub_0: assembly {\n        /* \"TestContract.sol\":433:944  contract Caller {... */\n      mstore(0x40, 0x80)\n      callvalue\n      dup1\n      iszero\n      tag_1\n      jumpi\n      0x00\n      dup1\n      revert\n    tag_1:\n      pop\n      jumpi(tag_2, lt(calldatasize, 0x04))\n      shr(0xe0, calldataload(0x00))\n      dup1\n      0x172a57d7\n      eq\n      tag_3\n      jumpi\n      dup1\n      0xdd5f151e\n      eq\n      tag_4\n      jumpi\n    tag_2:\n      0x00\n      dup1\n      revert\n        /* \"TestContract.sol\":703:942  function callNonExistentFunction(address _testContract) external  {... */\n    tag_3:\n      tag_5\n      0x04\n      dup1\n      calldatasize\n      sub\n      dup2\n      add\n      swap1\n      tag_6\n      swap2\n      swap1\n      tag_7\n      jump\t// in\n    tag_6:\n      tag_8\n      jump\t// in\n    tag_5:\n      stop\n        /* \"TestContract.sol\":455:697  function callFoo(address _testContract, string memory _msg, uint256 _num) external {... */\n    tag_4:\n      tag_9\n      0x04\n      dup1\n      calldatasize\n      sub\n      dup2\n      add\n      swap1\n      tag_10\n      swap2\n      swap1\n      tag_11\n      jump\t// in\n    tag_10:\n      tag_12\n      jump\t// in\n    tag_9:\n      stop\n        /* \"TestContract.sol\":703:942  function callNonExistentFunction(address _testContract) external  {... */\n    tag_8:\n        /* \"TestContract.sol\":779:791  bool success */\n      0x00\n        /* \"TestContract.sol\":797:810  _testContract */\n      dup2\n        /* \"TestContract.sol\":797:815  _testContract.call */\n      0xffffffffffffffffffffffffffffffffffffffff\n      and\n        /* \"TestContract.sol\":816:864  abi.encodeWithSignature(\"nonExistentFunction()\") */\n      add(0x24, mload(0x40))\n      mload(0x40)\n      0x20\n      dup2\n      dup4\n      sub\n      sub\n      dup2\n      mstore\n      swap1\n      0x40\n      mstore\n      and(not(0xffffffffffffffffffffffffffffffffffffffffffffffffffffffff), 0x1566740300000000000000000000000000000000000000000000000000000000)\n      0x20\n      dup3\n      add\n      dup1\n      mload\n      0xffffffffffffffffffffffffffffffffffffffffffffffffffffffff\n      dup4\n      dup2\n      dup4\n      and\n      or\n      dup4\n      mstore\n      pop\n      pop\n      pop\n      pop\n        /* \"TestContract.sol\":797:865  _testContract.call(abi.encodeWithSignature(\"nonExistentFunction()\")) */\n      mload(0x40)\n      tag_14\n      swap2\n      swap1\n      tag_15\n      jump\t// in\n    tag_14:\n      0x00\n      mload(0x40)\n      dup1\n      dup4\n      sub\n      dup2\n      0x00\n      dup7\n      gas\n      call\n      swap2\n      pop\n      pop\n      returndatasize\n      dup1\n      0x00\n      dup2\n      eq\n      tag_18\n      jumpi\n      mload(0x40)\n      swap2\n      pop\n      and(add(returndatasize, 0x3f), not(0x1f))\n      dup3\n      add\n      0x40\n      mstore\n      returndatasize\n      dup3\n      mstore\n      returndatasize\n      0x00\n      0x20\n      dup5\n      add\n      returndatacopy\n      jump(tag_17)\n    tag_18:\n      0x60\n      swap2\n      pop\n    tag_17:\n      pop\n        /* \"TestContract.sol\":778:865  (bool success,) =  _testContract.call(abi.encodeWithSignature(\"nonExistentFunction()\")) */\n      pop\n      swap1\n      pop\n        /* \"TestContract.sol\":883:890  success */\n      dup1\n        /* \"TestContract.sol\":882:890  !success */\n      iszero\n        /* \"TestContract.sol\":874:935  require(!success,\"Call to non-existent function should fail\") */\n      tag_19\n      jumpi\n      mload(0x40)\n      0x08c379a000000000000000000000000000000000000000000000000000000000\n      dup2\n      mstore\n      0x04\n      add\n      tag_20\n      swap1\n      tag_21\n      jump\t// in\n    tag_20:\n      mload(0x40)\n      dup1\n      swap2\n      sub\n      swap1\n      revert\n    tag_19:\n        /* \"TestContract.sol\":769:942  {... */\n      pop\n        /* \"TestContract.sol\":703:942  function callNonExistentFunction(address _testContract) external  {... */\n      pop\n      jump\t// out\n        /* \"TestContract.sol\":455:697  function callFoo(address _testContract, string memory _msg, uint256 _num) external {... */\n    tag_12:\n        /* \"TestContract.sol\":549:561  bool success */\n      0x00\n        /* \"TestContract.sol\":566:579  _testContract */\n      dup4\n        /* \"TestContract.sol\":566:584  _testContract.call */\n      0xffffffffffffffffffffffffffffffffffffffff\n      and\n        /* \"TestContract.sol\":632:636  _msg */\n      dup4\n        /* \"TestContract.sol\":637:641  _num */\n      dup4\n        /* \"TestContract.sol\":585:642  abi.encodeWithSignature(\"foo(string,uint256)\", _msg,_num) */\n      add(0x24, mload(0x40))\n      tag_23\n      swap3\n      swap2\n      swap1\n      tag_24\n      jump\t// in\n    tag_23:\n      mload(0x40)\n      0x20\n      dup2\n      dup4\n      sub\n      sub\n      dup2\n      mstore\n      swap1\n      0x40\n      mstore\n      and(not(0xffffffffffffffffffffffffffffffffffffffffffffffffffffffff), 0x24ccab8f00000000000000000000000000000000000000000000000000000000)\n      0x20\n      dup3\n      add\n      dup1\n      mload\n      0xffffffffffffffffffffffffffffffffffffffffffffffffffffffff\n      dup4\n      dup2\n      dup4\n      and\n      or\n      dup4\n      mstore\n      pop\n      pop\n      pop\n      pop\n        /* \"TestContract.sol\":566:643  _testContract.call(abi.encodeWithSignature(\"foo(string,uint256)\", _msg,_num)) */\n      mload(0x40)\n      tag_25\n      swap2\n      swap1\n      tag_15\n      jump\t// in\n    tag_25:\n      0x00\n      mload(0x40)\n      dup1\n      dup4\n      sub\n      dup2\n      0x00\n      dup7\n      gas\n      call\n      swap2\n      pop\n      pop\n      returndatasize\n      dup1\n      0x00\n      dup2\n      eq\n      tag_28\n      jumpi\n      mload(0x40)\n      swap2\n      pop\n      and(add(returndatasize, 0x3f), not(0x1f))\n      dup3\n      add\n      0x40\n      mstore\n      returndatasize\n      dup3\n      mstore\n      returndatasize\n      0x00\n      0x20\n      dup5\n      add\n      returndatacopy\n      jump(tag_27)\n    tag_28:\n      0x60\n      swap2\n      pop\n    tag_27:\n      pop\n        /* \"TestContract.sol\":548:643  (bool success,) = _testContract.call(abi.encodeWithSignature(\"foo(string,uint256)\", _msg,_num)) */\n      pop\n      swap1\n      pop\n        /* \"TestContract.sol\":661:668  success */\n      dup1\n        /* \"TestContract.sol\":653:690  require(success,\"Call to foo failed\") */\n      tag_29\n      jumpi\n      mload(0x40)\n      0x08c379a000000000000000000000000000000000000000000000000000000000\n      dup2\n      mstore\n      0x04\n      add\n      tag_30\n      swap1\n      tag_31\n      jump\t// in\n    tag_30:\n      mload(0x40)\n      dup1\n      swap2\n      sub\n      swap1\n      revert\n    tag_29:\n        /* \"TestContract.sol\":538:697  {... */\n      pop\n        /* \"TestContract.sol\":455:697  function callFoo(address _testContract, string memory _msg, uint256 _num) external {... */\n      pop\n      pop\n      pop\n      jump\t// out\n        /* \"#utility.yul\":7:419   */\n    tag_33:\n        /* \"#utility.yul\":85:90   */\n      0x00\n        /* \"#utility.yul\":110:176   */\n      tag_35\n        /* \"#utility.yul\":126:175   */\n      tag_36\n        /* \"#utility.yul\":168:174   */\n      dup5\n        /* \"#utility.yul\":126:175   */\n      tag_37\n      jump\t// in\n    tag_36:\n        /* \"#utility.yul\":110:176   */\n      tag_38\n      jump\t// in\n    tag_35:\n        /* \"#utility.yul\":101:176   */\n      swap1\n      pop\n        /* \"#utility.yul\":199:205   */\n      dup3\n        /* \"#utility.yul\":192:197   */\n      dup2\n        /* \"#utility.yul\":185:206   */\n      mstore\n        /* \"#utility.yul\":237:241   */\n      0x20\n        /* \"#utility.yul\":230:235   */\n      dup2\n        /* \"#utility.yul\":226:242   */\n      add\n        /* \"#utility.yul\":275:278   */\n      dup5\n        /* \"#utility.yul\":266:272   */\n      dup5\n        /* \"#utility.yul\":261:264   */\n      dup5\n        /* \"#utility.yul\":257:273   */\n      add\n        /* \"#utility.yul\":254:279   */\n      gt\n        /* \"#utility.yul\":251:363   */\n      iszero\n      tag_39\n      jumpi\n        /* \"#utility.yul\":282:361   */\n      tag_40\n      tag_41\n      jump\t// in\n    tag_40:\n        /* \"#utility.yul\":251:363   */\n    tag_39:\n        /* \"#utility.yul\":372:413   */\n      tag_42\n        /* \"#utility.yul\":406:412   */\n      dup5\n        /* \"#utility.yul\":401:404   */\n      dup3\n        /* \"#utility.yul\":396:399   */\n      dup6\n        /* \"#utility.yul\":372:413   */\n      tag_43\n      jump\t// in\n    tag_42:\n        /* \"#utility.yul\":91:419   */\n      pop\n        /* \"#utility.yul\":7:419   */\n      swap4\n      swap3\n      pop\n      pop\n      pop\n      jump\t// out\n        /* \"#utility.yul\":425:564   */\n    tag_44:\n        /* \"#utility.yul\":471:476   */\n      0x00\n        /* \"#utility.yul\":509:515   */\n      dup2\n        /* \"#utility.yul\":496:516   */\n      calldataload\n        /* \"#utility.yul\":487:516   */\n      swap1\n      pop\n        /* \"#utility.yul\":525:558   */\n      tag_46\n        /* \"#utility.yul\":552:557   */\n      dup2\n        /* \"#utility.yul\":525:558   */\n      tag_47\n      jump\t// in\n    tag_46:\n        /* \"#utility.yul\":425:564   */\n      swap3\n      swap2\n      pop\n      pop\n      jump\t// out\n        /* \"#utility.yul\":584:924   */\n    tag_48:\n        /* \"#utility.yul\":640:645   */\n      0x00\n        /* \"#utility.yul\":689:692   */\n      dup3\n        /* \"#utility.yul\":682:686   */\n      0x1f\n        /* \"#utility.yul\":674:680   */\n      dup4\n        /* \"#utility.yul\":670:687   */\n      add\n        /* \"#utility.yul\":666:693   */\n      slt\n        /* \"#utility.yul\":656:778   */\n      tag_50\n      jumpi\n        /* \"#utility.yul\":697:776   */\n      tag_51\n      tag_52\n      jump\t// in\n    tag_51:\n        /* \"#utility.yul\":656:778   */\n    tag_50:\n        /* \"#utility.yul\":814:820   */\n      dup2\n        /* \"#utility.yul\":801:821   */\n      calldataload\n        /* \"#utility.yul\":839:918   */\n      tag_53\n        /* \"#utility.yul\":914:917   */\n      dup5\n        /* \"#utility.yul\":906:912   */\n      dup3\n        /* \"#utility.yul\":899:903   */\n      0x20\n        /* \"#utility.yul\":891:897   */\n      dup7\n        /* \"#utility.yul\":887:904   */\n      add\n        /* \"#utility.yul\":839:918   */\n      tag_33\n      jump\t// in\n    tag_53:\n        /* \"#utility.yul\":830:918   */\n      swap2\n      pop\n        /* \"#utility.yul\":646:924   */\n      pop\n        /* \"#utility.yul\":584:924   */\n      swap3\n      swap2\n      pop\n      pop\n      jump\t// out\n        /* \"#utility.yul\":930:1069   */\n    tag_54:\n        /* \"#utility.yul\":976:981   */\n      0x00\n        /* \"#utility.yul\":1014:1020   */\n      dup2\n        /* \"#utility.yul\":1001:1021   */\n      calldataload\n        /* \"#utility.yul\":992:1021   */\n      swap1\n      pop\n        /* \"#utility.yul\":1030:1063   */\n      tag_56\n        /* \"#utility.yul\":1057:1062   */\n      dup2\n        /* \"#utility.yul\":1030:1063   */\n      tag_57\n      jump\t// in\n    tag_56:\n        /* \"#utility.yul\":930:1069   */\n      swap3\n      swap2\n      pop\n      pop\n      jump\t// out\n        /* \"#utility.yul\":1075:1404   */\n    tag_7:\n        /* \"#utility.yul\":1134:1140   */\n      0x00\n        /* \"#utility.yul\":1183:1185   */\n      0x20\n        /* \"#utility.yul\":1171:1180   */\n      dup3\n        /* \"#utility.yul\":1162:1169   */\n      dup5\n        /* \"#utility.yul\":1158:1181   */\n      sub\n        /* \"#utility.yul\":1154:1186   */\n      slt\n        /* \"#utility.yul\":1151:1270   */\n      iszero\n      tag_59\n      jumpi\n        /* \"#utility.yul\":1189:1268   */\n      tag_60\n      tag_61\n      jump\t// in\n    tag_60:\n        /* \"#utility.yul\":1151:1270   */\n    tag_59:\n        /* \"#utility.yul\":1309:1310   */\n      0x00\n        /* \"#utility.yul\":1334:1387   */\n      tag_62\n        /* \"#utility.yul\":1379:1386   */\n      dup5\n        /* \"#utility.yul\":1370:1376   */\n      dup3\n        /* \"#utility.yul\":1359:1368   */\n      dup6\n        /* \"#utility.yul\":1355:1377   */\n      add\n        /* \"#utility.yul\":1334:1387   */\n      tag_44\n      jump\t// in\n    tag_62:\n        /* \"#utility.yul\":1324:1387   */\n      swap2\n      pop\n        /* \"#utility.yul\":1280:1397   */\n      pop\n        /* \"#utility.yul\":1075:1404   */\n      swap3\n      swap2\n      pop\n      pop\n      jump\t// out\n        /* \"#utility.yul\":1410:2209   */\n    tag_11:\n        /* \"#utility.yul\":1497:1503   */\n      0x00\n        /* \"#utility.yul\":1505:1511   */\n      dup1\n        /* \"#utility.yul\":1513:1519   */\n      0x00\n        /* \"#utility.yul\":1562:1564   */\n      0x60\n        /* \"#utility.yul\":1550:1559   */\n      dup5\n        /* \"#utility.yul\":1541:1548   */\n      dup7\n        /* \"#utility.yul\":1537:1560   */\n      sub\n        /* \"#utility.yul\":1533:1565   */\n      slt\n        /* \"#utility.yul\":1530:1649   */\n      iszero\n      tag_64\n      jumpi\n        /* \"#utility.yul\":1568:1647   */\n      tag_65\n      tag_61\n      jump\t// in\n    tag_65:\n        /* \"#utility.yul\":1530:1649   */\n    tag_64:\n        /* \"#utility.yul\":1688:1689   */\n      0x00\n        /* \"#utility.yul\":1713:1766   */\n      tag_66\n        /* \"#utility.yul\":1758:1765   */\n      dup7\n        /* \"#utility.yul\":1749:1755   */\n      dup3\n        /* \"#utility.yul\":1738:1747   */\n      dup8\n        /* \"#utility.yul\":1734:1756   */\n      add\n        /* \"#utility.yul\":1713:1766   */\n      tag_44\n      jump\t// in\n    tag_66:\n        /* \"#utility.yul\":1703:1766   */\n      swap4\n      pop\n        /* \"#utility.yul\":1659:1776   */\n      pop\n        /* \"#utility.yul\":1843:1845   */\n      0x20\n        /* \"#utility.yul\":1832:1841   */\n      dup5\n        /* \"#utility.yul\":1828:1846   */\n      add\n        /* \"#utility.yul\":1815:1847   */\n      calldataload\n        /* \"#utility.yul\":1874:1892   */\n      0xffffffffffffffff\n        /* \"#utility.yul\":1866:1872   */\n      dup2\n        /* \"#utility.yul\":1863:1893   */\n      gt\n        /* \"#utility.yul\":1860:1977   */\n      iszero\n      tag_67\n      jumpi\n        /* \"#utility.yul\":1896:1975   */\n      tag_68\n      tag_69\n      jump\t// in\n    tag_68:\n        /* \"#utility.yul\":1860:1977   */\n    tag_67:\n        /* \"#utility.yul\":2001:2064   */\n      tag_70\n        /* \"#utility.yul\":2056:2063   */\n      dup7\n        /* \"#utility.yul\":2047:2053   */\n      dup3\n        /* \"#utility.yul\":2036:2045   */\n      dup8\n        /* \"#utility.yul\":2032:2054   */\n      add\n        /* \"#utility.yul\":2001:2064   */\n      tag_48\n      jump\t// in\n    tag_70:\n        /* \"#utility.yul\":1991:2064   */\n      swap3\n      pop\n        /* \"#utility.yul\":1786:2074   */\n      pop\n        /* \"#utility.yul\":2113:2115   */\n      0x40\n        /* \"#utility.yul\":2139:2192   */\n      tag_71\n        /* \"#utility.yul\":2184:2191   */\n      dup7\n        /* \"#utility.yul\":2175:2181   */\n      dup3\n        /* \"#utility.yul\":2164:2173   */\n      dup8\n        /* \"#utility.yul\":2160:2182   */\n      add\n        /* \"#utility.yul\":2139:2192   */\n      tag_54\n      jump\t// in\n    tag_71:\n        /* \"#utility.yul\":2129:2192   */\n      swap2\n      pop\n        /* \"#utility.yul\":2084:2202   */\n      pop\n        /* \"#utility.yul\":1410:2209   */\n      swap3\n      pop\n      swap3\n      pop\n      swap3\n      jump\t// out\n        /* \"#utility.yul\":2215:2588   */\n    tag_72:\n        /* \"#utility.yul\":2319:2322   */\n      0x00\n        /* \"#utility.yul\":2347:2385   */\n      tag_74\n        /* \"#utility.yul\":2379:2384   */\n      dup3\n        /* \"#utility.yul\":2347:2385   */\n      tag_75\n      jump\t// in\n    tag_74:\n        /* \"#utility.yul\":2401:2489   */\n      tag_76\n        /* \"#utility.yul\":2482:2488   */\n      dup2\n        /* \"#utility.yul\":2477:2480   */\n      dup6\n        /* \"#utility.yul\":2401:2489   */\n      tag_77\n      jump\t// in\n    tag_76:\n        /* \"#utility.yul\":2394:2489   */\n      swap4\n      pop\n        /* \"#utility.yul\":2498:2550   */\n      tag_78\n        /* \"#utility.yul\":2543:2549   */\n      dup2\n        /* \"#utility.yul\":2538:2541   */\n      dup6\n        /* \"#utility.yul\":2531:2535   */\n      0x20\n        /* \"#utility.yul\":2524:2529   */\n      dup7\n        /* \"#utility.yul\":2520:2536   */\n      add\n        /* \"#utility.yul\":2498:2550   */\n      tag_79\n      jump\t// in\n    tag_78:\n        /* \"#utility.yul\":2575:2581   */\n      dup1\n        /* \"#utility.yul\":2570:2573   */\n      dup5\n        /* \"#utility.yul\":2566:2582   */\n      add\n        /* \"#utility.yul\":2559:2582   */\n      swap2\n      pop\n        /* \"#utility.yul\":2323:2588   */\n      pop\n        /* \"#utility.yul\":2215:2588   */\n      swap3\n      swap2\n      pop\n      pop\n      jump\t// out\n        /* \"#utility.yul\":2594:2958   */\n    tag_80:\n        /* \"#utility.yul\":2682:2685   */\n      0x00\n        /* \"#utility.yul\":2710:2749   */\n      tag_82\n        /* \"#utility.yul\":2743:2748   */\n      dup3\n        /* \"#utility.yul\":2710:2749   */\n      tag_83\n      jump\t// in\n    tag_82:\n        /* \"#utility.yul\":2765:2836   */\n      tag_84\n        /* \"#utility.yul\":2829:2835   */\n      dup2\n        /* \"#utility.yul\":2824:2827   */\n      dup6\n        /* \"#utility.yul\":2765:2836   */\n      tag_85\n      jump\t// in\n    tag_84:\n        /* \"#utility.yul\":2758:2836   */\n      swap4\n      pop\n        /* \"#utility.yul\":2845:2897   */\n      tag_86\n        /* \"#utility.yul\":2890:2896   */\n      dup2\n        /* \"#utility.yul\":2885:2888   */\n      dup6\n        /* \"#utility.yul\":2878:2882   */\n      0x20\n        /* \"#utility.yul\":2871:2876   */\n      dup7\n        /* \"#utility.yul\":2867:2883   */\n      add\n        /* \"#utility.yul\":2845:2897   */\n      tag_79\n      jump\t// in\n    tag_86:\n        /* \"#utility.yul\":2922:2951   */\n      tag_87\n        /* \"#utility.yul\":2944:2950   */\n      dup2\n        /* \"#utility.yul\":2922:2951   */\n      tag_88\n      jump\t// in\n    tag_87:\n        /* \"#utility.yul\":2917:2920   */\n      dup5\n        /* \"#utility.yul\":2913:2952   */\n      add\n        /* \"#utility.yul\":2906:2952   */\n      swap2\n      pop\n        /* \"#utility.yul\":2686:2958   */\n      pop\n        /* \"#utility.yul\":2594:2958   */\n      swap3\n      swap2\n      pop\n      pop\n      jump\t// out\n        /* \"#utility.yul\":2964:3330   */\n    tag_89:\n        /* \"#utility.yul\":3106:3109   */\n      0x00\n        /* \"#utility.yul\":3127:3194   */\n      tag_91\n        /* \"#utility.yul\":3191:3193   */\n      0x29\n        /* \"#utility.yul\":3186:3189   */\n      dup4\n        /* \"#utility.yul\":3127:3194   */\n      tag_85\n      jump\t// in\n    tag_91:\n        /* \"#utility.yul\":3120:3194   */\n      swap2\n      pop\n        /* \"#utility.yul\":3203:3296   */\n      tag_92\n        /* \"#utility.yul\":3292:3295   */\n      dup3\n        /* \"#utility.yul\":3203:3296   */\n      tag_93\n      jump\t// in\n    tag_92:\n        /* \"#utility.yul\":3321:3323   */\n      0x40\n        /* \"#utility.yul\":3316:3319   */\n      dup3\n        /* \"#utility.yul\":3312:3324   */\n      add\n        /* \"#utility.yul\":3305:3324   */\n      swap1\n      pop\n        /* \"#utility.yul\":2964:3330   */\n      swap2\n      swap1\n      pop\n      jump\t// out\n        /* \"#utility.yul\":3336:3702   */\n    tag_94:\n        /* \"#utility.yul\":3478:3481   */\n      0x00\n        /* \"#utility.yul\":3499:3566   */\n      tag_96\n        /* \"#utility.yul\":3563:3565   */\n      0x12\n        /* \"#utility.yul\":3558:3561   */\n      dup4\n        /* \"#utility.yul\":3499:3566   */\n      tag_85\n      jump\t// in\n    tag_96:\n        /* \"#utility.yul\":3492:3566   */\n      swap2\n      pop\n        /* \"#utility.yul\":3575:3668   */\n      tag_97\n        /* \"#utility.yul\":3664:3667   */\n      dup3\n        /* \"#utility.yul\":3575:3668   */\n      tag_98\n      jump\t// in\n    tag_97:\n        /* \"#utility.yul\":3693:3695   */\n      0x20\n        /* \"#utility.yul\":3688:3691   */\n      dup3\n        /* \"#utility.yul\":3684:3696   */\n      add\n        /* \"#utility.yul\":3677:3696   */\n      swap1\n      pop\n        /* \"#utility.yul\":3336:3702   */\n      swap2\n      swap1\n      pop\n      jump\t// out\n        /* \"#utility.yul\":3708:3826   */\n    tag_99:\n        /* \"#utility.yul\":3795:3819   */\n      tag_101\n        /* \"#utility.yul\":3813:3818   */\n      dup2\n        /* \"#utility.yul\":3795:3819   */\n      tag_102\n      jump\t// in\n    tag_101:\n        /* \"#utility.yul\":3790:3793   */\n      dup3\n        /* \"#utility.yul\":3783:3820   */\n      mstore\n        /* \"#utility.yul\":3708:3826   */\n      pop\n      pop\n      jump\t// out\n        /* \"#utility.yul\":3832:4103   */\n    tag_15:\n        /* \"#utility.yul\":3962:3965   */\n      0x00\n        /* \"#utility.yul\":3984:4077   */\n      tag_104\n        /* \"#utility.yul\":4073:4076   */\n      dup3\n        /* \"#utility.yul\":4064:4070   */\n      dup5\n        /* \"#utility.yul\":3984:4077   */\n      tag_72\n      jump\t// in\n    tag_104:\n        /* \"#utility.yul\":3977:4077   */\n      swap2\n      pop\n        /* \"#utility.yul\":4094:4097   */\n      dup2\n        /* \"#utility.yul\":4087:4097   */\n      swap1\n      pop\n        /* \"#utility.yul\":3832:4103   */\n      swap3\n      swap2\n      pop\n      pop\n      jump\t// out\n        /* \"#utility.yul\":4109:4532   */\n    tag_24:\n        /* \"#utility.yul\":4250:4254   */\n      0x00\n        /* \"#utility.yul\":4288:4290   */\n      0x40\n        /* \"#utility.yul\":4277:4286   */\n      dup3\n        /* \"#utility.yul\":4273:4291   */\n      add\n        /* \"#utility.yul\":4265:4291   */\n      swap1\n      pop\n        /* \"#utility.yul\":4337:4346   */\n      dup2\n        /* \"#utility.yul\":4331:4335   */\n      dup2\n        /* \"#utility.yul\":4327:4347   */\n      sub\n        /* \"#utility.yul\":4323:4324   */\n      0x00\n        /* \"#utility.yul\":4312:4321   */\n      dup4\n        /* \"#utility.yul\":4308:4325   */\n      add\n        /* \"#utility.yul\":4301:4348   */\n      mstore\n        /* \"#utility.yul\":4365:4443   */\n      tag_106\n        /* \"#utility.yul\":4438:4442   */\n      dup2\n        /* \"#utility.yul\":4429:4435   */\n      dup6\n        /* \"#utility.yul\":4365:4443   */\n      tag_80\n      jump\t// in\n    tag_106:\n        /* \"#utility.yul\":4357:4443   */\n      swap1\n      pop\n        /* \"#utility.yul\":4453:4525   */\n      tag_107\n        /* \"#utility.yul\":4521:4523   */\n      0x20\n        /* \"#utility.yul\":4510:4519   */\n      dup4\n        /* \"#utility.yul\":4506:4524   */\n      add\n        /* \"#utility.yul\":4497:4503   */\n      dup5\n        /* \"#utility.yul\":4453:4525   */\n      tag_99\n      jump\t// in\n    tag_107:\n        /* \"#utility.yul\":4109:4532   */\n      swap4\n      swap3\n      pop\n      pop\n      pop\n      jump\t// out\n        /* \"#utility.yul\":4538:4957   */\n    tag_21:\n        /* \"#utility.yul\":4704:4708   */\n      0x00\n        /* \"#utility.yul\":4742:4744   */\n      0x20\n        /* \"#utility.yul\":4731:4740   */\n      dup3\n        /* \"#utility.yul\":4727:4745   */\n      add\n        /* \"#utility.yul\":4719:4745   */\n      swap1\n      pop\n        /* \"#utility.yul\":4791:4800   */\n      dup2\n        /* \"#utility.yul\":4785:4789   */\n      dup2\n        /* \"#utility.yul\":4781:4801   */\n      sub\n        /* \"#utility.yul\":4777:4778   */\n      0x00\n        /* \"#utility.yul\":4766:4775   */\n      dup4\n        /* \"#utility.yul\":4762:4779   */\n      add\n        /* \"#utility.yul\":4755:4802   */\n      mstore\n        /* \"#utility.yul\":4819:4950   */\n      tag_109\n        /* \"#utility.yul\":4945:4949   */\n      dup2\n        /* \"#utility.yul\":4819:4950   */\n      tag_89\n      jump\t// in\n    tag_109:\n        /* \"#utility.yul\":4811:4950   */\n      swap1\n      pop\n        /* \"#utility.yul\":4538:4957   */\n      swap2\n      swap1\n      pop\n      jump\t// out\n        /* \"#utility.yul\":4963:5382   */\n    tag_31:\n        /* \"#utility.yul\":5129:5133   */\n      0x00\n        /* \"#utility.yul\":5167:5169   */\n      0x20\n        /* \"#utility.yul\":5156:5165   */\n      dup3\n        /* \"#utility.yul\":5152:5170   */\n      add\n        /* \"#utility.yul\":5144:5170   */\n      swap1\n      pop\n        /* \"#utility.yul\":5216:5225   */\n      dup2\n        /* \"#utility.yul\":5210:5214   */\n      dup2\n        /* \"#utility.yul\":5206:5226   */\n      sub\n        /* \"#utility.yul\":5202:5203   */\n      0x00\n        /* \"#utility.yul\":5191:5200   */\n      dup4\n        /* \"#utility.yul\":5187:5204   */\n      add\n        /* \"#utility.yul\":5180:5227   */\n      mstore\n        /* \"#utility.yul\":5244:5375   */\n      tag_111\n        /* \"#utility.yul\":5370:5374   */\n      dup2\n        /* \"#utility.yul\":5244:5375   */\n      tag_94\n      jump\t// in\n    tag_111:\n        /* \"#utility.yul\":5236:5375   */\n      swap1\n      pop\n        /* \"#utility.yul\":4963:5382   */\n      swap2\n      swap1\n      pop\n      jump\t// out\n        /* \"#utility.yul\":5388:5517   */\n    tag_38:\n        /* \"#utility.yul\":5422:5428   */\n      0x00\n        /* \"#utility.yul\":5449:5469   */\n      tag_113\n      tag_114\n      jump\t// in\n    tag_113:\n        /* \"#utility.yul\":5439:5469   */\n      swap1\n      pop\n        /* \"#utility.yul\":5478:5511   */\n      tag_115\n        /* \"#utility.yul\":5506:5510   */\n      dup3\n        /* \"#utility.yul\":5498:5504   */\n      dup3\n        /* \"#utility.yul\":5478:5511   */\n      tag_116\n      jump\t// in\n    tag_115:\n        /* \"#utility.yul\":5388:5517   */\n      swap2\n      swap1\n      pop\n      jump\t// out\n        /* \"#utility.yul\":5523:5598   */\n    tag_114:\n        /* \"#utility.yul\":5556:5562   */\n      0x00\n        /* \"#utility.yul\":5589:5591   */\n      0x40\n        /* \"#utility.yul\":5583:5592   */\n      mload\n        /* \"#utility.yul\":5573:5592   */\n      swap1\n      pop\n        /* \"#utility.yul\":5523:5598   */\n      swap1\n      jump\t// out\n        /* \"#utility.yul\":5604:5912   */\n    tag_37:\n        /* \"#utility.yul\":5666:5670   */\n      0x00\n        /* \"#utility.yul\":5756:5774   */\n      0xffffffffffffffff\n        /* \"#utility.yul\":5748:5754   */\n      dup3\n        /* \"#utility.yul\":5745:5775   */\n      gt\n        /* \"#utility.yul\":5742:5798   */\n      iszero\n      tag_119\n      jumpi\n        /* \"#utility.yul\":5778:5796   */\n      tag_120\n      tag_121\n      jump\t// in\n    tag_120:\n        /* \"#utility.yul\":5742:5798   */\n    tag_119:\n        /* \"#utility.yul\":5816:5845   */\n      tag_122\n        /* \"#utility.yul\":5838:5844   */\n      dup3\n        /* \"#utility.yul\":5816:5845   */\n      tag_88\n      jump\t// in\n    tag_122:\n        /* \"#utility.yul\":5808:5845   */\n      swap1\n      pop\n        /* \"#utility.yul\":5900:5904   */\n      0x20\n        /* \"#utility.yul\":5894:5898   */\n      dup2\n        /* \"#utility.yul\":5890:5905   */\n      add\n        /* \"#utility.yul\":5882:5905   */\n      swap1\n      pop\n        /* \"#utility.yul\":5604:5912   */\n      swap2\n      swap1\n      pop\n      jump\t// out\n        /* \"#utility.yul\":5918:6016   */\n    tag_75:\n        /* \"#utility.yul\":5969:5975   */\n      0x00\n        /* \"#utility.yul\":6003:6008   */\n      dup2\n        /* \"#utility.yul\":5997:6009   */\n      mload\n        /* \"#utility.yul\":5987:6009   */\n      swap1\n      pop\n        /* \"#utility.yul\":5918:6016   */\n      swap2\n      swap1\n      pop\n      jump\t// out\n        /* \"#utility.yul\":6022:6121   */\n    tag_83:\n        /* \"#utility.yul\":6074:6080   */\n      0x00\n        /* \"#utility.yul\":6108:6113   */\n      dup2\n        /* \"#utility.yul\":6102:6114   */\n      mload\n        /* \"#utility.yul\":6092:6114   */\n      swap1\n      pop\n        /* \"#utility.yul\":6022:6121   */\n      swap2\n      swap1\n      pop\n      jump\t// out\n        /* \"#utility.yul\":6127:6274   */\n    tag_77:\n        /* \"#utility.yul\":6228:6239   */\n      0x00\n        /* \"#utility.yul\":6265:6268   */\n      dup2\n        /* \"#utility.yul\":6250:6268   */\n      swap1\n      pop\n        /* \"#utility.yul\":6127:6274   */\n      swap3\n      swap2\n      pop\n      pop\n      jump\t// out\n        /* \"#utility.yul\":6280:6449   */\n    tag_85:\n        /* \"#utility.yul\":6364:6375   */\n      0x00\n        /* \"#utility.yul\":6398:6404   */\n      dup3\n        /* \"#utility.yul\":6393:6396   */\n      dup3\n        /* \"#utility.yul\":6386:6405   */\n      mstore\n        /* \"#utility.yul\":6438:6442   */\n      0x20\n        /* \"#utility.yul\":6433:6436   */\n      dup3\n        /* \"#utility.yul\":6429:6443   */\n      add\n        /* \"#utility.yul\":6414:6443   */\n      swap1\n      pop\n        /* \"#utility.yul\":6280:6449   */\n      swap3\n      swap2\n      pop\n      pop\n      jump\t// out\n        /* \"#utility.yul\":6455:6551   */\n    tag_127:\n        /* \"#utility.yul\":6492:6499   */\n      0x00\n        /* \"#utility.yul\":6521:6545   */\n      tag_129\n        /* \"#utility.yul\":6539:6544   */\n      dup3\n        /* \"#utility.yul\":6521:6545   */\n      tag_130\n      jump\t// in\n    tag_129:\n        /* \"#utility.yul\":6510:6545   */\n      swap1\n      pop\n        /* \"#utility.yul\":6455:6551   */\n      swap2\n      swap1\n      pop\n      jump\t// out\n        /* \"#utility.yul\":6557:6683   */\n    tag_130:\n        /* \"#utility.yul\":6594:6601   */\n      0x00\n        /* \"#utility.yul\":6634:6676   */\n      0xffffffffffffffffffffffffffffffffffffffff\n        /* \"#utility.yul\":6627:6632   */\n      dup3\n        /* \"#utility.yul\":6623:6677   */\n      and\n        /* \"#utility.yul\":6612:6677   */\n      swap1\n      pop\n        /* \"#utility.yul\":6557:6683   */\n      swap2\n      swap1\n      pop\n      jump\t// out\n        /* \"#utility.yul\":6689:6766   */\n    tag_102:\n        /* \"#utility.yul\":6726:6733   */\n      0x00\n        /* \"#utility.yul\":6755:6760   */\n      dup2\n        /* \"#utility.yul\":6744:6760   */\n      swap1\n      pop\n        /* \"#utility.yul\":6689:6766   */\n      swap2\n      swap1\n      pop\n      jump\t// out\n        /* \"#utility.yul\":6772:6926   */\n    tag_43:\n        /* \"#utility.yul\":6856:6862   */\n      dup3\n        /* \"#utility.yul\":6851:6854   */\n      dup2\n        /* \"#utility.yul\":6846:6849   */\n      dup4\n        /* \"#utility.yul\":6833:6863   */\n      calldatacopy\n        /* \"#utility.yul\":6918:6919   */\n      0x00\n        /* \"#utility.yul\":6909:6915   */\n      dup4\n        /* \"#utility.yul\":6904:6907   */\n      dup4\n        /* \"#utility.yul\":6900:6916   */\n      add\n        /* \"#utility.yul\":6893:6920   */\n      mstore\n        /* \"#utility.yul\":6772:6926   */\n      pop\n      pop\n      pop\n      jump\t// out\n        /* \"#utility.yul\":6932:7239   */\n    tag_79:\n        /* \"#utility.yul\":7000:7001   */\n      0x00\n        /* \"#utility.yul\":7010:7123   */\n    tag_135:\n        /* \"#utility.yul\":7024:7030   */\n      dup4\n        /* \"#utility.yul\":7021:7022   */\n      dup2\n        /* \"#utility.yul\":7018:7031   */\n      lt\n        /* \"#utility.yul\":7010:7123   */\n      iszero\n      tag_137\n      jumpi\n        /* \"#utility.yul\":7109:7110   */\n      dup1\n        /* \"#utility.yul\":7104:7107   */\n      dup3\n        /* \"#utility.yul\":7100:7111   */\n      add\n        /* \"#utility.yul\":7094:7112   */\n      mload\n        /* \"#utility.yul\":7090:7091   */\n      dup2\n        /* \"#utility.yul\":7085:7088   */\n      dup5\n        /* \"#utility.yul\":7081:7092   */\n      add\n        /* \"#utility.yul\":7074:7113   */\n      mstore\n        /* \"#utility.yul\":7046:7048   */\n      0x20\n        /* \"#utility.yul\":7043:7044   */\n      dup2\n        /* \"#utility.yul\":7039:7049   */\n      add\n        /* \"#utility.yul\":7034:7049   */\n      swap1\n      pop\n        /* \"#utility.yul\":7010:7123   */\n      jump(tag_135)\n    tag_137:\n        /* \"#utility.yul\":7141:7147   */\n      dup4\n        /* \"#utility.yul\":7138:7139   */\n      dup2\n        /* \"#utility.yul\":7135:7148   */\n      gt\n        /* \"#utility.yul\":7132:7233   */\n      iszero\n      tag_138\n      jumpi\n        /* \"#utility.yul\":7221:7222   */\n      0x00\n        /* \"#utility.yul\":7212:7218   */\n      dup5\n        /* \"#utility.yul\":7207:7210   */\n      dup5\n        /* \"#utility.yul\":7203:7219   */\n      add\n        /* \"#utility.yul\":7196:7223   */\n      mstore\n        /* \"#utility.yul\":7132:7233   */\n    tag_138:\n        /* \"#utility.yul\":6981:7239   */\n      pop\n        /* \"#utility.yul\":6932:7239   */\n      pop\n      pop\n      pop\n      jump\t// out\n        /* \"#utility.yul\":7245:7526   */\n    tag_116:\n        /* \"#utility.yul\":7328:7355   */\n      tag_140\n        /* \"#utility.yul\":7350:7354   */\n      dup3\n        /* \"#utility.yul\":7328:7355   */\n      tag_88\n      jump\t// in\n    tag_140:\n        /* \"#utility.yul\":7320:7326   */\n      dup2\n        /* \"#utility.yul\":7316:7356   */\n      add\n        /* \"#utility.yul\":7458:7464   */\n      dup2\n        /* \"#utility.yul\":7446:7456   */\n      dup2\n        /* \"#utility.yul\":7443:7465   */\n      lt\n        /* \"#utility.yul\":7422:7440   */\n      0xffffffffffffffff\n        /* \"#utility.yul\":7410:7420   */\n      dup3\n        /* \"#utility.yul\":7407:7441   */\n      gt\n        /* \"#utility.yul\":7404:7466   */\n      or\n        /* \"#utility.yul\":7401:7489   */\n      iszero\n      tag_141\n      jumpi\n        /* \"#utility.yul\":7469:7487   */\n      tag_142\n      tag_121\n      jump\t// in\n    tag_142:\n        /* \"#utility.yul\":7401:7489   */\n    tag_141:\n        /* \"#utility.yul\":7509:7519   */\n      dup1\n        /* \"#utility.yul\":7505:7507   */\n      0x40\n        /* \"#utility.yul\":7498:7520   */\n      mstore\n        /* \"#utility.yul\":7288:7526   */\n      pop\n        /* \"#utility.yul\":7245:7526   */\n      pop\n      pop\n      jump\t// out\n        /* \"#utility.yul\":7532:7712   */\n    tag_121:\n        /* \"#utility.yul\":7580:7657   */\n      0x4e487b7100000000000000000000000000000000000000000000000000000000\n        /* \"#utility.yul\":7577:7578   */\n      0x00\n        /* \"#utility.yul\":7570:7658   */\n      mstore\n        /* \"#utility.yul\":7677:7681   */\n      0x41\n        /* \"#utility.yul\":7674:7675   */\n      0x04\n        /* \"#utility.yul\":7667:7682   */\n      mstore\n        /* \"#utility.yul\":7701:7705   */\n      0x24\n        /* \"#utility.yul\":7698:7699   */\n      0x00\n        /* \"#utility.yul\":7691:7706   */\n      revert\n        /* \"#utility.yul\":7718:7835   */\n    tag_52:\n        /* \"#utility.yul\":7827:7828   */\n      0x00\n        /* \"#utility.yul\":7824:7825   */\n      dup1\n        /* \"#utility.yul\":7817:7829   */\n      revert\n        /* \"#utility.yul\":7841:7958   */\n    tag_41:\n        /* \"#utility.yul\":7950:7951   */\n      0x00\n        /* \"#utility.yul\":7947:7948   */\n      dup1\n        /* \"#utility.yul\":7940:7952   */\n      revert\n        /* \"#utility.yul\":7964:8081   */\n    tag_69:\n        /* \"#utility.yul\":8073:8074   */\n      0x00\n        /* \"#utility.yul\":8070:8071   */\n      dup1\n        /* \"#utility.yul\":8063:8075   */\n      revert\n        /* \"#utility.yul\":8087:8204   */\n    tag_61:\n        /* \"#utility.yul\":8196:8197   */\n      0x00\n        /* \"#utility.yul\":8193:8194   */\n      dup1\n        /* \"#utility.yul\":8186:8198   */\n      revert\n        /* \"#utility.yul\":8210:8312   */\n    tag_88:\n        /* \"#utility.yul\":8251:8257   */\n      0x00\n        /* \"#utility.yul\":8302:8304   */\n      0x1f\n        /* \"#utility.yul\":8298:8305   */\n      not\n        /* \"#utility.yul\":8293:8295   */\n      0x1f\n        /* \"#utility.yul\":8286:8291   */\n      dup4\n        /* \"#utility.yul\":8282:8296   */\n      add\n        /* \"#utility.yul\":8278:8306   */\n      and\n        /* \"#utility.yul\":8268:8306   */\n      swap1\n      pop\n        /* \"#utility.yul\":8210:8312   */\n      swap2\n      swap1\n      pop\n      jump\t// out\n        /* \"#utility.yul\":8318:8546   */\n    tag_93:\n        /* \"#utility.yul\":8458:8492   */\n      0x43616c6c20746f206e6f6e2d6578697374656e742066756e6374696f6e207368\n        /* \"#utility.yul\":8454:8455   */\n      0x00\n        /* \"#utility.yul\":8446:8452   */\n      dup3\n        /* \"#utility.yul\":8442:8456   */\n      add\n        /* \"#utility.yul\":8435:8493   */\n      mstore\n        /* \"#utility.yul\":8527:8538   */\n      0x6f756c64206661696c0000000000000000000000000000000000000000000000\n        /* \"#utility.yul\":8522:8524   */\n      0x20\n        /* \"#utility.yul\":8514:8520   */\n      dup3\n        /* \"#utility.yul\":8510:8525   */\n      add\n        /* \"#utility.yul\":8503:8539   */\n      mstore\n        /* \"#utility.yul\":8318:8546   */\n      pop\n      jump\t// out\n        /* \"#utility.yul\":8552:8720   */\n    tag_98:\n        /* \"#utility.yul\":8692:8712   */\n      0x43616c6c20746f20666f6f206661696c65640000000000000000000000000000\n        /* \"#utility.yul\":8688:8689   */\n      0x00\n        /* \"#utility.yul\":8680:8686   */\n      dup3\n        /* \"#utility.yul\":8676:8690   */\n      add\n        /* \"#utility.yul\":8669:8713   */\n      mstore\n        /* \"#utility.yul\":8552:8720   */\n      pop\n      jump\t// out\n        /* \"#utility.yul\":8726:8848   */\n    tag_47:\n        /* \"#utility.yul\":8799:8823   */\n      tag_152\n        /* \"#utility.yul\":8817:8822   */\n      dup2\n        /* \"#utility.yul\":8799:8823   */\n      tag_127\n      jump\t// in\n    tag_152:\n        /* \"#utility.yul\":8792:8797   */\n      dup2\n        /* \"#utility.yul\":8789:8824   */\n      eq\n        /* \"#utility.yul\":8779:8842   */\n      tag_153\n      jumpi\n        /* \"#utility.yul\":8838:8839   */\n      0x00\n        /* \"#utility.yul\":8835:8836   */\n      dup1\n        /* \"#utility.yul\":8828:8840   */\n      revert\n        /* \"#utility.yul\":8779:8842   */\n    tag_153:\n        /* \"#utility.yul\":8726:8848   */\n      pop\n      jump\t// out\n        /* \"#utility.yul\":8854:8976   */\n    tag_57:\n        /* \"#utility.yul\":8927:8951   */\n      tag_155\n        /* \"#utility.yul\":8945:8950   */\n      dup2\n        /* \"#utility.yul\":8927:8951   */\n      tag_102\n      jump\t// in\n    tag_155:\n        /* \"#utility.yul\":8920:8925   */\n      dup2\n        /* \"#utility.yul\":8917:8952   */\n      eq\n        /* \"#utility.yul\":8907:8970   */\n      tag_156\n      jumpi\n        /* \"#utility.yul\":8966:8967   */\n      0x00\n        /* \"#utility.yul\":8963:8964   */\n      dup1\n        /* \"#utility.yul\":8956:8968   */\n      revert\n        /* \"#utility.yul\":8907:8970   */\n    tag_156:\n        /* \"#utility.yul\":8854:8976   */\n      pop\n      jump\t// out\n\n    auxdata: 0xa2646970667358221220f14aa86aed0c6be7ad9f437c506e6aa12d98dc69e0cac85c77e3fa676e7c172464736f6c63430008070033\n}\n",
				"bytecode": {
					"linkReferences": {},
					"object": "608060405234801561001057600080fd5b506107cc806100206000396000f3fe608060405234801561001057600080fd5b50600436106100365760003560e01c8063172a57d71461003b578063dd5f151e14610057575b600080fd5b61005560048036038101906100509190610383565b610073565b005b610071600480360381019061006c91906103b0565b6101a7565b005b60008173ffffffffffffffffffffffffffffffffffffffff166040516024016040516020818303038152906040527f15667403000000000000000000000000000000000000000000000000000000007bffffffffffffffffffffffffffffffffffffffffffffffffffffffff19166020820180517bffffffffffffffffffffffffffffffffffffffffffffffffffffffff838183161783525050505060405161011c91906104de565b6000604051808303816000865af19150503d8060008114610159576040519150601f19603f3d011682016040523d82523d6000602084013e61015e565b606091505b5050905080156101a3576040517f08c379a000000000000000000000000000000000000000000000000000000000815260040161019a90610525565b60405180910390fd5b5050565b60008373ffffffffffffffffffffffffffffffffffffffff1683836040516024016101d39291906104f5565b6040516020818303038152906040527f24ccab8f000000000000000000000000000000000000000000000000000000007bffffffffffffffffffffffffffffffffffffffffffffffffffffffff19166020820180517bffffffffffffffffffffffffffffffffffffffffffffffffffffffff838183161783525050505060405161025d91906104de565b6000604051808303816000865af19150503d806000811461029a576040519150601f19603f3d011682016040523d82523d6000602084013e61029f565b606091505b50509050806102e3576040517f08c379a00000000000000000000000000000000000000000000000000000000081526004016102da90610545565b60405180910390fd5b50505050565b60006102fc6102f78461058a565b610565565b905082815260208101848484011115610318576103176106d0565b5b610323848285610629565b509392505050565b60008135905061033a81610768565b92915050565b600082601f830112610355576103546106cb565b5b81356103658482602086016102e9565b91505092915050565b60008135905061037d8161077f565b92915050565b600060208284031215610399576103986106da565b5b60006103a78482850161032b565b91505092915050565b6000806000606084860312156103c9576103c86106da565b5b60006103d78682870161032b565b935050602084013567ffffffffffffffff8111156103f8576103f76106d5565b5b61040486828701610340565b92505060406104158682870161036e565b9150509250925092565b600061042a826105bb565b61043481856105d1565b9350610444818560208601610638565b80840191505092915050565b600061045b826105c6565b61046581856105dc565b9350610475818560208601610638565b61047e816106df565b840191505092915050565b60006104966029836105dc565b91506104a1826106f0565b604082019050919050565b60006104b96012836105dc565b91506104c48261073f565b602082019050919050565b6104d88161061f565b82525050565b60006104ea828461041f565b915081905092915050565b6000604082019050818103600083015261050f8185610450565b905061051e60208301846104cf565b9392505050565b6000602082019050818103600083015261053e81610489565b9050919050565b6000602082019050818103600083015261055e816104ac565b9050919050565b600061056f610580565b905061057b828261066b565b919050565b6000604051905090565b600067ffffffffffffffff8211156105a5576105a461069c565b5b6105ae826106df565b9050602081019050919050565b600081519050919050565b600081519050919050565b600081905092915050565b600082825260208201905092915050565b60006105f8826105ff565b9050919050565b600073ffffffffffffffffffffffffffffffffffffffff82169050919050565b6000819050919050565b82818337600083830152505050565b60005b8381101561065657808201518184015260208101905061063b565b83811115610665576000848401525b50505050565b610674826106df565b810181811067ffffffffffffffff821117156106935761069261069c565b5b80604052505050565b7f4e487b7100000000000000000000000000000000000000000000000000000000600052604160045260246000fd5b600080fd5b600080fd5b600080fd5b600080fd5b6000601f19601f8301169050919050565b7f43616c6c20746f206e6f6e2d6578697374656e742066756e6374696f6e20736860008201527f6f756c64206661696c0000000000000000000000000000000000000000000000602082015250565b7f43616c6c20746f20666f6f206661696c65640000000000000000000000000000600082015250565b610771816105ed565b811461077c57600080fd5b50565b6107888161061f565b811461079357600080fd5b5056fea2646970667358221220f14aa86aed0c6be7ad9f437c506e6aa12d98dc69e0cac85c77e3fa676e7c172464736f6c63430008070033",
					"opcodes": "PUSH1 0x80 PUSH1 0x40 MSTORE CALLVALUE DUP1 ISZERO PUSH2 0x10 JUMPI PUSH1 0x0 DUP1 REVERT JUMPDEST POP PUSH2 0x7CC DUP1 PUSH2 0x20 PUSH1 0x0 CODECOPY PUSH1 0x0 RETURN INVALID PUSH1 0x80 PUSH1 0x40 MSTORE CALLVALUE DUP1 ISZERO PUSH2 0x10 JUMPI PUSH1 0x0 DUP1 REVERT JUMPDEST POP PUSH1 0x4 CALLDATASIZE LT PUSH2 0x36 JUMPI PUSH1 0x0 CALLDATALOAD PUSH1 0xE0 SHR DUP1 PUSH4 0x172A57D7 EQ PUSH2 0x3B JUMPI DUP1 PUSH4 0xDD5F151E EQ PUSH2 0x57 JUMPI JUMPDEST PUSH1 0x0 DUP1 REVERT JUMPDEST PUSH2 0x55 PUSH1 0x4 DUP1 CALLDATASIZE SUB DUP2 ADD SWAP1 PUSH2 0x50 SWAP2 SWAP1 PUSH2 0x383 JUMP JUMPDEST PUSH2 0x73 JUMP JUMPDEST STOP JUMPDEST PUSH2 0x71 PUSH1 0x4 DUP1 CALLDATASIZE SUB DUP2 ADD SWAP1 PUSH2 0x6C SWAP2 SWAP1 PUSH2 0x3B0 JUMP JUMPDEST PUSH2 0x1A7 JUMP JUMPDEST STOP JUMPDEST PUSH1 0x0 DUP2 PUSH20 0xFFFFFFFFFFFFFFFFFFFFFFFFFFFFFFFFFFFFFFFF AND PUSH1 0x40 MLOAD PUSH1 0x24 ADD PUSH1 0x40 MLOAD PUSH1 0x20 DUP2 DUP4 SUB SUB DUP2 MSTORE SWAP1 PUSH1 0x40 MSTORE PUSH32 0x1566740300000000000000000000000000000000000000000000000000000000 PUSH28 0xFFFFFFFFFFFFFFFFFFFFFFFFFFFFFFFFFFFFFFFFFFFFFFFFFFFFFFFF NOT AND PUSH1 0x20 DUP3 ADD DUP1 MLOAD PUSH28 0xFFFFFFFFFFFFFFFFFFFFFFFFFFFFFFFFFFFFFFFFFFFFFFFFFFFFFFFF DUP4 DUP2 DUP4 AND OR DUP4 MSTORE POP POP POP POP PUSH1 0x40 MLOAD PUSH2 0x11C SWAP2 SWAP1 PUSH2 0x4DE JUMP JUMPDEST PUSH1 0x0 PUSH1 0x40 MLOAD DUP1 DUP4 SUB DUP2 PUSH1 0x0 DUP7 GAS CALL SWAP2 POP POP RETURNDATASIZE DUP1 PUSH1 0x0 DUP2 EQ PUSH2 0x159 JUMPI PUSH1 0x40 MLOAD SWAP2 POP PUSH1 0x1F NOT PUSH1 0x3F RETURNDATASIZE ADD AND DUP3 ADD PUSH1 0x40 MSTORE RETURNDATASIZE DUP3 MSTORE RETURNDATASIZE PUSH1 0x0 PUSH1 0x20 DUP5 ADD RETURNDATACOPY PUSH2 0x15E JUMP JUMPDEST PUSH1 0x60 SWAP2 POP JUMPDEST POP POP SWAP1 POP DUP1 ISZERO PUSH2 0x1A3 JUMPI PUSH1 0x40 MLOAD PUSH32 0x8C379A000000000000000000000000000000000000000000000000000000000 DUP2 MSTORE PUSH1 0x4 ADD PUSH2 0x19A SWAP1 PUSH2 0x525 JUMP JUMPDEST PUSH1 0x40 MLOAD DUP1 SWAP2 SUB SWAP1 REVERT JUMPDEST POP POP JUMP JUMPDEST PUSH1 0x0 DUP4 PUSH20 0xFFFFFFFFFFFFFFFFFFFFFFFFFFFFFFFFFFFFFFFF AND DUP4 DUP4 PUSH1 0x40 MLOAD PUSH1 0x24 ADD PUSH2 0x1D3 SWAP3 SWAP2 SWAP1 PUSH2 0x4F5 JUMP JUMPDEST PUSH1 0x40 MLOAD PUSH1 0x20 DUP2 DUP4 SUB SUB DUP2 MSTORE SWAP1 PUSH1 0x40 MSTORE PUSH32 0x24CCAB8F00000000000000000000000000000000000000000000000000000000 PUSH28 0xFFFFFFFFFFFFFFFFFFFFFFFFFFFFFFFFFFFFFFFFFFFFFFFFFFFFFFFF NOT AND PUSH1 0x20 DUP3 ADD DUP1 MLOAD PUSH28 0xFFFFFFFFFFFFFFFFFFFFFFFFFFFFFFFFFFFFFFFFFFFFFFFFFFFFFFFF DUP4 DUP2 DUP4 AND OR DUP4 MSTORE POP POP POP POP PUSH1 0x40 MLOAD PUSH2 0x25D SWAP2 SWAP1 PUSH2 0x4DE JUMP JUMPDEST PUSH1 0x0 PUSH1 0x40 MLOAD DUP1 DUP4 SUB DUP2 PUSH1 0x0 DUP7 GAS CALL SWAP2 POP POP RETURNDATASIZE DUP1 PUSH1 0x0 DUP2 EQ PUSH2 0x29A JUMPI PUSH1 0x40 MLOAD SWAP2 POP PUSH1 0x1F NOT PUSH1 0x3F RETURNDATASIZE ADD AND DUP3 ADD PUSH1 0x40 MSTORE RETURNDATASIZE DUP3 MSTORE RETURNDATASIZE PUSH1 0x0 PUSH1 0x20 DUP5 ADD RETURNDATACOPY PUSH2 0x29F JUMP JUMPDEST PUSH1 0x60 SWAP2 POP JUMPDEST POP POP SWAP1 POP DUP1 PUSH2 0x2E3 JUMPI PUSH1 0x40 MLOAD PUSH32 0x8C379A000000000000000000000000000000000000000000000000000000000 DUP2 MSTORE PUSH1 0x4 ADD PUSH2 0x2DA SWAP1 PUSH2 0x545 JUMP JUMPDEST PUSH1 0x40 MLOAD DUP1 SWAP2 SUB SWAP1 REVERT JUMPDEST POP POP POP POP JUMP JUMPDEST PUSH1 0x0 PUSH2 0x2FC PUSH2 0x2F7 DUP5 PUSH2 0x58A JUMP JUMPDEST PUSH2 0x565 JUMP JUMPDEST SWAP1 POP DUP3 DUP2 MSTORE PUSH1 0x20 DUP2 ADD DUP5 DUP5 DUP5 ADD GT ISZERO PUSH2 0x318 JUMPI PUSH2 0x317 PUSH2 0x6D0 JUMP JUMPDEST JUMPDEST PUSH2 0x323 DUP5 DUP3 DUP6 PUSH2 0x629 JUMP JUMPDEST POP SWAP4 SWAP3 POP POP POP JUMP JUMPDEST PUSH1 0x0 DUP2 CALLDATALOAD SWAP1 POP PUSH2 0x33A DUP2 PUSH2 0x768 JUMP JUMPDEST SWAP3 SWAP2 POP POP JUMP JUMPDEST PUSH1 0x0 DUP3 PUSH1 0x1F DUP4 ADD SLT PUSH2 0x355 JUMPI PUSH2 0x354 PUSH2 0x6CB JUMP JUMPDEST JUMPDEST DUP2 CALLDATALOAD PUSH2 0x365 DUP5 DUP3 PUSH1 0x20 DUP7 ADD PUSH2 0x2E9 JUMP JUMPDEST SWAP2 POP POP SWAP3 SWAP2 POP POP JUMP JUMPDEST PUSH1 0x0 DUP2 CALLDATALOAD SWAP1 POP PUSH2 0x37D DUP2 PUSH2 0x77F JUMP JUMPDEST SWAP3 SWAP2 POP POP JUMP JUMPDEST PUSH1 0x0 PUSH1 0x20 DUP3 DUP5 SUB SLT ISZERO PUSH2 0x399 JUMPI PUSH2 0x398 PUSH2 0x6DA JUMP JUMPDEST JUMPDEST PUSH1 0x0 PUSH2 0x3A7 DUP5 DUP3 DUP6 ADD PUSH2 0x32B JUMP JUMPDEST SWAP2 POP POP SWAP3 SWAP2 POP POP JUMP JUMPDEST PUSH1 0x0 DUP1 PUSH1 0x0 PUSH1 0x60 DUP5 DUP7 SUB SLT ISZERO PUSH2 0x3C9 JUMPI PUSH2 0x3C8 PUSH2 0x6DA JUMP JUMPDEST JUMPDEST PUSH1 0x0 PUSH2 0x3D7 DUP7 DUP3 DUP8 ADD PUSH2 0x32B JUMP JUMPDEST SWAP4 POP POP PUSH1 0x20 DUP5 ADD CALLDATALOAD PUSH8 0xFFFFFFFFFFFFFFFF DUP2 GT ISZERO PUSH2 0x3F8 JUMPI PUSH2 0x3F7 PUSH2 0x6D5 JUMP JUMPDEST JUMPDEST PUSH2 0x404 DUP7 DUP3 DUP8 ADD PUSH2 0x340 JUMP JUMPDEST SWAP3 POP POP PUSH1 0x40 PUSH2 0x415 DUP7 DUP3 DUP8 ADD PUSH2 0x36E JUMP JUMPDEST SWAP2 POP POP SWAP3 POP SWAP3 POP SWAP3 JUMP JUMPDEST PUSH1 0x0 PUSH2 0x42A DUP3 PUSH2 0x5BB JUMP JUMPDEST PUSH2 0x434 DUP2 DUP6 PUSH2 0x5D1 JUMP JUMPDEST SWAP4 POP PUSH2 0x444 DUP2 DUP6 PUSH1 0x20 DUP7 ADD PUSH2 0x638 JUMP JUMPDEST DUP1 DUP5 ADD SWAP2 POP POP SWAP3 SWAP2 POP POP JUMP JUMPDEST PUSH1 0x0 PUSH2 0x45B DUP3 PUSH2 0x5C6 JUMP JUMPDEST PUSH2 0x465 DUP2 DUP6 PUSH2 0x5DC JUMP JUMPDEST SWAP4 POP PUSH2 0x475 DUP2 DUP6 PUSH1 0x20 DUP7 ADD PUSH2 0x638 JUMP JUMPDEST PUSH2 0x47E DUP2 PUSH2 0x6DF JUMP JUMPDEST DUP5 ADD SWAP2 POP POP SWAP3 SWAP2 POP POP JUMP JUMPDEST PUSH1 0x0 PUSH2 0x496 PUSH1 0x29 DUP4 PUSH2 0x5DC JUMP JUMPDEST SWAP2 POP PUSH2 0x4A1 DUP3 PUSH2 0x6F0 JUMP JUMPDEST PUSH1 0x40 DUP3 ADD SWAP1 POP SWAP2 SWAP1 POP JUMP JUMPDEST PUSH1 0x0 PUSH2 0x4B9 PUSH1 0x12 DUP4 PUSH2 0x5DC JUMP JUMPDEST SWAP2 POP PUSH2 0x4C4 DUP3 PUSH2 0x73F JUMP JUMPDEST PUSH1 0x20 DUP3 ADD SWAP1 POP SWAP2 SWAP1 POP JUMP JUMPDEST PUSH2 0x4D8 DUP2 PUSH2 0x61F JUMP JUMPDEST DUP3 MSTORE POP POP JUMP JUMPDEST PUSH1 0x0 PUSH2 0x4EA DUP3 DUP5 PUSH2 0x41F JUMP JUMPDEST SWAP2 POP DUP2 SWAP1 POP SWAP3 SWAP2 POP POP JUMP JUMPDEST PUSH1 0x0 PUSH1 0x40 DUP3 ADD SWAP1 POP DUP2 DUP2 SUB PUSH1 0x0 DUP4 ADD MSTORE PUSH2 0x50F DUP2 DUP6 PUSH2 0x450 JUMP JUMPDEST SWAP1 POP PUSH2 0x51E PUSH1 0x20 DUP4 ADD DUP5 PUSH2 0x4CF JUMP JUMPDEST SWAP4 SWAP3 POP POP POP JUMP JUMPDEST PUSH1 0x0 PUSH1 0x20 DUP3 ADD SWAP1 POP DUP2 DUP2 SUB PUSH1 0x0 DUP4 ADD MSTORE PUSH2 0x53E DUP2 PUSH2 0x489 JUMP JUMPDEST SWAP1 POP SWAP2 SWAP1 POP JUMP JUMPDEST PUSH1 0x0 PUSH1 0x20 DUP3 ADD SWAP1 POP DUP2 DUP2 SUB PUSH1 0x0 DUP4 ADD MSTORE PUSH2 0x55E DUP2 PUSH2 0x4AC JUMP JUMPDEST SWAP1 POP SWAP2 SWAP1 POP JUMP JUMPDEST PUSH1 0x0 PUSH2 0x56F PUSH2 0x580 JUMP JUMPDEST SWAP1 POP PUSH2 0x57B DUP3 DUP3 PUSH2 0x66B JUMP JUMPDEST SWAP2 SWAP1 POP JUMP JUMPDEST PUSH1 0x0 PUSH1 0x40 MLOAD SWAP1 POP SWAP1 JUMP JUMPDEST PUSH1 0x0 PUSH8 0xFFFFFFFFFFFFFFFF DUP3 GT ISZERO PUSH2 0x5A5 JUMPI PUSH2 0x5A4 PUSH2 0x69C JUMP JUMPDEST JUMPDEST PUSH2 0x5AE DUP3 PUSH2 0x6DF JUMP JUMPDEST SWAP1 POP PUSH1 0x20 DUP2 ADD SWAP1 POP SWAP2 SWAP1 POP JUMP JUMPDEST PUSH1 0x0 DUP2 MLOAD SWAP1 POP SWAP2 SWAP1 POP JUMP JUMPDEST PUSH1 0x0 DUP2 MLOAD SWAP1 POP SWAP2 SWAP1 POP JUMP JUMPDEST PUSH1 0x0 DUP2 SWAP1 POP SWAP3 SWAP2 POP POP JUMP JUMPDEST PUSH1 0x0 DUP3 DUP3 MSTORE PUSH1 0x20 DUP3 ADD SWAP1 POP SWAP3 SWAP2 POP POP JUMP JUMPDEST PUSH1 0x0 PUSH2 0x5F8 DUP3 PUSH2 0x5FF JUMP JUMPDEST SWAP1 POP SWAP2 SWAP1 POP JUMP JUMPDEST PUSH1 0x0 PUSH20 0xFFFFFFFFFFFFFFFFFFFFFFFFFFFFFFFFFFFFFFFF DUP3 AND SWAP1 POP SWAP2 SWAP1 POP JUMP JUMPDEST PUSH1 0x0 DUP2 SWAP1 POP SWAP2 SWAP1 POP JUMP JUMPDEST DUP3 DUP2 DUP4 CALLDATACOPY PUSH1 0x0 DUP4 DUP4 ADD MSTORE POP POP POP JUMP JUMPDEST PUSH1 0x0 JUMPDEST DUP4 DUP2 LT ISZERO PUSH2 0x656 JUMPI DUP1 DUP3 ADD MLOAD DUP2 DUP5 ADD MSTORE PUSH1 0x20 DUP2 ADD SWAP1 POP PUSH2 0x63B JUMP JUMPDEST DUP4 DUP2 GT ISZERO PUSH2 0x665 JUMPI PUSH1 0x0 DUP5 DUP5 ADD MSTORE JUMPDEST POP POP POP POP JUMP JUMPDEST PUSH2 0x674 DUP3 PUSH2 0x6DF JUMP JUMPDEST DUP2 ADD DUP2 DUP2 LT PUSH8 0xFFFFFFFFFFFFFFFF DUP3 GT OR ISZERO PUSH2 0x693 JUMPI PUSH2 0x692 PUSH2 0x69C JUMP JUMPDEST JUMPDEST DUP1 PUSH1 0x40 MSTORE POP POP POP JUMP JUMPDEST PUSH32 0x4E487B7100000000000000000000000000000000000000000000000000000000 PUSH1 0x0 MSTORE PUSH1 0x41 PUSH1 0x4 MSTORE PUSH1 0x24 PUSH1 0x0 REVERT JUMPDEST PUSH1 0x0 DUP1 REVERT JUMPDEST PUSH1 0x0 DUP1 REVERT JUMPDEST PUSH1 0x0 DUP1 REVERT JUMPDEST PUSH1 0x0 DUP1 REVERT JUMPDEST PUSH1 0x0 PUSH1 0x1F NOT PUSH1 0x1F DUP4 ADD AND SWAP1 POP SWAP2 SWAP1 POP JUMP JUMPDEST PUSH32 0x43616C6C20746F206E6F6E2D6578697374656E742066756E6374696F6E207368 PUSH1 0x0 DUP3 ADD MSTORE PUSH32 0x6F756C64206661696C0000000000000000000000000000000000000000000000 PUSH1 0x20 DUP3 ADD MSTORE POP JUMP JUMPDEST PUSH32 0x43616C6C20746F20666F6F206661696C65640000000000000000000000000000 PUSH1 0x0 DUP3 ADD MSTORE POP JUMP JUMPDEST PUSH2 0x771 DUP2 PUSH2 0x5ED JUMP JUMPDEST DUP2 EQ PUSH2 0x77C JUMPI PUSH1 0x0 DUP1 REVERT JUMPDEST POP JUMP JUMPDEST PUSH2 0x788 DUP2 PUSH2 0x61F JUMP JUMPDEST DUP2 EQ PUSH2 0x793 JUMPI PUSH1 0x0 DUP1 REVERT JUMPDEST POP JUMP INVALID LOG2 PUSH5 0x6970667358 0x22 SLT KECCAK256 CALL 0x4A 0xA8 PUSH11 0xED0C6BE7AD9F437C506E6A LOG1 0x2D SWAP9 0xDC PUSH10 0xE0CAC85C77E3FA676E7C OR 0x24 PUSH5 0x736F6C6343 STOP ADDMOD SMOD STOP CALLER "
				},
				"gasEstimates": {
					"creation": {
						"codeDepositCost": "399200",
						"executionCost": "436",
						"totalCost": "399636"
					},
					"external": {
						"callFoo(address,string,uint256)": "infinite",
						"callNonExistentFunction(address)": "infinite"
					}
				},
				"methodIdentifiers": {
					"callFoo(address,string,uint256)": "dd5f151e",
					"callNonExistentFunction(address)": "172a57d7"
				}
			},
			"storageLayout": {
				"storage": [],
				"types": null
			},
			"userdoc": {
				"kind": "user",
				"methods": {},
				"version": 1
			}
		}
	}
}