{
	"TestContract.sol": {
		"TestContract": {
			"abi": [
				{
					"anonymous": false,
					"inputs": [
						{
							"indexed": false,
							"internalType": "address",
							"name": "caller",
							"type": "address"
						},
						{
							"indexed": false,
							"internalType": "string",
							"name": "logMessage",
							"type": "string"
						}
					],
					"name": "Log",
					"type": "event"
				},
				{
					"stateMutability": "payable",
					"type": "fallback"
				},
				{
					"inputs": [
						{
							"internalType": "string",
							"name": "_msg",
							"type": "string"
						},
						{
							"internalType": "uint256",
							"name": "_num",
							"type": "uint256"
						}
					],
					"name": "foo",
					"outputs": [],
					"stateMutability": "nonpayable",
					"type": "function"
				},
				{
					"inputs": [],
					"name": "message",
					"outputs": [
						{
							"internalType": "string",
							"name": "",
							"type": "string"
						}
					],
					"stateMutability": "view",
					"type": "function"
				},
				{
					"inputs": [],
					"name": "number",
					"outputs": [
						{
							"internalType": "uint256",
							"name": "",
							"type": "uint256"
						}
					],
					"stateMutability": "view",
					"type": "function"
				},
				{
					"stateMutability": "payable",
					"type": "receive"
				}
			],
			"devdoc": {
				"kind": "dev",
				"methods": {},
				"version": 1
			},
			"evm": {
				"assembly": "    /* \"TestContract.sol\":56:430  contract TestContract{... */\n  mstore(0x40, 0x80)\n  callvalue\n  dup1\n  iszero\n  tag_1\n  jumpi\n  0x00\n  dup1\n  revert\ntag_1:\n  pop\n  dataSize(sub_0)\n  dup1\n  dataOffset(sub_0)\n  0x00\n  codecopy\n  0x00\n  return\nstop\n\nsub_0: assembly {\n        /* \"TestContract.sol\":56:430  contract TestContract{... */\n      mstore(0x40, 0x80)\n      jumpi(tag_1, lt(calldatasize, 0x04))\n      shr(0xe0, calldataload(0x00))\n      dup1\n      0x24ccab8f\n      eq\n      tag_3\n      jumpi\n      dup1\n      0x8381f58a\n      eq\n      tag_4\n      jumpi\n      dup1\n      0xe21f37ce\n      eq\n      tag_5\n      jumpi\n      jump(tag_2)\n    tag_1:\n      jumpi(tag_2, calldatasize)\n      stop\n    tag_2:\n        /* \"TestContract.sol\":346:384  Log(msg.sender, \"Fallback was called\") */\n      0x0738f4da267a110d810e6e89fc59e46be6de0c37b1d5cd559b267dc3688e74e0\n        /* \"TestContract.sol\":350:360  msg.sender */\n      caller\n        /* \"TestContract.sol\":346:384  Log(msg.sender, \"Fallback was called\") */\n      mload(0x40)\n      tag_10\n      swap2\n      swap1\n      tag_11\n      jump\t// in\n    tag_10:\n      mload(0x40)\n      dup1\n      swap2\n      sub\n      swap1\n      log1\n        /* \"TestContract.sol\":56:430  contract TestContract{... */\n      stop\n        /* \"TestContract.sol\":185:296  function foo(string memory _msg, uint256 _num) external {... */\n    tag_3:\n      callvalue\n      dup1\n      iszero\n      tag_12\n      jumpi\n      0x00\n      dup1\n      revert\n    tag_12:\n      pop\n      tag_13\n      0x04\n      dup1\n      calldatasize\n      sub\n      dup2\n      add\n      swap1\n      tag_14\n      swap2\n      swap1\n      tag_15\n      jump\t// in\n    tag_14:\n      tag_16\n      jump\t// in\n    tag_13:\n      stop\n        /* \"TestContract.sol\":110:128  uint public number */\n    tag_4:\n      callvalue\n      dup1\n      iszero\n      tag_17\n      jumpi\n      0x00\n      dup1\n      revert\n    tag_17:\n      pop\n      tag_18\n      tag_19\n      jump\t// in\n    tag_18:\n      mload(0x40)\n      tag_20\n      swap2\n      swap1\n      tag_21\n      jump\t// in\n    tag_20:\n      mload(0x40)\n      dup1\n      swap2\n      sub\n      swap1\n      return\n        /* \"TestContract.sol\":83:104  string public message */\n    tag_5:\n      callvalue\n      dup1\n      iszero\n      tag_22\n      jumpi\n      0x00\n      dup1\n      revert\n    tag_22:\n      pop\n      tag_23\n      tag_24\n      jump\t// in\n    tag_23:\n      mload(0x40)\n      tag_25\n      swap2\n      swap1\n      tag_26\n      jump\t// in\n    tag_25:\n      mload(0x40)\n      dup1\n      swap2\n      sub\n      swap1\n      return\n        /* \"TestContract.sol\":185:296  function foo(string memory _msg, uint256 _num) external {... */\n    tag_16:\n        /* \"TestContract.sol\":261:265  _msg */\n      dup2\n        /* \"TestContract.sol\":251:258  message */\n      0x00\n        /* \"TestContract.sol\":251:265  message = _msg */\n      swap1\n      dup1\n      mload\n      swap1\n      0x20\n      add\n      swap1\n      tag_28\n      swap3\n      swap2\n      swap1\n      tag_29\n      jump\t// in\n    tag_28:\n      pop\n        /* \"TestContract.sol\":284:288  _num */\n      dup1\n        /* \"TestContract.sol\":275:281  number */\n      0x01\n        /* \"TestContract.sol\":275:288  number = _num */\n      dup2\n      swap1\n      sstore\n      pop\n        /* \"TestContract.sol\":185:296  function foo(string memory _msg, uint256 _num) external {... */\n      pop\n      pop\n      jump\t// out\n        /* \"TestContract.sol\":110:128  uint public number */\n    tag_19:\n      sload(0x01)\n      dup2\n      jump\t// out\n        /* \"TestContract.sol\":83:104  string public message */\n    tag_24:\n      0x00\n      dup1\n      sload\n      tag_30\n      swap1\n      tag_31\n      jump\t// in\n    tag_30:\n      dup1\n      0x1f\n      add\n      0x20\n      dup1\n      swap2\n      div\n      mul\n      0x20\n      add\n      mload(0x40)\n      swap1\n      dup2\n      add\n      0x40\n      mstore\n      dup1\n      swap3\n      swap2\n      swap1\n      dup2\n      dup2\n      mstore\n      0x20\n      add\n      dup3\n      dup1\n      sload\n      tag_32\n      swap1\n      tag_31\n      jump\t// in\n    tag_32:\n      dup1\n      iszero\n      tag_33\n      jumpi\n      dup1\n      0x1f\n      lt\n      tag_34\n      jumpi\n      0x0100\n      dup1\n      dup4\n      sload\n      div\n      mul\n      dup4\n      mstore\n      swap2\n      0x20\n      add\n      swap2\n      jump(tag_33)\n    tag_34:\n      dup3\n      add\n      swap2\n      swap1\n      0x00\n      mstore\n      keccak256(0x00, 0x20)\n      swap1\n    tag_35:\n      dup2\n      sload\n      dup2\n      mstore\n      swap1\n      0x01\n      add\n      swap1\n      0x20\n      add\n      dup1\n      dup4\n      gt\n      tag_35\n      jumpi\n      dup3\n      swap1\n      sub\n      0x1f\n      and\n      dup3\n      add\n      swap2\n    tag_33:\n      pop\n      pop\n      pop\n      pop\n      pop\n      dup2\n      jump\t// out\n    tag_29:\n      dup3\n      dup1\n      sload\n      tag_36\n      swap1\n      tag_31\n      jump\t// in\n    tag_36:\n      swap1\n      0x00\n      mstore\n      keccak256(0x00, 0x20)\n      swap1\n      0x1f\n      add\n      0x20\n      swap1\n      div\n      dup2\n      add\n      swap3\n      dup3\n      tag_38\n      jumpi\n      0x00\n      dup6\n      sstore\n      jump(tag_37)\n    tag_38:\n      dup3\n      0x1f\n      lt\n      tag_39\n      jumpi\n      dup1\n      mload\n      not(0xff)\n      and\n      dup4\n      dup1\n      add\n      or\n      dup6\n      sstore\n      jump(tag_37)\n    tag_39:\n      dup3\n      dup1\n      add\n      0x01\n      add\n      dup6\n      sstore\n      dup3\n      iszero\n      tag_37\n      jumpi\n      swap2\n      dup3\n      add\n    tag_40:\n      dup3\n      dup2\n      gt\n      iszero\n      tag_41\n      jumpi\n      dup3\n      mload\n      dup3\n      sstore\n      swap2\n      0x20\n      add\n      swap2\n      swap1\n      0x01\n      add\n      swap1\n      jump(tag_40)\n    tag_41:\n    tag_37:\n      pop\n      swap1\n      pop\n      tag_42\n      swap2\n      swap1\n      tag_43\n      jump\t// in\n    tag_42:\n      pop\n      swap1\n      jump\t// out\n    tag_43:\n    tag_44:\n      dup1\n      dup3\n      gt\n      iszero\n      tag_45\n      jumpi\n      0x00\n      dup2\n      0x00\n      swap1\n      sstore\n      pop\n      0x01\n      add\n      jump(tag_44)\n    tag_45:\n      pop\n      swap1\n      jump\t// out\n        /* \"#utility.yul\":7:419   */\n    tag_47:\n        /* \"#utility.yul\":85:90   */\n      0x00\n        /* \"#utility.yul\":110:176   */\n      tag_49\n        /* \"#utility.yul\":126:175   */\n      tag_50\n        /* \"#utility.yul\":168:174   */\n      dup5\n        /* \"#utility.yul\":126:175   */\n      tag_51\n      jump\t// in\n    tag_50:\n        /* \"#utility.yul\":110:176   */\n      tag_52\n      jump\t// in\n    tag_49:\n        /* \"#utility.yul\":101:176   */\n      swap1\n      pop\n        /* \"#utility.yul\":199:205   */\n      dup3\n        /* \"#utility.yul\":192:197   */\n      dup2\n        /* \"#utility.yul\":185:206   */\n      mstore\n        /* \"#utility.yul\":237:241   */\n      0x20\n        /* \"#utility.yul\":230:235   */\n      dup2\n        /* \"#utility.yul\":226:242   */\n      add\n        /* \"#utility.yul\":275:278   */\n      dup5\n        /* \"#utility.yul\":266:272   */\n      dup5\n        /* \"#utility.yul\":261:264   */\n      dup5\n        /* \"#utility.yul\":257:273   */\n      add\n        /* \"#utility.yul\":254:279   */\n      gt\n        /* \"#utility.yul\":251:363   */\n      iszero\n      tag_53\n      jumpi\n        /* \"#utility.yul\":282:361   */\n      tag_54\n      tag_55\n      jump\t// in\n    tag_54:\n        /* \"#utility.yul\":251:363   */\n    tag_53:\n        /* \"#utility.yul\":372:413   */\n      tag_56\n        /* \"#utility.yul\":406:412   */\n      dup5\n        /* \"#utility.yul\":401:404   */\n      dup3\n        /* \"#utility.yul\":396:399   */\n      dup6\n        /* \"#utility.yul\":372:413   */\n      tag_57\n      jump\t// in\n    tag_56:\n        /* \"#utility.yul\":91:419   */\n      pop\n        /* \"#utility.yul\":7:419   */\n      swap4\n      swap3\n      pop\n      pop\n      pop\n      jump\t// out\n        /* \"#utility.yul\":439:779   */\n    tag_58:\n        /* \"#utility.yul\":495:500   */\n      0x00\n        /* \"#utility.yul\":544:547   */\n      dup3\n        /* \"#utility.yul\":537:541   */\n      0x1f\n        /* \"#utility.yul\":529:535   */\n      dup4\n        /* \"#utility.yul\":525:542   */\n      add\n        /* \"#utility.yul\":521:548   */\n      slt\n        /* \"#utility.yul\":511:633   */\n      tag_60\n      jumpi\n        /* \"#utility.yul\":552:631   */\n      tag_61\n      tag_62\n      jump\t// in\n    tag_61:\n        /* \"#utility.yul\":511:633   */\n    tag_60:\n        /* \"#utility.yul\":669:675   */\n      dup2\n        /* \"#utility.yul\":656:676   */\n      calldataload\n        /* \"#utility.yul\":694:773   */\n      tag_63\n        /* \"#utility.yul\":769:772   */\n      dup5\n        /* \"#utility.yul\":761:767   */\n      dup3\n        /* \"#utility.yul\":754:758   */\n      0x20\n        /* \"#utility.yul\":746:752   */\n      dup7\n        /* \"#utility.yul\":742:759   */\n      add\n        /* \"#utility.yul\":694:773   */\n      tag_47\n      jump\t// in\n    tag_63:\n        /* \"#utility.yul\":685:773   */\n      swap2\n      pop\n        /* \"#utility.yul\":501:779   */\n      pop\n        /* \"#utility.yul\":439:779   */\n      swap3\n      swap2\n      pop\n      pop\n      jump\t// out\n        /* \"#utility.yul\":785:924   */\n    tag_64:\n        /* \"#utility.yul\":831:836   */\n      0x00\n        /* \"#utility.yul\":869:875   */\n      dup2\n        /* \"#utility.yul\":856:876   */\n      calldataload\n        /* \"#utility.yul\":847:876   */\n      swap1\n      pop\n        /* \"#utility.yul\":885:918   */\n      tag_66\n        /* \"#utility.yul\":912:917   */\n      dup2\n        /* \"#utility.yul\":885:918   */\n      tag_67\n      jump\t// in\n    tag_66:\n        /* \"#utility.yul\":785:924   */\n      swap3\n      swap2\n      pop\n      pop\n      jump\t// out\n        /* \"#utility.yul\":930:1584   */\n    tag_15:\n        /* \"#utility.yul\":1008:1014   */\n      0x00\n        /* \"#utility.yul\":1016:1022   */\n      dup1\n        /* \"#utility.yul\":1065:1067   */\n      0x40\n        /* \"#utility.yul\":1053:1062   */\n      dup4\n        /* \"#utility.yul\":1044:1051   */\n      dup6\n        /* \"#utility.yul\":1040:1063   */\n      sub\n        /* \"#utility.yul\":1036:1068   */\n      slt\n        /* \"#utility.yul\":1033:1152   */\n      iszero\n      tag_69\n      jumpi\n        /* \"#utility.yul\":1071:1150   */\n      tag_70\n      tag_71\n      jump\t// in\n    tag_70:\n        /* \"#utility.yul\":1033:1152   */\n    tag_69:\n        /* \"#utility.yul\":1219:1220   */\n      0x00\n        /* \"#utility.yul\":1208:1217   */\n      dup4\n        /* \"#utility.yul\":1204:1221   */\n      add\n        /* \"#utility.yul\":1191:1222   */\n      calldataload\n        /* \"#utility.yul\":1249:1267   */\n      0xffffffffffffffff\n        /* \"#utility.yul\":1241:1247   */\n      dup2\n        /* \"#utility.yul\":1238:1268   */\n      gt\n        /* \"#utility.yul\":1235:1352   */\n      iszero\n      tag_72\n      jumpi\n        /* \"#utility.yul\":1271:1350   */\n      tag_73\n      tag_74\n      jump\t// in\n    tag_73:\n        /* \"#utility.yul\":1235:1352   */\n    tag_72:\n        /* \"#utility.yul\":1376:1439   */\n      tag_75\n        /* \"#utility.yul\":1431:1438   */\n      dup6\n        /* \"#utility.yul\":1422:1428   */\n      dup3\n        /* \"#utility.yul\":1411:1420   */\n      dup7\n        /* \"#utility.yul\":1407:1429   */\n      add\n        /* \"#utility.yul\":1376:1439   */\n      tag_58\n      jump\t// in\n    tag_75:\n        /* \"#utility.yul\":1366:1439   */\n      swap3\n      pop\n        /* \"#utility.yul\":1162:1449   */\n      pop\n        /* \"#utility.yul\":1488:1490   */\n      0x20\n        /* \"#utility.yul\":1514:1567   */\n      tag_76\n        /* \"#utility.yul\":1559:1566   */\n      dup6\n        /* \"#utility.yul\":1550:1556   */\n      dup3\n        /* \"#utility.yul\":1539:1548   */\n      dup7\n        /* \"#utility.yul\":1535:1557   */\n      add\n        /* \"#utility.yul\":1514:1567   */\n      tag_64\n      jump\t// in\n    tag_76:\n        /* \"#utility.yul\":1504:1567   */\n      swap2\n      pop\n        /* \"#utility.yul\":1459:1577   */\n      pop\n        /* \"#utility.yul\":930:1584   */\n      swap3\n      pop\n      swap3\n      swap1\n      pop\n      jump\t// out\n        /* \"#utility.yul\":1590:1708   */\n    tag_77:\n        /* \"#utility.yul\":1677:1701   */\n      tag_79\n        /* \"#utility.yul\":1695:1700   */\n      dup2\n        /* \"#utility.yul\":1677:1701   */\n      tag_80\n      jump\t// in\n    tag_79:\n        /* \"#utility.yul\":1672:1675   */\n      dup3\n        /* \"#utility.yul\":1665:1702   */\n      mstore\n        /* \"#utility.yul\":1590:1708   */\n      pop\n      pop\n      jump\t// out\n        /* \"#utility.yul\":1714:2078   */\n    tag_81:\n        /* \"#utility.yul\":1802:1805   */\n      0x00\n        /* \"#utility.yul\":1830:1869   */\n      tag_83\n        /* \"#utility.yul\":1863:1868   */\n      dup3\n        /* \"#utility.yul\":1830:1869   */\n      tag_84\n      jump\t// in\n    tag_83:\n        /* \"#utility.yul\":1885:1956   */\n      tag_85\n        /* \"#utility.yul\":1949:1955   */\n      dup2\n        /* \"#utility.yul\":1944:1947   */\n      dup6\n        /* \"#utility.yul\":1885:1956   */\n      tag_86\n      jump\t// in\n    tag_85:\n        /* \"#utility.yul\":1878:1956   */\n      swap4\n      pop\n        /* \"#utility.yul\":1965:2017   */\n      tag_87\n        /* \"#utility.yul\":2010:2016   */\n      dup2\n        /* \"#utility.yul\":2005:2008   */\n      dup6\n        /* \"#utility.yul\":1998:2002   */\n      0x20\n        /* \"#utility.yul\":1991:1996   */\n      dup7\n        /* \"#utility.yul\":1987:2003   */\n      add\n        /* \"#utility.yul\":1965:2017   */\n      tag_88\n      jump\t// in\n    tag_87:\n        /* \"#utility.yul\":2042:2071   */\n      tag_89\n        /* \"#utility.yul\":2064:2070   */\n      dup2\n        /* \"#utility.yul\":2042:2071   */\n      tag_90\n      jump\t// in\n    tag_89:\n        /* \"#utility.yul\":2037:2040   */\n      dup5\n        /* \"#utility.yul\":2033:2072   */\n      add\n        /* \"#utility.yul\":2026:2072   */\n      swap2\n      pop\n        /* \"#utility.yul\":1806:2078   */\n      pop\n        /* \"#utility.yul\":1714:2078   */\n      swap3\n      swap2\n      pop\n      pop\n      jump\t// out\n        /* \"#utility.yul\":2084:2450   */\n    tag_91:\n        /* \"#utility.yul\":2226:2229   */\n      0x00\n        /* \"#utility.yul\":2247:2314   */\n      tag_93\n        /* \"#utility.yul\":2311:2313   */\n      0x13\n        /* \"#utility.yul\":2306:2309   */\n      dup4\n        /* \"#utility.yul\":2247:2314   */\n      tag_86\n      jump\t// in\n    tag_93:\n        /* \"#utility.yul\":2240:2314   */\n      swap2\n      pop\n        /* \"#utility.yul\":2323:2416   */\n      tag_94\n        /* \"#utility.yul\":2412:2415   */\n      dup3\n        /* \"#utility.yul\":2323:2416   */\n      tag_95\n      jump\t// in\n    tag_94:\n        /* \"#utility.yul\":2441:2443   */\n      0x20\n        /* \"#utility.yul\":2436:2439   */\n      dup3\n        /* \"#utility.yul\":2432:2444   */\n      add\n        /* \"#utility.yul\":2425:2444   */\n      swap1\n      pop\n        /* \"#utility.yul\":2084:2450   */\n      swap2\n      swap1\n      pop\n      jump\t// out\n        /* \"#utility.yul\":2456:2574   */\n    tag_96:\n        /* \"#utility.yul\":2543:2567   */\n      tag_98\n        /* \"#utility.yul\":2561:2566   */\n      dup2\n        /* \"#utility.yul\":2543:2567   */\n      tag_99\n      jump\t// in\n    tag_98:\n        /* \"#utility.yul\":2538:2541   */\n      dup3\n        /* \"#utility.yul\":2531:2568   */\n      mstore\n        /* \"#utility.yul\":2456:2574   */\n      pop\n      pop\n      jump\t// out\n        /* \"#utility.yul\":2580:3109   */\n    tag_11:\n        /* \"#utility.yul\":2774:2778   */\n      0x00\n        /* \"#utility.yul\":2812:2814   */\n      0x40\n        /* \"#utility.yul\":2801:2810   */\n      dup3\n        /* \"#utility.yul\":2797:2815   */\n      add\n        /* \"#utility.yul\":2789:2815   */\n      swap1\n      pop\n        /* \"#utility.yul\":2825:2896   */\n      tag_101\n        /* \"#utility.yul\":2893:2894   */\n      0x00\n        /* \"#utility.yul\":2882:2891   */\n      dup4\n        /* \"#utility.yul\":2878:2895   */\n      add\n        /* \"#utility.yul\":2869:2875   */\n      dup5\n        /* \"#utility.yul\":2825:2896   */\n      tag_77\n      jump\t// in\n    tag_101:\n        /* \"#utility.yul\":2943:2952   */\n      dup2\n        /* \"#utility.yul\":2937:2941   */\n      dup2\n        /* \"#utility.yul\":2933:2953   */\n      sub\n        /* \"#utility.yul\":2928:2930   */\n      0x20\n        /* \"#utility.yul\":2917:2926   */\n      dup4\n        /* \"#utility.yul\":2913:2931   */\n      add\n        /* \"#utility.yul\":2906:2954   */\n      mstore\n        /* \"#utility.yul\":2971:3102   */\n      tag_102\n        /* \"#utility.yul\":3097:3101   */\n      dup2\n        /* \"#utility.yul\":2971:3102   */\n      tag_91\n      jump\t// in\n    tag_102:\n        /* \"#utility.yul\":2963:3102   */\n      swap1\n      pop\n        /* \"#utility.yul\":2580:3109   */\n      swap3\n      swap2\n      pop\n      pop\n      jump\t// out\n        /* \"#utility.yul\":3115:3428   */\n    tag_26:\n        /* \"#utility.yul\":3228:3232   */\n      0x00\n        /* \"#utility.yul\":3266:3268   */\n      0x20\n        /* \"#utility.yul\":3255:3264   */\n      dup3\n        /* \"#utility.yul\":3251:3269   */\n      add\n        /* \"#utility.yul\":3243:3269   */\n      swap1\n      pop\n        /* \"#utility.yul\":3315:3324   */\n      dup2\n        /* \"#utility.yul\":3309:3313   */\n      dup2\n        /* \"#utility.yul\":3305:3325   */\n      sub\n        /* \"#utility.yul\":3301:3302   */\n      0x00\n        /* \"#utility.yul\":3290:3299   */\n      dup4\n        /* \"#utility.yul\":3286:3303   */\n      add\n        /* \"#utility.yul\":3279:3326   */\n      mstore\n        /* \"#utility.yul\":3343:3421   */\n      tag_104\n        /* \"#utility.yul\":3416:3420   */\n      dup2\n        /* \"#utility.yul\":3407:3413   */\n      dup5\n        /* \"#utility.yul\":3343:3421   */\n      tag_81\n      jump\t// in\n    tag_104:\n        /* \"#utility.yul\":3335:3421   */\n      swap1\n      pop\n        /* \"#utility.yul\":3115:3428   */\n      swap3\n      swap2\n      pop\n      pop\n      jump\t// out\n        /* \"#utility.yul\":3434:3656   */\n    tag_21:\n        /* \"#utility.yul\":3527:3531   */\n      0x00\n        /* \"#utility.yul\":3565:3567   */\n      0x20\n        /* \"#utility.yul\":3554:3563   */\n      dup3\n        /* \"#utility.yul\":3550:3568   */\n      add\n        /* \"#utility.yul\":3542:3568   */\n      swap1\n      pop\n        /* \"#utility.yul\":3578:3649   */\n      tag_106\n        /* \"#utility.yul\":3646:3647   */\n      0x00\n        /* \"#utility.yul\":3635:3644   */\n      dup4\n        /* \"#utility.yul\":3631:3648   */\n      add\n        /* \"#utility.yul\":3622:3628   */\n      dup5\n        /* \"#utility.yul\":3578:3649   */\n      tag_96\n      jump\t// in\n    tag_106:\n        /* \"#utility.yul\":3434:3656   */\n      swap3\n      swap2\n      pop\n      pop\n      jump\t// out\n        /* \"#utility.yul\":3662:3791   */\n    tag_52:\n        /* \"#utility.yul\":3696:3702   */\n      0x00\n        /* \"#utility.yul\":3723:3743   */\n      tag_108\n      tag_109\n      jump\t// in\n    tag_108:\n        /* \"#utility.yul\":3713:3743   */\n      swap1\n      pop\n        /* \"#utility.yul\":3752:3785   */\n      tag_110\n        /* \"#utility.yul\":3780:3784   */\n      dup3\n        /* \"#utility.yul\":3772:3778   */\n      dup3\n        /* \"#utility.yul\":3752:3785   */\n      tag_111\n      jump\t// in\n    tag_110:\n        /* \"#utility.yul\":3662:3791   */\n      swap2\n      swap1\n      pop\n      jump\t// out\n        /* \"#utility.yul\":3797:3872   */\n    tag_109:\n        /* \"#utility.yul\":3830:3836   */\n      0x00\n        /* \"#utility.yul\":3863:3865   */\n      0x40\n        /* \"#utility.yul\":3857:3866   */\n      mload\n        /* \"#utility.yul\":3847:3866   */\n      swap1\n      pop\n        /* \"#utility.yul\":3797:3872   */\n      swap1\n      jump\t// out\n        /* \"#utility.yul\":3878:4186   */\n    tag_51:\n        /* \"#utility.yul\":3940:3944   */\n      0x00\n        /* \"#utility.yul\":4030:4048   */\n      0xffffffffffffffff\n        /* \"#utility.yul\":4022:4028   */\n      dup3\n        /* \"#utility.yul\":4019:4049   */\n      gt\n        /* \"#utility.yul\":4016:4072   */\n      iszero\n      tag_114\n      jumpi\n        /* \"#utility.yul\":4052:4070   */\n      tag_115\n      tag_116\n      jump\t// in\n    tag_115:\n        /* \"#utility.yul\":4016:4072   */\n    tag_114:\n        /* \"#utility.yul\":4090:4119   */\n      tag_117\n        /* \"#utility.yul\":4112:4118   */\n      dup3\n        /* \"#utility.yul\":4090:4119   */\n      tag_90\n      jump\t// in\n    tag_117:\n        /* \"#utility.yul\":4082:4119   */\n      swap1\n      pop\n        /* \"#utility.yul\":4174:4178   */\n      0x20\n        /* \"#utility.yul\":4168:4172   */\n      dup2\n        /* \"#utility.yul\":4164:4179   */\n      add\n        /* \"#utility.yul\":4156:4179   */\n      swap1\n      pop\n        /* \"#utility.yul\":3878:4186   */\n      swap2\n      swap1\n      pop\n      jump\t// out\n        /* \"#utility.yul\":4192:4291   */\n    tag_84:\n        /* \"#utility.yul\":4244:4250   */\n      0x00\n        /* \"#utility.yul\":4278:4283   */\n      dup2\n        /* \"#utility.yul\":4272:4284   */\n      mload\n        /* \"#utility.yul\":4262:4284   */\n      swap1\n      pop\n        /* \"#utility.yul\":4192:4291   */\n      swap2\n      swap1\n      pop\n      jump\t// out\n        /* \"#utility.yul\":4297:4466   */\n    tag_86:\n        /* \"#utility.yul\":4381:4392   */\n      0x00\n        /* \"#utility.yul\":4415:4421   */\n      dup3\n        /* \"#utility.yul\":4410:4413   */\n      dup3\n        /* \"#utility.yul\":4403:4422   */\n      mstore\n        /* \"#utility.yul\":4455:4459   */\n      0x20\n        /* \"#utility.yul\":4450:4453   */\n      dup3\n        /* \"#utility.yul\":4446:4460   */\n      add\n        /* \"#utility.yul\":4431:4460   */\n      swap1\n      pop\n        /* \"#utility.yul\":4297:4466   */\n      swap3\n      swap2\n      pop\n      pop\n      jump\t// out\n        /* \"#utility.yul\":4472:4568   */\n    tag_80:\n        /* \"#utility.yul\":4509:4516   */\n      0x00\n        /* \"#utility.yul\":4538:4562   */\n      tag_121\n        /* \"#utility.yul\":4556:4561   */\n      dup3\n        /* \"#utility.yul\":4538:4562   */\n      tag_122\n      jump\t// in\n    tag_121:\n        /* \"#utility.yul\":4527:4562   */\n      swap1\n      pop\n        /* \"#utility.yul\":4472:4568   */\n      swap2\n      swap1\n      pop\n      jump\t// out\n        /* \"#utility.yul\":4574:4700   */\n    tag_122:\n        /* \"#utility.yul\":4611:4618   */\n      0x00\n        /* \"#utility.yul\":4651:4693   */\n      0xffffffffffffffffffffffffffffffffffffffff\n        /* \"#utility.yul\":4644:4649   */\n      dup3\n        /* \"#utility.yul\":4640:4694   */\n      and\n        /* \"#utility.yul\":4629:4694   */\n      swap1\n      pop\n        /* \"#utility.yul\":4574:4700   */\n      swap2\n      swap1\n      pop\n      jump\t// out\n        /* \"#utility.yul\":4706:4783   */\n    tag_99:\n        /* \"#utility.yul\":4743:4750   */\n      0x00\n        /* \"#utility.yul\":4772:4777   */\n      dup2\n        /* \"#utility.yul\":4761:4777   */\n      swap1\n      pop\n        /* \"#utility.yul\":4706:4783   */\n      swap2\n      swap1\n      pop\n      jump\t// out\n        /* \"#utility.yul\":4789:4943   */\n    tag_57:\n        /* \"#utility.yul\":4873:4879   */\n      dup3\n        /* \"#utility.yul\":4868:4871   */\n      dup2\n        /* \"#utility.yul\":4863:4866   */\n      dup4\n        /* \"#utility.yul\":4850:4880   */\n      calldatacopy\n        /* \"#utility.yul\":4935:4936   */\n      0x00\n        /* \"#utility.yul\":4926:4932   */\n      dup4\n        /* \"#utility.yul\":4921:4924   */\n      dup4\n        /* \"#utility.yul\":4917:4933   */\n      add\n        /* \"#utility.yul\":4910:4937   */\n      mstore\n        /* \"#utility.yul\":4789:4943   */\n      pop\n      pop\n      pop\n      jump\t// out\n        /* \"#utility.yul\":4949:5256   */\n    tag_88:\n        /* \"#utility.yul\":5017:5018   */\n      0x00\n        /* \"#utility.yul\":5027:5140   */\n    tag_127:\n        /* \"#utility.yul\":5041:5047   */\n      dup4\n        /* \"#utility.yul\":5038:5039   */\n      dup2\n        /* \"#utility.yul\":5035:5048   */\n      lt\n        /* \"#utility.yul\":5027:5140   */\n      iszero\n      tag_129\n      jumpi\n        /* \"#utility.yul\":5126:5127   */\n      dup1\n        /* \"#utility.yul\":5121:5124   */\n      dup3\n        /* \"#utility.yul\":5117:5128   */\n      add\n        /* \"#utility.yul\":5111:5129   */\n      mload\n        /* \"#utility.yul\":5107:5108   */\n      dup2\n        /* \"#utility.yul\":5102:5105   */\n      dup5\n        /* \"#utility.yul\":5098:5109   */\n      add\n        /* \"#utility.yul\":5091:5130   */\n      mstore\n        /* \"#utility.yul\":5063:5065   */\n      0x20\n        /* \"#utility.yul\":5060:5061   */\n      dup2\n        /* \"#utility.yul\":5056:5066   */\n      add\n        /* \"#utility.yul\":5051:5066   */\n      swap1\n      pop\n        /* \"#utility.yul\":5027:5140   */\n      jump(tag_127)\n    tag_129:\n        /* \"#utility.yul\":5158:5164   */\n      dup4\n        /* \"#utility.yul\":5155:5156   */\n      dup2\n        /* \"#utility.yul\":5152:5165   */\n      gt\n        /* \"#utility.yul\":5149:5250   */\n      iszero\n      tag_130\n      jumpi\n        /* \"#utility.yul\":5238:5239   */\n      0x00\n        /* \"#utility.yul\":5229:5235   */\n      dup5\n        /* \"#utility.yul\":5224:5227   */\n      dup5\n        /* \"#utility.yul\":5220:5236   */\n      add\n        /* \"#utility.yul\":5213:5240   */\n      mstore\n        /* \"#utility.yul\":5149:5250   */\n    tag_130:\n        /* \"#utility.yul\":4998:5256   */\n      pop\n        /* \"#utility.yul\":4949:5256   */\n      pop\n      pop\n      pop\n      jump\t// out\n        /* \"#utility.yul\":5262:5582   */\n    tag_31:\n        /* \"#utility.yul\":5306:5312   */\n      0x00\n        /* \"#utility.yul\":5343:5344   */\n      0x02\n        /* \"#utility.yul\":5337:5341   */\n      dup3\n        /* \"#utility.yul\":5333:5345   */\n      div\n        /* \"#utility.yul\":5323:5345   */\n      swap1\n      pop\n        /* \"#utility.yul\":5390:5391   */\n      0x01\n        /* \"#utility.yul\":5384:5388   */\n      dup3\n        /* \"#utility.yul\":5380:5392   */\n      and\n        /* \"#utility.yul\":5411:5429   */\n      dup1\n        /* \"#utility.yul\":5401:5482   */\n      tag_132\n      jumpi\n        /* \"#utility.yul\":5467:5471   */\n      0x7f\n        /* \"#utility.yul\":5459:5465   */\n      dup3\n        /* \"#utility.yul\":5455:5472   */\n      and\n        /* \"#utility.yul\":5445:5472   */\n      swap2\n      pop\n        /* \"#utility.yul\":5401:5482   */\n    tag_132:\n        /* \"#utility.yul\":5529:5531   */\n      0x20\n        /* \"#utility.yul\":5521:5527   */\n      dup3\n        /* \"#utility.yul\":5518:5532   */\n      lt\n        /* \"#utility.yul\":5498:5516   */\n      dup2\n        /* \"#utility.yul\":5495:5533   */\n      eq\n        /* \"#utility.yul\":5492:5576   */\n      iszero\n      tag_133\n      jumpi\n        /* \"#utility.yul\":5548:5566   */\n      tag_134\n      tag_135\n      jump\t// in\n    tag_134:\n        /* \"#utility.yul\":5492:5576   */\n    tag_133:\n        /* \"#utility.yul\":5313:5582   */\n      pop\n        /* \"#utility.yul\":5262:5582   */\n      swap2\n      swap1\n      pop\n      jump\t// out\n        /* \"#utility.yul\":5588:5869   */\n    tag_111:\n        /* \"#utility.yul\":5671:5698   */\n      tag_137\n        /* \"#utility.yul\":5693:5697   */\n      dup3\n        /* \"#utility.yul\":5671:5698   */\n      tag_90\n      jump\t// in\n    tag_137:\n        /* \"#utility.yul\":5663:5669   */\n      dup2\n        /* \"#utility.yul\":5659:5699   */\n      add\n        /* \"#utility.yul\":5801:5807   */\n      dup2\n        /* \"#utility.yul\":5789:5799   */\n      dup2\n        /* \"#utility.yul\":5786:5808   */\n      lt\n        /* \"#utility.yul\":5765:5783   */\n      0xffffffffffffffff\n        /* \"#utility.yul\":5753:5763   */\n      dup3\n        /* \"#utility.yul\":5750:5784   */\n      gt\n        /* \"#utility.yul\":5747:5809   */\n      or\n        /* \"#utility.yul\":5744:5832   */\n      iszero\n      tag_138\n      jumpi\n        /* \"#utility.yul\":5812:5830   */\n      tag_139\n      tag_116\n      jump\t// in\n    tag_139:\n        /* \"#utility.yul\":5744:5832   */\n    tag_138:\n        /* \"#utility.yul\":5852:5862   */\n      dup1\n        /* \"#utility.yul\":5848:5850   */\n      0x40\n        /* \"#utility.yul\":5841:5863   */\n      mstore\n        /* \"#utility.yul\":5631:5869   */\n      pop\n        /* \"#utility.yul\":5588:5869   */\n      pop\n      pop\n      jump\t// out\n        /* \"#utility.yul\":5875:6055   */\n    tag_135:\n        /* \"#utility.yul\":5923:6000   */\n      0x4e487b7100000000000000000000000000000000000000000000000000000000\n        /* \"#utility.yul\":5920:5921   */\n      0x00\n        /* \"#utility.yul\":5913:6001   */\n      mstore\n        /* \"#utility.yul\":6020:6024   */\n      0x22\n        /* \"#utility.yul\":6017:6018   */\n      0x04\n        /* \"#utility.yul\":6010:6025   */\n      mstore\n        /* \"#utility.yul\":6044:6048   */\n      0x24\n        /* \"#utility.yul\":6041:6042   */\n      0x00\n        /* \"#utility.yul\":6034:6049   */\n      revert\n        /* \"#utility.yul\":6061:6241   */\n    tag_116:\n        /* \"#utility.yul\":6109:6186   */\n      0x4e487b7100000000000000000000000000000000000000000000000000000000\n        /* \"#utility.yul\":6106:6107   */\n      0x00\n        /* \"#utility.yul\":6099:6187   */\n      mstore\n        /* \"#utility.yul\":6206:6210   */\n      0x41\n        /* \"#utility.yul\":6203:6204   */\n      0x04\n        /* \"#utility.yul\":6196:6211   */\n      mstore\n        /* \"#utility.yul\":6230:6234   */\n      0x24\n        /* \"#utility.yul\":6227:6228   */\n      0x00\n        /* \"#utility.yul\":6220:6235   */\n      revert\n        /* \"#utility.yul\":6247:6364   */\n    tag_62:\n        /* \"#utility.yul\":6356:6357   */\n      0x00\n        /* \"#utility.yul\":6353:6354   */\n      dup1\n        /* \"#utility.yul\":6346:6358   */\n      revert\n        /* \"#utility.yul\":6370:6487   */\n    tag_55:\n        /* \"#utility.yul\":6479:6480   */\n      0x00\n        /* \"#utility.yul\":6476:6477   */\n      dup1\n        /* \"#utility.yul\":6469:6481   */\n      revert\n        /* \"#utility.yul\":6493:6610   */\n    tag_74:\n        /* \"#utility.yul\":6602:6603   */\n      0x00\n        /* \"#utility.yul\":6599:6600   */\n      dup1\n        /* \"#utility.yul\":6592:6604   */\n      revert\n        /* \"#utility.yul\":6616:6733   */\n    tag_71:\n        /* \"#utility.yul\":6725:6726   */\n      0x00\n        /* \"#utility.yul\":6722:6723   */\n      dup1\n        /* \"#utility.yul\":6715:6727   */\n      revert\n        /* \"#utility.yul\":6739:6841   */\n    tag_90:\n        /* \"#utility.yul\":6780:6786   */\n      0x00\n        /* \"#utility.yul\":6831:6833   */\n      0x1f\n        /* \"#utility.yul\":6827:6834   */\n      not\n        /* \"#utility.yul\":6822:6824   */\n      0x1f\n        /* \"#utility.yul\":6815:6820   */\n      dup4\n        /* \"#utility.yul\":6811:6825   */\n      add\n        /* \"#utility.yul\":6807:6835   */\n      and\n        /* \"#utility.yul\":6797:6835   */\n      swap1\n      pop\n        /* \"#utility.yul\":6739:6841   */\n      swap2\n      swap1\n      pop\n      jump\t// out\n        /* \"#utility.yul\":6847:7016   */\n    tag_95:\n        /* \"#utility.yul\":6987:7008   */\n      0x46616c6c6261636b207761732063616c6c656400000000000000000000000000\n        /* \"#utility.yul\":6983:6984   */\n      0x00\n        /* \"#utility.yul\":6975:6981   */\n      dup3\n        /* \"#utility.yul\":6971:6985   */\n      add\n        /* \"#utility.yul\":6964:7009   */\n      mstore\n        /* \"#utility.yul\":6847:7016   */\n      pop\n      jump\t// out\n        /* \"#utility.yul\":7022:7144   */\n    tag_67:\n        /* \"#utility.yul\":7095:7119   */\n      tag_149\n        /* \"#utility.yul\":7113:7118   */\n      dup2\n        /* \"#utility.yul\":7095:7119   */\n      tag_99\n      jump\t// in\n    tag_149:\n        /* \"#utility.yul\":7088:7093   */\n      dup2\n        /* \"#utility.yul\":7085:7120   */\n      eq\n        /* \"#utility.yul\":7075:7138   */\n      tag_150\n      jumpi\n        /* \"#utility.yul\":7134:7135   */\n      0x00\n        /* \"#utility.yul\":7131:7132   */\n      dup1\n        /* \"#utility.yul\":7124:7136   */\n      revert\n        /* \"#utility.yul\":7075:7138   */\n    tag_150:\n        /* \"#utility.yul\":7022:7144   */\n      pop\n      jump\t// out\n\n    auxdata: 0xa26469706673582212206016bf2caa7188cbf4e9837797c3eafda2be238104e16e3a93d0baae9b61225564736f6c63430008070033\n}\n",
				"bytecode": {
					"linkReferences": {},
					"object": "608060405234801561001057600080fd5b50610662806100206000396000f3fe6080604052600436106100385760003560e01c806324ccab8f146100785780638381f58a146100a1578063e21f37ce146100cc5761003f565b3661003f57005b7f0738f4da267a110d810e6e89fc59e46be6de0c37b1d5cd559b267dc3688e74e03360405161006e91906103ab565b60405180910390a1005b34801561008457600080fd5b5061009f600480360381019061009a91906102d5565b6100f7565b005b3480156100ad57600080fd5b506100b6610119565b6040516100c391906103fb565b60405180910390f35b3480156100d857600080fd5b506100e161011f565b6040516100ee91906103d9565b60405180910390f35b816000908051906020019061010d9291906101ad565b50806001819055505050565b60015481565b6000805461012c90610506565b80601f016020809104026020016040519081016040528092919081815260200182805461015890610506565b80156101a55780601f1061017a576101008083540402835291602001916101a5565b820191906000526020600020905b81548152906001019060200180831161018857829003601f168201915b505050505081565b8280546101b990610506565b90600052602060002090601f0160209004810192826101db5760008555610222565b82601f106101f457805160ff1916838001178555610222565b82800160010185558215610222579182015b82811115610221578251825591602001919060010190610206565b5b50905061022f9190610233565b5090565b5b8082111561024c576000816000905550600101610234565b5090565b600061026361025e8461043b565b610416565b90508281526020810184848401111561027f5761027e6105cc565b5b61028a8482856104c4565b509392505050565b600082601f8301126102a7576102a66105c7565b5b81356102b7848260208601610250565b91505092915050565b6000813590506102cf81610615565b92915050565b600080604083850312156102ec576102eb6105d6565b5b600083013567ffffffffffffffff81111561030a576103096105d1565b5b61031685828601610292565b9250506020610327858286016102c0565b9150509250929050565b61033a81610488565b82525050565b600061034b8261046c565b6103558185610477565b93506103658185602086016104d3565b61036e816105db565b840191505092915050565b6000610386601383610477565b9150610391826105ec565b602082019050919050565b6103a5816104ba565b82525050565b60006040820190506103c06000830184610331565b81810360208301526103d181610379565b905092915050565b600060208201905081810360008301526103f38184610340565b905092915050565b6000602082019050610410600083018461039c565b92915050565b6000610420610431565b905061042c8282610538565b919050565b6000604051905090565b600067ffffffffffffffff82111561045657610455610598565b5b61045f826105db565b9050602081019050919050565b600081519050919050565b600082825260208201905092915050565b60006104938261049a565b9050919050565b600073ffffffffffffffffffffffffffffffffffffffff82169050919050565b6000819050919050565b82818337600083830152505050565b60005b838110156104f15780820151818401526020810190506104d6565b83811115610500576000848401525b50505050565b6000600282049050600182168061051e57607f821691505b6020821081141561053257610531610569565b5b50919050565b610541826105db565b810181811067ffffffffffffffff821117156105605761055f610598565b5b80604052505050565b7f4e487b7100000000000000000000000000000000000000000000000000000000600052602260045260246000fd5b7f4e487b7100000000000000000000000000000000000000000000000000000000600052604160045260246000fd5b600080fd5b600080fd5b600080fd5b600080fd5b6000601f19601f8301169050919050565b7f46616c6c6261636b207761732063616c6c656400000000000000000000000000600082015250565b61061e816104ba565b811461062957600080fd5b5056fea26469706673582212206016bf2caa7188cbf4e9837797c3eafda2be238104e16e3a93d0baae9b61225564736f6c63430008070033",
					"opcodes": "PUSH1 0x80 PUSH1 0x40 MSTORE CALLVALUE DUP1 ISZERO PUSH2 0x10 JUMPI PUSH1 0x0 DUP1 REVERT JUMPDEST POP PUSH2 0x662 DUP1 PUSH2 0x20 PUSH1 0x0 CODECOPY PUSH1 0x0 RETURN INVALID PUSH1 0x80 PUSH1 0x40 MSTORE PUSH1 0x4 CALLDATASIZE LT PUSH2 0x38 JUMPI PUSH1 0x0 CALLDATALOAD PUSH1 0xE0 SHR DUP1 PUSH4 0x24CCAB8F EQ PUSH2 0x78 JUMPI DUP1 PUSH4 0x8381F58A EQ PUSH2 0xA1 JUMPI DUP1 PUSH4 0xE21F37CE EQ PUSH2 0xCC JUMPI PUSH2 0x3F JUMP JUMPDEST CALLDATASIZE PUSH2 0x3F JUMPI STOP JUMPDEST PUSH32 0x738F4DA267A110D810E6E89FC59E46BE6DE0C37B1D5CD559B267DC3688E74E0 CALLER PUSH1 0x40 MLOAD PUSH2 0x6E SWAP2 SWAP1 PUSH2 0x3AB JUMP JUMPDEST PUSH1 0x40 MLOAD DUP1 SWAP2 SUB SWAP1 LOG1 STOP JUMPDEST CALLVALUE DUP1 ISZERO PUSH2 0x84 JUMPI PUSH1 0x0 DUP1 REVERT JUMPDEST POP PUSH2 0x9F PUSH1 0x4 DUP1 CALLDATASIZE SUB DUP2 ADD SWAP1 PUSH2 0x9A SWAP2 SWAP1 PUSH2 0x2D5 JUMP JUMPDEST PUSH2 0xF7 JUMP JUMPDEST STOP JUMPDEST CALLVALUE DUP1 ISZERO PUSH2 0xAD JUMPI PUSH1 0x0 DUP1 REVERT JUMPDEST POP PUSH2 0xB6 PUSH2 0x119 JUMP JUMPDEST PUSH1 0x40 MLOAD PUSH2 0xC3 SWAP2 SWAP1 PUSH2 0x3FB JUMP JUMPDEST PUSH1 0x40 MLOAD DUP1 SWAP2 SUB SWAP1 RETURN JUMPDEST CALLVALUE DUP1 ISZERO PUSH2 0xD8 JUMPI PUSH1 0x0 DUP1 REVERT JUMPDEST POP PUSH2 0xE1 PUSH2 0x11F JUMP JUMPDEST PUSH1 0x40 MLOAD PUSH2 0xEE SWAP2 SWAP1 PUSH2 0x3D9 JUMP JUMPDEST PUSH1 0x40 MLOAD DUP1 SWAP2 SUB SWAP1 RETURN JUMPDEST DUP2 PUSH1 0x0 SWAP1 DUP1 MLOAD SWAP1 PUSH1 0x20 ADD SWAP1 PUSH2 0x10D SWAP3 SWAP2 SWAP1 PUSH2 0x1AD JUMP JUMPDEST POP DUP1 PUSH1 0x1 DUP2 SWAP1 SSTORE POP POP POP JUMP JUMPDEST PUSH1 0x1 SLOAD DUP2 JUMP JUMPDEST PUSH1 0x0 DUP1 SLOAD PUSH2 0x12C SWAP1 PUSH2 0x506 JUMP JUMPDEST DUP1 PUSH1 0x1F ADD PUSH1 0x20 DUP1 SWAP2 DIV MUL PUSH1 0x20 ADD PUSH1 0x40 MLOAD SWAP1 DUP2 ADD PUSH1 0x40 MSTORE DUP1 SWAP3 SWAP2 SWAP1 DUP2 DUP2 MSTORE PUSH1 0x20 ADD DUP3 DUP1 SLOAD PUSH2 0x158 SWAP1 PUSH2 0x506 JUMP JUMPDEST DUP1 ISZERO PUSH2 0x1A5 JUMPI DUP1 PUSH1 0x1F LT PUSH2 0x17A JUMPI PUSH2 0x100 DUP1 DUP4 SLOAD DIV MUL DUP4 MSTORE SWAP2 PUSH1 0x20 ADD SWAP2 PUSH2 0x1A5 JUMP JUMPDEST DUP3 ADD SWAP2 SWAP1 PUSH1 0x0 MSTORE PUSH1 0x20 PUSH1 0x0 KECCAK256 SWAP1 JUMPDEST DUP2 SLOAD DUP2 MSTORE SWAP1 PUSH1 0x1 ADD SWAP1 PUSH1 0x20 ADD DUP1 DUP4 GT PUSH2 0x188 JUMPI DUP3 SWAP1 SUB PUSH1 0x1F AND DUP3 ADD SWAP2 JUMPDEST POP POP POP POP POP DUP2 JUMP JUMPDEST DUP3 DUP1 SLOAD PUSH2 0x1B9 SWAP1 PUSH2 0x506 JUMP JUMPDEST SWAP1 PUSH1 0x0 MSTORE PUSH1 0x20 PUSH1 0x0 KECCAK256 SWAP1 PUSH1 0x1F ADD PUSH1 0x20 SWAP1 DIV DUP2 ADD SWAP3 DUP3 PUSH2 0x1DB JUMPI PUSH1 0x0 DUP6 SSTORE PUSH2 0x222 JUMP JUMPDEST DUP3 PUSH1 0x1F LT PUSH2 0x1F4 JUMPI DUP1 MLOAD PUSH1 0xFF NOT AND DUP4 DUP1 ADD OR DUP6 SSTORE PUSH2 0x222 JUMP JUMPDEST DUP3 DUP1 ADD PUSH1 0x1 ADD DUP6 SSTORE DUP3 ISZERO PUSH2 0x222 JUMPI SWAP2 DUP3 ADD JUMPDEST DUP3 DUP2 GT ISZERO PUSH2 0x221 JUMPI DUP3 MLOAD DUP3 SSTORE SWAP2 PUSH1 0x20 ADD SWAP2 SWAP1 PUSH1 0x1 ADD SWAP1 PUSH2 0x206 JUMP JUMPDEST JUMPDEST POP SWAP1 POP PUSH2 0x22F SWAP2 SWAP1 PUSH2 0x233 JUMP JUMPDEST POP SWAP1 JUMP JUMPDEST JUMPDEST DUP1 DUP3 GT ISZERO PUSH2 0x24C JUMPI PUSH1 0x0 DUP2 PUSH1 0x0 SWAP1 SSTORE POP PUSH1 0x1 ADD PUSH2 0x234 JUMP JUMPDEST POP SWAP1 JUMP JUMPDEST PUSH1 0x0 PUSH2 0x263 PUSH2 0x25E DUP5 PUSH2 0x43B JUMP JUMPDEST PUSH2 0x416 JUMP JUMPDEST SWAP1 POP DUP3 DUP2 MSTORE PUSH1 0x20 DUP2 ADD DUP5 DUP5 DUP5 ADD GT ISZERO PUSH2 0x27F JUMPI PUSH2 0x27E PUSH2 0x5CC JUMP JUMPDEST JUMPDEST PUSH2 0x28A DUP5 DUP3 DUP6 PUSH2 0x4C4 JUMP JUMPDEST POP SWAP4 SWAP3 POP POP POP JUMP JUMPDEST PUSH1 0x0 DUP3 PUSH1 0x1F DUP4 ADD SLT PUSH2 0x2A7 JUMPI PUSH2 0x2A6 PUSH2 0x5C7 JUMP JUMPDEST JUMPDEST DUP2 CALLDATALOAD PUSH2 0x2B7 DUP5 DUP3 PUSH1 0x20 DUP7 ADD PUSH2 0x250 JUMP JUMPDEST SWAP2 POP POP SWAP3 SWAP2 POP POP JUMP JUMPDEST PUSH1 0x0 DUP2 CALLDATALOAD SWAP1 POP PUSH2 0x2CF DUP2 PUSH2 0x615 JUMP JUMPDEST SWAP3 SWAP2 POP POP JUMP JUMPDEST PUSH1 0x0 DUP1 PUSH1 0x40 DUP4 DUP6 SUB SLT ISZERO PUSH2 0x2EC JUMPI PUSH2 0x2EB PUSH2 0x5D6 JUMP JUMPDEST JUMPDEST PUSH1 0x0 DUP4 ADD CALLDATALOAD PUSH8 0xFFFFFFFFFFFFFFFF DUP2 GT ISZERO PUSH2 0x30A JUMPI PUSH2 0x309 PUSH2 0x5D1 JUMP JUMPDEST JUMPDEST PUSH2 0x316 DUP6 DUP3 DUP7 ADD PUSH2 0x292 JUMP JUMPDEST SWAP3 POP POP PUSH1 0x20 PUSH2 0x327 DUP6 DUP3 DUP7 ADD PUSH2 0x2C0 JUMP JUMPDEST SWAP2 POP POP SWAP3 POP SWAP3 SWAP1 POP JUMP JUMPDEST PUSH2 0x33A DUP2 PUSH2 0x488 JUMP JUMPDEST DUP3 MSTORE POP POP JUMP JUMPDEST PUSH1 0x0 PUSH2 0x34B DUP3 PUSH2 0x46C JUMP JUMPDEST PUSH2 0x355 DUP2 DUP6 PUSH2 0x477 JUMP JUMPDEST SWAP4 POP PUSH2 0x365 DUP2 DUP6 PUSH1 0x20 DUP7 ADD PUSH2 0x4D3 JUMP JUMPDEST PUSH2 0x36E DUP2 PUSH2 0x5DB JUMP JUMPDEST DUP5 ADD SWAP2 POP POP SWAP3 SWAP2 POP POP JUMP JUMPDEST PUSH1 0x0 PUSH2 0x386 PUSH1 0x13 DUP4 PUSH2 0x477 JUMP JUMPDEST SWAP2 POP PUSH2 0x391 DUP3 PUSH2 0x5EC JUMP JUMPDEST PUSH1 0x20 DUP3 ADD SWAP1 POP SWAP2 SWAP1 POP JUMP JUMPDEST PUSH2 0x3A5 DUP2 PUSH2 0x4BA JUMP JUMPDEST DUP3 MSTORE POP POP JUMP JUMPDEST PUSH1 0x0 PUSH1 0x40 DUP3 ADD SWAP1 POP PUSH2 0x3C0 PUSH1 0x0 DUP4 ADD DUP5 PUSH2 0x331 JUMP JUMPDEST DUP2 DUP2 SUB PUSH1 0x20 DUP4 ADD MSTORE PUSH2 0x3D1 DUP2 PUSH2 0x379 JUMP JUMPDEST SWAP1 POP SWAP3 SWAP2 POP POP JUMP JUMPDEST PUSH1 0x0 PUSH1 0x20 DUP3 ADD SWAP1 POP DUP2 DUP2 SUB PUSH1 0x0 DUP4 ADD MSTORE PUSH2 0x3F3 DUP2 DUP5 PUSH2 0x340 JUMP JUMPDEST SWAP1 POP SWAP3 SWAP2 POP POP JUMP JUMPDEST PUSH1 0x0 PUSH1 0x20 DUP3 ADD SWAP1 POP PUSH2 0x410 PUSH1 0x0 DUP4 ADD DUP5 PUSH2 0x39C JUMP JUMPDEST SWAP3 SWAP2 POP POP JUMP JUMPDEST PUSH1 0x0 PUSH2 0x420 PUSH2 0x431 JUMP JUMPDEST SWAP1 POP PUSH2 0x42C DUP3 DUP3 PUSH2 0x538 JUMP JUMPDEST SWAP2 SWAP1 POP JUMP JUMPDEST PUSH1 0x0 PUSH1 0x40 MLOAD SWAP1 POP SWAP1 JUMP JUMPDEST PUSH1 0x0 PUSH8 0xFFFFFFFFFFFFFFFF DUP3 GT ISZERO PUSH2 0x456 JUMPI PUSH2 0x455 PUSH2 0x598 JUMP JUMPDEST JUMPDEST PUSH2 0x45F DUP3 PUSH2 0x5DB JUMP JUMPDEST SWAP1 POP PUSH1 0x20 DUP2 ADD SWAP1 POP SWAP2 SWAP1 POP JUMP JUMPDEST PUSH1 0x0 DUP2 MLOAD SWAP1 POP SWAP2 SWAP1 POP JUMP JUMPDEST PUSH1 0x0 DUP3 DUP3 MSTORE PUSH1 0x20 DUP3 ADD SWAP1 POP SWAP3 SWAP2 POP POP JUMP JUMPDEST PUSH1 0x0 PUSH2 0x493 DUP3 PUSH2 0x49A JUMP JUMPDEST SWAP1 POP SWAP2 SWAP1 POP JUMP JUMPDEST PUSH1 0x0 PUSH20 0xFFFFFFFFFFFFFFFFFFFFFFFFFFFFFFFFFFFFFFFF DUP3 AND SWAP1 POP SWAP2 SWAP1 POP JUMP JUMPDEST PUSH1 0x0 DUP2 SWAP1 POP SWAP2 SWAP1 POP JUMP JUMPDEST DUP3 DUP2 DUP4 CALLDATACOPY PUSH1 0x0 DUP4 DUP4 ADD MSTORE POP POP POP JUMP JUMPDEST PUSH1 0x0 JUMPDEST DUP4 DUP2 LT ISZERO PUSH2 0x4F1 JUMPI DUP1 DUP3 ADD MLOAD DUP2 DUP5 ADD MSTORE PUSH1 0x20 DUP2 ADD SWAP1 POP PUSH2 0x4D6 JUMP JUMPDEST DUP4 DUP2 GT ISZERO PUSH2 0x500 JUMPI PUSH1 0x0 DUP5 DUP5 ADD MSTORE JUMPDEST POP POP POP POP JUMP JUMPDEST PUSH1 0x0 PUSH1 0x2 DUP3 DIV SWAP1 POP PUSH1 0x1 DUP3 AND DUP1 PUSH2 0x51E JUMPI PUSH1 0x7F DUP3 AND SWAP2 POP JUMPDEST PUSH1 0x20 DUP3 LT DUP2 EQ ISZERO PUSH2 0x532 JUMPI PUSH2 0x531 PUSH2 0x569 JUMP JUMPDEST JUMPDEST POP SWAP2 SWAP1 POP JUMP JUMPDEST PUSH2 0x541 DUP3 PUSH2 0x5DB JUMP JUMPDEST DUP2 ADD DUP2 DUP2 LT PUSH8 0xFFFFFFFFFFFFFFFF DUP3 GT OR ISZERO PUSH2 0x560 JUMPI PUSH2 0x55F PUSH2 0x598 JUMP JUMPDEST JUMPDEST DUP1 PUSH1 0x40 MSTORE POP POP POP JUMP JUMPDEST PUSH32 0x4E487B7100000000000000000000000000000000000000000000000000000000 PUSH1 0x0 MSTORE PUSH1 0x22 PUSH1 0x4 MSTORE PUSH1 0x24 PUSH1 0x0 REVERT JUMPDEST PUSH32 0x4E487B7100000000000000000000000000000000000000000000000000000000 PUSH1 0x0 MSTORE PUSH1 0x41 PUSH1 0x4 MSTORE PUSH1 0x24 PUSH1 0x0 REVERT JUMPDEST PUSH1 0x0 DUP1 REVERT JUMPDEST PUSH1 0x0 DUP1 REVERT JUMPDEST PUSH1 0x0 DUP1 REVERT JUMPDEST PUSH1 0x0 DUP1 REVERT JUMPDEST PUSH1 0x0 PUSH1 0x1F NOT PUSH1 0x1F DUP4 ADD AND SWAP1 POP SWAP2 SWAP1 POP JUMP JUMPDEST PUSH32 0x46616C6C6261636B207761732063616C6C656400000000000000000000000000 PUSH1 0x0 DUP3 ADD MSTORE POP JUMP JUMPDEST PUSH2 0x61E DUP2 PUSH2 0x4BA JUMP JUMPDEST DUP2 EQ PUSH2 0x629 JUMPI PUSH1 0x0 DUP1 REVERT JUMPDEST POP JUMP INVALID LOG2 PUSH5 0x6970667358 0x22 SLT KECCAK256 PUSH1 0x16 0xBF 0x2C 0xAA PUSH18 0x88CBF4E9837797C3EAFDA2BE238104E16E3A SWAP4 0xD0 0xBA 0xAE SWAP12 PUSH2 0x2255 PUSH5 0x736F6C6343 STOP ADDMOD SMOD STOP CALLER "
				},
				"gasEstimates": {
					"creation": {
						"codeDepositCost": "326800",
						"executionCost": "368",
						"totalCost": "327168"
					},
					"external": {
						"": "2338",
						"foo(string,uint256)": "infinite",
						"message()": "infinite",
						"number()": "2429"
					}
				},
				"methodIdentifiers": {
					"foo(string,uint256)": "24ccab8f",
					"message()": "e21f37ce",
					"number()": "8381f58a"
				}
			},
			"storageLayout": {
				"storage": [
					{
						"astId": 3,
						"contract": "TestContract.sol:TestContract",
						"label": "message",
						"offset": 0,
						"slot": "0",
						"type": "t_string_storage"
					},
					{
						"astId": 5,
						"contract": "TestContract.sol:TestContract",
						"label": "number",
						"offset": 0,
						"slot": "1",
						"type": "t_uint256"
					}
				],
				"types": {
					"t_string_storage": {
						"encoding": "bytes",
						"label": "string",
						"numberOfBytes": "32"
					},
					"t_uint256": {
						"encoding": "inplace",
						"label": "uint256",
						"numberOfBytes": "32"
					}
				}
			},
			"userdoc": {
				"kind": "user",
				"methods": {},
				"version": 1
			}
		}
	}
}