{
	"ErrorHandling.sol": {
		"ErrorHandling": {
			"abi": [
				{
					"inputs": [
						{
							"internalType": "address",
							"name": "caller",
							"type": "address"
						},
						{
							"internalType": "uint256",
							"name": "i",
							"type": "uint256"
						}
					],
					"name": "myError",
					"type": "error"
				},
				{
					"inputs": [],
					"name": "assertTest",
					"outputs": [],
					"stateMutability": "view",
					"type": "function"
				},
				{
					"inputs": [
						{
							"internalType": "uint256",
							"name": "i",
							"type": "uint256"
						}
					],
					"name": "myErrorTest",
					"outputs": [],
					"stateMutability": "view",
					"type": "function"
				},
				{
					"inputs": [
						{
							"internalType": "uint256",
							"name": "i",
							"type": "uint256"
						}
					],
					"name": "requireTest",
					"outputs": [],
					"stateMutability": "pure",
					"type": "function"
				},
				{
					"inputs": [
						{
							"internalType": "uint256",
							"name": "i",
							"type": "uint256"
						}
					],
					"name": "revertTest",
					"outputs": [],
					"stateMutability": "pure",
					"type": "function"
				}
			],
			"devdoc": {
				"kind": "dev",
				"methods": {},
				"version": 1
			},
			"evm": {
				"assembly": "    /* \"ErrorHandling.sol\":56:543  contract ErrorHandling{... */\n  mstore(0x40, 0x80)\n    /* \"ErrorHandling.sol\":293:296  111 */\n  0x6f\n    /* \"ErrorHandling.sol\":282:296  uint num = 111 */\n  0x00\n  sstore\n    /* \"ErrorHandling.sol\":56:543  contract ErrorHandling{... */\n  callvalue\n  dup1\n  iszero\n  tag_1\n  jumpi\n  0x00\n  dup1\n  revert\ntag_1:\n  pop\n  dataSize(sub_0)\n  dup1\n  dataOffset(sub_0)\n  0x00\n  codecopy\n  0x00\n  return\nstop\n\nsub_0: assembly {\n        /* \"ErrorHandling.sol\":56:543  contract ErrorHandling{... */\n      mstore(0x40, 0x80)\n      callvalue\n      dup1\n      iszero\n      tag_1\n      jumpi\n      0x00\n      dup1\n      revert\n    tag_1:\n      pop\n      jumpi(tag_2, lt(calldatasize, 0x04))\n      shr(0xe0, calldataload(0x00))\n      dup1\n      0x148b677f\n      eq\n      tag_3\n      jumpi\n      dup1\n      0x1af887f7\n      eq\n      tag_4\n      jumpi\n      dup1\n      0x6f9cb44a\n      eq\n      tag_5\n      jumpi\n      dup1\n      0x7b8fce76\n      eq\n      tag_6\n      jumpi\n    tag_2:\n      0x00\n      dup1\n      revert\n        /* \"ErrorHandling.sol\":85:165  function requireTest(uint i) public pure {... */\n    tag_3:\n      tag_7\n      0x04\n      dup1\n      calldatasize\n      sub\n      dup2\n      add\n      swap1\n      tag_8\n      swap2\n      swap1\n      tag_9\n      jump\t// in\n    tag_8:\n      tag_10\n      jump\t// in\n    tag_7:\n      stop\n        /* \"ErrorHandling.sol\":171:276  function revertTest(uint i) public pure {... */\n    tag_4:\n      tag_11\n      0x04\n      dup1\n      calldatasize\n      sub\n      dup2\n      add\n      swap1\n      tag_12\n      swap2\n      swap1\n      tag_9\n      jump\t// in\n    tag_12:\n      tag_13\n      jump\t// in\n    tag_11:\n      stop\n        /* \"ErrorHandling.sol\":420:541  function myErrorTest(uint i) public view {... */\n    tag_5:\n      tag_14\n      0x04\n      dup1\n      calldatasize\n      sub\n      dup2\n      add\n      swap1\n      tag_15\n      swap2\n      swap1\n      tag_9\n      jump\t// in\n    tag_15:\n      tag_16\n      jump\t// in\n    tag_14:\n      stop\n        /* \"ErrorHandling.sol\":302:371  function assertTest() public view {... */\n    tag_6:\n      tag_17\n      tag_18\n      jump\t// in\n    tag_17:\n      stop\n        /* \"ErrorHandling.sol\":85:165  function requireTest(uint i) public pure {... */\n    tag_10:\n        /* \"ErrorHandling.sol\":147:149  10 */\n      0x0a\n        /* \"ErrorHandling.sol\":144:145  i */\n      dup2\n        /* \"ErrorHandling.sol\":144:149  i<=10 */\n      gt\n      iszero\n        /* \"ErrorHandling.sol\":136:158  require(i<=10, \"i>10\") */\n      tag_20\n      jumpi\n      mload(0x40)\n      0x08c379a000000000000000000000000000000000000000000000000000000000\n      dup2\n      mstore\n      0x04\n      add\n      tag_21\n      swap1\n      tag_22\n      jump\t// in\n    tag_21:\n      mload(0x40)\n      dup1\n      swap2\n      sub\n      swap1\n      revert\n    tag_20:\n        /* \"ErrorHandling.sol\":85:165  function requireTest(uint i) public pure {... */\n      pop\n      jump\t// out\n        /* \"ErrorHandling.sol\":171:276  function revertTest(uint i) public pure {... */\n    tag_13:\n        /* \"ErrorHandling.sol\":228:230  10 */\n      0x0a\n        /* \"ErrorHandling.sol\":224:225  i */\n      dup2\n        /* \"ErrorHandling.sol\":224:230  i > 10 */\n      gt\n        /* \"ErrorHandling.sol\":221:270  if(i > 10){... */\n      iszero\n      tag_24\n      jumpi\n        /* \"ErrorHandling.sol\":245:259  revert(\"i>10\") */\n      mload(0x40)\n      0x08c379a000000000000000000000000000000000000000000000000000000000\n      dup2\n      mstore\n      0x04\n      add\n      tag_25\n      swap1\n      tag_22\n      jump\t// in\n    tag_25:\n      mload(0x40)\n      dup1\n      swap2\n      sub\n      swap1\n      revert\n        /* \"ErrorHandling.sol\":221:270  if(i > 10){... */\n    tag_24:\n        /* \"ErrorHandling.sol\":171:276  function revertTest(uint i) public pure {... */\n      pop\n      jump\t// out\n        /* \"ErrorHandling.sol\":420:541  function myErrorTest(uint i) public view {... */\n    tag_16:\n        /* \"ErrorHandling.sol\":478:480  10 */\n      0x0a\n        /* \"ErrorHandling.sol\":474:475  i */\n      dup2\n        /* \"ErrorHandling.sol\":474:480  i > 10 */\n      gt\n        /* \"ErrorHandling.sol\":471:535  if(i > 10){... */\n      iszero\n      tag_27\n      jumpi\n        /* \"ErrorHandling.sol\":510:520  msg.sender */\n      caller\n        /* \"ErrorHandling.sol\":522:523  i */\n      dup2\n        /* \"ErrorHandling.sol\":502:524  myError(msg.sender, i) */\n      mload(0x40)\n      0xa6e8950f00000000000000000000000000000000000000000000000000000000\n      dup2\n      mstore\n      0x04\n      add\n      tag_28\n      swap3\n      swap2\n      swap1\n      tag_29\n      jump\t// in\n    tag_28:\n      mload(0x40)\n      dup1\n      swap2\n      sub\n      swap1\n      revert\n        /* \"ErrorHandling.sol\":471:535  if(i > 10){... */\n    tag_27:\n        /* \"ErrorHandling.sol\":420:541  function myErrorTest(uint i) public view {... */\n      pop\n      jump\t// out\n        /* \"ErrorHandling.sol\":302:371  function assertTest() public view {... */\n    tag_18:\n        /* \"ErrorHandling.sol\":360:363  111 */\n      0x6f\n        /* \"ErrorHandling.sol\":353:356  num */\n      sload(0x00)\n        /* \"ErrorHandling.sol\":353:363  num == 111 */\n      eq\n        /* \"ErrorHandling.sol\":346:364  assert(num == 111) */\n      tag_31\n      jumpi\n      tag_32\n      tag_33\n      jump\t// in\n    tag_32:\n    tag_31:\n        /* \"ErrorHandling.sol\":302:371  function assertTest() public view {... */\n      jump\t// out\n        /* \"#utility.yul\":7:146   */\n    tag_35:\n        /* \"#utility.yul\":53:58   */\n      0x00\n        /* \"#utility.yul\":91:97   */\n      dup2\n        /* \"#utility.yul\":78:98   */\n      calldataload\n        /* \"#utility.yul\":69:98   */\n      swap1\n      pop\n        /* \"#utility.yul\":107:140   */\n      tag_37\n        /* \"#utility.yul\":134:139   */\n      dup2\n        /* \"#utility.yul\":107:140   */\n      tag_38\n      jump\t// in\n    tag_37:\n        /* \"#utility.yul\":7:146   */\n      swap3\n      swap2\n      pop\n      pop\n      jump\t// out\n        /* \"#utility.yul\":152:481   */\n    tag_9:\n        /* \"#utility.yul\":211:217   */\n      0x00\n        /* \"#utility.yul\":260:262   */\n      0x20\n        /* \"#utility.yul\":248:257   */\n      dup3\n        /* \"#utility.yul\":239:246   */\n      dup5\n        /* \"#utility.yul\":235:258   */\n      sub\n        /* \"#utility.yul\":231:263   */\n      slt\n        /* \"#utility.yul\":228:347   */\n      iszero\n      tag_40\n      jumpi\n        /* \"#utility.yul\":266:345   */\n      tag_41\n      tag_42\n      jump\t// in\n    tag_41:\n        /* \"#utility.yul\":228:347   */\n    tag_40:\n        /* \"#utility.yul\":386:387   */\n      0x00\n        /* \"#utility.yul\":411:464   */\n      tag_43\n        /* \"#utility.yul\":456:463   */\n      dup5\n        /* \"#utility.yul\":447:453   */\n      dup3\n        /* \"#utility.yul\":436:445   */\n      dup6\n        /* \"#utility.yul\":432:454   */\n      add\n        /* \"#utility.yul\":411:464   */\n      tag_35\n      jump\t// in\n    tag_43:\n        /* \"#utility.yul\":401:464   */\n      swap2\n      pop\n        /* \"#utility.yul\":357:474   */\n      pop\n        /* \"#utility.yul\":152:481   */\n      swap3\n      swap2\n      pop\n      pop\n      jump\t// out\n        /* \"#utility.yul\":487:605   */\n    tag_44:\n        /* \"#utility.yul\":574:598   */\n      tag_46\n        /* \"#utility.yul\":592:597   */\n      dup2\n        /* \"#utility.yul\":574:598   */\n      tag_47\n      jump\t// in\n    tag_46:\n        /* \"#utility.yul\":569:572   */\n      dup3\n        /* \"#utility.yul\":562:599   */\n      mstore\n        /* \"#utility.yul\":487:605   */\n      pop\n      pop\n      jump\t// out\n        /* \"#utility.yul\":611:976   */\n    tag_48:\n        /* \"#utility.yul\":753:756   */\n      0x00\n        /* \"#utility.yul\":774:840   */\n      tag_50\n        /* \"#utility.yul\":838:839   */\n      0x04\n        /* \"#utility.yul\":833:836   */\n      dup4\n        /* \"#utility.yul\":774:840   */\n      tag_51\n      jump\t// in\n    tag_50:\n        /* \"#utility.yul\":767:840   */\n      swap2\n      pop\n        /* \"#utility.yul\":849:942   */\n      tag_52\n        /* \"#utility.yul\":938:941   */\n      dup3\n        /* \"#utility.yul\":849:942   */\n      tag_53\n      jump\t// in\n    tag_52:\n        /* \"#utility.yul\":967:969   */\n      0x20\n        /* \"#utility.yul\":962:965   */\n      dup3\n        /* \"#utility.yul\":958:970   */\n      add\n        /* \"#utility.yul\":951:970   */\n      swap1\n      pop\n        /* \"#utility.yul\":611:976   */\n      swap2\n      swap1\n      pop\n      jump\t// out\n        /* \"#utility.yul\":982:1100   */\n    tag_54:\n        /* \"#utility.yul\":1069:1093   */\n      tag_56\n        /* \"#utility.yul\":1087:1092   */\n      dup2\n        /* \"#utility.yul\":1069:1093   */\n      tag_57\n      jump\t// in\n    tag_56:\n        /* \"#utility.yul\":1064:1067   */\n      dup3\n        /* \"#utility.yul\":1057:1094   */\n      mstore\n        /* \"#utility.yul\":982:1100   */\n      pop\n      pop\n      jump\t// out\n        /* \"#utility.yul\":1106:1438   */\n    tag_29:\n        /* \"#utility.yul\":1227:1231   */\n      0x00\n        /* \"#utility.yul\":1265:1267   */\n      0x40\n        /* \"#utility.yul\":1254:1263   */\n      dup3\n        /* \"#utility.yul\":1250:1268   */\n      add\n        /* \"#utility.yul\":1242:1268   */\n      swap1\n      pop\n        /* \"#utility.yul\":1278:1349   */\n      tag_59\n        /* \"#utility.yul\":1346:1347   */\n      0x00\n        /* \"#utility.yul\":1335:1344   */\n      dup4\n        /* \"#utility.yul\":1331:1348   */\n      add\n        /* \"#utility.yul\":1322:1328   */\n      dup6\n        /* \"#utility.yul\":1278:1349   */\n      tag_44\n      jump\t// in\n    tag_59:\n        /* \"#utility.yul\":1359:1431   */\n      tag_60\n        /* \"#utility.yul\":1427:1429   */\n      0x20\n        /* \"#utility.yul\":1416:1425   */\n      dup4\n        /* \"#utility.yul\":1412:1430   */\n      add\n        /* \"#utility.yul\":1403:1409   */\n      dup5\n        /* \"#utility.yul\":1359:1431   */\n      tag_54\n      jump\t// in\n    tag_60:\n        /* \"#utility.yul\":1106:1438   */\n      swap4\n      swap3\n      pop\n      pop\n      pop\n      jump\t// out\n        /* \"#utility.yul\":1444:1863   */\n    tag_22:\n        /* \"#utility.yul\":1610:1614   */\n      0x00\n        /* \"#utility.yul\":1648:1650   */\n      0x20\n        /* \"#utility.yul\":1637:1646   */\n      dup3\n        /* \"#utility.yul\":1633:1651   */\n      add\n        /* \"#utility.yul\":1625:1651   */\n      swap1\n      pop\n        /* \"#utility.yul\":1697:1706   */\n      dup2\n        /* \"#utility.yul\":1691:1695   */\n      dup2\n        /* \"#utility.yul\":1687:1707   */\n      sub\n        /* \"#utility.yul\":1683:1684   */\n      0x00\n        /* \"#utility.yul\":1672:1681   */\n      dup4\n        /* \"#utility.yul\":1668:1685   */\n      add\n        /* \"#utility.yul\":1661:1708   */\n      mstore\n        /* \"#utility.yul\":1725:1856   */\n      tag_62\n        /* \"#utility.yul\":1851:1855   */\n      dup2\n        /* \"#utility.yul\":1725:1856   */\n      tag_48\n      jump\t// in\n    tag_62:\n        /* \"#utility.yul\":1717:1856   */\n      swap1\n      pop\n        /* \"#utility.yul\":1444:1863   */\n      swap2\n      swap1\n      pop\n      jump\t// out\n        /* \"#utility.yul\":1950:2119   */\n    tag_51:\n        /* \"#utility.yul\":2034:2045   */\n      0x00\n        /* \"#utility.yul\":2068:2074   */\n      dup3\n        /* \"#utility.yul\":2063:2066   */\n      dup3\n        /* \"#utility.yul\":2056:2075   */\n      mstore\n        /* \"#utility.yul\":2108:2112   */\n      0x20\n        /* \"#utility.yul\":2103:2106   */\n      dup3\n        /* \"#utility.yul\":2099:2113   */\n      add\n        /* \"#utility.yul\":2084:2113   */\n      swap1\n      pop\n        /* \"#utility.yul\":1950:2119   */\n      swap3\n      swap2\n      pop\n      pop\n      jump\t// out\n        /* \"#utility.yul\":2125:2221   */\n    tag_47:\n        /* \"#utility.yul\":2162:2169   */\n      0x00\n        /* \"#utility.yul\":2191:2215   */\n      tag_67\n        /* \"#utility.yul\":2209:2214   */\n      dup3\n        /* \"#utility.yul\":2191:2215   */\n      tag_68\n      jump\t// in\n    tag_67:\n        /* \"#utility.yul\":2180:2215   */\n      swap1\n      pop\n        /* \"#utility.yul\":2125:2221   */\n      swap2\n      swap1\n      pop\n      jump\t// out\n        /* \"#utility.yul\":2227:2353   */\n    tag_68:\n        /* \"#utility.yul\":2264:2271   */\n      0x00\n        /* \"#utility.yul\":2304:2346   */\n      0xffffffffffffffffffffffffffffffffffffffff\n        /* \"#utility.yul\":2297:2302   */\n      dup3\n        /* \"#utility.yul\":2293:2347   */\n      and\n        /* \"#utility.yul\":2282:2347   */\n      swap1\n      pop\n        /* \"#utility.yul\":2227:2353   */\n      swap2\n      swap1\n      pop\n      jump\t// out\n        /* \"#utility.yul\":2359:2436   */\n    tag_57:\n        /* \"#utility.yul\":2396:2403   */\n      0x00\n        /* \"#utility.yul\":2425:2430   */\n      dup2\n        /* \"#utility.yul\":2414:2430   */\n      swap1\n      pop\n        /* \"#utility.yul\":2359:2436   */\n      swap2\n      swap1\n      pop\n      jump\t// out\n        /* \"#utility.yul\":2442:2622   */\n    tag_33:\n        /* \"#utility.yul\":2490:2567   */\n      0x4e487b7100000000000000000000000000000000000000000000000000000000\n        /* \"#utility.yul\":2487:2488   */\n      0x00\n        /* \"#utility.yul\":2480:2568   */\n      mstore\n        /* \"#utility.yul\":2587:2591   */\n      0x01\n        /* \"#utility.yul\":2584:2585   */\n      0x04\n        /* \"#utility.yul\":2577:2592   */\n      mstore\n        /* \"#utility.yul\":2611:2615   */\n      0x24\n        /* \"#utility.yul\":2608:2609   */\n      0x00\n        /* \"#utility.yul\":2601:2616   */\n      revert\n        /* \"#utility.yul\":2751:2868   */\n    tag_42:\n        /* \"#utility.yul\":2860:2861   */\n      0x00\n        /* \"#utility.yul\":2857:2858   */\n      dup1\n        /* \"#utility.yul\":2850:2862   */\n      revert\n        /* \"#utility.yul\":2874:3028   */\n    tag_53:\n        /* \"#utility.yul\":3014:3020   */\n      0x693e313000000000000000000000000000000000000000000000000000000000\n        /* \"#utility.yul\":3010:3011   */\n      0x00\n        /* \"#utility.yul\":3002:3008   */\n      dup3\n        /* \"#utility.yul\":2998:3012   */\n      add\n        /* \"#utility.yul\":2991:3021   */\n      mstore\n        /* \"#utility.yul\":2874:3028   */\n      pop\n      jump\t// out\n        /* \"#utility.yul\":3034:3156   */\n    tag_38:\n        /* \"#utility.yul\":3107:3131   */\n      tag_77\n        /* \"#utility.yul\":3125:3130   */\n      dup2\n        /* \"#utility.yul\":3107:3131   */\n      tag_57\n      jump\t// in\n    tag_77:\n        /* \"#utility.yul\":3100:3105   */\n      dup2\n        /* \"#utility.yul\":3097:3132   */\n      eq\n        /* \"#utility.yul\":3087:3150   */\n      tag_78\n      jumpi\n        /* \"#utility.yul\":3146:3147   */\n      0x00\n        /* \"#utility.yul\":3143:3144   */\n      dup1\n        /* \"#utility.yul\":3136:3148   */\n      revert\n        /* \"#utility.yul\":3087:3150   */\n    tag_78:\n        /* \"#utility.yul\":3034:3156   */\n      pop\n      jump\t// out\n\n    auxdata: 0xa26469706673582212209d6d649418d370a626261b1e0682fc8c5e6e325919c3988d449f85991c12755564736f6c63430008070033\n}\n",
				"bytecode": {
					"linkReferences": {},
					"object": "6080604052606f60005534801561001557600080fd5b50610360806100256000396000f3fe608060405234801561001057600080fd5b506004361061004c5760003560e01c8063148b677f146100515780631af887f71461006d5780636f9cb44a146100895780637b8fce76146100a5575b600080fd5b61006b600480360381019061006691906101b2565b6100af565b005b610087600480360381019061008291906101b2565b6100f6565b005b6100a3600480360381019061009e91906101b2565b61013d565b005b6100ad610188565b005b600a8111156100f3576040517f08c379a00000000000000000000000000000000000000000000000000000000081526004016100ea90610249565b60405180910390fd5b50565b600a81111561013a576040517f08c379a000000000000000000000000000000000000000000000000000000000815260040161013190610249565b60405180910390fd5b50565b600a8111156101855733816040517fa6e8950f00000000000000000000000000000000000000000000000000000000815260040161017c929190610220565b60405180910390fd5b50565b606f6000541461019b5761019a6102b6565b5b565b6000813590506101ac81610313565b92915050565b6000602082840312156101c8576101c76102e5565b5b60006101d68482850161019d565b91505092915050565b6101e88161027a565b82525050565b60006101fb600483610269565b9150610206826102ea565b602082019050919050565b61021a816102ac565b82525050565b600060408201905061023560008301856101df565b6102426020830184610211565b9392505050565b60006020820190508181036000830152610262816101ee565b9050919050565b600082825260208201905092915050565b60006102858261028c565b9050919050565b600073ffffffffffffffffffffffffffffffffffffffff82169050919050565b6000819050919050565b7f4e487b7100000000000000000000000000000000000000000000000000000000600052600160045260246000fd5b600080fd5b7f693e313000000000000000000000000000000000000000000000000000000000600082015250565b61031c816102ac565b811461032757600080fd5b5056fea26469706673582212209d6d649418d370a626261b1e0682fc8c5e6e325919c3988d449f85991c12755564736f6c63430008070033",
					"opcodes": "PUSH1 0x80 PUSH1 0x40 MSTORE PUSH1 0x6F PUSH1 0x0 SSTORE CALLVALUE DUP1 ISZERO PUSH2 0x15 JUMPI PUSH1 0x0 DUP1 REVERT JUMPDEST POP PUSH2 0x360 DUP1 PUSH2 0x25 PUSH1 0x0 CODECOPY PUSH1 0x0 RETURN INVALID PUSH1 0x80 PUSH1 0x40 MSTORE CALLVALUE DUP1 ISZERO PUSH2 0x10 JUMPI PUSH1 0x0 DUP1 REVERT JUMPDEST POP PUSH1 0x4 CALLDATASIZE LT PUSH2 0x4C JUMPI PUSH1 0x0 CALLDATALOAD PUSH1 0xE0 SHR DUP1 PUSH4 0x148B677F EQ PUSH2 0x51 JUMPI DUP1 PUSH4 0x1AF887F7 EQ PUSH2 0x6D JUMPI DUP1 PUSH4 0x6F9CB44A EQ PUSH2 0x89 JUMPI DUP1 PUSH4 0x7B8FCE76 EQ PUSH2 0xA5 JUMPI JUMPDEST PUSH1 0x0 DUP1 REVERT JUMPDEST PUSH2 0x6B PUSH1 0x4 DUP1 CALLDATASIZE SUB DUP2 ADD SWAP1 PUSH2 0x66 SWAP2 SWAP1 PUSH2 0x1B2 JUMP JUMPDEST PUSH2 0xAF JUMP JUMPDEST STOP JUMPDEST PUSH2 0x87 PUSH1 0x4 DUP1 CALLDATASIZE SUB DUP2 ADD SWAP1 PUSH2 0x82 SWAP2 SWAP1 PUSH2 0x1B2 JUMP JUMPDEST PUSH2 0xF6 JUMP JUMPDEST STOP JUMPDEST PUSH2 0xA3 PUSH1 0x4 DUP1 CALLDATASIZE SUB DUP2 ADD SWAP1 PUSH2 0x9E SWAP2 SWAP1 PUSH2 0x1B2 JUMP JUMPDEST PUSH2 0x13D JUMP JUMPDEST STOP JUMPDEST PUSH2 0xAD PUSH2 0x188 JUMP JUMPDEST STOP JUMPDEST PUSH1 0xA DUP2 GT ISZERO PUSH2 0xF3 JUMPI PUSH1 0x40 MLOAD PUSH32 0x8C379A000000000000000000000000000000000000000000000000000000000 DUP2 MSTORE PUSH1 0x4 ADD PUSH2 0xEA SWAP1 PUSH2 0x249 JUMP JUMPDEST PUSH1 0x40 MLOAD DUP1 SWAP2 SUB SWAP1 REVERT JUMPDEST POP JUMP JUMPDEST PUSH1 0xA DUP2 GT ISZERO PUSH2 0x13A JUMPI PUSH1 0x40 MLOAD PUSH32 0x8C379A000000000000000000000000000000000000000000000000000000000 DUP2 MSTORE PUSH1 0x4 ADD PUSH2 0x131 SWAP1 PUSH2 0x249 JUMP JUMPDEST PUSH1 0x40 MLOAD DUP1 SWAP2 SUB SWAP1 REVERT JUMPDEST POP JUMP JUMPDEST PUSH1 0xA DUP2 GT ISZERO PUSH2 0x185 JUMPI CALLER DUP2 PUSH1 0x40 MLOAD PUSH32 0xA6E8950F00000000000000000000000000000000000000000000000000000000 DUP2 MSTORE PUSH1 0x4 ADD PUSH2 0x17C SWAP3 SWAP2 SWAP1 PUSH2 0x220 JUMP JUMPDEST PUSH1 0x40 MLOAD DUP1 SWAP2 SUB SWAP1 REVERT JUMPDEST POP JUMP JUMPDEST PUSH1 0x6F PUSH1 0x0 SLOAD EQ PUSH2 0x19B JUMPI PUSH2 0x19A PUSH2 0x2B6 JUMP JUMPDEST JUMPDEST JUMP JUMPDEST PUSH1 0x0 DUP2 CALLDATALOAD SWAP1 POP PUSH2 0x1AC DUP2 PUSH2 0x313 JUMP JUMPDEST SWAP3 SWAP2 POP POP JUMP JUMPDEST PUSH1 0x0 PUSH1 0x20 DUP3 DUP5 SUB SLT ISZERO PUSH2 0x1C8 JUMPI PUSH2 0x1C7 PUSH2 0x2E5 JUMP JUMPDEST JUMPDEST PUSH1 0x0 PUSH2 0x1D6 DUP5 DUP3 DUP6 ADD PUSH2 0x19D JUMP JUMPDEST SWAP2 POP POP SWAP3 SWAP2 POP POP JUMP JUMPDEST PUSH2 0x1E8 DUP2 PUSH2 0x27A JUMP JUMPDEST DUP3 MSTORE POP POP JUMP JUMPDEST PUSH1 0x0 PUSH2 0x1FB PUSH1 0x4 DUP4 PUSH2 0x269 JUMP JUMPDEST SWAP2 POP PUSH2 0x206 DUP3 PUSH2 0x2EA JUMP JUMPDEST PUSH1 0x20 DUP3 ADD SWAP1 POP SWAP2 SWAP1 POP JUMP JUMPDEST PUSH2 0x21A DUP2 PUSH2 0x2AC JUMP JUMPDEST DUP3 MSTORE POP POP JUMP JUMPDEST PUSH1 0x0 PUSH1 0x40 DUP3 ADD SWAP1 POP PUSH2 0x235 PUSH1 0x0 DUP4 ADD DUP6 PUSH2 0x1DF JUMP JUMPDEST PUSH2 0x242 PUSH1 0x20 DUP4 ADD DUP5 PUSH2 0x211 JUMP JUMPDEST SWAP4 SWAP3 POP POP POP JUMP JUMPDEST PUSH1 0x0 PUSH1 0x20 DUP3 ADD SWAP1 POP DUP2 DUP2 SUB PUSH1 0x0 DUP4 ADD MSTORE PUSH2 0x262 DUP2 PUSH2 0x1EE JUMP JUMPDEST SWAP1 POP SWAP2 SWAP1 POP JUMP JUMPDEST PUSH1 0x0 DUP3 DUP3 MSTORE PUSH1 0x20 DUP3 ADD SWAP1 POP SWAP3 SWAP2 POP POP JUMP JUMPDEST PUSH1 0x0 PUSH2 0x285 DUP3 PUSH2 0x28C JUMP JUMPDEST SWAP1 POP SWAP2 SWAP1 POP JUMP JUMPDEST PUSH1 0x0 PUSH20 0xFFFFFFFFFFFFFFFFFFFFFFFFFFFFFFFFFFFFFFFF DUP3 AND SWAP1 POP SWAP2 SWAP1 POP JUMP JUMPDEST PUSH1 0x0 DUP2 SWAP1 POP SWAP2 SWAP1 POP JUMP JUMPDEST PUSH32 0x4E487B7100000000000000000000000000000000000000000000000000000000 PUSH1 0x0 MSTORE PUSH1 0x1 PUSH1 0x4 MSTORE PUSH1 0x24 PUSH1 0x0 REVERT JUMPDEST PUSH1 0x0 DUP1 REVERT JUMPDEST PUSH32 0x693E313000000000000000000000000000000000000000000000000000000000 PUSH1 0x0 DUP3 ADD MSTORE POP JUMP JUMPDEST PUSH2 0x31C DUP2 PUSH2 0x2AC JUMP JUMPDEST DUP2 EQ PUSH2 0x327 JUMPI PUSH1 0x0 DUP1 REVERT JUMPDEST POP JUMP INVALID LOG2 PUSH5 0x6970667358 0x22 SLT KECCAK256 SWAP14 PUSH14 0x649418D370A626261B1E0682FC8C 0x5E PUSH15 0x325919C3988D449F85991C12755564 PUSH20 0x6F6C634300080700330000000000000000000000 "
				},
				"gasEstimates": {
					"creation": {
						"codeDepositCost": "172800",
						"executionCost": "22320",
						"totalCost": "195120"
					},
					"external": {
						"assertTest()": "2340",
						"myErrorTest(uint256)": "infinite",
						"requireTest(uint256)": "697",
						"revertTest(uint256)": "719"
					}
				},
				"methodIdentifiers": {
					"assertTest()": "7b8fce76",
					"myErrorTest(uint256)": "6f9cb44a",
					"requireTest(uint256)": "148b677f",
					"revertTest(uint256)": "1af887f7"
				}
			},
			"storageLayout": {
				"storage": [
					{
						"astId": 32,
						"contract": "ErrorHandling.sol:ErrorHandling",
						"label": "num",
						"offset": 0,
						"slot": "0",
						"type": "t_uint256"
					}
				],
				"types": {
					"t_uint256": {
						"encoding": "inplace",
						"label": "uint256",
						"numberOfBytes": "32"
					}
				}
			},
			"userdoc": {
				"kind": "user",
				"methods": {},
				"version": 1
			}
		}
	}
}