{
	"ReplaceElements1.sol": {
		"ReplaceElements": {
			"abi": [
				{
					"inputs": [
						{
							"internalType": "uint256",
							"name": "",
							"type": "uint256"
						}
					],
					"name": "arr",
					"outputs": [
						{
							"internalType": "uint256",
							"name": "",
							"type": "uint256"
						}
					],
					"stateMutability": "view",
					"type": "function"
				},
				{
					"inputs": [
						{
							"internalType": "uint256",
							"name": "index",
							"type": "uint256"
						}
					],
					"name": "efficientRemove",
					"outputs": [
						{
							"internalType": "uint256[]",
							"name": "",
							"type": "uint256[]"
						}
					],
					"stateMutability": "nonpayable",
					"type": "function"
				},
				{
					"inputs": [],
					"name": "test",
					"outputs": [],
					"stateMutability": "nonpayable",
					"type": "function"
				}
			],
			"devdoc": {
				"kind": "dev",
				"methods": {},
				"version": 1
			},
			"evm": {
				"assembly": "    /* \"ReplaceElements1.sol\":56:594  contract ReplaceElements {... */\n  mstore(0x40, 0x80)\n  callvalue\n  dup1\n  iszero\n  tag_1\n  jumpi\n  0x00\n  dup1\n  revert\ntag_1:\n  pop\n  dataSize(sub_0)\n  dup1\n  dataOffset(sub_0)\n  0x00\n  codecopy\n  0x00\n  return\nstop\n\nsub_0: assembly {\n        /* \"ReplaceElements1.sol\":56:594  contract ReplaceElements {... */\n      mstore(0x40, 0x80)\n      callvalue\n      dup1\n      iszero\n      tag_1\n      jumpi\n      0x00\n      dup1\n      revert\n    tag_1:\n      pop\n      jumpi(tag_2, lt(calldatasize, 0x04))\n      shr(0xe0, calldataload(0x00))\n      dup1\n      0x23f7e9ca\n      eq\n      tag_3\n      jumpi\n      dup1\n      0x71e5ee5f\n      eq\n      tag_4\n      jumpi\n      dup1\n      0xf8a8fd6d\n      eq\n      tag_5\n      jumpi\n    tag_2:\n      0x00\n      dup1\n      revert\n        /* \"ReplaceElements1.sol\":111:379  function efficientRemove(uint index) public returns(uint[] memory){... */\n    tag_3:\n      tag_6\n      0x04\n      dup1\n      calldatasize\n      sub\n      dup2\n      add\n      swap1\n      tag_7\n      swap2\n      swap1\n      tag_8\n      jump\t// in\n    tag_7:\n      tag_9\n      jump\t// in\n    tag_6:\n      mload(0x40)\n      tag_10\n      swap2\n      swap1\n      tag_11\n      jump\t// in\n    tag_10:\n      mload(0x40)\n      dup1\n      swap2\n      sub\n      swap1\n      return\n        /* \"ReplaceElements1.sol\":87:104  uint[] public arr */\n    tag_4:\n      tag_12\n      0x04\n      dup1\n      calldatasize\n      sub\n      dup2\n      add\n      swap1\n      tag_13\n      swap2\n      swap1\n      tag_8\n      jump\t// in\n    tag_13:\n      tag_14\n      jump\t// in\n    tag_12:\n      mload(0x40)\n      tag_15\n      swap2\n      swap1\n      tag_16\n      jump\t// in\n    tag_15:\n      mload(0x40)\n      dup1\n      swap2\n      sub\n      swap1\n      return\n        /* \"ReplaceElements1.sol\":385:592  function test() external  {... */\n    tag_5:\n      tag_17\n      tag_18\n      jump\t// in\n    tag_17:\n      stop\n        /* \"ReplaceElements1.sol\":111:379  function efficientRemove(uint index) public returns(uint[] memory){... */\n    tag_9:\n        /* \"ReplaceElements1.sol\":163:176  uint[] memory */\n      0x60\n        /* \"ReplaceElements1.sol\":207:208  0 */\n      0x00\n        /* \"ReplaceElements1.sol\":195:198  arr */\n      dup1\n        /* \"ReplaceElements1.sol\":195:205  arr.length */\n      dup1\n      sload\n      swap1\n      pop\n        /* \"ReplaceElements1.sol\":195:208  arr.length >0 */\n      gt\n        /* \"ReplaceElements1.sol\":187:231  require(arr.length >0, \"arr.length is zero\") */\n      tag_20\n      jumpi\n      mload(0x40)\n      0x08c379a000000000000000000000000000000000000000000000000000000000\n      dup2\n      mstore\n      0x04\n      add\n      tag_21\n      swap1\n      tag_22\n      jump\t// in\n    tag_21:\n      mload(0x40)\n      dup1\n      swap2\n      sub\n      swap1\n      revert\n    tag_20:\n        /* \"ReplaceElements1.sol\":257:260  arr */\n      0x00\n        /* \"ReplaceElements1.sol\":257:267  arr.length */\n      dup1\n      sload\n      swap1\n      pop\n        /* \"ReplaceElements1.sol\":249:254  index */\n      dup3\n        /* \"ReplaceElements1.sol\":249:267  index < arr.length */\n      lt\n        /* \"ReplaceElements1.sol\":241:291  require(index < arr.length, \"index out of bounds\") */\n      tag_23\n      jumpi\n      mload(0x40)\n      0x08c379a000000000000000000000000000000000000000000000000000000000\n      dup2\n      mstore\n      0x04\n      add\n      tag_24\n      swap1\n      tag_25\n      jump\t// in\n    tag_24:\n      mload(0x40)\n      dup1\n      swap2\n      sub\n      swap1\n      revert\n    tag_23:\n        /* \"ReplaceElements1.sol\":320:323  arr */\n      0x00\n        /* \"ReplaceElements1.sol\":335:336  1 */\n      0x01\n        /* \"ReplaceElements1.sol\":324:327  arr */\n      0x00\n        /* \"ReplaceElements1.sol\":324:334  arr.length */\n      dup1\n      sload\n      swap1\n      pop\n        /* \"ReplaceElements1.sol\":324:336  arr.length-1 */\n      tag_26\n      swap2\n      swap1\n      tag_27\n      jump\t// in\n    tag_26:\n        /* \"ReplaceElements1.sol\":320:337  arr[arr.length-1] */\n      dup2\n      sload\n      dup2\n      lt\n      tag_28\n      jumpi\n      tag_29\n      tag_30\n      jump\t// in\n    tag_29:\n    tag_28:\n      swap1\n      0x00\n      mstore\n      keccak256(0x00, 0x20)\n      add\n      sload\n        /* \"ReplaceElements1.sol\":307:310  arr */\n      0x00\n        /* \"ReplaceElements1.sol\":311:316  index */\n      dup4\n        /* \"ReplaceElements1.sol\":307:317  arr[index] */\n      dup2\n      sload\n      dup2\n      lt\n      tag_32\n      jumpi\n      tag_33\n      tag_30\n      jump\t// in\n    tag_33:\n    tag_32:\n      swap1\n      0x00\n      mstore\n      keccak256(0x00, 0x20)\n      add\n        /* \"ReplaceElements1.sol\":307:337  arr[index] = arr[arr.length-1] */\n      dup2\n      swap1\n      sstore\n      pop\n        /* \"ReplaceElements1.sol\":345:348  arr */\n      0x00\n        /* \"ReplaceElements1.sol\":345:354  arr.pop() */\n      dup1\n      sload\n      dup1\n      tag_35\n      jumpi\n      tag_36\n      tag_37\n      jump\t// in\n    tag_36:\n    tag_35:\n      0x01\n      swap1\n      sub\n      dup2\n      dup2\n      swap1\n      0x00\n      mstore\n      keccak256(0x00, 0x20)\n      add\n      0x00\n      swap1\n      sstore\n      swap1\n      sstore\n        /* \"ReplaceElements1.sol\":369:372  arr */\n      0x00\n        /* \"ReplaceElements1.sol\":362:372  return arr */\n      dup1\n      sload\n      dup1\n      0x20\n      mul\n      0x20\n      add\n      mload(0x40)\n      swap1\n      dup2\n      add\n      0x40\n      mstore\n      dup1\n      swap3\n      swap2\n      swap1\n      dup2\n      dup2\n      mstore\n      0x20\n      add\n      dup3\n      dup1\n      sload\n      dup1\n      iszero\n      tag_39\n      jumpi\n      0x20\n      mul\n      dup3\n      add\n      swap2\n      swap1\n      0x00\n      mstore\n      keccak256(0x00, 0x20)\n      swap1\n    tag_40:\n      dup2\n      sload\n      dup2\n      mstore\n      0x20\n      add\n      swap1\n      0x01\n      add\n      swap1\n      dup1\n      dup4\n      gt\n      tag_40\n      jumpi\n    tag_39:\n      pop\n      pop\n      pop\n      pop\n      pop\n      swap1\n      pop\n        /* \"ReplaceElements1.sol\":111:379  function efficientRemove(uint index) public returns(uint[] memory){... */\n      swap2\n      swap1\n      pop\n      jump\t// out\n        /* \"ReplaceElements1.sol\":87:104  uint[] public arr */\n    tag_14:\n      0x00\n      dup2\n      dup2\n      sload\n      dup2\n      lt\n      tag_41\n      jumpi\n      0x00\n      dup1\n      revert\n    tag_41:\n      swap1\n      0x00\n      mstore\n      keccak256(0x00, 0x20)\n      add\n      0x00\n      swap2\n      pop\n      swap1\n      pop\n      sload\n      dup2\n      jump\t// out\n        /* \"ReplaceElements1.sol\":385:592  function test() external  {... */\n    tag_18:\n        /* \"ReplaceElements1.sol\":421:436  arr = [1,2,3,4] */\n      mload(0x40)\n      dup1\n      0x80\n      add\n      0x40\n      mstore\n      dup1\n        /* \"ReplaceElements1.sol\":428:429  1 */\n      0x01\n        /* \"ReplaceElements1.sol\":421:436  arr = [1,2,3,4] */\n      0xff\n      and\n      dup2\n      mstore\n      0x20\n      add\n        /* \"ReplaceElements1.sol\":430:431  2 */\n      0x02\n        /* \"ReplaceElements1.sol\":421:436  arr = [1,2,3,4] */\n      0xff\n      and\n      dup2\n      mstore\n      0x20\n      add\n        /* \"ReplaceElements1.sol\":432:433  3 */\n      0x03\n        /* \"ReplaceElements1.sol\":421:436  arr = [1,2,3,4] */\n      0xff\n      and\n      dup2\n      mstore\n      0x20\n      add\n        /* \"ReplaceElements1.sol\":434:435  4 */\n      0x04\n        /* \"ReplaceElements1.sol\":421:436  arr = [1,2,3,4] */\n      0xff\n      and\n      dup2\n      mstore\n      pop\n        /* \"ReplaceElements1.sol\":421:424  arr */\n      0x00\n        /* \"ReplaceElements1.sol\":421:436  arr = [1,2,3,4] */\n      swap1\n      0x04\n      tag_44\n      swap3\n      swap2\n      swap1\n      tag_45\n      jump\t// in\n    tag_44:\n      pop\n        /* \"ReplaceElements1.sol\":446:464  efficientRemove(0) */\n      tag_46\n        /* \"ReplaceElements1.sol\":462:463  0 */\n      0x00\n        /* \"ReplaceElements1.sol\":446:461  efficientRemove */\n      tag_9\n        /* \"ReplaceElements1.sol\":446:464  efficientRemove(0) */\n      jump\t// in\n    tag_46:\n      pop\n        /* \"ReplaceElements1.sol\":492:493  4 */\n      0x04\n        /* \"ReplaceElements1.sol\":482:485  arr */\n      0x00\n        /* \"ReplaceElements1.sol\":486:487  0 */\n      dup1\n        /* \"ReplaceElements1.sol\":482:488  arr[0] */\n      dup2\n      sload\n      dup2\n      lt\n      tag_47\n      jumpi\n      tag_48\n      tag_30\n      jump\t// in\n    tag_48:\n    tag_47:\n      swap1\n      0x00\n      mstore\n      keccak256(0x00, 0x20)\n      add\n      sload\n        /* \"ReplaceElements1.sol\":482:493  arr[0] == 4 */\n      eq\n        /* \"ReplaceElements1.sol\":475:494  assert(arr[0] == 4) */\n      tag_50\n      jumpi\n      tag_51\n      tag_52\n      jump\t// in\n    tag_51:\n    tag_50:\n        /* \"ReplaceElements1.sol\":521:522  2 */\n      0x02\n        /* \"ReplaceElements1.sol\":511:514  arr */\n      0x00\n        /* \"ReplaceElements1.sol\":515:516  1 */\n      0x01\n        /* \"ReplaceElements1.sol\":511:517  arr[1] */\n      dup2\n      sload\n      dup2\n      lt\n      tag_53\n      jumpi\n      tag_54\n      tag_30\n      jump\t// in\n    tag_54:\n    tag_53:\n      swap1\n      0x00\n      mstore\n      keccak256(0x00, 0x20)\n      add\n      sload\n        /* \"ReplaceElements1.sol\":511:522  arr[1] == 2 */\n      eq\n        /* \"ReplaceElements1.sol\":504:523  assert(arr[1] == 2) */\n      tag_56\n      jumpi\n      tag_57\n      tag_52\n      jump\t// in\n    tag_57:\n    tag_56:\n        /* \"ReplaceElements1.sol\":550:551  3 */\n      0x03\n        /* \"ReplaceElements1.sol\":540:543  arr */\n      0x00\n        /* \"ReplaceElements1.sol\":544:545  2 */\n      0x02\n        /* \"ReplaceElements1.sol\":540:546  arr[2] */\n      dup2\n      sload\n      dup2\n      lt\n      tag_58\n      jumpi\n      tag_59\n      tag_30\n      jump\t// in\n    tag_59:\n    tag_58:\n      swap1\n      0x00\n      mstore\n      keccak256(0x00, 0x20)\n      add\n      sload\n        /* \"ReplaceElements1.sol\":540:551  arr[2] == 3 */\n      eq\n        /* \"ReplaceElements1.sol\":533:552  assert(arr[2] == 3) */\n      tag_61\n      jumpi\n      tag_62\n      tag_52\n      jump\t// in\n    tag_62:\n    tag_61:\n        /* \"ReplaceElements1.sol\":583:584  3 */\n      0x03\n        /* \"ReplaceElements1.sol\":569:572  arr */\n      0x00\n        /* \"ReplaceElements1.sol\":569:579  arr.length */\n      dup1\n      sload\n      swap1\n      pop\n        /* \"ReplaceElements1.sol\":569:584  arr.length == 3 */\n      eq\n        /* \"ReplaceElements1.sol\":562:585  assert(arr.length == 3) */\n      tag_63\n      jumpi\n      tag_64\n      tag_52\n      jump\t// in\n    tag_64:\n    tag_63:\n        /* \"ReplaceElements1.sol\":385:592  function test() external  {... */\n      jump\t// out\n    tag_45:\n      dup3\n      dup1\n      sload\n      dup3\n      dup3\n      sstore\n      swap1\n      0x00\n      mstore\n      keccak256(0x00, 0x20)\n      swap1\n      dup2\n      add\n      swap3\n      dup3\n      iszero\n      tag_65\n      jumpi\n      swap2\n      0x20\n      mul\n      dup3\n      add\n    tag_66:\n      dup3\n      dup2\n      gt\n      iszero\n      tag_67\n      jumpi\n      dup3\n      mload\n      dup3\n      swap1\n      0xff\n      and\n      swap1\n      sstore\n      swap2\n      0x20\n      add\n      swap2\n      swap1\n      0x01\n      add\n      swap1\n      jump(tag_66)\n    tag_67:\n    tag_65:\n      pop\n      swap1\n      pop\n      tag_68\n      swap2\n      swap1\n      tag_69\n      jump\t// in\n    tag_68:\n      pop\n      swap1\n      jump\t// out\n    tag_69:\n    tag_70:\n      dup1\n      dup3\n      gt\n      iszero\n      tag_71\n      jumpi\n      0x00\n      dup2\n      0x00\n      swap1\n      sstore\n      pop\n      0x01\n      add\n      jump(tag_70)\n    tag_71:\n      pop\n      swap1\n      jump\t// out\n        /* \"#utility.yul\":7:146   */\n    tag_73:\n        /* \"#utility.yul\":53:58   */\n      0x00\n        /* \"#utility.yul\":91:97   */\n      dup2\n        /* \"#utility.yul\":78:98   */\n      calldataload\n        /* \"#utility.yul\":69:98   */\n      swap1\n      pop\n        /* \"#utility.yul\":107:140   */\n      tag_75\n        /* \"#utility.yul\":134:139   */\n      dup2\n        /* \"#utility.yul\":107:140   */\n      tag_76\n      jump\t// in\n    tag_75:\n        /* \"#utility.yul\":7:146   */\n      swap3\n      swap2\n      pop\n      pop\n      jump\t// out\n        /* \"#utility.yul\":152:481   */\n    tag_8:\n        /* \"#utility.yul\":211:217   */\n      0x00\n        /* \"#utility.yul\":260:262   */\n      0x20\n        /* \"#utility.yul\":248:257   */\n      dup3\n        /* \"#utility.yul\":239:246   */\n      dup5\n        /* \"#utility.yul\":235:258   */\n      sub\n        /* \"#utility.yul\":231:263   */\n      slt\n        /* \"#utility.yul\":228:347   */\n      iszero\n      tag_78\n      jumpi\n        /* \"#utility.yul\":266:345   */\n      tag_79\n      tag_80\n      jump\t// in\n    tag_79:\n        /* \"#utility.yul\":228:347   */\n    tag_78:\n        /* \"#utility.yul\":386:387   */\n      0x00\n        /* \"#utility.yul\":411:464   */\n      tag_81\n        /* \"#utility.yul\":456:463   */\n      dup5\n        /* \"#utility.yul\":447:453   */\n      dup3\n        /* \"#utility.yul\":436:445   */\n      dup6\n        /* \"#utility.yul\":432:454   */\n      add\n        /* \"#utility.yul\":411:464   */\n      tag_73\n      jump\t// in\n    tag_81:\n        /* \"#utility.yul\":401:464   */\n      swap2\n      pop\n        /* \"#utility.yul\":357:474   */\n      pop\n        /* \"#utility.yul\":152:481   */\n      swap3\n      swap2\n      pop\n      pop\n      jump\t// out\n        /* \"#utility.yul\":487:666   */\n    tag_82:\n        /* \"#utility.yul\":556:566   */\n      0x00\n        /* \"#utility.yul\":577:623   */\n      tag_84\n        /* \"#utility.yul\":619:622   */\n      dup4\n        /* \"#utility.yul\":611:617   */\n      dup4\n        /* \"#utility.yul\":577:623   */\n      tag_85\n      jump\t// in\n    tag_84:\n        /* \"#utility.yul\":655:659   */\n      0x20\n        /* \"#utility.yul\":650:653   */\n      dup4\n        /* \"#utility.yul\":646:660   */\n      add\n        /* \"#utility.yul\":632:660   */\n      swap1\n      pop\n        /* \"#utility.yul\":487:666   */\n      swap3\n      swap2\n      pop\n      pop\n      jump\t// out\n        /* \"#utility.yul\":702:1434   */\n    tag_86:\n        /* \"#utility.yul\":821:824   */\n      0x00\n        /* \"#utility.yul\":850:904   */\n      tag_88\n        /* \"#utility.yul\":898:903   */\n      dup3\n        /* \"#utility.yul\":850:904   */\n      tag_89\n      jump\t// in\n    tag_88:\n        /* \"#utility.yul\":920:1006   */\n      tag_90\n        /* \"#utility.yul\":999:1005   */\n      dup2\n        /* \"#utility.yul\":994:997   */\n      dup6\n        /* \"#utility.yul\":920:1006   */\n      tag_91\n      jump\t// in\n    tag_90:\n        /* \"#utility.yul\":913:1006   */\n      swap4\n      pop\n        /* \"#utility.yul\":1030:1086   */\n      tag_92\n        /* \"#utility.yul\":1080:1085   */\n      dup4\n        /* \"#utility.yul\":1030:1086   */\n      tag_93\n      jump\t// in\n    tag_92:\n        /* \"#utility.yul\":1109:1116   */\n      dup1\n        /* \"#utility.yul\":1140:1141   */\n      0x00\n        /* \"#utility.yul\":1125:1409   */\n    tag_94:\n        /* \"#utility.yul\":1150:1156   */\n      dup4\n        /* \"#utility.yul\":1147:1148   */\n      dup2\n        /* \"#utility.yul\":1144:1157   */\n      lt\n        /* \"#utility.yul\":1125:1409   */\n      iszero\n      tag_96\n      jumpi\n        /* \"#utility.yul\":1226:1232   */\n      dup2\n        /* \"#utility.yul\":1220:1233   */\n      mload\n        /* \"#utility.yul\":1253:1316   */\n      tag_97\n        /* \"#utility.yul\":1312:1315   */\n      dup9\n        /* \"#utility.yul\":1297:1310   */\n      dup3\n        /* \"#utility.yul\":1253:1316   */\n      tag_82\n      jump\t// in\n    tag_97:\n        /* \"#utility.yul\":1246:1316   */\n      swap8\n      pop\n        /* \"#utility.yul\":1339:1399   */\n      tag_98\n        /* \"#utility.yul\":1392:1398   */\n      dup4\n        /* \"#utility.yul\":1339:1399   */\n      tag_99\n      jump\t// in\n    tag_98:\n        /* \"#utility.yul\":1329:1399   */\n      swap3\n      pop\n        /* \"#utility.yul\":1185:1409   */\n      pop\n        /* \"#utility.yul\":1172:1173   */\n      0x01\n        /* \"#utility.yul\":1169:1170   */\n      dup2\n        /* \"#utility.yul\":1165:1174   */\n      add\n        /* \"#utility.yul\":1160:1174   */\n      swap1\n      pop\n        /* \"#utility.yul\":1125:1409   */\n      jump(tag_94)\n    tag_96:\n        /* \"#utility.yul\":1129:1143   */\n      pop\n        /* \"#utility.yul\":1425:1428   */\n      dup6\n        /* \"#utility.yul\":1418:1428   */\n      swap4\n      pop\n        /* \"#utility.yul\":826:1434   */\n      pop\n      pop\n      pop\n        /* \"#utility.yul\":702:1434   */\n      swap3\n      swap2\n      pop\n      pop\n      jump\t// out\n        /* \"#utility.yul\":1440:1806   */\n    tag_100:\n        /* \"#utility.yul\":1582:1585   */\n      0x00\n        /* \"#utility.yul\":1603:1670   */\n      tag_102\n        /* \"#utility.yul\":1667:1669   */\n      0x12\n        /* \"#utility.yul\":1662:1665   */\n      dup4\n        /* \"#utility.yul\":1603:1670   */\n      tag_103\n      jump\t// in\n    tag_102:\n        /* \"#utility.yul\":1596:1670   */\n      swap2\n      pop\n        /* \"#utility.yul\":1679:1772   */\n      tag_104\n        /* \"#utility.yul\":1768:1771   */\n      dup3\n        /* \"#utility.yul\":1679:1772   */\n      tag_105\n      jump\t// in\n    tag_104:\n        /* \"#utility.yul\":1797:1799   */\n      0x20\n        /* \"#utility.yul\":1792:1795   */\n      dup3\n        /* \"#utility.yul\":1788:1800   */\n      add\n        /* \"#utility.yul\":1781:1800   */\n      swap1\n      pop\n        /* \"#utility.yul\":1440:1806   */\n      swap2\n      swap1\n      pop\n      jump\t// out\n        /* \"#utility.yul\":1812:2178   */\n    tag_106:\n        /* \"#utility.yul\":1954:1957   */\n      0x00\n        /* \"#utility.yul\":1975:2042   */\n      tag_108\n        /* \"#utility.yul\":2039:2041   */\n      0x13\n        /* \"#utility.yul\":2034:2037   */\n      dup4\n        /* \"#utility.yul\":1975:2042   */\n      tag_103\n      jump\t// in\n    tag_108:\n        /* \"#utility.yul\":1968:2042   */\n      swap2\n      pop\n        /* \"#utility.yul\":2051:2144   */\n      tag_109\n        /* \"#utility.yul\":2140:2143   */\n      dup3\n        /* \"#utility.yul\":2051:2144   */\n      tag_110\n      jump\t// in\n    tag_109:\n        /* \"#utility.yul\":2169:2171   */\n      0x20\n        /* \"#utility.yul\":2164:2167   */\n      dup3\n        /* \"#utility.yul\":2160:2172   */\n      add\n        /* \"#utility.yul\":2153:2172   */\n      swap1\n      pop\n        /* \"#utility.yul\":1812:2178   */\n      swap2\n      swap1\n      pop\n      jump\t// out\n        /* \"#utility.yul\":2184:2292   */\n    tag_85:\n        /* \"#utility.yul\":2261:2285   */\n      tag_112\n        /* \"#utility.yul\":2279:2284   */\n      dup2\n        /* \"#utility.yul\":2261:2285   */\n      tag_113\n      jump\t// in\n    tag_112:\n        /* \"#utility.yul\":2256:2259   */\n      dup3\n        /* \"#utility.yul\":2249:2286   */\n      mstore\n        /* \"#utility.yul\":2184:2292   */\n      pop\n      pop\n      jump\t// out\n        /* \"#utility.yul\":2298:2416   */\n    tag_114:\n        /* \"#utility.yul\":2385:2409   */\n      tag_116\n        /* \"#utility.yul\":2403:2408   */\n      dup2\n        /* \"#utility.yul\":2385:2409   */\n      tag_113\n      jump\t// in\n    tag_116:\n        /* \"#utility.yul\":2380:2383   */\n      dup3\n        /* \"#utility.yul\":2373:2410   */\n      mstore\n        /* \"#utility.yul\":2298:2416   */\n      pop\n      pop\n      jump\t// out\n        /* \"#utility.yul\":2422:2795   */\n    tag_11:\n        /* \"#utility.yul\":2565:2569   */\n      0x00\n        /* \"#utility.yul\":2603:2605   */\n      0x20\n        /* \"#utility.yul\":2592:2601   */\n      dup3\n        /* \"#utility.yul\":2588:2606   */\n      add\n        /* \"#utility.yul\":2580:2606   */\n      swap1\n      pop\n        /* \"#utility.yul\":2652:2661   */\n      dup2\n        /* \"#utility.yul\":2646:2650   */\n      dup2\n        /* \"#utility.yul\":2642:2662   */\n      sub\n        /* \"#utility.yul\":2638:2639   */\n      0x00\n        /* \"#utility.yul\":2627:2636   */\n      dup4\n        /* \"#utility.yul\":2623:2640   */\n      add\n        /* \"#utility.yul\":2616:2663   */\n      mstore\n        /* \"#utility.yul\":2680:2788   */\n      tag_118\n        /* \"#utility.yul\":2783:2787   */\n      dup2\n        /* \"#utility.yul\":2774:2780   */\n      dup5\n        /* \"#utility.yul\":2680:2788   */\n      tag_86\n      jump\t// in\n    tag_118:\n        /* \"#utility.yul\":2672:2788   */\n      swap1\n      pop\n        /* \"#utility.yul\":2422:2795   */\n      swap3\n      swap2\n      pop\n      pop\n      jump\t// out\n        /* \"#utility.yul\":2801:3220   */\n    tag_22:\n        /* \"#utility.yul\":2967:2971   */\n      0x00\n        /* \"#utility.yul\":3005:3007   */\n      0x20\n        /* \"#utility.yul\":2994:3003   */\n      dup3\n        /* \"#utility.yul\":2990:3008   */\n      add\n        /* \"#utility.yul\":2982:3008   */\n      swap1\n      pop\n        /* \"#utility.yul\":3054:3063   */\n      dup2\n        /* \"#utility.yul\":3048:3052   */\n      dup2\n        /* \"#utility.yul\":3044:3064   */\n      sub\n        /* \"#utility.yul\":3040:3041   */\n      0x00\n        /* \"#utility.yul\":3029:3038   */\n      dup4\n        /* \"#utility.yul\":3025:3042   */\n      add\n        /* \"#utility.yul\":3018:3065   */\n      mstore\n        /* \"#utility.yul\":3082:3213   */\n      tag_120\n        /* \"#utility.yul\":3208:3212   */\n      dup2\n        /* \"#utility.yul\":3082:3213   */\n      tag_100\n      jump\t// in\n    tag_120:\n        /* \"#utility.yul\":3074:3213   */\n      swap1\n      pop\n        /* \"#utility.yul\":2801:3220   */\n      swap2\n      swap1\n      pop\n      jump\t// out\n        /* \"#utility.yul\":3226:3645   */\n    tag_25:\n        /* \"#utility.yul\":3392:3396   */\n      0x00\n        /* \"#utility.yul\":3430:3432   */\n      0x20\n        /* \"#utility.yul\":3419:3428   */\n      dup3\n        /* \"#utility.yul\":3415:3433   */\n      add\n        /* \"#utility.yul\":3407:3433   */\n      swap1\n      pop\n        /* \"#utility.yul\":3479:3488   */\n      dup2\n        /* \"#utility.yul\":3473:3477   */\n      dup2\n        /* \"#utility.yul\":3469:3489   */\n      sub\n        /* \"#utility.yul\":3465:3466   */\n      0x00\n        /* \"#utility.yul\":3454:3463   */\n      dup4\n        /* \"#utility.yul\":3450:3467   */\n      add\n        /* \"#utility.yul\":3443:3490   */\n      mstore\n        /* \"#utility.yul\":3507:3638   */\n      tag_122\n        /* \"#utility.yul\":3633:3637   */\n      dup2\n        /* \"#utility.yul\":3507:3638   */\n      tag_106\n      jump\t// in\n    tag_122:\n        /* \"#utility.yul\":3499:3638   */\n      swap1\n      pop\n        /* \"#utility.yul\":3226:3645   */\n      swap2\n      swap1\n      pop\n      jump\t// out\n        /* \"#utility.yul\":3651:3873   */\n    tag_16:\n        /* \"#utility.yul\":3744:3748   */\n      0x00\n        /* \"#utility.yul\":3782:3784   */\n      0x20\n        /* \"#utility.yul\":3771:3780   */\n      dup3\n        /* \"#utility.yul\":3767:3785   */\n      add\n        /* \"#utility.yul\":3759:3785   */\n      swap1\n      pop\n        /* \"#utility.yul\":3795:3866   */\n      tag_124\n        /* \"#utility.yul\":3863:3864   */\n      0x00\n        /* \"#utility.yul\":3852:3861   */\n      dup4\n        /* \"#utility.yul\":3848:3865   */\n      add\n        /* \"#utility.yul\":3839:3845   */\n      dup5\n        /* \"#utility.yul\":3795:3866   */\n      tag_114\n      jump\t// in\n    tag_124:\n        /* \"#utility.yul\":3651:3873   */\n      swap3\n      swap2\n      pop\n      pop\n      jump\t// out\n        /* \"#utility.yul\":3960:4092   */\n    tag_93:\n        /* \"#utility.yul\":4027:4031   */\n      0x00\n        /* \"#utility.yul\":4050:4053   */\n      dup2\n        /* \"#utility.yul\":4042:4053   */\n      swap1\n      pop\n        /* \"#utility.yul\":4080:4084   */\n      0x20\n        /* \"#utility.yul\":4075:4078   */\n      dup3\n        /* \"#utility.yul\":4071:4085   */\n      add\n        /* \"#utility.yul\":4063:4085   */\n      swap1\n      pop\n        /* \"#utility.yul\":3960:4092   */\n      swap2\n      swap1\n      pop\n      jump\t// out\n        /* \"#utility.yul\":4098:4212   */\n    tag_89:\n        /* \"#utility.yul\":4165:4171   */\n      0x00\n        /* \"#utility.yul\":4199:4204   */\n      dup2\n        /* \"#utility.yul\":4193:4205   */\n      mload\n        /* \"#utility.yul\":4183:4205   */\n      swap1\n      pop\n        /* \"#utility.yul\":4098:4212   */\n      swap2\n      swap1\n      pop\n      jump\t// out\n        /* \"#utility.yul\":4218:4331   */\n    tag_99:\n        /* \"#utility.yul\":4288:4292   */\n      0x00\n        /* \"#utility.yul\":4320:4324   */\n      0x20\n        /* \"#utility.yul\":4315:4318   */\n      dup3\n        /* \"#utility.yul\":4311:4325   */\n      add\n        /* \"#utility.yul\":4303:4325   */\n      swap1\n      pop\n        /* \"#utility.yul\":4218:4331   */\n      swap2\n      swap1\n      pop\n      jump\t// out\n        /* \"#utility.yul\":4337:4521   */\n    tag_91:\n        /* \"#utility.yul\":4436:4447   */\n      0x00\n        /* \"#utility.yul\":4470:4476   */\n      dup3\n        /* \"#utility.yul\":4465:4468   */\n      dup3\n        /* \"#utility.yul\":4458:4477   */\n      mstore\n        /* \"#utility.yul\":4510:4514   */\n      0x20\n        /* \"#utility.yul\":4505:4508   */\n      dup3\n        /* \"#utility.yul\":4501:4515   */\n      add\n        /* \"#utility.yul\":4486:4515   */\n      swap1\n      pop\n        /* \"#utility.yul\":4337:4521   */\n      swap3\n      swap2\n      pop\n      pop\n      jump\t// out\n        /* \"#utility.yul\":4527:4696   */\n    tag_103:\n        /* \"#utility.yul\":4611:4622   */\n      0x00\n        /* \"#utility.yul\":4645:4651   */\n      dup3\n        /* \"#utility.yul\":4640:4643   */\n      dup3\n        /* \"#utility.yul\":4633:4652   */\n      mstore\n        /* \"#utility.yul\":4685:4689   */\n      0x20\n        /* \"#utility.yul\":4680:4683   */\n      dup3\n        /* \"#utility.yul\":4676:4690   */\n      add\n        /* \"#utility.yul\":4661:4690   */\n      swap1\n      pop\n        /* \"#utility.yul\":4527:4696   */\n      swap3\n      swap2\n      pop\n      pop\n      jump\t// out\n        /* \"#utility.yul\":4702:4893   */\n    tag_27:\n        /* \"#utility.yul\":4742:4746   */\n      0x00\n        /* \"#utility.yul\":4762:4782   */\n      tag_133\n        /* \"#utility.yul\":4780:4781   */\n      dup3\n        /* \"#utility.yul\":4762:4782   */\n      tag_113\n      jump\t// in\n    tag_133:\n        /* \"#utility.yul\":4757:4782   */\n      swap2\n      pop\n        /* \"#utility.yul\":4796:4816   */\n      tag_134\n        /* \"#utility.yul\":4814:4815   */\n      dup4\n        /* \"#utility.yul\":4796:4816   */\n      tag_113\n      jump\t// in\n    tag_134:\n        /* \"#utility.yul\":4791:4816   */\n      swap3\n      pop\n        /* \"#utility.yul\":4835:4836   */\n      dup3\n        /* \"#utility.yul\":4832:4833   */\n      dup3\n        /* \"#utility.yul\":4829:4837   */\n      lt\n        /* \"#utility.yul\":4826:4860   */\n      iszero\n      tag_135\n      jumpi\n        /* \"#utility.yul\":4840:4858   */\n      tag_136\n      tag_137\n      jump\t// in\n    tag_136:\n        /* \"#utility.yul\":4826:4860   */\n    tag_135:\n        /* \"#utility.yul\":4885:4886   */\n      dup3\n        /* \"#utility.yul\":4882:4883   */\n      dup3\n        /* \"#utility.yul\":4878:4887   */\n      sub\n        /* \"#utility.yul\":4870:4887   */\n      swap1\n      pop\n        /* \"#utility.yul\":4702:4893   */\n      swap3\n      swap2\n      pop\n      pop\n      jump\t// out\n        /* \"#utility.yul\":4899:4976   */\n    tag_113:\n        /* \"#utility.yul\":4936:4943   */\n      0x00\n        /* \"#utility.yul\":4965:4970   */\n      dup2\n        /* \"#utility.yul\":4954:4970   */\n      swap1\n      pop\n        /* \"#utility.yul\":4899:4976   */\n      swap2\n      swap1\n      pop\n      jump\t// out\n        /* \"#utility.yul\":4982:5162   */\n    tag_52:\n        /* \"#utility.yul\":5030:5107   */\n      0x4e487b7100000000000000000000000000000000000000000000000000000000\n        /* \"#utility.yul\":5027:5028   */\n      0x00\n        /* \"#utility.yul\":5020:5108   */\n      mstore\n        /* \"#utility.yul\":5127:5131   */\n      0x01\n        /* \"#utility.yul\":5124:5125   */\n      0x04\n        /* \"#utility.yul\":5117:5132   */\n      mstore\n        /* \"#utility.yul\":5151:5155   */\n      0x24\n        /* \"#utility.yul\":5148:5149   */\n      0x00\n        /* \"#utility.yul\":5141:5156   */\n      revert\n        /* \"#utility.yul\":5168:5348   */\n    tag_137:\n        /* \"#utility.yul\":5216:5293   */\n      0x4e487b7100000000000000000000000000000000000000000000000000000000\n        /* \"#utility.yul\":5213:5214   */\n      0x00\n        /* \"#utility.yul\":5206:5294   */\n      mstore\n        /* \"#utility.yul\":5313:5317   */\n      0x11\n        /* \"#utility.yul\":5310:5311   */\n      0x04\n        /* \"#utility.yul\":5303:5318   */\n      mstore\n        /* \"#utility.yul\":5337:5341   */\n      0x24\n        /* \"#utility.yul\":5334:5335   */\n      0x00\n        /* \"#utility.yul\":5327:5342   */\n      revert\n        /* \"#utility.yul\":5354:5534   */\n    tag_37:\n        /* \"#utility.yul\":5402:5479   */\n      0x4e487b7100000000000000000000000000000000000000000000000000000000\n        /* \"#utility.yul\":5399:5400   */\n      0x00\n        /* \"#utility.yul\":5392:5480   */\n      mstore\n        /* \"#utility.yul\":5499:5503   */\n      0x31\n        /* \"#utility.yul\":5496:5497   */\n      0x04\n        /* \"#utility.yul\":5489:5504   */\n      mstore\n        /* \"#utility.yul\":5523:5527   */\n      0x24\n        /* \"#utility.yul\":5520:5521   */\n      0x00\n        /* \"#utility.yul\":5513:5528   */\n      revert\n        /* \"#utility.yul\":5540:5720   */\n    tag_30:\n        /* \"#utility.yul\":5588:5665   */\n      0x4e487b7100000000000000000000000000000000000000000000000000000000\n        /* \"#utility.yul\":5585:5586   */\n      0x00\n        /* \"#utility.yul\":5578:5666   */\n      mstore\n        /* \"#utility.yul\":5685:5689   */\n      0x32\n        /* \"#utility.yul\":5682:5683   */\n      0x04\n        /* \"#utility.yul\":5675:5690   */\n      mstore\n        /* \"#utility.yul\":5709:5713   */\n      0x24\n        /* \"#utility.yul\":5706:5707   */\n      0x00\n        /* \"#utility.yul\":5699:5714   */\n      revert\n        /* \"#utility.yul\":5849:5966   */\n    tag_80:\n        /* \"#utility.yul\":5958:5959   */\n      0x00\n        /* \"#utility.yul\":5955:5956   */\n      dup1\n        /* \"#utility.yul\":5948:5960   */\n      revert\n        /* \"#utility.yul\":5972:6140   */\n    tag_105:\n        /* \"#utility.yul\":6112:6132   */\n      0x6172722e6c656e677468206973207a65726f0000000000000000000000000000\n        /* \"#utility.yul\":6108:6109   */\n      0x00\n        /* \"#utility.yul\":6100:6106   */\n      dup3\n        /* \"#utility.yul\":6096:6110   */\n      add\n        /* \"#utility.yul\":6089:6133   */\n      mstore\n        /* \"#utility.yul\":5972:6140   */\n      pop\n      jump\t// out\n        /* \"#utility.yul\":6146:6315   */\n    tag_110:\n        /* \"#utility.yul\":6286:6307   */\n      0x696e646578206f7574206f6620626f756e647300000000000000000000000000\n        /* \"#utility.yul\":6282:6283   */\n      0x00\n        /* \"#utility.yul\":6274:6280   */\n      dup3\n        /* \"#utility.yul\":6270:6284   */\n      add\n        /* \"#utility.yul\":6263:6308   */\n      mstore\n        /* \"#utility.yul\":6146:6315   */\n      pop\n      jump\t// out\n        /* \"#utility.yul\":6321:6443   */\n    tag_76:\n        /* \"#utility.yul\":6394:6418   */\n      tag_149\n        /* \"#utility.yul\":6412:6417   */\n      dup2\n        /* \"#utility.yul\":6394:6418   */\n      tag_113\n      jump\t// in\n    tag_149:\n        /* \"#utility.yul\":6387:6392   */\n      dup2\n        /* \"#utility.yul\":6384:6419   */\n      eq\n        /* \"#utility.yul\":6374:6437   */\n      tag_150\n      jumpi\n        /* \"#utility.yul\":6433:6434   */\n      0x00\n        /* \"#utility.yul\":6430:6431   */\n      dup1\n        /* \"#utility.yul\":6423:6435   */\n      revert\n        /* \"#utility.yul\":6374:6437   */\n    tag_150:\n        /* \"#utility.yul\":6321:6443   */\n      pop\n      jump\t// out\n\n    auxdata: 0xa26469706673582212208f27d6a82f9c7dad3fe26a94eccbdbef71daa4fbdcf6288a02a8dc78388b341264736f6c63430008070033\n}\n",
				"bytecode": {
					"linkReferences": {},
					"object": "608060405234801561001057600080fd5b5061071a806100206000396000f3fe608060405234801561001057600080fd5b50600436106100415760003560e01c806323f7e9ca1461004657806371e5ee5f14610076578063f8a8fd6d146100a6575b600080fd5b610060600480360381019061005b91906103ae565b6100b0565b60405161006d91906104b5565b60405180910390f35b610090600480360381019061008b91906103ae565b610212565b60405161009d9190610517565b60405180910390f35b6100ae610236565b005b606060008080549050116100f9576040517f08c379a00000000000000000000000000000000000000000000000000000000081526004016100f0906104d7565b60405180910390fd5b6000805490508210610140576040517f08c379a0000000000000000000000000000000000000000000000000000000008152600401610137906104f7565b60405180910390fd5b60006001600080549050610154919061057c565b8154811061016557610164610647565b5b90600052602060002001546000838154811061018457610183610647565b5b906000526020600020018190555060008054806101a4576101a3610618565b5b60019003818190600052602060002001600090559055600080548060200260200160405190810160405280929190818152602001828054801561020657602002820191906000526020600020905b8154815260200190600101908083116101f2575b50505050509050919050565b6000818154811061022257600080fd5b906000526020600020016000915090505481565b6040518060800160405280600160ff168152602001600260ff168152602001600360ff168152602001600460ff16815250600090600461027792919061032a565b5061028260006100b0565b5060046000808154811061029957610298610647565b5b9060005260206000200154146102b2576102b16105ba565b5b600260006001815481106102c9576102c8610647565b5b9060005260206000200154146102e2576102e16105ba565b5b600360006002815481106102f9576102f8610647565b5b906000526020600020015414610312576103116105ba565b5b600360008054905014610328576103276105ba565b5b565b82805482825590600052602060002090810192821561036b579160200282015b8281111561036a578251829060ff1690559160200191906001019061034a565b5b509050610378919061037c565b5090565b5b8082111561039557600081600090555060010161037d565b5090565b6000813590506103a8816106cd565b92915050565b6000602082840312156103c4576103c3610676565b5b60006103d284828501610399565b91505092915050565b60006103e78383610497565b60208301905092915050565b60006103fe82610542565b610408818561055a565b935061041383610532565b8060005b8381101561044457815161042b88826103db565b97506104368361054d565b925050600181019050610417565b5085935050505092915050565b600061045e60128361056b565b91506104698261067b565b602082019050919050565b600061048160138361056b565b915061048c826106a4565b602082019050919050565b6104a0816105b0565b82525050565b6104af816105b0565b82525050565b600060208201905081810360008301526104cf81846103f3565b905092915050565b600060208201905081810360008301526104f081610451565b9050919050565b6000602082019050818103600083015261051081610474565b9050919050565b600060208201905061052c60008301846104a6565b92915050565b6000819050602082019050919050565b600081519050919050565b6000602082019050919050565b600082825260208201905092915050565b600082825260208201905092915050565b6000610587826105b0565b9150610592836105b0565b9250828210156105a5576105a46105e9565b5b828203905092915050565b6000819050919050565b7f4e487b7100000000000000000000000000000000000000000000000000000000600052600160045260246000fd5b7f4e487b7100000000000000000000000000000000000000000000000000000000600052601160045260246000fd5b7f4e487b7100000000000000000000000000000000000000000000000000000000600052603160045260246000fd5b7f4e487b7100000000000000000000000000000000000000000000000000000000600052603260045260246000fd5b600080fd5b7f6172722e6c656e677468206973207a65726f0000000000000000000000000000600082015250565b7f696e646578206f7574206f6620626f756e647300000000000000000000000000600082015250565b6106d6816105b0565b81146106e157600080fd5b5056fea26469706673582212208f27d6a82f9c7dad3fe26a94eccbdbef71daa4fbdcf6288a02a8dc78388b341264736f6c63430008070033",
					"opcodes": "PUSH1 0x80 PUSH1 0x40 MSTORE CALLVALUE DUP1 ISZERO PUSH2 0x10 JUMPI PUSH1 0x0 DUP1 REVERT JUMPDEST POP PUSH2 0x71A DUP1 PUSH2 0x20 PUSH1 0x0 CODECOPY PUSH1 0x0 RETURN INVALID PUSH1 0x80 PUSH1 0x40 MSTORE CALLVALUE DUP1 ISZERO PUSH2 0x10 JUMPI PUSH1 0x0 DUP1 REVERT JUMPDEST POP PUSH1 0x4 CALLDATASIZE LT PUSH2 0x41 JUMPI PUSH1 0x0 CALLDATALOAD PUSH1 0xE0 SHR DUP1 PUSH4 0x23F7E9CA EQ PUSH2 0x46 JUMPI DUP1 PUSH4 0x71E5EE5F EQ PUSH2 0x76 JUMPI DUP1 PUSH4 0xF8A8FD6D EQ PUSH2 0xA6 JUMPI JUMPDEST PUSH1 0x0 DUP1 REVERT JUMPDEST PUSH2 0x60 PUSH1 0x4 DUP1 CALLDATASIZE SUB DUP2 ADD SWAP1 PUSH2 0x5B SWAP2 SWAP1 PUSH2 0x3AE JUMP JUMPDEST PUSH2 0xB0 JUMP JUMPDEST PUSH1 0x40 MLOAD PUSH2 0x6D SWAP2 SWAP1 PUSH2 0x4B5 JUMP JUMPDEST PUSH1 0x40 MLOAD DUP1 SWAP2 SUB SWAP1 RETURN JUMPDEST PUSH2 0x90 PUSH1 0x4 DUP1 CALLDATASIZE SUB DUP2 ADD SWAP1 PUSH2 0x8B SWAP2 SWAP1 PUSH2 0x3AE JUMP JUMPDEST PUSH2 0x212 JUMP JUMPDEST PUSH1 0x40 MLOAD PUSH2 0x9D SWAP2 SWAP1 PUSH2 0x517 JUMP JUMPDEST PUSH1 0x40 MLOAD DUP1 SWAP2 SUB SWAP1 RETURN JUMPDEST PUSH2 0xAE PUSH2 0x236 JUMP JUMPDEST STOP JUMPDEST PUSH1 0x60 PUSH1 0x0 DUP1 DUP1 SLOAD SWAP1 POP GT PUSH2 0xF9 JUMPI PUSH1 0x40 MLOAD PUSH32 0x8C379A000000000000000000000000000000000000000000000000000000000 DUP2 MSTORE PUSH1 0x4 ADD PUSH2 0xF0 SWAP1 PUSH2 0x4D7 JUMP JUMPDEST PUSH1 0x40 MLOAD DUP1 SWAP2 SUB SWAP1 REVERT JUMPDEST PUSH1 0x0 DUP1 SLOAD SWAP1 POP DUP3 LT PUSH2 0x140 JUMPI PUSH1 0x40 MLOAD PUSH32 0x8C379A000000000000000000000000000000000000000000000000000000000 DUP2 MSTORE PUSH1 0x4 ADD PUSH2 0x137 SWAP1 PUSH2 0x4F7 JUMP JUMPDEST PUSH1 0x40 MLOAD DUP1 SWAP2 SUB SWAP1 REVERT JUMPDEST PUSH1 0x0 PUSH1 0x1 PUSH1 0x0 DUP1 SLOAD SWAP1 POP PUSH2 0x154 SWAP2 SWAP1 PUSH2 0x57C JUMP JUMPDEST DUP2 SLOAD DUP2 LT PUSH2 0x165 JUMPI PUSH2 0x164 PUSH2 0x647 JUMP JUMPDEST JUMPDEST SWAP1 PUSH1 0x0 MSTORE PUSH1 0x20 PUSH1 0x0 KECCAK256 ADD SLOAD PUSH1 0x0 DUP4 DUP2 SLOAD DUP2 LT PUSH2 0x184 JUMPI PUSH2 0x183 PUSH2 0x647 JUMP JUMPDEST JUMPDEST SWAP1 PUSH1 0x0 MSTORE PUSH1 0x20 PUSH1 0x0 KECCAK256 ADD DUP2 SWAP1 SSTORE POP PUSH1 0x0 DUP1 SLOAD DUP1 PUSH2 0x1A4 JUMPI PUSH2 0x1A3 PUSH2 0x618 JUMP JUMPDEST JUMPDEST PUSH1 0x1 SWAP1 SUB DUP2 DUP2 SWAP1 PUSH1 0x0 MSTORE PUSH1 0x20 PUSH1 0x0 KECCAK256 ADD PUSH1 0x0 SWAP1 SSTORE SWAP1 SSTORE PUSH1 0x0 DUP1 SLOAD DUP1 PUSH1 0x20 MUL PUSH1 0x20 ADD PUSH1 0x40 MLOAD SWAP1 DUP2 ADD PUSH1 0x40 MSTORE DUP1 SWAP3 SWAP2 SWAP1 DUP2 DUP2 MSTORE PUSH1 0x20 ADD DUP3 DUP1 SLOAD DUP1 ISZERO PUSH2 0x206 JUMPI PUSH1 0x20 MUL DUP3 ADD SWAP2 SWAP1 PUSH1 0x0 MSTORE PUSH1 0x20 PUSH1 0x0 KECCAK256 SWAP1 JUMPDEST DUP2 SLOAD DUP2 MSTORE PUSH1 0x20 ADD SWAP1 PUSH1 0x1 ADD SWAP1 DUP1 DUP4 GT PUSH2 0x1F2 JUMPI JUMPDEST POP POP POP POP POP SWAP1 POP SWAP2 SWAP1 POP JUMP JUMPDEST PUSH1 0x0 DUP2 DUP2 SLOAD DUP2 LT PUSH2 0x222 JUMPI PUSH1 0x0 DUP1 REVERT JUMPDEST SWAP1 PUSH1 0x0 MSTORE PUSH1 0x20 PUSH1 0x0 KECCAK256 ADD PUSH1 0x0 SWAP2 POP SWAP1 POP SLOAD DUP2 JUMP JUMPDEST PUSH1 0x40 MLOAD DUP1 PUSH1 0x80 ADD PUSH1 0x40 MSTORE DUP1 PUSH1 0x1 PUSH1 0xFF AND DUP2 MSTORE PUSH1 0x20 ADD PUSH1 0x2 PUSH1 0xFF AND DUP2 MSTORE PUSH1 0x20 ADD PUSH1 0x3 PUSH1 0xFF AND DUP2 MSTORE PUSH1 0x20 ADD PUSH1 0x4 PUSH1 0xFF AND DUP2 MSTORE POP PUSH1 0x0 SWAP1 PUSH1 0x4 PUSH2 0x277 SWAP3 SWAP2 SWAP1 PUSH2 0x32A JUMP JUMPDEST POP PUSH2 0x282 PUSH1 0x0 PUSH2 0xB0 JUMP JUMPDEST POP PUSH1 0x4 PUSH1 0x0 DUP1 DUP2 SLOAD DUP2 LT PUSH2 0x299 JUMPI PUSH2 0x298 PUSH2 0x647 JUMP JUMPDEST JUMPDEST SWAP1 PUSH1 0x0 MSTORE PUSH1 0x20 PUSH1 0x0 KECCAK256 ADD SLOAD EQ PUSH2 0x2B2 JUMPI PUSH2 0x2B1 PUSH2 0x5BA JUMP JUMPDEST JUMPDEST PUSH1 0x2 PUSH1 0x0 PUSH1 0x1 DUP2 SLOAD DUP2 LT PUSH2 0x2C9 JUMPI PUSH2 0x2C8 PUSH2 0x647 JUMP JUMPDEST JUMPDEST SWAP1 PUSH1 0x0 MSTORE PUSH1 0x20 PUSH1 0x0 KECCAK256 ADD SLOAD EQ PUSH2 0x2E2 JUMPI PUSH2 0x2E1 PUSH2 0x5BA JUMP JUMPDEST JUMPDEST PUSH1 0x3 PUSH1 0x0 PUSH1 0x2 DUP2 SLOAD DUP2 LT PUSH2 0x2F9 JUMPI PUSH2 0x2F8 PUSH2 0x647 JUMP JUMPDEST JUMPDEST SWAP1 PUSH1 0x0 MSTORE PUSH1 0x20 PUSH1 0x0 KECCAK256 ADD SLOAD EQ PUSH2 0x312 JUMPI PUSH2 0x311 PUSH2 0x5BA JUMP JUMPDEST JUMPDEST PUSH1 0x3 PUSH1 0x0 DUP1 SLOAD SWAP1 POP EQ PUSH2 0x328 JUMPI PUSH2 0x327 PUSH2 0x5BA JUMP JUMPDEST JUMPDEST JUMP JUMPDEST DUP3 DUP1 SLOAD DUP3 DUP3 SSTORE SWAP1 PUSH1 0x0 MSTORE PUSH1 0x20 PUSH1 0x0 KECCAK256 SWAP1 DUP2 ADD SWAP3 DUP3 ISZERO PUSH2 0x36B JUMPI SWAP2 PUSH1 0x20 MUL DUP3 ADD JUMPDEST DUP3 DUP2 GT ISZERO PUSH2 0x36A JUMPI DUP3 MLOAD DUP3 SWAP1 PUSH1 0xFF AND SWAP1 SSTORE SWAP2 PUSH1 0x20 ADD SWAP2 SWAP1 PUSH1 0x1 ADD SWAP1 PUSH2 0x34A JUMP JUMPDEST JUMPDEST POP SWAP1 POP PUSH2 0x378 SWAP2 SWAP1 PUSH2 0x37C JUMP JUMPDEST POP SWAP1 JUMP JUMPDEST JUMPDEST DUP1 DUP3 GT ISZERO PUSH2 0x395 JUMPI PUSH1 0x0 DUP2 PUSH1 0x0 SWAP1 SSTORE POP PUSH1 0x1 ADD PUSH2 0x37D JUMP JUMPDEST POP SWAP1 JUMP JUMPDEST PUSH1 0x0 DUP2 CALLDATALOAD SWAP1 POP PUSH2 0x3A8 DUP2 PUSH2 0x6CD JUMP JUMPDEST SWAP3 SWAP2 POP POP JUMP JUMPDEST PUSH1 0x0 PUSH1 0x20 DUP3 DUP5 SUB SLT ISZERO PUSH2 0x3C4 JUMPI PUSH2 0x3C3 PUSH2 0x676 JUMP JUMPDEST JUMPDEST PUSH1 0x0 PUSH2 0x3D2 DUP5 DUP3 DUP6 ADD PUSH2 0x399 JUMP JUMPDEST SWAP2 POP POP SWAP3 SWAP2 POP POP JUMP JUMPDEST PUSH1 0x0 PUSH2 0x3E7 DUP4 DUP4 PUSH2 0x497 JUMP JUMPDEST PUSH1 0x20 DUP4 ADD SWAP1 POP SWAP3 SWAP2 POP POP JUMP JUMPDEST PUSH1 0x0 PUSH2 0x3FE DUP3 PUSH2 0x542 JUMP JUMPDEST PUSH2 0x408 DUP2 DUP6 PUSH2 0x55A JUMP JUMPDEST SWAP4 POP PUSH2 0x413 DUP4 PUSH2 0x532 JUMP JUMPDEST DUP1 PUSH1 0x0 JUMPDEST DUP4 DUP2 LT ISZERO PUSH2 0x444 JUMPI DUP2 MLOAD PUSH2 0x42B DUP9 DUP3 PUSH2 0x3DB JUMP JUMPDEST SWAP8 POP PUSH2 0x436 DUP4 PUSH2 0x54D JUMP JUMPDEST SWAP3 POP POP PUSH1 0x1 DUP2 ADD SWAP1 POP PUSH2 0x417 JUMP JUMPDEST POP DUP6 SWAP4 POP POP POP POP SWAP3 SWAP2 POP POP JUMP JUMPDEST PUSH1 0x0 PUSH2 0x45E PUSH1 0x12 DUP4 PUSH2 0x56B JUMP JUMPDEST SWAP2 POP PUSH2 0x469 DUP3 PUSH2 0x67B JUMP JUMPDEST PUSH1 0x20 DUP3 ADD SWAP1 POP SWAP2 SWAP1 POP JUMP JUMPDEST PUSH1 0x0 PUSH2 0x481 PUSH1 0x13 DUP4 PUSH2 0x56B JUMP JUMPDEST SWAP2 POP PUSH2 0x48C DUP3 PUSH2 0x6A4 JUMP JUMPDEST PUSH1 0x20 DUP3 ADD SWAP1 POP SWAP2 SWAP1 POP JUMP JUMPDEST PUSH2 0x4A0 DUP2 PUSH2 0x5B0 JUMP JUMPDEST DUP3 MSTORE POP POP JUMP JUMPDEST PUSH2 0x4AF DUP2 PUSH2 0x5B0 JUMP JUMPDEST DUP3 MSTORE POP POP JUMP JUMPDEST PUSH1 0x0 PUSH1 0x20 DUP3 ADD SWAP1 POP DUP2 DUP2 SUB PUSH1 0x0 DUP4 ADD MSTORE PUSH2 0x4CF DUP2 DUP5 PUSH2 0x3F3 JUMP JUMPDEST SWAP1 POP SWAP3 SWAP2 POP POP JUMP JUMPDEST PUSH1 0x0 PUSH1 0x20 DUP3 ADD SWAP1 POP DUP2 DUP2 SUB PUSH1 0x0 DUP4 ADD MSTORE PUSH2 0x4F0 DUP2 PUSH2 0x451 JUMP JUMPDEST SWAP1 POP SWAP2 SWAP1 POP JUMP JUMPDEST PUSH1 0x0 PUSH1 0x20 DUP3 ADD SWAP1 POP DUP2 DUP2 SUB PUSH1 0x0 DUP4 ADD MSTORE PUSH2 0x510 DUP2 PUSH2 0x474 JUMP JUMPDEST SWAP1 POP SWAP2 SWAP1 POP JUMP JUMPDEST PUSH1 0x0 PUSH1 0x20 DUP3 ADD SWAP1 POP PUSH2 0x52C PUSH1 0x0 DUP4 ADD DUP5 PUSH2 0x4A6 JUMP JUMPDEST SWAP3 SWAP2 POP POP JUMP JUMPDEST PUSH1 0x0 DUP2 SWAP1 POP PUSH1 0x20 DUP3 ADD SWAP1 POP SWAP2 SWAP1 POP JUMP JUMPDEST PUSH1 0x0 DUP2 MLOAD SWAP1 POP SWAP2 SWAP1 POP JUMP JUMPDEST PUSH1 0x0 PUSH1 0x20 DUP3 ADD SWAP1 POP SWAP2 SWAP1 POP JUMP JUMPDEST PUSH1 0x0 DUP3 DUP3 MSTORE PUSH1 0x20 DUP3 ADD SWAP1 POP SWAP3 SWAP2 POP POP JUMP JUMPDEST PUSH1 0x0 DUP3 DUP3 MSTORE PUSH1 0x20 DUP3 ADD SWAP1 POP SWAP3 SWAP2 POP POP JUMP JUMPDEST PUSH1 0x0 PUSH2 0x587 DUP3 PUSH2 0x5B0 JUMP JUMPDEST SWAP2 POP PUSH2 0x592 DUP4 PUSH2 0x5B0 JUMP JUMPDEST SWAP3 POP DUP3 DUP3 LT ISZERO PUSH2 0x5A5 JUMPI PUSH2 0x5A4 PUSH2 0x5E9 JUMP JUMPDEST JUMPDEST DUP3 DUP3 SUB SWAP1 POP SWAP3 SWAP2 POP POP JUMP JUMPDEST PUSH1 0x0 DUP2 SWAP1 POP SWAP2 SWAP1 POP JUMP JUMPDEST PUSH32 0x4E487B7100000000000000000000000000000000000000000000000000000000 PUSH1 0x0 MSTORE PUSH1 0x1 PUSH1 0x4 MSTORE PUSH1 0x24 PUSH1 0x0 REVERT JUMPDEST PUSH32 0x4E487B7100000000000000000000000000000000000000000000000000000000 PUSH1 0x0 MSTORE PUSH1 0x11 PUSH1 0x4 MSTORE PUSH1 0x24 PUSH1 0x0 REVERT JUMPDEST PUSH32 0x4E487B7100000000000000000000000000000000000000000000000000000000 PUSH1 0x0 MSTORE PUSH1 0x31 PUSH1 0x4 MSTORE PUSH1 0x24 PUSH1 0x0 REVERT JUMPDEST PUSH32 0x4E487B7100000000000000000000000000000000000000000000000000000000 PUSH1 0x0 MSTORE PUSH1 0x32 PUSH1 0x4 MSTORE PUSH1 0x24 PUSH1 0x0 REVERT JUMPDEST PUSH1 0x0 DUP1 REVERT JUMPDEST PUSH32 0x6172722E6C656E677468206973207A65726F0000000000000000000000000000 PUSH1 0x0 DUP3 ADD MSTORE POP JUMP JUMPDEST PUSH32 0x696E646578206F7574206F6620626F756E647300000000000000000000000000 PUSH1 0x0 DUP3 ADD MSTORE POP JUMP JUMPDEST PUSH2 0x6D6 DUP2 PUSH2 0x5B0 JUMP JUMPDEST DUP2 EQ PUSH2 0x6E1 JUMPI PUSH1 0x0 DUP1 REVERT JUMPDEST POP JUMP INVALID LOG2 PUSH5 0x6970667358 0x22 SLT KECCAK256 DUP16 0x27 0xD6 0xA8 0x2F SWAP13 PUSH30 0xAD3FE26A94ECCBDBEF71DAA4FBDCF6288A02A8DC78388B341264736F6C63 NUMBER STOP ADDMOD SMOD STOP CALLER "
				},
				"gasEstimates": {
					"creation": {
						"codeDepositCost": "363600",
						"executionCost": "399",
						"totalCost": "363999"
					},
					"external": {
						"arr(uint256)": "infinite",
						"efficientRemove(uint256)": "infinite",
						"test()": "infinite"
					}
				},
				"methodIdentifiers": {
					"arr(uint256)": "71e5ee5f",
					"efficientRemove(uint256)": "23f7e9ca",
					"test()": "f8a8fd6d"
				}
			},
			"storageLayout": {
				"storage": [
					{
						"astId": 4,
						"contract": "ReplaceElements1.sol:ReplaceElements",
						"label": "arr",
						"offset": 0,
						"slot": "0",
						"type": "t_array(t_uint256)dyn_storage"
					}
				],
				"types": {
					"t_array(t_uint256)dyn_storage": {
						"base": "t_uint256",
						"encoding": "dynamic_array",
						"label": "uint256[]",
						"numberOfBytes": "32"
					},
					"t_uint256": {
						"encoding": "inplace",
						"label": "uint256",
						"numberOfBytes": "32"
					}
				}
			},
			"userdoc": {
				"kind": "user",
				"methods": {},
				"version": 1
			}
		}
	}
}