{
	"OrderEnum.sol": {
		"OrderEnum": {
			"abi": [
				{
					"inputs": [
						{
							"internalType": "uint256",
							"name": "_id",
							"type": "uint256"
						}
					],
					"name": "get",
					"outputs": [
						{
							"internalType": "enum OrderEnum.OrderStatus",
							"name": "",
							"type": "uint8"
						}
					],
					"stateMutability": "view",
					"type": "function"
				},
				{
					"inputs": [
						{
							"internalType": "uint256",
							"name": "_id",
							"type": "uint256"
						}
					],
					"name": "reset",
					"outputs": [],
					"stateMutability": "nonpayable",
					"type": "function"
				},
				{
					"inputs": [],
					"name": "set",
					"outputs": [],
					"stateMutability": "nonpayable",
					"type": "function"
				},
				{
					"inputs": [
						{
							"internalType": "uint256",
							"name": "_id",
							"type": "uint256"
						},
						{
							"internalType": "enum OrderEnum.OrderStatus",
							"name": "_newStatus",
							"type": "uint8"
						}
					],
					"name": "update",
					"outputs": [],
					"stateMutability": "nonpayable",
					"type": "function"
				}
			],
			"devdoc": {
				"kind": "dev",
				"methods": {},
				"version": 1
			},
			"evm": {
				"assembly": "    /* \"OrderEnum.sol\":56:1395  contract OrderEnum {... */\n  mstore(0x40, 0x80)\n  callvalue\n  dup1\n  iszero\n  tag_1\n  jumpi\n  0x00\n  dup1\n  revert\ntag_1:\n  pop\n  dataSize(sub_0)\n  dup1\n  dataOffset(sub_0)\n  0x00\n  codecopy\n  0x00\n  return\nstop\n\nsub_0: assembly {\n        /* \"OrderEnum.sol\":56:1395  contract OrderEnum {... */\n      mstore(0x40, 0x80)\n      callvalue\n      dup1\n      iszero\n      tag_1\n      jumpi\n      0x00\n      dup1\n      revert\n    tag_1:\n      pop\n      jumpi(tag_2, lt(calldatasize, 0x04))\n      shr(0xe0, calldataload(0x00))\n      dup1\n      0x306a6948\n      eq\n      tag_3\n      jumpi\n      dup1\n      0x310bd74b\n      eq\n      tag_4\n      jumpi\n      dup1\n      0x9507d39a\n      eq\n      tag_5\n      jumpi\n      dup1\n      0xb8e010de\n      eq\n      tag_6\n      jumpi\n    tag_2:\n      0x00\n      dup1\n      revert\n        /* \"OrderEnum.sol\":599:949  function update(uint _id, OrderStatus _newStatus) external {... */\n    tag_3:\n      tag_7\n      0x04\n      dup1\n      calldatasize\n      sub\n      dup2\n      add\n      swap1\n      tag_8\n      swap2\n      swap1\n      tag_9\n      jump\t// in\n    tag_8:\n      tag_10\n      jump\t// in\n    tag_7:\n      stop\n        /* \"OrderEnum.sol\":1162:1393  function reset(uint _id) external {... */\n    tag_4:\n      tag_11\n      0x04\n      dup1\n      calldatasize\n      sub\n      dup2\n      add\n      swap1\n      tag_12\n      swap2\n      swap1\n      tag_13\n      jump\t// in\n    tag_12:\n      tag_14\n      jump\t// in\n    tag_11:\n      stop\n        /* \"OrderEnum.sol\":955:1156  function get(uint _id) external view returns (OrderStatus){... */\n    tag_5:\n      tag_15\n      0x04\n      dup1\n      calldatasize\n      sub\n      dup2\n      add\n      swap1\n      tag_16\n      swap2\n      swap1\n      tag_13\n      jump\t// in\n    tag_16:\n      tag_17\n      jump\t// in\n    tag_15:\n      mload(0x40)\n      tag_18\n      swap2\n      swap1\n      tag_19\n      jump\t// in\n    tag_18:\n      mload(0x40)\n      dup1\n      swap2\n      sub\n      swap1\n      return\n        /* \"OrderEnum.sol\":409:593  function set() external {... */\n    tag_6:\n      tag_20\n      tag_21\n      jump\t// in\n    tag_20:\n      stop\n        /* \"OrderEnum.sol\":599:949  function update(uint _id, OrderStatus _newStatus) external {... */\n    tag_10:\n        /* \"OrderEnum.sol\":682:688  orders */\n      0x00\n        /* \"OrderEnum.sol\":682:695  orders.length */\n      dup1\n      sload\n      swap1\n      pop\n        /* \"OrderEnum.sol\":676:679  _id */\n      dup3\n        /* \"OrderEnum.sol\":676:695  _id < orders.length */\n      lt\n        /* \"OrderEnum.sol\":668:720  require(_id < orders.length, \"Order does not exist\") */\n      tag_23\n      jumpi\n      mload(0x40)\n      0x08c379a000000000000000000000000000000000000000000000000000000000\n      dup2\n      mstore\n      0x04\n      add\n      tag_24\n      swap1\n      tag_25\n      jump\t// in\n    tag_24:\n      mload(0x40)\n      dup1\n      swap2\n      sub\n      swap1\n      revert\n    tag_23:\n        /* \"OrderEnum.sol\":730:750  Order storage _order */\n      0x00\n        /* \"OrderEnum.sol\":753:759  orders */\n      dup1\n        /* \"OrderEnum.sol\":760:763  _id */\n      dup4\n        /* \"OrderEnum.sol\":753:764  orders[_id] */\n      dup2\n      sload\n      dup2\n      lt\n      tag_26\n      jumpi\n      tag_27\n      tag_28\n      jump\t// in\n    tag_27:\n    tag_26:\n      swap1\n      0x00\n      mstore\n      keccak256(0x00, 0x20)\n      add\n        /* \"OrderEnum.sol\":730:764  Order storage _order = orders[_id] */\n      swap1\n      pop\n        /* \"OrderEnum.sol\":849:859  msg.sender */\n      caller\n        /* \"OrderEnum.sol\":828:859  orders[_id].buyer == msg.sender */\n      0xffffffffffffffffffffffffffffffffffffffff\n      and\n        /* \"OrderEnum.sol\":828:834  orders */\n      0x00\n        /* \"OrderEnum.sol\":835:838  _id */\n      dup5\n        /* \"OrderEnum.sol\":828:839  orders[_id] */\n      dup2\n      sload\n      dup2\n      lt\n      tag_30\n      jumpi\n      tag_31\n      tag_28\n      jump\t// in\n    tag_31:\n    tag_30:\n      swap1\n      0x00\n      mstore\n      keccak256(0x00, 0x20)\n      add\n        /* \"OrderEnum.sol\":828:845  orders[_id].buyer */\n      0x00\n      add\n      0x00\n      swap1\n      sload\n      swap1\n      0x0100\n      exp\n      swap1\n      div\n      0xffffffffffffffffffffffffffffffffffffffff\n      and\n        /* \"OrderEnum.sol\":828:859  orders[_id].buyer == msg.sender */\n      0xffffffffffffffffffffffffffffffffffffffff\n      and\n      eq\n        /* \"OrderEnum.sol\":820:906  require(orders[_id].buyer == msg.sender, \"Only the buyer can update the order status\") */\n      tag_33\n      jumpi\n      mload(0x40)\n      0x08c379a000000000000000000000000000000000000000000000000000000000\n      dup2\n      mstore\n      0x04\n      add\n      tag_34\n      swap1\n      tag_35\n      jump\t// in\n    tag_34:\n      mload(0x40)\n      dup1\n      swap2\n      sub\n      swap1\n      revert\n    tag_33:\n        /* \"OrderEnum.sol\":932:942  _newStatus */\n      dup2\n        /* \"OrderEnum.sol\":916:922  _order */\n      dup2\n        /* \"OrderEnum.sol\":916:929  _order.status */\n      0x00\n      add\n      0x14\n        /* \"OrderEnum.sol\":916:942  _order.status = _newStatus */\n      0x0100\n      exp\n      dup2\n      sload\n      dup2\n      0xff\n      mul\n      not\n      and\n      swap1\n      dup4\n      0x05\n      dup2\n      gt\n      iszero\n      tag_36\n      jumpi\n      tag_37\n      tag_38\n      jump\t// in\n    tag_37:\n    tag_36:\n      mul\n      or\n      swap1\n      sstore\n      pop\n        /* \"OrderEnum.sol\":658:949  {... */\n      pop\n        /* \"OrderEnum.sol\":599:949  function update(uint _id, OrderStatus _newStatus) external {... */\n      pop\n      pop\n      jump\t// out\n        /* \"OrderEnum.sol\":1162:1393  function reset(uint _id) external {... */\n    tag_14:\n        /* \"OrderEnum.sol\":1281:1291  msg.sender */\n      caller\n        /* \"OrderEnum.sol\":1260:1291  orders[_id].buyer == msg.sender */\n      0xffffffffffffffffffffffffffffffffffffffff\n      and\n        /* \"OrderEnum.sol\":1260:1266  orders */\n      0x00\n        /* \"OrderEnum.sol\":1267:1270  _id */\n      dup3\n        /* \"OrderEnum.sol\":1260:1271  orders[_id] */\n      dup2\n      sload\n      dup2\n      lt\n      tag_40\n      jumpi\n      tag_41\n      tag_28\n      jump\t// in\n    tag_41:\n    tag_40:\n      swap1\n      0x00\n      mstore\n      keccak256(0x00, 0x20)\n      add\n        /* \"OrderEnum.sol\":1260:1277  orders[_id].buyer */\n      0x00\n      add\n      0x00\n      swap1\n      sload\n      swap1\n      0x0100\n      exp\n      swap1\n      div\n      0xffffffffffffffffffffffffffffffffffffffff\n      and\n        /* \"OrderEnum.sol\":1260:1291  orders[_id].buyer == msg.sender */\n      0xffffffffffffffffffffffffffffffffffffffff\n      and\n      eq\n        /* \"OrderEnum.sol\":1252:1337  require(orders[_id].buyer == msg.sender, \"Only the buyer can reset the order status\") */\n      tag_43\n      jumpi\n      mload(0x40)\n      0x08c379a000000000000000000000000000000000000000000000000000000000\n      dup2\n      mstore\n      0x04\n      add\n      tag_44\n      swap1\n      tag_45\n      jump\t// in\n    tag_44:\n      mload(0x40)\n      dup1\n      swap2\n      sub\n      swap1\n      revert\n    tag_43:\n        /* \"OrderEnum.sol\":1347:1351  this */\n      address\n        /* \"OrderEnum.sol\":1347:1358  this.update */\n      0xffffffffffffffffffffffffffffffffffffffff\n      and\n      0x306a6948\n        /* \"OrderEnum.sol\":1359:1362  _id */\n      dup3\n        /* \"OrderEnum.sol\":1364:1380  OrderStatus.None */\n      0x00\n        /* \"OrderEnum.sol\":1347:1381  this.update(_id, OrderStatus.None) */\n      mload(0x40)\n      dup4\n      0xffffffff\n      and\n      0xe0\n      shl\n      dup2\n      mstore\n      0x04\n      add\n      tag_46\n      swap3\n      swap2\n      swap1\n      tag_47\n      jump\t// in\n    tag_46:\n      0x00\n      mload(0x40)\n      dup1\n      dup4\n      sub\n      dup2\n      0x00\n      dup8\n      dup1\n      extcodesize\n      iszero\n      dup1\n      iszero\n      tag_48\n      jumpi\n      0x00\n      dup1\n      revert\n    tag_48:\n      pop\n      gas\n      call\n      iszero\n      dup1\n      iszero\n      tag_50\n      jumpi\n      returndatasize\n      0x00\n      dup1\n      returndatacopy\n      revert(0x00, returndatasize)\n    tag_50:\n      pop\n      pop\n      pop\n      pop\n        /* \"OrderEnum.sol\":1162:1393  function reset(uint _id) external {... */\n      pop\n      jump\t// out\n        /* \"OrderEnum.sol\":955:1156  function get(uint _id) external view returns (OrderStatus){... */\n    tag_17:\n        /* \"OrderEnum.sol\":1001:1012  OrderStatus */\n      0x00\n        /* \"OrderEnum.sol\":1037:1043  orders */\n      dup1\n        /* \"OrderEnum.sol\":1037:1050  orders.length */\n      dup1\n      sload\n      swap1\n      pop\n        /* \"OrderEnum.sol\":1031:1034  _id */\n      dup3\n        /* \"OrderEnum.sol\":1031:1050  _id < orders.length */\n      lt\n        /* \"OrderEnum.sol\":1023:1075  require(_id < orders.length, \"Order does not exist\") */\n      tag_52\n      jumpi\n      mload(0x40)\n      0x08c379a000000000000000000000000000000000000000000000000000000000\n      dup2\n      mstore\n      0x04\n      add\n      tag_53\n      swap1\n      tag_25\n      jump\t// in\n    tag_53:\n      mload(0x40)\n      dup1\n      swap2\n      sub\n      swap1\n      revert\n    tag_52:\n        /* \"OrderEnum.sol\":1085:1105  Order storage _order */\n      0x00\n        /* \"OrderEnum.sol\":1108:1114  orders */\n      dup1\n        /* \"OrderEnum.sol\":1115:1118  _id */\n      dup4\n        /* \"OrderEnum.sol\":1108:1119  orders[_id] */\n      dup2\n      sload\n      dup2\n      lt\n      tag_54\n      jumpi\n      tag_55\n      tag_28\n      jump\t// in\n    tag_55:\n    tag_54:\n      swap1\n      0x00\n      mstore\n      keccak256(0x00, 0x20)\n      add\n        /* \"OrderEnum.sol\":1085:1119  Order storage _order = orders[_id] */\n      swap1\n      pop\n        /* \"OrderEnum.sol\":1136:1142  _order */\n      dup1\n        /* \"OrderEnum.sol\":1136:1149  _order.status */\n      0x00\n      add\n      0x14\n      swap1\n      sload\n      swap1\n      0x0100\n      exp\n      swap1\n      div\n      0xff\n      and\n        /* \"OrderEnum.sol\":1129:1149  return _order.status */\n      swap2\n      pop\n      pop\n        /* \"OrderEnum.sol\":955:1156  function get(uint _id) external view returns (OrderStatus){... */\n      swap2\n      swap1\n      pop\n      jump\t// out\n        /* \"OrderEnum.sol\":409:593  function set() external {... */\n    tag_21:\n        /* \"OrderEnum.sol\":444:465  Order memory newOrder */\n      0x00\n        /* \"OrderEnum.sol\":468:503  Order(msg.sender, OrderStatus.None) */\n      mload(0x40)\n      dup1\n      0x40\n      add\n      0x40\n      mstore\n      dup1\n        /* \"OrderEnum.sol\":474:484  msg.sender */\n      caller\n        /* \"OrderEnum.sol\":468:503  Order(msg.sender, OrderStatus.None) */\n      0xffffffffffffffffffffffffffffffffffffffff\n      and\n      dup2\n      mstore\n      0x20\n      add\n        /* \"OrderEnum.sol\":486:502  OrderStatus.None */\n      0x00\n        /* \"OrderEnum.sol\":468:503  Order(msg.sender, OrderStatus.None) */\n      0x05\n      dup2\n      gt\n      iszero\n      tag_58\n      jumpi\n      tag_59\n      tag_38\n      jump\t// in\n    tag_59:\n    tag_58:\n      dup2\n      mstore\n      pop\n        /* \"OrderEnum.sol\":444:503  Order memory newOrder = Order(msg.sender, OrderStatus.None) */\n      swap1\n      pop\n        /* \"OrderEnum.sol\":514:520  orders */\n      0x00\n        /* \"OrderEnum.sol\":526:534  newOrder */\n      dup2\n        /* \"OrderEnum.sol\":514:535  orders.push(newOrder) */\n      swap1\n      dup1\n      0x01\n      dup2\n      sload\n      add\n      dup1\n      dup3\n      sstore\n      dup1\n      swap2\n      pop\n      pop\n      0x01\n      swap1\n      sub\n      swap1\n      0x00\n      mstore\n      keccak256(0x00, 0x20)\n      add\n      0x00\n      swap1\n      swap2\n      swap1\n      swap2\n      swap1\n      swap2\n      pop\n      0x00\n      dup3\n      add\n      mload\n      dup2\n      0x00\n      add\n      exp(0x0100, 0x00)\n      dup2\n      sload\n      dup2\n      0xffffffffffffffffffffffffffffffffffffffff\n      mul\n      not\n      and\n      swap1\n      dup4\n      0xffffffffffffffffffffffffffffffffffffffff\n      and\n      mul\n      or\n      swap1\n      sstore\n      pop\n      0x20\n      dup3\n      add\n      mload\n      dup2\n      0x00\n      add\n      exp(0x0100, 0x14)\n      dup2\n      sload\n      dup2\n      0xff\n      mul\n      not\n      and\n      swap1\n      dup4\n      0x05\n      dup2\n      gt\n      iszero\n      tag_61\n      jumpi\n      tag_62\n      tag_38\n      jump\t// in\n    tag_62:\n    tag_61:\n      mul\n      or\n      swap1\n      sstore\n      pop\n      pop\n      pop\n        /* \"OrderEnum.sol\":546:559  ordersByBuyer */\n      0x01\n        /* \"OrderEnum.sol\":546:571  ordersByBuyer[msg.sender] */\n      0x00\n        /* \"OrderEnum.sol\":560:570  msg.sender */\n      caller\n        /* \"OrderEnum.sol\":546:571  ordersByBuyer[msg.sender] */\n      0xffffffffffffffffffffffffffffffffffffffff\n      and\n      0xffffffffffffffffffffffffffffffffffffffff\n      and\n      dup2\n      mstore\n      0x20\n      add\n      swap1\n      dup2\n      mstore\n      0x20\n      add\n      0x00\n      keccak256\n        /* \"OrderEnum.sol\":577:585  newOrder */\n      dup2\n        /* \"OrderEnum.sol\":546:586  ordersByBuyer[msg.sender].push(newOrder) */\n      swap1\n      dup1\n      0x01\n      dup2\n      sload\n      add\n      dup1\n      dup3\n      sstore\n      dup1\n      swap2\n      pop\n      pop\n      0x01\n      swap1\n      sub\n      swap1\n      0x00\n      mstore\n      keccak256(0x00, 0x20)\n      add\n      0x00\n      swap1\n      swap2\n      swap1\n      swap2\n      swap1\n      swap2\n      pop\n      0x00\n      dup3\n      add\n      mload\n      dup2\n      0x00\n      add\n      exp(0x0100, 0x00)\n      dup2\n      sload\n      dup2\n      0xffffffffffffffffffffffffffffffffffffffff\n      mul\n      not\n      and\n      swap1\n      dup4\n      0xffffffffffffffffffffffffffffffffffffffff\n      and\n      mul\n      or\n      swap1\n      sstore\n      pop\n      0x20\n      dup3\n      add\n      mload\n      dup2\n      0x00\n      add\n      exp(0x0100, 0x14)\n      dup2\n      sload\n      dup2\n      0xff\n      mul\n      not\n      and\n      swap1\n      dup4\n      0x05\n      dup2\n      gt\n      iszero\n      tag_64\n      jumpi\n      tag_65\n      tag_38\n      jump\t// in\n    tag_65:\n    tag_64:\n      mul\n      or\n      swap1\n      sstore\n      pop\n      pop\n      pop\n        /* \"OrderEnum.sol\":433:593  {... */\n      pop\n        /* \"OrderEnum.sol\":409:593  function set() external {... */\n      jump\t// out\n        /* \"#utility.yul\":7:172   */\n    tag_67:\n        /* \"#utility.yul\":66:71   */\n      0x00\n        /* \"#utility.yul\":104:110   */\n      dup2\n        /* \"#utility.yul\":91:111   */\n      calldataload\n        /* \"#utility.yul\":82:111   */\n      swap1\n      pop\n        /* \"#utility.yul\":120:166   */\n      tag_69\n        /* \"#utility.yul\":160:165   */\n      dup2\n        /* \"#utility.yul\":120:166   */\n      tag_70\n      jump\t// in\n    tag_69:\n        /* \"#utility.yul\":7:172   */\n      swap3\n      swap2\n      pop\n      pop\n      jump\t// out\n        /* \"#utility.yul\":178:317   */\n    tag_71:\n        /* \"#utility.yul\":224:229   */\n      0x00\n        /* \"#utility.yul\":262:268   */\n      dup2\n        /* \"#utility.yul\":249:269   */\n      calldataload\n        /* \"#utility.yul\":240:269   */\n      swap1\n      pop\n        /* \"#utility.yul\":278:311   */\n      tag_73\n        /* \"#utility.yul\":305:310   */\n      dup2\n        /* \"#utility.yul\":278:311   */\n      tag_74\n      jump\t// in\n    tag_73:\n        /* \"#utility.yul\":178:317   */\n      swap3\n      swap2\n      pop\n      pop\n      jump\t// out\n        /* \"#utility.yul\":323:652   */\n    tag_13:\n        /* \"#utility.yul\":382:388   */\n      0x00\n        /* \"#utility.yul\":431:433   */\n      0x20\n        /* \"#utility.yul\":419:428   */\n      dup3\n        /* \"#utility.yul\":410:417   */\n      dup5\n        /* \"#utility.yul\":406:429   */\n      sub\n        /* \"#utility.yul\":402:434   */\n      slt\n        /* \"#utility.yul\":399:518   */\n      iszero\n      tag_76\n      jumpi\n        /* \"#utility.yul\":437:516   */\n      tag_77\n      tag_78\n      jump\t// in\n    tag_77:\n        /* \"#utility.yul\":399:518   */\n    tag_76:\n        /* \"#utility.yul\":557:558   */\n      0x00\n        /* \"#utility.yul\":582:635   */\n      tag_79\n        /* \"#utility.yul\":627:634   */\n      dup5\n        /* \"#utility.yul\":618:624   */\n      dup3\n        /* \"#utility.yul\":607:616   */\n      dup6\n        /* \"#utility.yul\":603:625   */\n      add\n        /* \"#utility.yul\":582:635   */\n      tag_71\n      jump\t// in\n    tag_79:\n        /* \"#utility.yul\":572:635   */\n      swap2\n      pop\n        /* \"#utility.yul\":528:645   */\n      pop\n        /* \"#utility.yul\":323:652   */\n      swap3\n      swap2\n      pop\n      pop\n      jump\t// out\n        /* \"#utility.yul\":658:1158   */\n    tag_9:\n        /* \"#utility.yul\":739:745   */\n      0x00\n        /* \"#utility.yul\":747:753   */\n      dup1\n        /* \"#utility.yul\":796:798   */\n      0x40\n        /* \"#utility.yul\":784:793   */\n      dup4\n        /* \"#utility.yul\":775:782   */\n      dup6\n        /* \"#utility.yul\":771:794   */\n      sub\n        /* \"#utility.yul\":767:799   */\n      slt\n        /* \"#utility.yul\":764:883   */\n      iszero\n      tag_81\n      jumpi\n        /* \"#utility.yul\":802:881   */\n      tag_82\n      tag_78\n      jump\t// in\n    tag_82:\n        /* \"#utility.yul\":764:883   */\n    tag_81:\n        /* \"#utility.yul\":922:923   */\n      0x00\n        /* \"#utility.yul\":947:1000   */\n      tag_83\n        /* \"#utility.yul\":992:999   */\n      dup6\n        /* \"#utility.yul\":983:989   */\n      dup3\n        /* \"#utility.yul\":972:981   */\n      dup7\n        /* \"#utility.yul\":968:990   */\n      add\n        /* \"#utility.yul\":947:1000   */\n      tag_71\n      jump\t// in\n    tag_83:\n        /* \"#utility.yul\":937:1000   */\n      swap3\n      pop\n        /* \"#utility.yul\":893:1010   */\n      pop\n        /* \"#utility.yul\":1049:1051   */\n      0x20\n        /* \"#utility.yul\":1075:1141   */\n      tag_84\n        /* \"#utility.yul\":1133:1140   */\n      dup6\n        /* \"#utility.yul\":1124:1130   */\n      dup3\n        /* \"#utility.yul\":1113:1122   */\n      dup7\n        /* \"#utility.yul\":1109:1131   */\n      add\n        /* \"#utility.yul\":1075:1141   */\n      tag_67\n      jump\t// in\n    tag_84:\n        /* \"#utility.yul\":1065:1141   */\n      swap2\n      pop\n        /* \"#utility.yul\":1020:1151   */\n      pop\n        /* \"#utility.yul\":658:1158   */\n      swap3\n      pop\n      swap3\n      swap1\n      pop\n      jump\t// out\n        /* \"#utility.yul\":1164:1317   */\n    tag_85:\n        /* \"#utility.yul\":1262:1310   */\n      tag_87\n        /* \"#utility.yul\":1304:1309   */\n      dup2\n        /* \"#utility.yul\":1262:1310   */\n      tag_88\n      jump\t// in\n    tag_87:\n        /* \"#utility.yul\":1257:1260   */\n      dup3\n        /* \"#utility.yul\":1250:1311   */\n      mstore\n        /* \"#utility.yul\":1164:1317   */\n      pop\n      pop\n      jump\t// out\n        /* \"#utility.yul\":1323:1689   */\n    tag_89:\n        /* \"#utility.yul\":1465:1468   */\n      0x00\n        /* \"#utility.yul\":1486:1553   */\n      tag_91\n        /* \"#utility.yul\":1550:1552   */\n      0x29\n        /* \"#utility.yul\":1545:1548   */\n      dup4\n        /* \"#utility.yul\":1486:1553   */\n      tag_92\n      jump\t// in\n    tag_91:\n        /* \"#utility.yul\":1479:1553   */\n      swap2\n      pop\n        /* \"#utility.yul\":1562:1655   */\n      tag_93\n        /* \"#utility.yul\":1651:1654   */\n      dup3\n        /* \"#utility.yul\":1562:1655   */\n      tag_94\n      jump\t// in\n    tag_93:\n        /* \"#utility.yul\":1680:1682   */\n      0x40\n        /* \"#utility.yul\":1675:1678   */\n      dup3\n        /* \"#utility.yul\":1671:1683   */\n      add\n        /* \"#utility.yul\":1664:1683   */\n      swap1\n      pop\n        /* \"#utility.yul\":1323:1689   */\n      swap2\n      swap1\n      pop\n      jump\t// out\n        /* \"#utility.yul\":1695:2061   */\n    tag_95:\n        /* \"#utility.yul\":1837:1840   */\n      0x00\n        /* \"#utility.yul\":1858:1925   */\n      tag_97\n        /* \"#utility.yul\":1922:1924   */\n      0x2a\n        /* \"#utility.yul\":1917:1920   */\n      dup4\n        /* \"#utility.yul\":1858:1925   */\n      tag_92\n      jump\t// in\n    tag_97:\n        /* \"#utility.yul\":1851:1925   */\n      swap2\n      pop\n        /* \"#utility.yul\":1934:2027   */\n      tag_98\n        /* \"#utility.yul\":2023:2026   */\n      dup3\n        /* \"#utility.yul\":1934:2027   */\n      tag_99\n      jump\t// in\n    tag_98:\n        /* \"#utility.yul\":2052:2054   */\n      0x40\n        /* \"#utility.yul\":2047:2050   */\n      dup3\n        /* \"#utility.yul\":2043:2055   */\n      add\n        /* \"#utility.yul\":2036:2055   */\n      swap1\n      pop\n        /* \"#utility.yul\":1695:2061   */\n      swap2\n      swap1\n      pop\n      jump\t// out\n        /* \"#utility.yul\":2067:2433   */\n    tag_100:\n        /* \"#utility.yul\":2209:2212   */\n      0x00\n        /* \"#utility.yul\":2230:2297   */\n      tag_102\n        /* \"#utility.yul\":2294:2296   */\n      0x14\n        /* \"#utility.yul\":2289:2292   */\n      dup4\n        /* \"#utility.yul\":2230:2297   */\n      tag_92\n      jump\t// in\n    tag_102:\n        /* \"#utility.yul\":2223:2297   */\n      swap2\n      pop\n        /* \"#utility.yul\":2306:2399   */\n      tag_103\n        /* \"#utility.yul\":2395:2398   */\n      dup3\n        /* \"#utility.yul\":2306:2399   */\n      tag_104\n      jump\t// in\n    tag_103:\n        /* \"#utility.yul\":2424:2426   */\n      0x20\n        /* \"#utility.yul\":2419:2422   */\n      dup3\n        /* \"#utility.yul\":2415:2427   */\n      add\n        /* \"#utility.yul\":2408:2427   */\n      swap1\n      pop\n        /* \"#utility.yul\":2067:2433   */\n      swap2\n      swap1\n      pop\n      jump\t// out\n        /* \"#utility.yul\":2439:2557   */\n    tag_105:\n        /* \"#utility.yul\":2526:2550   */\n      tag_107\n        /* \"#utility.yul\":2544:2549   */\n      dup2\n        /* \"#utility.yul\":2526:2550   */\n      tag_108\n      jump\t// in\n    tag_107:\n        /* \"#utility.yul\":2521:2524   */\n      dup3\n        /* \"#utility.yul\":2514:2551   */\n      mstore\n        /* \"#utility.yul\":2439:2557   */\n      pop\n      pop\n      jump\t// out\n        /* \"#utility.yul\":2563:2807   */\n    tag_19:\n        /* \"#utility.yul\":2667:2671   */\n      0x00\n        /* \"#utility.yul\":2705:2707   */\n      0x20\n        /* \"#utility.yul\":2694:2703   */\n      dup3\n        /* \"#utility.yul\":2690:2708   */\n      add\n        /* \"#utility.yul\":2682:2708   */\n      swap1\n      pop\n        /* \"#utility.yul\":2718:2800   */\n      tag_110\n        /* \"#utility.yul\":2797:2798   */\n      0x00\n        /* \"#utility.yul\":2786:2795   */\n      dup4\n        /* \"#utility.yul\":2782:2799   */\n      add\n        /* \"#utility.yul\":2773:2779   */\n      dup5\n        /* \"#utility.yul\":2718:2800   */\n      tag_85\n      jump\t// in\n    tag_110:\n        /* \"#utility.yul\":2563:2807   */\n      swap3\n      swap2\n      pop\n      pop\n      jump\t// out\n        /* \"#utility.yul\":2813:3232   */\n    tag_45:\n        /* \"#utility.yul\":2979:2983   */\n      0x00\n        /* \"#utility.yul\":3017:3019   */\n      0x20\n        /* \"#utility.yul\":3006:3015   */\n      dup3\n        /* \"#utility.yul\":3002:3020   */\n      add\n        /* \"#utility.yul\":2994:3020   */\n      swap1\n      pop\n        /* \"#utility.yul\":3066:3075   */\n      dup2\n        /* \"#utility.yul\":3060:3064   */\n      dup2\n        /* \"#utility.yul\":3056:3076   */\n      sub\n        /* \"#utility.yul\":3052:3053   */\n      0x00\n        /* \"#utility.yul\":3041:3050   */\n      dup4\n        /* \"#utility.yul\":3037:3054   */\n      add\n        /* \"#utility.yul\":3030:3077   */\n      mstore\n        /* \"#utility.yul\":3094:3225   */\n      tag_112\n        /* \"#utility.yul\":3220:3224   */\n      dup2\n        /* \"#utility.yul\":3094:3225   */\n      tag_89\n      jump\t// in\n    tag_112:\n        /* \"#utility.yul\":3086:3225   */\n      swap1\n      pop\n        /* \"#utility.yul\":2813:3232   */\n      swap2\n      swap1\n      pop\n      jump\t// out\n        /* \"#utility.yul\":3238:3657   */\n    tag_35:\n        /* \"#utility.yul\":3404:3408   */\n      0x00\n        /* \"#utility.yul\":3442:3444   */\n      0x20\n        /* \"#utility.yul\":3431:3440   */\n      dup3\n        /* \"#utility.yul\":3427:3445   */\n      add\n        /* \"#utility.yul\":3419:3445   */\n      swap1\n      pop\n        /* \"#utility.yul\":3491:3500   */\n      dup2\n        /* \"#utility.yul\":3485:3489   */\n      dup2\n        /* \"#utility.yul\":3481:3501   */\n      sub\n        /* \"#utility.yul\":3477:3478   */\n      0x00\n        /* \"#utility.yul\":3466:3475   */\n      dup4\n        /* \"#utility.yul\":3462:3479   */\n      add\n        /* \"#utility.yul\":3455:3502   */\n      mstore\n        /* \"#utility.yul\":3519:3650   */\n      tag_114\n        /* \"#utility.yul\":3645:3649   */\n      dup2\n        /* \"#utility.yul\":3519:3650   */\n      tag_95\n      jump\t// in\n    tag_114:\n        /* \"#utility.yul\":3511:3650   */\n      swap1\n      pop\n        /* \"#utility.yul\":3238:3657   */\n      swap2\n      swap1\n      pop\n      jump\t// out\n        /* \"#utility.yul\":3663:4082   */\n    tag_25:\n        /* \"#utility.yul\":3829:3833   */\n      0x00\n        /* \"#utility.yul\":3867:3869   */\n      0x20\n        /* \"#utility.yul\":3856:3865   */\n      dup3\n        /* \"#utility.yul\":3852:3870   */\n      add\n        /* \"#utility.yul\":3844:3870   */\n      swap1\n      pop\n        /* \"#utility.yul\":3916:3925   */\n      dup2\n        /* \"#utility.yul\":3910:3914   */\n      dup2\n        /* \"#utility.yul\":3906:3926   */\n      sub\n        /* \"#utility.yul\":3902:3903   */\n      0x00\n        /* \"#utility.yul\":3891:3900   */\n      dup4\n        /* \"#utility.yul\":3887:3904   */\n      add\n        /* \"#utility.yul\":3880:3927   */\n      mstore\n        /* \"#utility.yul\":3944:4075   */\n      tag_116\n        /* \"#utility.yul\":4070:4074   */\n      dup2\n        /* \"#utility.yul\":3944:4075   */\n      tag_100\n      jump\t// in\n    tag_116:\n        /* \"#utility.yul\":3936:4075   */\n      swap1\n      pop\n        /* \"#utility.yul\":3663:4082   */\n      swap2\n      swap1\n      pop\n      jump\t// out\n        /* \"#utility.yul\":4088:4442   */\n    tag_47:\n        /* \"#utility.yul\":4220:4224   */\n      0x00\n        /* \"#utility.yul\":4258:4260   */\n      0x40\n        /* \"#utility.yul\":4247:4256   */\n      dup3\n        /* \"#utility.yul\":4243:4261   */\n      add\n        /* \"#utility.yul\":4235:4261   */\n      swap1\n      pop\n        /* \"#utility.yul\":4271:4342   */\n      tag_118\n        /* \"#utility.yul\":4339:4340   */\n      0x00\n        /* \"#utility.yul\":4328:4337   */\n      dup4\n        /* \"#utility.yul\":4324:4341   */\n      add\n        /* \"#utility.yul\":4315:4321   */\n      dup6\n        /* \"#utility.yul\":4271:4342   */\n      tag_105\n      jump\t// in\n    tag_118:\n        /* \"#utility.yul\":4352:4435   */\n      tag_119\n        /* \"#utility.yul\":4431:4433   */\n      0x20\n        /* \"#utility.yul\":4420:4429   */\n      dup4\n        /* \"#utility.yul\":4416:4434   */\n      add\n        /* \"#utility.yul\":4407:4413   */\n      dup5\n        /* \"#utility.yul\":4352:4435   */\n      tag_85\n      jump\t// in\n    tag_119:\n        /* \"#utility.yul\":4088:4442   */\n      swap4\n      swap3\n      pop\n      pop\n      pop\n      jump\t// out\n        /* \"#utility.yul\":4529:4698   */\n    tag_92:\n        /* \"#utility.yul\":4613:4624   */\n      0x00\n        /* \"#utility.yul\":4647:4653   */\n      dup3\n        /* \"#utility.yul\":4642:4645   */\n      dup3\n        /* \"#utility.yul\":4635:4654   */\n      mstore\n        /* \"#utility.yul\":4687:4691   */\n      0x20\n        /* \"#utility.yul\":4682:4685   */\n      dup3\n        /* \"#utility.yul\":4678:4692   */\n      add\n        /* \"#utility.yul\":4663:4692   */\n      swap1\n      pop\n        /* \"#utility.yul\":4529:4698   */\n      swap3\n      swap2\n      pop\n      pop\n      jump\t// out\n        /* \"#utility.yul\":4704:4841   */\n    tag_123:\n        /* \"#utility.yul\":4754:4761   */\n      0x00\n        /* \"#utility.yul\":4783:4788   */\n      dup2\n        /* \"#utility.yul\":4772:4788   */\n      swap1\n      pop\n        /* \"#utility.yul\":4789:4835   */\n      tag_125\n        /* \"#utility.yul\":4829:4834   */\n      dup3\n        /* \"#utility.yul\":4789:4835   */\n      tag_126\n      jump\t// in\n    tag_125:\n        /* \"#utility.yul\":4704:4841   */\n      swap2\n      swap1\n      pop\n      jump\t// out\n        /* \"#utility.yul\":4847:4924   */\n    tag_108:\n        /* \"#utility.yul\":4884:4891   */\n      0x00\n        /* \"#utility.yul\":4913:4918   */\n      dup2\n        /* \"#utility.yul\":4902:4918   */\n      swap1\n      pop\n        /* \"#utility.yul\":4847:4924   */\n      swap2\n      swap1\n      pop\n      jump\t// out\n        /* \"#utility.yul\":4930:5067   */\n    tag_88:\n        /* \"#utility.yul\":4991:5000   */\n      0x00\n        /* \"#utility.yul\":5024:5061   */\n      tag_129\n        /* \"#utility.yul\":5055:5060   */\n      dup3\n        /* \"#utility.yul\":5024:5061   */\n      tag_123\n      jump\t// in\n    tag_129:\n        /* \"#utility.yul\":5011:5061   */\n      swap1\n      pop\n        /* \"#utility.yul\":4930:5067   */\n      swap2\n      swap1\n      pop\n      jump\t// out\n        /* \"#utility.yul\":5073:5253   */\n    tag_38:\n        /* \"#utility.yul\":5121:5198   */\n      0x4e487b7100000000000000000000000000000000000000000000000000000000\n        /* \"#utility.yul\":5118:5119   */\n      0x00\n        /* \"#utility.yul\":5111:5199   */\n      mstore\n        /* \"#utility.yul\":5218:5222   */\n      0x21\n        /* \"#utility.yul\":5215:5216   */\n      0x04\n        /* \"#utility.yul\":5208:5223   */\n      mstore\n        /* \"#utility.yul\":5242:5246   */\n      0x24\n        /* \"#utility.yul\":5239:5240   */\n      0x00\n        /* \"#utility.yul\":5232:5247   */\n      revert\n        /* \"#utility.yul\":5259:5439   */\n    tag_28:\n        /* \"#utility.yul\":5307:5384   */\n      0x4e487b7100000000000000000000000000000000000000000000000000000000\n        /* \"#utility.yul\":5304:5305   */\n      0x00\n        /* \"#utility.yul\":5297:5385   */\n      mstore\n        /* \"#utility.yul\":5404:5408   */\n      0x32\n        /* \"#utility.yul\":5401:5402   */\n      0x04\n        /* \"#utility.yul\":5394:5409   */\n      mstore\n        /* \"#utility.yul\":5428:5432   */\n      0x24\n        /* \"#utility.yul\":5425:5426   */\n      0x00\n        /* \"#utility.yul\":5418:5433   */\n      revert\n        /* \"#utility.yul\":5568:5685   */\n    tag_78:\n        /* \"#utility.yul\":5677:5678   */\n      0x00\n        /* \"#utility.yul\":5674:5675   */\n      dup1\n        /* \"#utility.yul\":5667:5679   */\n      revert\n        /* \"#utility.yul\":5691:5919   */\n    tag_94:\n        /* \"#utility.yul\":5831:5865   */\n      0x4f6e6c79207468652062757965722063616e20726573657420746865206f7264\n        /* \"#utility.yul\":5827:5828   */\n      0x00\n        /* \"#utility.yul\":5819:5825   */\n      dup3\n        /* \"#utility.yul\":5815:5829   */\n      add\n        /* \"#utility.yul\":5808:5866   */\n      mstore\n        /* \"#utility.yul\":5900:5911   */\n      0x6572207374617475730000000000000000000000000000000000000000000000\n        /* \"#utility.yul\":5895:5897   */\n      0x20\n        /* \"#utility.yul\":5887:5893   */\n      dup3\n        /* \"#utility.yul\":5883:5898   */\n      add\n        /* \"#utility.yul\":5876:5912   */\n      mstore\n        /* \"#utility.yul\":5691:5919   */\n      pop\n      jump\t// out\n        /* \"#utility.yul\":5925:6154   */\n    tag_99:\n        /* \"#utility.yul\":6065:6099   */\n      0x4f6e6c79207468652062757965722063616e2075706461746520746865206f72\n        /* \"#utility.yul\":6061:6062   */\n      0x00\n        /* \"#utility.yul\":6053:6059   */\n      dup3\n        /* \"#utility.yul\":6049:6063   */\n      add\n        /* \"#utility.yul\":6042:6100   */\n      mstore\n        /* \"#utility.yul\":6134:6146   */\n      0x6465722073746174757300000000000000000000000000000000000000000000\n        /* \"#utility.yul\":6129:6131   */\n      0x20\n        /* \"#utility.yul\":6121:6127   */\n      dup3\n        /* \"#utility.yul\":6117:6132   */\n      add\n        /* \"#utility.yul\":6110:6147   */\n      mstore\n        /* \"#utility.yul\":5925:6154   */\n      pop\n      jump\t// out\n        /* \"#utility.yul\":6160:6330   */\n    tag_104:\n        /* \"#utility.yul\":6300:6322   */\n      0x4f7264657220646f6573206e6f74206578697374000000000000000000000000\n        /* \"#utility.yul\":6296:6297   */\n      0x00\n        /* \"#utility.yul\":6288:6294   */\n      dup3\n        /* \"#utility.yul\":6284:6298   */\n      add\n        /* \"#utility.yul\":6277:6323   */\n      mstore\n        /* \"#utility.yul\":6160:6330   */\n      pop\n      jump\t// out\n        /* \"#utility.yul\":6336:6454   */\n    tag_126:\n        /* \"#utility.yul\":6422:6423   */\n      0x06\n        /* \"#utility.yul\":6415:6420   */\n      dup2\n        /* \"#utility.yul\":6412:6424   */\n      lt\n        /* \"#utility.yul\":6402:6448   */\n      tag_139\n      jumpi\n        /* \"#utility.yul\":6428:6446   */\n      tag_140\n      tag_38\n      jump\t// in\n    tag_140:\n        /* \"#utility.yul\":6402:6448   */\n    tag_139:\n        /* \"#utility.yul\":6336:6454   */\n      pop\n      jump\t// out\n        /* \"#utility.yul\":6460:6572   */\n    tag_70:\n        /* \"#utility.yul\":6546:6547   */\n      0x06\n        /* \"#utility.yul\":6539:6544   */\n      dup2\n        /* \"#utility.yul\":6536:6548   */\n      lt\n        /* \"#utility.yul\":6526:6566   */\n      tag_142\n      jumpi\n        /* \"#utility.yul\":6562:6563   */\n      0x00\n        /* \"#utility.yul\":6559:6560   */\n      dup1\n        /* \"#utility.yul\":6552:6564   */\n      revert\n        /* \"#utility.yul\":6526:6566   */\n    tag_142:\n        /* \"#utility.yul\":6460:6572   */\n      pop\n      jump\t// out\n        /* \"#utility.yul\":6578:6700   */\n    tag_74:\n        /* \"#utility.yul\":6651:6675   */\n      tag_144\n        /* \"#utility.yul\":6669:6674   */\n      dup2\n        /* \"#utility.yul\":6651:6675   */\n      tag_108\n      jump\t// in\n    tag_144:\n        /* \"#utility.yul\":6644:6649   */\n      dup2\n        /* \"#utility.yul\":6641:6676   */\n      eq\n        /* \"#utility.yul\":6631:6694   */\n      tag_145\n      jumpi\n        /* \"#utility.yul\":6690:6691   */\n      0x00\n        /* \"#utility.yul\":6687:6688   */\n      dup1\n        /* \"#utility.yul\":6680:6692   */\n      revert\n        /* \"#utility.yul\":6631:6694   */\n    tag_145:\n        /* \"#utility.yul\":6578:6700   */\n      pop\n      jump\t// out\n\n    auxdata: 0xa26469706673582212206c71b913767e180cd15c4b6149930641c26958c72d8d0872e72494ed47ccc68064736f6c63430008070033\n}\n",
				"bytecode": {
					"linkReferences": {},
					"object": "608060405234801561001057600080fd5b5061090f806100206000396000f3fe608060405234801561001057600080fd5b506004361061004c5760003560e01c8063306a694814610051578063310bd74b1461006d5780639507d39a14610089578063b8e010de146100b9575b600080fd5b61006b600480360381019061006691906105c9565b6100c3565b005b6100876004803603810190610082919061059c565b61020b565b005b6100a3600480360381019061009e919061059c565b61032b565b6040516100b09190610690565b60405180910390f35b6100c16103ae565b005b600080549050821061010a576040517f08c379a0000000000000000000000000000000000000000000000000000000008152600401610101906106eb565b60405180910390fd5b600080838154811061011f5761011e6107a3565b5b9060005260206000200190503373ffffffffffffffffffffffffffffffffffffffff1660008481548110610156576101556107a3565b5b9060005260206000200160000160009054906101000a900473ffffffffffffffffffffffffffffffffffffffff1673ffffffffffffffffffffffffffffffffffffffff16146101da576040517f08c379a00000000000000000000000000000000000000000000000000000000081526004016101d1906106cb565b60405180910390fd5b818160000160146101000a81548160ff0219169083600581111561020157610200610774565b5b0217905550505050565b3373ffffffffffffffffffffffffffffffffffffffff1660008281548110610236576102356107a3565b5b9060005260206000200160000160009054906101000a900473ffffffffffffffffffffffffffffffffffffffff1673ffffffffffffffffffffffffffffffffffffffff16146102ba576040517f08c379a00000000000000000000000000000000000000000000000000000000081526004016102b1906106ab565b60405180910390fd5b3073ffffffffffffffffffffffffffffffffffffffff1663306a69488260006040518363ffffffff1660e01b81526004016102f692919061070b565b600060405180830381600087803b15801561031057600080fd5b505af1158015610324573d6000803e3d6000fd5b5050505050565b600080805490508210610373576040517f08c379a000000000000000000000000000000000000000000000000000000000815260040161036a906106eb565b60405180910390fd5b6000808381548110610388576103876107a3565b5b9060005260206000200190508060000160149054906101000a900460ff16915050919050565b600060405180604001604052803373ffffffffffffffffffffffffffffffffffffffff168152602001600060058111156103eb576103ea610774565b5b81525090506000819080600181540180825580915050600190039060005260206000200160009091909190915060008201518160000160006101000a81548173ffffffffffffffffffffffffffffffffffffffff021916908373ffffffffffffffffffffffffffffffffffffffff16021790555060208201518160000160146101000a81548160ff0219169083600581111561048a57610489610774565b5b02179055505050600160003373ffffffffffffffffffffffffffffffffffffffff1673ffffffffffffffffffffffffffffffffffffffff168152602001908152602001600020819080600181540180825580915050600190039060005260206000200160009091909190915060008201518160000160006101000a81548173ffffffffffffffffffffffffffffffffffffffff021916908373ffffffffffffffffffffffffffffffffffffffff16021790555060208201518160000160146101000a81548160ff0219169083600581111561056857610567610774565b5b0217905550505050565b600081359050610581816108b2565b92915050565b600081359050610596816108c2565b92915050565b6000602082840312156105b2576105b16107d2565b5b60006105c084828501610587565b91505092915050565b600080604083850312156105e0576105df6107d2565b5b60006105ee85828601610587565b92505060206105ff85828601610572565b9150509250929050565b61061281610762565b82525050565b6000610625602983610734565b9150610630826107d7565b604082019050919050565b6000610648602a83610734565b915061065382610826565b604082019050919050565b600061066b601483610734565b915061067682610875565b602082019050919050565b61068a81610758565b82525050565b60006020820190506106a56000830184610609565b92915050565b600060208201905081810360008301526106c481610618565b9050919050565b600060208201905081810360008301526106e48161063b565b9050919050565b600060208201905081810360008301526107048161065e565b9050919050565b60006040820190506107206000830185610681565b61072d6020830184610609565b9392505050565b600082825260208201905092915050565b60008190506107538261089e565b919050565b6000819050919050565b600061076d82610745565b9050919050565b7f4e487b7100000000000000000000000000000000000000000000000000000000600052602160045260246000fd5b7f4e487b7100000000000000000000000000000000000000000000000000000000600052603260045260246000fd5b600080fd5b7f4f6e6c79207468652062757965722063616e20726573657420746865206f726460008201527f6572207374617475730000000000000000000000000000000000000000000000602082015250565b7f4f6e6c79207468652062757965722063616e2075706461746520746865206f7260008201527f6465722073746174757300000000000000000000000000000000000000000000602082015250565b7f4f7264657220646f6573206e6f74206578697374000000000000000000000000600082015250565b600681106108af576108ae610774565b5b50565b600681106108bf57600080fd5b50565b6108cb81610758565b81146108d657600080fd5b5056fea26469706673582212206c71b913767e180cd15c4b6149930641c26958c72d8d0872e72494ed47ccc68064736f6c63430008070033",
					"opcodes": "PUSH1 0x80 PUSH1 0x40 MSTORE CALLVALUE DUP1 ISZERO PUSH2 0x10 JUMPI PUSH1 0x0 DUP1 REVERT JUMPDEST POP PUSH2 0x90F DUP1 PUSH2 0x20 PUSH1 0x0 CODECOPY PUSH1 0x0 RETURN INVALID PUSH1 0x80 PUSH1 0x40 MSTORE CALLVALUE DUP1 ISZERO PUSH2 0x10 JUMPI PUSH1 0x0 DUP1 REVERT JUMPDEST POP PUSH1 0x4 CALLDATASIZE LT PUSH2 0x4C JUMPI PUSH1 0x0 CALLDATALOAD PUSH1 0xE0 SHR DUP1 PUSH4 0x306A6948 EQ PUSH2 0x51 JUMPI DUP1 PUSH4 0x310BD74B EQ PUSH2 0x6D JUMPI DUP1 PUSH4 0x9507D39A EQ PUSH2 0x89 JUMPI DUP1 PUSH4 0xB8E010DE EQ PUSH2 0xB9 JUMPI JUMPDEST PUSH1 0x0 DUP1 REVERT JUMPDEST PUSH2 0x6B PUSH1 0x4 DUP1 CALLDATASIZE SUB DUP2 ADD SWAP1 PUSH2 0x66 SWAP2 SWAP1 PUSH2 0x5C9 JUMP JUMPDEST PUSH2 0xC3 JUMP JUMPDEST STOP JUMPDEST PUSH2 0x87 PUSH1 0x4 DUP1 CALLDATASIZE SUB DUP2 ADD SWAP1 PUSH2 0x82 SWAP2 SWAP1 PUSH2 0x59C JUMP JUMPDEST PUSH2 0x20B JUMP JUMPDEST STOP JUMPDEST PUSH2 0xA3 PUSH1 0x4 DUP1 CALLDATASIZE SUB DUP2 ADD SWAP1 PUSH2 0x9E SWAP2 SWAP1 PUSH2 0x59C JUMP JUMPDEST PUSH2 0x32B JUMP JUMPDEST PUSH1 0x40 MLOAD PUSH2 0xB0 SWAP2 SWAP1 PUSH2 0x690 JUMP JUMPDEST PUSH1 0x40 MLOAD DUP1 SWAP2 SUB SWAP1 RETURN JUMPDEST PUSH2 0xC1 PUSH2 0x3AE JUMP JUMPDEST STOP JUMPDEST PUSH1 0x0 DUP1 SLOAD SWAP1 POP DUP3 LT PUSH2 0x10A JUMPI PUSH1 0x40 MLOAD PUSH32 0x8C379A000000000000000000000000000000000000000000000000000000000 DUP2 MSTORE PUSH1 0x4 ADD PUSH2 0x101 SWAP1 PUSH2 0x6EB JUMP JUMPDEST PUSH1 0x40 MLOAD DUP1 SWAP2 SUB SWAP1 REVERT JUMPDEST PUSH1 0x0 DUP1 DUP4 DUP2 SLOAD DUP2 LT PUSH2 0x11F JUMPI PUSH2 0x11E PUSH2 0x7A3 JUMP JUMPDEST JUMPDEST SWAP1 PUSH1 0x0 MSTORE PUSH1 0x20 PUSH1 0x0 KECCAK256 ADD SWAP1 POP CALLER PUSH20 0xFFFFFFFFFFFFFFFFFFFFFFFFFFFFFFFFFFFFFFFF AND PUSH1 0x0 DUP5 DUP2 SLOAD DUP2 LT PUSH2 0x156 JUMPI PUSH2 0x155 PUSH2 0x7A3 JUMP JUMPDEST JUMPDEST SWAP1 PUSH1 0x0 MSTORE PUSH1 0x20 PUSH1 0x0 KECCAK256 ADD PUSH1 0x0 ADD PUSH1 0x0 SWAP1 SLOAD SWAP1 PUSH2 0x100 EXP SWAP1 DIV PUSH20 0xFFFFFFFFFFFFFFFFFFFFFFFFFFFFFFFFFFFFFFFF AND PUSH20 0xFFFFFFFFFFFFFFFFFFFFFFFFFFFFFFFFFFFFFFFF AND EQ PUSH2 0x1DA JUMPI PUSH1 0x40 MLOAD PUSH32 0x8C379A000000000000000000000000000000000000000000000000000000000 DUP2 MSTORE PUSH1 0x4 ADD PUSH2 0x1D1 SWAP1 PUSH2 0x6CB JUMP JUMPDEST PUSH1 0x40 MLOAD DUP1 SWAP2 SUB SWAP1 REVERT JUMPDEST DUP2 DUP2 PUSH1 0x0 ADD PUSH1 0x14 PUSH2 0x100 EXP DUP2 SLOAD DUP2 PUSH1 0xFF MUL NOT AND SWAP1 DUP4 PUSH1 0x5 DUP2 GT ISZERO PUSH2 0x201 JUMPI PUSH2 0x200 PUSH2 0x774 JUMP JUMPDEST JUMPDEST MUL OR SWAP1 SSTORE POP POP POP POP JUMP JUMPDEST CALLER PUSH20 0xFFFFFFFFFFFFFFFFFFFFFFFFFFFFFFFFFFFFFFFF AND PUSH1 0x0 DUP3 DUP2 SLOAD DUP2 LT PUSH2 0x236 JUMPI PUSH2 0x235 PUSH2 0x7A3 JUMP JUMPDEST JUMPDEST SWAP1 PUSH1 0x0 MSTORE PUSH1 0x20 PUSH1 0x0 KECCAK256 ADD PUSH1 0x0 ADD PUSH1 0x0 SWAP1 SLOAD SWAP1 PUSH2 0x100 EXP SWAP1 DIV PUSH20 0xFFFFFFFFFFFFFFFFFFFFFFFFFFFFFFFFFFFFFFFF AND PUSH20 0xFFFFFFFFFFFFFFFFFFFFFFFFFFFFFFFFFFFFFFFF AND EQ PUSH2 0x2BA JUMPI PUSH1 0x40 MLOAD PUSH32 0x8C379A000000000000000000000000000000000000000000000000000000000 DUP2 MSTORE PUSH1 0x4 ADD PUSH2 0x2B1 SWAP1 PUSH2 0x6AB JUMP JUMPDEST PUSH1 0x40 MLOAD DUP1 SWAP2 SUB SWAP1 REVERT JUMPDEST ADDRESS PUSH20 0xFFFFFFFFFFFFFFFFFFFFFFFFFFFFFFFFFFFFFFFF AND PUSH4 0x306A6948 DUP3 PUSH1 0x0 PUSH1 0x40 MLOAD DUP4 PUSH4 0xFFFFFFFF AND PUSH1 0xE0 SHL DUP2 MSTORE PUSH1 0x4 ADD PUSH2 0x2F6 SWAP3 SWAP2 SWAP1 PUSH2 0x70B JUMP JUMPDEST PUSH1 0x0 PUSH1 0x40 MLOAD DUP1 DUP4 SUB DUP2 PUSH1 0x0 DUP8 DUP1 EXTCODESIZE ISZERO DUP1 ISZERO PUSH2 0x310 JUMPI PUSH1 0x0 DUP1 REVERT JUMPDEST POP GAS CALL ISZERO DUP1 ISZERO PUSH2 0x324 JUMPI RETURNDATASIZE PUSH1 0x0 DUP1 RETURNDATACOPY RETURNDATASIZE PUSH1 0x0 REVERT JUMPDEST POP POP POP POP POP JUMP JUMPDEST PUSH1 0x0 DUP1 DUP1 SLOAD SWAP1 POP DUP3 LT PUSH2 0x373 JUMPI PUSH1 0x40 MLOAD PUSH32 0x8C379A000000000000000000000000000000000000000000000000000000000 DUP2 MSTORE PUSH1 0x4 ADD PUSH2 0x36A SWAP1 PUSH2 0x6EB JUMP JUMPDEST PUSH1 0x40 MLOAD DUP1 SWAP2 SUB SWAP1 REVERT JUMPDEST PUSH1 0x0 DUP1 DUP4 DUP2 SLOAD DUP2 LT PUSH2 0x388 JUMPI PUSH2 0x387 PUSH2 0x7A3 JUMP JUMPDEST JUMPDEST SWAP1 PUSH1 0x0 MSTORE PUSH1 0x20 PUSH1 0x0 KECCAK256 ADD SWAP1 POP DUP1 PUSH1 0x0 ADD PUSH1 0x14 SWAP1 SLOAD SWAP1 PUSH2 0x100 EXP SWAP1 DIV PUSH1 0xFF AND SWAP2 POP POP SWAP2 SWAP1 POP JUMP JUMPDEST PUSH1 0x0 PUSH1 0x40 MLOAD DUP1 PUSH1 0x40 ADD PUSH1 0x40 MSTORE DUP1 CALLER PUSH20 0xFFFFFFFFFFFFFFFFFFFFFFFFFFFFFFFFFFFFFFFF AND DUP2 MSTORE PUSH1 0x20 ADD PUSH1 0x0 PUSH1 0x5 DUP2 GT ISZERO PUSH2 0x3EB JUMPI PUSH2 0x3EA PUSH2 0x774 JUMP JUMPDEST JUMPDEST DUP2 MSTORE POP SWAP1 POP PUSH1 0x0 DUP2 SWAP1 DUP1 PUSH1 0x1 DUP2 SLOAD ADD DUP1 DUP3 SSTORE DUP1 SWAP2 POP POP PUSH1 0x1 SWAP1 SUB SWAP1 PUSH1 0x0 MSTORE PUSH1 0x20 PUSH1 0x0 KECCAK256 ADD PUSH1 0x0 SWAP1 SWAP2 SWAP1 SWAP2 SWAP1 SWAP2 POP PUSH1 0x0 DUP3 ADD MLOAD DUP2 PUSH1 0x0 ADD PUSH1 0x0 PUSH2 0x100 EXP DUP2 SLOAD DUP2 PUSH20 0xFFFFFFFFFFFFFFFFFFFFFFFFFFFFFFFFFFFFFFFF MUL NOT AND SWAP1 DUP4 PUSH20 0xFFFFFFFFFFFFFFFFFFFFFFFFFFFFFFFFFFFFFFFF AND MUL OR SWAP1 SSTORE POP PUSH1 0x20 DUP3 ADD MLOAD DUP2 PUSH1 0x0 ADD PUSH1 0x14 PUSH2 0x100 EXP DUP2 SLOAD DUP2 PUSH1 0xFF MUL NOT AND SWAP1 DUP4 PUSH1 0x5 DUP2 GT ISZERO PUSH2 0x48A JUMPI PUSH2 0x489 PUSH2 0x774 JUMP JUMPDEST JUMPDEST MUL OR SWAP1 SSTORE POP POP POP PUSH1 0x1 PUSH1 0x0 CALLER PUSH20 0xFFFFFFFFFFFFFFFFFFFFFFFFFFFFFFFFFFFFFFFF AND PUSH20 0xFFFFFFFFFFFFFFFFFFFFFFFFFFFFFFFFFFFFFFFF AND DUP2 MSTORE PUSH1 0x20 ADD SWAP1 DUP2 MSTORE PUSH1 0x20 ADD PUSH1 0x0 KECCAK256 DUP2 SWAP1 DUP1 PUSH1 0x1 DUP2 SLOAD ADD DUP1 DUP3 SSTORE DUP1 SWAP2 POP POP PUSH1 0x1 SWAP1 SUB SWAP1 PUSH1 0x0 MSTORE PUSH1 0x20 PUSH1 0x0 KECCAK256 ADD PUSH1 0x0 SWAP1 SWAP2 SWAP1 SWAP2 SWAP1 SWAP2 POP PUSH1 0x0 DUP3 ADD MLOAD DUP2 PUSH1 0x0 ADD PUSH1 0x0 PUSH2 0x100 EXP DUP2 SLOAD DUP2 PUSH20 0xFFFFFFFFFFFFFFFFFFFFFFFFFFFFFFFFFFFFFFFF MUL NOT AND SWAP1 DUP4 PUSH20 0xFFFFFFFFFFFFFFFFFFFFFFFFFFFFFFFFFFFFFFFF AND MUL OR SWAP1 SSTORE POP PUSH1 0x20 DUP3 ADD MLOAD DUP2 PUSH1 0x0 ADD PUSH1 0x14 PUSH2 0x100 EXP DUP2 SLOAD DUP2 PUSH1 0xFF MUL NOT AND SWAP1 DUP4 PUSH1 0x5 DUP2 GT ISZERO PUSH2 0x568 JUMPI PUSH2 0x567 PUSH2 0x774 JUMP JUMPDEST JUMPDEST MUL OR SWAP1 SSTORE POP POP POP POP JUMP JUMPDEST PUSH1 0x0 DUP2 CALLDATALOAD SWAP1 POP PUSH2 0x581 DUP2 PUSH2 0x8B2 JUMP JUMPDEST SWAP3 SWAP2 POP POP JUMP JUMPDEST PUSH1 0x0 DUP2 CALLDATALOAD SWAP1 POP PUSH2 0x596 DUP2 PUSH2 0x8C2 JUMP JUMPDEST SWAP3 SWAP2 POP POP JUMP JUMPDEST PUSH1 0x0 PUSH1 0x20 DUP3 DUP5 SUB SLT ISZERO PUSH2 0x5B2 JUMPI PUSH2 0x5B1 PUSH2 0x7D2 JUMP JUMPDEST JUMPDEST PUSH1 0x0 PUSH2 0x5C0 DUP5 DUP3 DUP6 ADD PUSH2 0x587 JUMP JUMPDEST SWAP2 POP POP SWAP3 SWAP2 POP POP JUMP JUMPDEST PUSH1 0x0 DUP1 PUSH1 0x40 DUP4 DUP6 SUB SLT ISZERO PUSH2 0x5E0 JUMPI PUSH2 0x5DF PUSH2 0x7D2 JUMP JUMPDEST JUMPDEST PUSH1 0x0 PUSH2 0x5EE DUP6 DUP3 DUP7 ADD PUSH2 0x587 JUMP JUMPDEST SWAP3 POP POP PUSH1 0x20 PUSH2 0x5FF DUP6 DUP3 DUP7 ADD PUSH2 0x572 JUMP JUMPDEST SWAP2 POP POP SWAP3 POP SWAP3 SWAP1 POP JUMP JUMPDEST PUSH2 0x612 DUP2 PUSH2 0x762 JUMP JUMPDEST DUP3 MSTORE POP POP JUMP JUMPDEST PUSH1 0x0 PUSH2 0x625 PUSH1 0x29 DUP4 PUSH2 0x734 JUMP JUMPDEST SWAP2 POP PUSH2 0x630 DUP3 PUSH2 0x7D7 JUMP JUMPDEST PUSH1 0x40 DUP3 ADD SWAP1 POP SWAP2 SWAP1 POP JUMP JUMPDEST PUSH1 0x0 PUSH2 0x648 PUSH1 0x2A DUP4 PUSH2 0x734 JUMP JUMPDEST SWAP2 POP PUSH2 0x653 DUP3 PUSH2 0x826 JUMP JUMPDEST PUSH1 0x40 DUP3 ADD SWAP1 POP SWAP2 SWAP1 POP JUMP JUMPDEST PUSH1 0x0 PUSH2 0x66B PUSH1 0x14 DUP4 PUSH2 0x734 JUMP JUMPDEST SWAP2 POP PUSH2 0x676 DUP3 PUSH2 0x875 JUMP JUMPDEST PUSH1 0x20 DUP3 ADD SWAP1 POP SWAP2 SWAP1 POP JUMP JUMPDEST PUSH2 0x68A DUP2 PUSH2 0x758 JUMP JUMPDEST DUP3 MSTORE POP POP JUMP JUMPDEST PUSH1 0x0 PUSH1 0x20 DUP3 ADD SWAP1 POP PUSH2 0x6A5 PUSH1 0x0 DUP4 ADD DUP5 PUSH2 0x609 JUMP JUMPDEST SWAP3 SWAP2 POP POP JUMP JUMPDEST PUSH1 0x0 PUSH1 0x20 DUP3 ADD SWAP1 POP DUP2 DUP2 SUB PUSH1 0x0 DUP4 ADD MSTORE PUSH2 0x6C4 DUP2 PUSH2 0x618 JUMP JUMPDEST SWAP1 POP SWAP2 SWAP1 POP JUMP JUMPDEST PUSH1 0x0 PUSH1 0x20 DUP3 ADD SWAP1 POP DUP2 DUP2 SUB PUSH1 0x0 DUP4 ADD MSTORE PUSH2 0x6E4 DUP2 PUSH2 0x63B JUMP JUMPDEST SWAP1 POP SWAP2 SWAP1 POP JUMP JUMPDEST PUSH1 0x0 PUSH1 0x20 DUP3 ADD SWAP1 POP DUP2 DUP2 SUB PUSH1 0x0 DUP4 ADD MSTORE PUSH2 0x704 DUP2 PUSH2 0x65E JUMP JUMPDEST SWAP1 POP SWAP2 SWAP1 POP JUMP JUMPDEST PUSH1 0x0 PUSH1 0x40 DUP3 ADD SWAP1 POP PUSH2 0x720 PUSH1 0x0 DUP4 ADD DUP6 PUSH2 0x681 JUMP JUMPDEST PUSH2 0x72D PUSH1 0x20 DUP4 ADD DUP5 PUSH2 0x609 JUMP JUMPDEST SWAP4 SWAP3 POP POP POP JUMP JUMPDEST PUSH1 0x0 DUP3 DUP3 MSTORE PUSH1 0x20 DUP3 ADD SWAP1 POP SWAP3 SWAP2 POP POP JUMP JUMPDEST PUSH1 0x0 DUP2 SWAP1 POP PUSH2 0x753 DUP3 PUSH2 0x89E JUMP JUMPDEST SWAP2 SWAP1 POP JUMP JUMPDEST PUSH1 0x0 DUP2 SWAP1 POP SWAP2 SWAP1 POP JUMP JUMPDEST PUSH1 0x0 PUSH2 0x76D DUP3 PUSH2 0x745 JUMP JUMPDEST SWAP1 POP SWAP2 SWAP1 POP JUMP JUMPDEST PUSH32 0x4E487B7100000000000000000000000000000000000000000000000000000000 PUSH1 0x0 MSTORE PUSH1 0x21 PUSH1 0x4 MSTORE PUSH1 0x24 PUSH1 0x0 REVERT JUMPDEST PUSH32 0x4E487B7100000000000000000000000000000000000000000000000000000000 PUSH1 0x0 MSTORE PUSH1 0x32 PUSH1 0x4 MSTORE PUSH1 0x24 PUSH1 0x0 REVERT JUMPDEST PUSH1 0x0 DUP1 REVERT JUMPDEST PUSH32 0x4F6E6C79207468652062757965722063616E20726573657420746865206F7264 PUSH1 0x0 DUP3 ADD MSTORE PUSH32 0x6572207374617475730000000000000000000000000000000000000000000000 PUSH1 0x20 DUP3 ADD MSTORE POP JUMP JUMPDEST PUSH32 0x4F6E6C79207468652062757965722063616E2075706461746520746865206F72 PUSH1 0x0 DUP3 ADD MSTORE PUSH32 0x6465722073746174757300000000000000000000000000000000000000000000 PUSH1 0x20 DUP3 ADD MSTORE POP JUMP JUMPDEST PUSH32 0x4F7264657220646F6573206E6F74206578697374000000000000000000000000 PUSH1 0x0 DUP3 ADD MSTORE POP JUMP JUMPDEST PUSH1 0x6 DUP2 LT PUSH2 0x8AF JUMPI PUSH2 0x8AE PUSH2 0x774 JUMP JUMPDEST JUMPDEST POP JUMP JUMPDEST PUSH1 0x6 DUP2 LT PUSH2 0x8BF JUMPI PUSH1 0x0 DUP1 REVERT JUMPDEST POP JUMP JUMPDEST PUSH2 0x8CB DUP2 PUSH2 0x758 JUMP JUMPDEST DUP2 EQ PUSH2 0x8D6 JUMPI PUSH1 0x0 DUP1 REVERT JUMPDEST POP JUMP INVALID LOG2 PUSH5 0x6970667358 0x22 SLT KECCAK256 PUSH13 0x71B913767E180CD15C4B614993 MOD COINBASE 0xC2 PUSH10 0x58C72D8D0872E72494ED SELFBALANCE 0xCC 0xC6 DUP1 PUSH5 0x736F6C6343 STOP ADDMOD SMOD STOP CALLER "
				},
				"gasEstimates": {
					"creation": {
						"codeDepositCost": "463800",
						"executionCost": "499",
						"totalCost": "464299"
					},
					"external": {
						"get(uint256)": "7235",
						"reset(uint256)": "infinite",
						"set()": "146299",
						"update(uint256,uint8)": "33537"
					}
				},
				"methodIdentifiers": {
					"get(uint256)": "9507d39a",
					"reset(uint256)": "310bd74b",
					"set()": "b8e010de",
					"update(uint256,uint8)": "306a6948"
				}
			},
			"storageLayout": {
				"storage": [
					{
						"astId": 18,
						"contract": "OrderEnum.sol:OrderEnum",
						"label": "orders",
						"offset": 0,
						"slot": "0",
						"type": "t_array(t_struct(Order)14_storage)dyn_storage"
					},
					{
						"astId": 24,
						"contract": "OrderEnum.sol:OrderEnum",
						"label": "ordersByBuyer",
						"offset": 0,
						"slot": "1",
						"type": "t_mapping(t_address,t_array(t_struct(Order)14_storage)dyn_storage)"
					}
				],
				"types": {
					"t_address": {
						"encoding": "inplace",
						"label": "address",
						"numberOfBytes": "20"
					},
					"t_array(t_struct(Order)14_storage)dyn_storage": {
						"base": "t_struct(Order)14_storage",
						"encoding": "dynamic_array",
						"label": "struct OrderEnum.Order[]",
						"numberOfBytes": "32"
					},
					"t_enum(OrderStatus)8": {
						"encoding": "inplace",
						"label": "enum OrderEnum.OrderStatus",
						"numberOfBytes": "1"
					},
					"t_mapping(t_address,t_array(t_struct(Order)14_storage)dyn_storage)": {
						"encoding": "mapping",
						"key": "t_address",
						"label": "mapping(address => struct OrderEnum.Order[])",
						"numberOfBytes": "32",
						"value": "t_array(t_struct(Order)14_storage)dyn_storage"
					},
					"t_struct(Order)14_storage": {
						"encoding": "inplace",
						"label": "struct OrderEnum.Order",
						"members": [
							{
								"astId": 10,
								"contract": "OrderEnum.sol:OrderEnum",
								"label": "buyer",
								"offset": 0,
								"slot": "0",
								"type": "t_address"
							},
							{
								"astId": 13,
								"contract": "OrderEnum.sol:OrderEnum",
								"label": "status",
								"offset": 20,
								"slot": "0",
								"type": "t_enum(OrderStatus)8"
							}
						],
						"numberOfBytes": "32"
					}
				}
			},
			"userdoc": {
				"kind": "user",
				"methods": {},
				"version": 1
			}
		}
	}
}