{
	"FuncOutputs.sol": {
		"FuncOutputs": {
			"abi": [
				{
					"inputs": [],
					"name": "_a",
					"outputs": [
						{
							"internalType": "uint256",
							"name": "",
							"type": "uint256"
						}
					],
					"stateMutability": "view",
					"type": "function"
				},
				{
					"inputs": [],
					"name": "_b",
					"outputs": [
						{
							"internalType": "bool",
							"name": "",
							"type": "bool"
						}
					],
					"stateMutability": "view",
					"type": "function"
				},
				{
					"inputs": [],
					"name": "_c",
					"outputs": [
						{
							"internalType": "string",
							"name": "",
							"type": "string"
						}
					],
					"stateMutability": "view",
					"type": "function"
				},
				{
					"inputs": [],
					"name": "captureOutputs",
					"outputs": [],
					"stateMutability": "nonpayable",
					"type": "function"
				},
				{
					"inputs": [],
					"name": "displayOutputs",
					"outputs": [
						{
							"internalType": "uint256",
							"name": "a",
							"type": "uint256"
						},
						{
							"internalType": "bool",
							"name": "b",
							"type": "bool"
						},
						{
							"internalType": "string",
							"name": "",
							"type": "string"
						}
					],
					"stateMutability": "view",
					"type": "function"
				},
				{
					"inputs": [],
					"name": "returnMultiple",
					"outputs": [
						{
							"internalType": "uint256",
							"name": "a",
							"type": "uint256"
						},
						{
							"internalType": "bool",
							"name": "b",
							"type": "bool"
						},
						{
							"internalType": "string",
							"name": "",
							"type": "string"
						}
					],
					"stateMutability": "pure",
					"type": "function"
				}
			],
			"devdoc": {
				"kind": "dev",
				"methods": {},
				"version": 1
			},
			"evm": {
				"assembly": "    /* \"FuncOutputs.sol\":56:497  contract FuncOutputs{... */\n  mstore(0x40, 0x80)\n  callvalue\n  dup1\n  iszero\n  tag_1\n  jumpi\n  0x00\n  dup1\n  revert\ntag_1:\n  pop\n  dataSize(sub_0)\n  dup1\n  dataOffset(sub_0)\n  0x00\n  codecopy\n  0x00\n  return\nstop\n\nsub_0: assembly {\n        /* \"FuncOutputs.sol\":56:497  contract FuncOutputs{... */\n      mstore(0x40, 0x80)\n      callvalue\n      dup1\n      iszero\n      tag_1\n      jumpi\n      0x00\n      dup1\n      revert\n    tag_1:\n      pop\n      jumpi(tag_2, lt(calldatasize, 0x04))\n      shr(0xe0, calldataload(0x00))\n      dup1\n      0x25374996\n      eq\n      tag_3\n      jumpi\n      dup1\n      0x26a89e04\n      eq\n      tag_4\n      jumpi\n      dup1\n      0x64f13521\n      eq\n      tag_5\n      jumpi\n      dup1\n      0xced7b2e3\n      eq\n      tag_6\n      jumpi\n      dup1\n      0xe61e4008\n      eq\n      tag_7\n      jumpi\n      dup1\n      0xf5376e03\n      eq\n      tag_8\n      jumpi\n    tag_2:\n      0x00\n      dup1\n      revert\n        /* \"FuncOutputs.sol\":102:116  bool public _b */\n    tag_3:\n      tag_9\n      tag_10\n      jump\t// in\n    tag_9:\n      mload(0x40)\n      tag_11\n      swap2\n      swap1\n      tag_12\n      jump\t// in\n    tag_11:\n      mload(0x40)\n      dup1\n      swap2\n      sub\n      swap1\n      return\n        /* \"FuncOutputs.sol\":277:373  function captureOutputs() external{... */\n    tag_4:\n      tag_13\n      tag_14\n      jump\t// in\n    tag_13:\n      stop\n        /* \"FuncOutputs.sol\":379:495  function displayOutputs() external view returns (uint a, bool b, string memory){... */\n    tag_5:\n      tag_15\n      tag_16\n      jump\t// in\n    tag_15:\n      mload(0x40)\n      tag_17\n      swap4\n      swap3\n      swap2\n      swap1\n      tag_18\n      jump\t// in\n    tag_17:\n      mload(0x40)\n      dup1\n      swap2\n      sub\n      swap1\n      return\n        /* \"FuncOutputs.sol\":82:96  uint public _a */\n    tag_6:\n      tag_19\n      tag_20\n      jump\t// in\n    tag_19:\n      mload(0x40)\n      tag_21\n      swap2\n      swap1\n      tag_22\n      jump\t// in\n    tag_21:\n      mload(0x40)\n      dup1\n      swap2\n      sub\n      swap1\n      return\n        /* \"FuncOutputs.sol\":150:271  function returnMultiple() external pure returns (uint a, bool b, string memory){... */\n    tag_7:\n      tag_23\n      tag_24\n      jump\t// in\n    tag_23:\n      mload(0x40)\n      tag_25\n      swap4\n      swap3\n      swap2\n      swap1\n      tag_18\n      jump\t// in\n    tag_25:\n      mload(0x40)\n      dup1\n      swap2\n      sub\n      swap1\n      return\n        /* \"FuncOutputs.sol\":122:138  string public _c */\n    tag_8:\n      tag_26\n      tag_27\n      jump\t// in\n    tag_26:\n      mload(0x40)\n      tag_28\n      swap2\n      swap1\n      tag_29\n      jump\t// in\n    tag_28:\n      mload(0x40)\n      dup1\n      swap2\n      sub\n      swap1\n      return\n        /* \"FuncOutputs.sol\":102:116  bool public _b */\n    tag_10:\n      0x01\n      0x00\n      swap1\n      sload\n      swap1\n      0x0100\n      exp\n      swap1\n      div\n      0xff\n      and\n      dup2\n      jump\t// out\n        /* \"FuncOutputs.sol\":277:373  function captureOutputs() external{... */\n    tag_14:\n        /* \"FuncOutputs.sol\":336:340  this */\n      address\n        /* \"FuncOutputs.sol\":336:355  this.returnMultiple */\n      0xffffffffffffffffffffffffffffffffffffffff\n      and\n      0xe61e4008\n        /* \"FuncOutputs.sol\":336:357  this.returnMultiple() */\n      mload(0x40)\n      dup2\n      0xffffffff\n      and\n      0xe0\n      shl\n      dup2\n      mstore\n      0x04\n      add\n      0x00\n      mload(0x40)\n      dup1\n      dup4\n      sub\n      dup2\n      dup7\n      dup1\n      extcodesize\n      iszero\n      dup1\n      iszero\n      tag_31\n      jumpi\n      0x00\n      dup1\n      revert\n    tag_31:\n      pop\n      gas\n      staticcall\n      iszero\n      dup1\n      iszero\n      tag_33\n      jumpi\n      returndatasize\n      0x00\n      dup1\n      returndatacopy\n      revert(0x00, returndatasize)\n    tag_33:\n      pop\n      pop\n      pop\n      pop\n      mload(0x40)\n      returndatasize\n      0x00\n      dup3\n      returndatacopy\n      returndatasize\n      not(0x1f)\n      0x1f\n      dup3\n      add\n      and\n      dup3\n      add\n      dup1\n      0x40\n      mstore\n      pop\n      dup2\n      add\n      swap1\n      tag_34\n      swap2\n      swap1\n      tag_35\n      jump\t// in\n    tag_34:\n        /* \"FuncOutputs.sol\":322:324  _a */\n      0x00\n      dup1\n        /* \"FuncOutputs.sol\":326:328  _b */\n      0x01\n      0x00\n        /* \"FuncOutputs.sol\":330:332  _c */\n      0x02\n      0x00\n        /* \"FuncOutputs.sol\":321:357  (_a, _b, _c) = this.returnMultiple() */\n      dup7\n      swap2\n      swap1\n      pop\n      swap1\n      dup1\n      mload\n      swap1\n      0x20\n      add\n      swap1\n      tag_36\n      swap3\n      swap2\n      swap1\n      tag_37\n      jump\t// in\n    tag_36:\n      pop\n      dup6\n      swap2\n      swap1\n      0x0100\n      exp\n      dup2\n      sload\n      dup2\n      0xff\n      mul\n      not\n      and\n      swap1\n      dup4\n      iszero\n      iszero\n      mul\n      or\n      swap1\n      sstore\n      pop\n      dup5\n      swap2\n      swap1\n      pop\n      sstore\n      pop\n      pop\n      pop\n        /* \"FuncOutputs.sol\":277:373  function captureOutputs() external{... */\n      jump\t// out\n        /* \"FuncOutputs.sol\":379:495  function displayOutputs() external view returns (uint a, bool b, string memory){... */\n    tag_16:\n        /* \"FuncOutputs.sol\":428:434  uint a */\n      0x00\n        /* \"FuncOutputs.sol\":436:442  bool b */\n      dup1\n        /* \"FuncOutputs.sol\":444:457  string memory */\n      0x60\n        /* \"FuncOutputs.sol\":476:478  _a */\n      sload(0x00)\n        /* \"FuncOutputs.sol\":480:482  _b */\n      0x01\n      0x00\n      swap1\n      sload\n      swap1\n      0x0100\n      exp\n      swap1\n      div\n      0xff\n      and\n        /* \"FuncOutputs.sol\":485:487  _c */\n      0x02\n        /* \"FuncOutputs.sol\":468:488  return (_a, _b , _c) */\n      dup1\n      dup1\n      sload\n      tag_39\n      swap1\n      tag_40\n      jump\t// in\n    tag_39:\n      dup1\n      0x1f\n      add\n      0x20\n      dup1\n      swap2\n      div\n      mul\n      0x20\n      add\n      mload(0x40)\n      swap1\n      dup2\n      add\n      0x40\n      mstore\n      dup1\n      swap3\n      swap2\n      swap1\n      dup2\n      dup2\n      mstore\n      0x20\n      add\n      dup3\n      dup1\n      sload\n      tag_41\n      swap1\n      tag_40\n      jump\t// in\n    tag_41:\n      dup1\n      iszero\n      tag_42\n      jumpi\n      dup1\n      0x1f\n      lt\n      tag_43\n      jumpi\n      0x0100\n      dup1\n      dup4\n      sload\n      div\n      mul\n      dup4\n      mstore\n      swap2\n      0x20\n      add\n      swap2\n      jump(tag_42)\n    tag_43:\n      dup3\n      add\n      swap2\n      swap1\n      0x00\n      mstore\n      keccak256(0x00, 0x20)\n      swap1\n    tag_44:\n      dup2\n      sload\n      dup2\n      mstore\n      swap1\n      0x01\n      add\n      swap1\n      0x20\n      add\n      dup1\n      dup4\n      gt\n      tag_44\n      jumpi\n      dup3\n      swap1\n      sub\n      0x1f\n      and\n      dup3\n      add\n      swap2\n    tag_42:\n      pop\n      pop\n      pop\n      pop\n      pop\n      swap1\n      pop\n      swap3\n      pop\n      swap3\n      pop\n      swap3\n      pop\n        /* \"FuncOutputs.sol\":379:495  function displayOutputs() external view returns (uint a, bool b, string memory){... */\n      swap1\n      swap2\n      swap3\n      jump\t// out\n        /* \"FuncOutputs.sol\":82:96  uint public _a */\n    tag_20:\n      sload(0x00)\n      dup2\n      jump\t// out\n        /* \"FuncOutputs.sol\":150:271  function returnMultiple() external pure returns (uint a, bool b, string memory){... */\n    tag_24:\n        /* \"FuncOutputs.sol\":199:205  uint a */\n      0x00\n        /* \"FuncOutputs.sol\":207:213  bool b */\n      dup1\n        /* \"FuncOutputs.sol\":215:228  string memory */\n      0x60\n        /* \"FuncOutputs.sol\":247:249  11 */\n      0x0b\n        /* \"FuncOutputs.sol\":251:255  true */\n      0x01\n        /* \"FuncOutputs.sol\":239:264  return (11, true, \"3344\") */\n      mload(0x40)\n      dup1\n      0x40\n      add\n      0x40\n      mstore\n      dup1\n      0x04\n      dup2\n      mstore\n      0x20\n      add\n      0x3333343400000000000000000000000000000000000000000000000000000000\n      dup2\n      mstore\n      pop\n      swap3\n      pop\n      swap3\n      pop\n      swap3\n      pop\n        /* \"FuncOutputs.sol\":150:271  function returnMultiple() external pure returns (uint a, bool b, string memory){... */\n      swap1\n      swap2\n      swap3\n      jump\t// out\n        /* \"FuncOutputs.sol\":122:138  string public _c */\n    tag_27:\n      0x02\n      dup1\n      sload\n      tag_46\n      swap1\n      tag_40\n      jump\t// in\n    tag_46:\n      dup1\n      0x1f\n      add\n      0x20\n      dup1\n      swap2\n      div\n      mul\n      0x20\n      add\n      mload(0x40)\n      swap1\n      dup2\n      add\n      0x40\n      mstore\n      dup1\n      swap3\n      swap2\n      swap1\n      dup2\n      dup2\n      mstore\n      0x20\n      add\n      dup3\n      dup1\n      sload\n      tag_47\n      swap1\n      tag_40\n      jump\t// in\n    tag_47:\n      dup1\n      iszero\n      tag_48\n      jumpi\n      dup1\n      0x1f\n      lt\n      tag_49\n      jumpi\n      0x0100\n      dup1\n      dup4\n      sload\n      div\n      mul\n      dup4\n      mstore\n      swap2\n      0x20\n      add\n      swap2\n      jump(tag_48)\n    tag_49:\n      dup3\n      add\n      swap2\n      swap1\n      0x00\n      mstore\n      keccak256(0x00, 0x20)\n      swap1\n    tag_50:\n      dup2\n      sload\n      dup2\n      mstore\n      swap1\n      0x01\n      add\n      swap1\n      0x20\n      add\n      dup1\n      dup4\n      gt\n      tag_50\n      jumpi\n      dup3\n      swap1\n      sub\n      0x1f\n      and\n      dup3\n      add\n      swap2\n    tag_48:\n      pop\n      pop\n      pop\n      pop\n      pop\n      dup2\n      jump\t// out\n    tag_37:\n      dup3\n      dup1\n      sload\n      tag_51\n      swap1\n      tag_40\n      jump\t// in\n    tag_51:\n      swap1\n      0x00\n      mstore\n      keccak256(0x00, 0x20)\n      swap1\n      0x1f\n      add\n      0x20\n      swap1\n      div\n      dup2\n      add\n      swap3\n      dup3\n      tag_53\n      jumpi\n      0x00\n      dup6\n      sstore\n      jump(tag_52)\n    tag_53:\n      dup3\n      0x1f\n      lt\n      tag_54\n      jumpi\n      dup1\n      mload\n      not(0xff)\n      and\n      dup4\n      dup1\n      add\n      or\n      dup6\n      sstore\n      jump(tag_52)\n    tag_54:\n      dup3\n      dup1\n      add\n      0x01\n      add\n      dup6\n      sstore\n      dup3\n      iszero\n      tag_52\n      jumpi\n      swap2\n      dup3\n      add\n    tag_55:\n      dup3\n      dup2\n      gt\n      iszero\n      tag_56\n      jumpi\n      dup3\n      mload\n      dup3\n      sstore\n      swap2\n      0x20\n      add\n      swap2\n      swap1\n      0x01\n      add\n      swap1\n      jump(tag_55)\n    tag_56:\n    tag_52:\n      pop\n      swap1\n      pop\n      tag_57\n      swap2\n      swap1\n      tag_58\n      jump\t// in\n    tag_57:\n      pop\n      swap1\n      jump\t// out\n    tag_58:\n    tag_59:\n      dup1\n      dup3\n      gt\n      iszero\n      tag_60\n      jumpi\n      0x00\n      dup2\n      0x00\n      swap1\n      sstore\n      pop\n      0x01\n      add\n      jump(tag_59)\n    tag_60:\n      pop\n      swap1\n      jump\t// out\n        /* \"#utility.yul\":7:428   */\n    tag_62:\n        /* \"#utility.yul\":96:101   */\n      0x00\n        /* \"#utility.yul\":121:187   */\n      tag_64\n        /* \"#utility.yul\":137:186   */\n      tag_65\n        /* \"#utility.yul\":179:185   */\n      dup5\n        /* \"#utility.yul\":137:186   */\n      tag_66\n      jump\t// in\n    tag_65:\n        /* \"#utility.yul\":121:187   */\n      tag_67\n      jump\t// in\n    tag_64:\n        /* \"#utility.yul\":112:187   */\n      swap1\n      pop\n        /* \"#utility.yul\":210:216   */\n      dup3\n        /* \"#utility.yul\":203:208   */\n      dup2\n        /* \"#utility.yul\":196:217   */\n      mstore\n        /* \"#utility.yul\":248:252   */\n      0x20\n        /* \"#utility.yul\":241:246   */\n      dup2\n        /* \"#utility.yul\":237:253   */\n      add\n        /* \"#utility.yul\":286:289   */\n      dup5\n        /* \"#utility.yul\":277:283   */\n      dup5\n        /* \"#utility.yul\":272:275   */\n      dup5\n        /* \"#utility.yul\":268:284   */\n      add\n        /* \"#utility.yul\":265:290   */\n      gt\n        /* \"#utility.yul\":262:374   */\n      iszero\n      tag_68\n      jumpi\n        /* \"#utility.yul\":293:372   */\n      tag_69\n      tag_70\n      jump\t// in\n    tag_69:\n        /* \"#utility.yul\":262:374   */\n    tag_68:\n        /* \"#utility.yul\":383:422   */\n      tag_71\n        /* \"#utility.yul\":415:421   */\n      dup5\n        /* \"#utility.yul\":410:413   */\n      dup3\n        /* \"#utility.yul\":405:408   */\n      dup6\n        /* \"#utility.yul\":383:422   */\n      tag_72\n      jump\t// in\n    tag_71:\n        /* \"#utility.yul\":102:428   */\n      pop\n        /* \"#utility.yul\":7:428   */\n      swap4\n      swap3\n      pop\n      pop\n      pop\n      jump\t// out\n        /* \"#utility.yul\":434:571   */\n    tag_73:\n        /* \"#utility.yul\":488:493   */\n      0x00\n        /* \"#utility.yul\":519:525   */\n      dup2\n        /* \"#utility.yul\":513:526   */\n      mload\n        /* \"#utility.yul\":504:526   */\n      swap1\n      pop\n        /* \"#utility.yul\":535:565   */\n      tag_75\n        /* \"#utility.yul\":559:564   */\n      dup2\n        /* \"#utility.yul\":535:565   */\n      tag_76\n      jump\t// in\n    tag_75:\n        /* \"#utility.yul\":434:571   */\n      swap3\n      swap2\n      pop\n      pop\n      jump\t// out\n        /* \"#utility.yul\":591:946   */\n    tag_77:\n        /* \"#utility.yul\":658:663   */\n      0x00\n        /* \"#utility.yul\":707:710   */\n      dup3\n        /* \"#utility.yul\":700:704   */\n      0x1f\n        /* \"#utility.yul\":692:698   */\n      dup4\n        /* \"#utility.yul\":688:705   */\n      add\n        /* \"#utility.yul\":684:711   */\n      slt\n        /* \"#utility.yul\":674:796   */\n      tag_79\n      jumpi\n        /* \"#utility.yul\":715:794   */\n      tag_80\n      tag_81\n      jump\t// in\n    tag_80:\n        /* \"#utility.yul\":674:796   */\n    tag_79:\n        /* \"#utility.yul\":825:831   */\n      dup2\n        /* \"#utility.yul\":819:832   */\n      mload\n        /* \"#utility.yul\":850:940   */\n      tag_82\n        /* \"#utility.yul\":936:939   */\n      dup5\n        /* \"#utility.yul\":928:934   */\n      dup3\n        /* \"#utility.yul\":921:925   */\n      0x20\n        /* \"#utility.yul\":913:919   */\n      dup7\n        /* \"#utility.yul\":909:926   */\n      add\n        /* \"#utility.yul\":850:940   */\n      tag_62\n      jump\t// in\n    tag_82:\n        /* \"#utility.yul\":841:940   */\n      swap2\n      pop\n        /* \"#utility.yul\":664:946   */\n      pop\n        /* \"#utility.yul\":591:946   */\n      swap3\n      swap2\n      pop\n      pop\n      jump\t// out\n        /* \"#utility.yul\":952:1095   */\n    tag_83:\n        /* \"#utility.yul\":1009:1014   */\n      0x00\n        /* \"#utility.yul\":1040:1046   */\n      dup2\n        /* \"#utility.yul\":1034:1047   */\n      mload\n        /* \"#utility.yul\":1025:1047   */\n      swap1\n      pop\n        /* \"#utility.yul\":1056:1089   */\n      tag_85\n        /* \"#utility.yul\":1083:1088   */\n      dup2\n        /* \"#utility.yul\":1056:1089   */\n      tag_86\n      jump\t// in\n    tag_85:\n        /* \"#utility.yul\":952:1095   */\n      swap3\n      swap2\n      pop\n      pop\n      jump\t// out\n        /* \"#utility.yul\":1101:1931   */\n    tag_35:\n        /* \"#utility.yul\":1196:1202   */\n      0x00\n        /* \"#utility.yul\":1204:1210   */\n      dup1\n        /* \"#utility.yul\":1212:1218   */\n      0x00\n        /* \"#utility.yul\":1261:1263   */\n      0x60\n        /* \"#utility.yul\":1249:1258   */\n      dup5\n        /* \"#utility.yul\":1240:1247   */\n      dup7\n        /* \"#utility.yul\":1236:1259   */\n      sub\n        /* \"#utility.yul\":1232:1264   */\n      slt\n        /* \"#utility.yul\":1229:1348   */\n      iszero\n      tag_88\n      jumpi\n        /* \"#utility.yul\":1267:1346   */\n      tag_89\n      tag_90\n      jump\t// in\n    tag_89:\n        /* \"#utility.yul\":1229:1348   */\n    tag_88:\n        /* \"#utility.yul\":1387:1388   */\n      0x00\n        /* \"#utility.yul\":1412:1476   */\n      tag_91\n        /* \"#utility.yul\":1468:1475   */\n      dup7\n        /* \"#utility.yul\":1459:1465   */\n      dup3\n        /* \"#utility.yul\":1448:1457   */\n      dup8\n        /* \"#utility.yul\":1444:1466   */\n      add\n        /* \"#utility.yul\":1412:1476   */\n      tag_83\n      jump\t// in\n    tag_91:\n        /* \"#utility.yul\":1402:1476   */\n      swap4\n      pop\n        /* \"#utility.yul\":1358:1486   */\n      pop\n        /* \"#utility.yul\":1525:1527   */\n      0x20\n        /* \"#utility.yul\":1551:1612   */\n      tag_92\n        /* \"#utility.yul\":1604:1611   */\n      dup7\n        /* \"#utility.yul\":1595:1601   */\n      dup3\n        /* \"#utility.yul\":1584:1593   */\n      dup8\n        /* \"#utility.yul\":1580:1602   */\n      add\n        /* \"#utility.yul\":1551:1612   */\n      tag_73\n      jump\t// in\n    tag_92:\n        /* \"#utility.yul\":1541:1612   */\n      swap3\n      pop\n        /* \"#utility.yul\":1496:1622   */\n      pop\n        /* \"#utility.yul\":1682:1684   */\n      0x40\n        /* \"#utility.yul\":1671:1680   */\n      dup5\n        /* \"#utility.yul\":1667:1685   */\n      add\n        /* \"#utility.yul\":1661:1686   */\n      mload\n        /* \"#utility.yul\":1713:1731   */\n      0xffffffffffffffff\n        /* \"#utility.yul\":1705:1711   */\n      dup2\n        /* \"#utility.yul\":1702:1732   */\n      gt\n        /* \"#utility.yul\":1699:1816   */\n      iszero\n      tag_93\n      jumpi\n        /* \"#utility.yul\":1735:1814   */\n      tag_94\n      tag_95\n      jump\t// in\n    tag_94:\n        /* \"#utility.yul\":1699:1816   */\n    tag_93:\n        /* \"#utility.yul\":1840:1914   */\n      tag_96\n        /* \"#utility.yul\":1906:1913   */\n      dup7\n        /* \"#utility.yul\":1897:1903   */\n      dup3\n        /* \"#utility.yul\":1886:1895   */\n      dup8\n        /* \"#utility.yul\":1882:1904   */\n      add\n        /* \"#utility.yul\":1840:1914   */\n      tag_77\n      jump\t// in\n    tag_96:\n        /* \"#utility.yul\":1830:1914   */\n      swap2\n      pop\n        /* \"#utility.yul\":1632:1924   */\n      pop\n        /* \"#utility.yul\":1101:1931   */\n      swap3\n      pop\n      swap3\n      pop\n      swap3\n      jump\t// out\n        /* \"#utility.yul\":1937:2046   */\n    tag_97:\n        /* \"#utility.yul\":2018:2039   */\n      tag_99\n        /* \"#utility.yul\":2033:2038   */\n      dup2\n        /* \"#utility.yul\":2018:2039   */\n      tag_100\n      jump\t// in\n    tag_99:\n        /* \"#utility.yul\":2013:2016   */\n      dup3\n        /* \"#utility.yul\":2006:2040   */\n      mstore\n        /* \"#utility.yul\":1937:2046   */\n      pop\n      pop\n      jump\t// out\n        /* \"#utility.yul\":2052:2416   */\n    tag_101:\n        /* \"#utility.yul\":2140:2143   */\n      0x00\n        /* \"#utility.yul\":2168:2207   */\n      tag_103\n        /* \"#utility.yul\":2201:2206   */\n      dup3\n        /* \"#utility.yul\":2168:2207   */\n      tag_104\n      jump\t// in\n    tag_103:\n        /* \"#utility.yul\":2223:2294   */\n      tag_105\n        /* \"#utility.yul\":2287:2293   */\n      dup2\n        /* \"#utility.yul\":2282:2285   */\n      dup6\n        /* \"#utility.yul\":2223:2294   */\n      tag_106\n      jump\t// in\n    tag_105:\n        /* \"#utility.yul\":2216:2294   */\n      swap4\n      pop\n        /* \"#utility.yul\":2303:2355   */\n      tag_107\n        /* \"#utility.yul\":2348:2354   */\n      dup2\n        /* \"#utility.yul\":2343:2346   */\n      dup6\n        /* \"#utility.yul\":2336:2340   */\n      0x20\n        /* \"#utility.yul\":2329:2334   */\n      dup7\n        /* \"#utility.yul\":2325:2341   */\n      add\n        /* \"#utility.yul\":2303:2355   */\n      tag_72\n      jump\t// in\n    tag_107:\n        /* \"#utility.yul\":2380:2409   */\n      tag_108\n        /* \"#utility.yul\":2402:2408   */\n      dup2\n        /* \"#utility.yul\":2380:2409   */\n      tag_109\n      jump\t// in\n    tag_108:\n        /* \"#utility.yul\":2375:2378   */\n      dup5\n        /* \"#utility.yul\":2371:2410   */\n      add\n        /* \"#utility.yul\":2364:2410   */\n      swap2\n      pop\n        /* \"#utility.yul\":2144:2416   */\n      pop\n        /* \"#utility.yul\":2052:2416   */\n      swap3\n      swap2\n      pop\n      pop\n      jump\t// out\n        /* \"#utility.yul\":2422:2540   */\n    tag_110:\n        /* \"#utility.yul\":2509:2533   */\n      tag_112\n        /* \"#utility.yul\":2527:2532   */\n      dup2\n        /* \"#utility.yul\":2509:2533   */\n      tag_113\n      jump\t// in\n    tag_112:\n        /* \"#utility.yul\":2504:2507   */\n      dup3\n        /* \"#utility.yul\":2497:2534   */\n      mstore\n        /* \"#utility.yul\":2422:2540   */\n      pop\n      pop\n      jump\t// out\n        /* \"#utility.yul\":2546:2756   */\n    tag_12:\n        /* \"#utility.yul\":2633:2637   */\n      0x00\n        /* \"#utility.yul\":2671:2673   */\n      0x20\n        /* \"#utility.yul\":2660:2669   */\n      dup3\n        /* \"#utility.yul\":2656:2674   */\n      add\n        /* \"#utility.yul\":2648:2674   */\n      swap1\n      pop\n        /* \"#utility.yul\":2684:2749   */\n      tag_115\n        /* \"#utility.yul\":2746:2747   */\n      0x00\n        /* \"#utility.yul\":2735:2744   */\n      dup4\n        /* \"#utility.yul\":2731:2748   */\n      add\n        /* \"#utility.yul\":2722:2728   */\n      dup5\n        /* \"#utility.yul\":2684:2749   */\n      tag_97\n      jump\t// in\n    tag_115:\n        /* \"#utility.yul\":2546:2756   */\n      swap3\n      swap2\n      pop\n      pop\n      jump\t// out\n        /* \"#utility.yul\":2762:3075   */\n    tag_29:\n        /* \"#utility.yul\":2875:2879   */\n      0x00\n        /* \"#utility.yul\":2913:2915   */\n      0x20\n        /* \"#utility.yul\":2902:2911   */\n      dup3\n        /* \"#utility.yul\":2898:2916   */\n      add\n        /* \"#utility.yul\":2890:2916   */\n      swap1\n      pop\n        /* \"#utility.yul\":2962:2971   */\n      dup2\n        /* \"#utility.yul\":2956:2960   */\n      dup2\n        /* \"#utility.yul\":2952:2972   */\n      sub\n        /* \"#utility.yul\":2948:2949   */\n      0x00\n        /* \"#utility.yul\":2937:2946   */\n      dup4\n        /* \"#utility.yul\":2933:2950   */\n      add\n        /* \"#utility.yul\":2926:2973   */\n      mstore\n        /* \"#utility.yul\":2990:3068   */\n      tag_117\n        /* \"#utility.yul\":3063:3067   */\n      dup2\n        /* \"#utility.yul\":3054:3060   */\n      dup5\n        /* \"#utility.yul\":2990:3068   */\n      tag_101\n      jump\t// in\n    tag_117:\n        /* \"#utility.yul\":2982:3068   */\n      swap1\n      pop\n        /* \"#utility.yul\":2762:3075   */\n      swap3\n      swap2\n      pop\n      pop\n      jump\t// out\n        /* \"#utility.yul\":3081:3303   */\n    tag_22:\n        /* \"#utility.yul\":3174:3178   */\n      0x00\n        /* \"#utility.yul\":3212:3214   */\n      0x20\n        /* \"#utility.yul\":3201:3210   */\n      dup3\n        /* \"#utility.yul\":3197:3215   */\n      add\n        /* \"#utility.yul\":3189:3215   */\n      swap1\n      pop\n        /* \"#utility.yul\":3225:3296   */\n      tag_119\n        /* \"#utility.yul\":3293:3294   */\n      0x00\n        /* \"#utility.yul\":3282:3291   */\n      dup4\n        /* \"#utility.yul\":3278:3295   */\n      add\n        /* \"#utility.yul\":3269:3275   */\n      dup5\n        /* \"#utility.yul\":3225:3296   */\n      tag_110\n      jump\t// in\n    tag_119:\n        /* \"#utility.yul\":3081:3303   */\n      swap3\n      swap2\n      pop\n      pop\n      jump\t// out\n        /* \"#utility.yul\":3309:3830   */\n    tag_18:\n        /* \"#utility.yul\":3472:3476   */\n      0x00\n        /* \"#utility.yul\":3510:3512   */\n      0x60\n        /* \"#utility.yul\":3499:3508   */\n      dup3\n        /* \"#utility.yul\":3495:3513   */\n      add\n        /* \"#utility.yul\":3487:3513   */\n      swap1\n      pop\n        /* \"#utility.yul\":3523:3594   */\n      tag_121\n        /* \"#utility.yul\":3591:3592   */\n      0x00\n        /* \"#utility.yul\":3580:3589   */\n      dup4\n        /* \"#utility.yul\":3576:3593   */\n      add\n        /* \"#utility.yul\":3567:3573   */\n      dup7\n        /* \"#utility.yul\":3523:3594   */\n      tag_110\n      jump\t// in\n    tag_121:\n        /* \"#utility.yul\":3604:3670   */\n      tag_122\n        /* \"#utility.yul\":3666:3668   */\n      0x20\n        /* \"#utility.yul\":3655:3664   */\n      dup4\n        /* \"#utility.yul\":3651:3669   */\n      add\n        /* \"#utility.yul\":3642:3648   */\n      dup6\n        /* \"#utility.yul\":3604:3670   */\n      tag_97\n      jump\t// in\n    tag_122:\n        /* \"#utility.yul\":3717:3726   */\n      dup2\n        /* \"#utility.yul\":3711:3715   */\n      dup2\n        /* \"#utility.yul\":3707:3727   */\n      sub\n        /* \"#utility.yul\":3702:3704   */\n      0x40\n        /* \"#utility.yul\":3691:3700   */\n      dup4\n        /* \"#utility.yul\":3687:3705   */\n      add\n        /* \"#utility.yul\":3680:3728   */\n      mstore\n        /* \"#utility.yul\":3745:3823   */\n      tag_123\n        /* \"#utility.yul\":3818:3822   */\n      dup2\n        /* \"#utility.yul\":3809:3815   */\n      dup5\n        /* \"#utility.yul\":3745:3823   */\n      tag_101\n      jump\t// in\n    tag_123:\n        /* \"#utility.yul\":3737:3823   */\n      swap1\n      pop\n        /* \"#utility.yul\":3309:3830   */\n      swap5\n      swap4\n      pop\n      pop\n      pop\n      pop\n      jump\t// out\n        /* \"#utility.yul\":3836:3965   */\n    tag_67:\n        /* \"#utility.yul\":3870:3876   */\n      0x00\n        /* \"#utility.yul\":3897:3917   */\n      tag_125\n      tag_126\n      jump\t// in\n    tag_125:\n        /* \"#utility.yul\":3887:3917   */\n      swap1\n      pop\n        /* \"#utility.yul\":3926:3959   */\n      tag_127\n        /* \"#utility.yul\":3954:3958   */\n      dup3\n        /* \"#utility.yul\":3946:3952   */\n      dup3\n        /* \"#utility.yul\":3926:3959   */\n      tag_128\n      jump\t// in\n    tag_127:\n        /* \"#utility.yul\":3836:3965   */\n      swap2\n      swap1\n      pop\n      jump\t// out\n        /* \"#utility.yul\":3971:4046   */\n    tag_126:\n        /* \"#utility.yul\":4004:4010   */\n      0x00\n        /* \"#utility.yul\":4037:4039   */\n      0x40\n        /* \"#utility.yul\":4031:4040   */\n      mload\n        /* \"#utility.yul\":4021:4040   */\n      swap1\n      pop\n        /* \"#utility.yul\":3971:4046   */\n      swap1\n      jump\t// out\n        /* \"#utility.yul\":4052:4360   */\n    tag_66:\n        /* \"#utility.yul\":4114:4118   */\n      0x00\n        /* \"#utility.yul\":4204:4222   */\n      0xffffffffffffffff\n        /* \"#utility.yul\":4196:4202   */\n      dup3\n        /* \"#utility.yul\":4193:4223   */\n      gt\n        /* \"#utility.yul\":4190:4246   */\n      iszero\n      tag_131\n      jumpi\n        /* \"#utility.yul\":4226:4244   */\n      tag_132\n      tag_133\n      jump\t// in\n    tag_132:\n        /* \"#utility.yul\":4190:4246   */\n    tag_131:\n        /* \"#utility.yul\":4264:4293   */\n      tag_134\n        /* \"#utility.yul\":4286:4292   */\n      dup3\n        /* \"#utility.yul\":4264:4293   */\n      tag_109\n      jump\t// in\n    tag_134:\n        /* \"#utility.yul\":4256:4293   */\n      swap1\n      pop\n        /* \"#utility.yul\":4348:4352   */\n      0x20\n        /* \"#utility.yul\":4342:4346   */\n      dup2\n        /* \"#utility.yul\":4338:4353   */\n      add\n        /* \"#utility.yul\":4330:4353   */\n      swap1\n      pop\n        /* \"#utility.yul\":4052:4360   */\n      swap2\n      swap1\n      pop\n      jump\t// out\n        /* \"#utility.yul\":4366:4465   */\n    tag_104:\n        /* \"#utility.yul\":4418:4424   */\n      0x00\n        /* \"#utility.yul\":4452:4457   */\n      dup2\n        /* \"#utility.yul\":4446:4458   */\n      mload\n        /* \"#utility.yul\":4436:4458   */\n      swap1\n      pop\n        /* \"#utility.yul\":4366:4465   */\n      swap2\n      swap1\n      pop\n      jump\t// out\n        /* \"#utility.yul\":4471:4640   */\n    tag_106:\n        /* \"#utility.yul\":4555:4566   */\n      0x00\n        /* \"#utility.yul\":4589:4595   */\n      dup3\n        /* \"#utility.yul\":4584:4587   */\n      dup3\n        /* \"#utility.yul\":4577:4596   */\n      mstore\n        /* \"#utility.yul\":4629:4633   */\n      0x20\n        /* \"#utility.yul\":4624:4627   */\n      dup3\n        /* \"#utility.yul\":4620:4634   */\n      add\n        /* \"#utility.yul\":4605:4634   */\n      swap1\n      pop\n        /* \"#utility.yul\":4471:4640   */\n      swap3\n      swap2\n      pop\n      pop\n      jump\t// out\n        /* \"#utility.yul\":4646:4736   */\n    tag_100:\n        /* \"#utility.yul\":4680:4687   */\n      0x00\n        /* \"#utility.yul\":4723:4728   */\n      dup2\n        /* \"#utility.yul\":4716:4729   */\n      iszero\n        /* \"#utility.yul\":4709:4730   */\n      iszero\n        /* \"#utility.yul\":4698:4730   */\n      swap1\n      pop\n        /* \"#utility.yul\":4646:4736   */\n      swap2\n      swap1\n      pop\n      jump\t// out\n        /* \"#utility.yul\":4742:4819   */\n    tag_113:\n        /* \"#utility.yul\":4779:4786   */\n      0x00\n        /* \"#utility.yul\":4808:4813   */\n      dup2\n        /* \"#utility.yul\":4797:4813   */\n      swap1\n      pop\n        /* \"#utility.yul\":4742:4819   */\n      swap2\n      swap1\n      pop\n      jump\t// out\n        /* \"#utility.yul\":4825:5132   */\n    tag_72:\n        /* \"#utility.yul\":4893:4894   */\n      0x00\n        /* \"#utility.yul\":4903:5016   */\n    tag_140:\n        /* \"#utility.yul\":4917:4923   */\n      dup4\n        /* \"#utility.yul\":4914:4915   */\n      dup2\n        /* \"#utility.yul\":4911:4924   */\n      lt\n        /* \"#utility.yul\":4903:5016   */\n      iszero\n      tag_142\n      jumpi\n        /* \"#utility.yul\":5002:5003   */\n      dup1\n        /* \"#utility.yul\":4997:5000   */\n      dup3\n        /* \"#utility.yul\":4993:5004   */\n      add\n        /* \"#utility.yul\":4987:5005   */\n      mload\n        /* \"#utility.yul\":4983:4984   */\n      dup2\n        /* \"#utility.yul\":4978:4981   */\n      dup5\n        /* \"#utility.yul\":4974:4985   */\n      add\n        /* \"#utility.yul\":4967:5006   */\n      mstore\n        /* \"#utility.yul\":4939:4941   */\n      0x20\n        /* \"#utility.yul\":4936:4937   */\n      dup2\n        /* \"#utility.yul\":4932:4942   */\n      add\n        /* \"#utility.yul\":4927:4942   */\n      swap1\n      pop\n        /* \"#utility.yul\":4903:5016   */\n      jump(tag_140)\n    tag_142:\n        /* \"#utility.yul\":5034:5040   */\n      dup4\n        /* \"#utility.yul\":5031:5032   */\n      dup2\n        /* \"#utility.yul\":5028:5041   */\n      gt\n        /* \"#utility.yul\":5025:5126   */\n      iszero\n      tag_143\n      jumpi\n        /* \"#utility.yul\":5114:5115   */\n      0x00\n        /* \"#utility.yul\":5105:5111   */\n      dup5\n        /* \"#utility.yul\":5100:5103   */\n      dup5\n        /* \"#utility.yul\":5096:5112   */\n      add\n        /* \"#utility.yul\":5089:5116   */\n      mstore\n        /* \"#utility.yul\":5025:5126   */\n    tag_143:\n        /* \"#utility.yul\":4874:5132   */\n      pop\n        /* \"#utility.yul\":4825:5132   */\n      pop\n      pop\n      pop\n      jump\t// out\n        /* \"#utility.yul\":5138:5458   */\n    tag_40:\n        /* \"#utility.yul\":5182:5188   */\n      0x00\n        /* \"#utility.yul\":5219:5220   */\n      0x02\n        /* \"#utility.yul\":5213:5217   */\n      dup3\n        /* \"#utility.yul\":5209:5221   */\n      div\n        /* \"#utility.yul\":5199:5221   */\n      swap1\n      pop\n        /* \"#utility.yul\":5266:5267   */\n      0x01\n        /* \"#utility.yul\":5260:5264   */\n      dup3\n        /* \"#utility.yul\":5256:5268   */\n      and\n        /* \"#utility.yul\":5287:5305   */\n      dup1\n        /* \"#utility.yul\":5277:5358   */\n      tag_145\n      jumpi\n        /* \"#utility.yul\":5343:5347   */\n      0x7f\n        /* \"#utility.yul\":5335:5341   */\n      dup3\n        /* \"#utility.yul\":5331:5348   */\n      and\n        /* \"#utility.yul\":5321:5348   */\n      swap2\n      pop\n        /* \"#utility.yul\":5277:5358   */\n    tag_145:\n        /* \"#utility.yul\":5405:5407   */\n      0x20\n        /* \"#utility.yul\":5397:5403   */\n      dup3\n        /* \"#utility.yul\":5394:5408   */\n      lt\n        /* \"#utility.yul\":5374:5392   */\n      dup2\n        /* \"#utility.yul\":5371:5409   */\n      eq\n        /* \"#utility.yul\":5368:5452   */\n      iszero\n      tag_146\n      jumpi\n        /* \"#utility.yul\":5424:5442   */\n      tag_147\n      tag_148\n      jump\t// in\n    tag_147:\n        /* \"#utility.yul\":5368:5452   */\n    tag_146:\n        /* \"#utility.yul\":5189:5458   */\n      pop\n        /* \"#utility.yul\":5138:5458   */\n      swap2\n      swap1\n      pop\n      jump\t// out\n        /* \"#utility.yul\":5464:5745   */\n    tag_128:\n        /* \"#utility.yul\":5547:5574   */\n      tag_150\n        /* \"#utility.yul\":5569:5573   */\n      dup3\n        /* \"#utility.yul\":5547:5574   */\n      tag_109\n      jump\t// in\n    tag_150:\n        /* \"#utility.yul\":5539:5545   */\n      dup2\n        /* \"#utility.yul\":5535:5575   */\n      add\n        /* \"#utility.yul\":5677:5683   */\n      dup2\n        /* \"#utility.yul\":5665:5675   */\n      dup2\n        /* \"#utility.yul\":5662:5684   */\n      lt\n        /* \"#utility.yul\":5641:5659   */\n      0xffffffffffffffff\n        /* \"#utility.yul\":5629:5639   */\n      dup3\n        /* \"#utility.yul\":5626:5660   */\n      gt\n        /* \"#utility.yul\":5623:5685   */\n      or\n        /* \"#utility.yul\":5620:5708   */\n      iszero\n      tag_151\n      jumpi\n        /* \"#utility.yul\":5688:5706   */\n      tag_152\n      tag_133\n      jump\t// in\n    tag_152:\n        /* \"#utility.yul\":5620:5708   */\n    tag_151:\n        /* \"#utility.yul\":5728:5738   */\n      dup1\n        /* \"#utility.yul\":5724:5726   */\n      0x40\n        /* \"#utility.yul\":5717:5739   */\n      mstore\n        /* \"#utility.yul\":5507:5745   */\n      pop\n        /* \"#utility.yul\":5464:5745   */\n      pop\n      pop\n      jump\t// out\n        /* \"#utility.yul\":5751:5931   */\n    tag_148:\n        /* \"#utility.yul\":5799:5876   */\n      0x4e487b7100000000000000000000000000000000000000000000000000000000\n        /* \"#utility.yul\":5796:5797   */\n      0x00\n        /* \"#utility.yul\":5789:5877   */\n      mstore\n        /* \"#utility.yul\":5896:5900   */\n      0x22\n        /* \"#utility.yul\":5893:5894   */\n      0x04\n        /* \"#utility.yul\":5886:5901   */\n      mstore\n        /* \"#utility.yul\":5920:5924   */\n      0x24\n        /* \"#utility.yul\":5917:5918   */\n      0x00\n        /* \"#utility.yul\":5910:5925   */\n      revert\n        /* \"#utility.yul\":5937:6117   */\n    tag_133:\n        /* \"#utility.yul\":5985:6062   */\n      0x4e487b7100000000000000000000000000000000000000000000000000000000\n        /* \"#utility.yul\":5982:5983   */\n      0x00\n        /* \"#utility.yul\":5975:6063   */\n      mstore\n        /* \"#utility.yul\":6082:6086   */\n      0x41\n        /* \"#utility.yul\":6079:6080   */\n      0x04\n        /* \"#utility.yul\":6072:6087   */\n      mstore\n        /* \"#utility.yul\":6106:6110   */\n      0x24\n        /* \"#utility.yul\":6103:6104   */\n      0x00\n        /* \"#utility.yul\":6096:6111   */\n      revert\n        /* \"#utility.yul\":6123:6240   */\n    tag_81:\n        /* \"#utility.yul\":6232:6233   */\n      0x00\n        /* \"#utility.yul\":6229:6230   */\n      dup1\n        /* \"#utility.yul\":6222:6234   */\n      revert\n        /* \"#utility.yul\":6246:6363   */\n    tag_70:\n        /* \"#utility.yul\":6355:6356   */\n      0x00\n        /* \"#utility.yul\":6352:6353   */\n      dup1\n        /* \"#utility.yul\":6345:6357   */\n      revert\n        /* \"#utility.yul\":6369:6486   */\n    tag_95:\n        /* \"#utility.yul\":6478:6479   */\n      0x00\n        /* \"#utility.yul\":6475:6476   */\n      dup1\n        /* \"#utility.yul\":6468:6480   */\n      revert\n        /* \"#utility.yul\":6492:6609   */\n    tag_90:\n        /* \"#utility.yul\":6601:6602   */\n      0x00\n        /* \"#utility.yul\":6598:6599   */\n      dup1\n        /* \"#utility.yul\":6591:6603   */\n      revert\n        /* \"#utility.yul\":6615:6717   */\n    tag_109:\n        /* \"#utility.yul\":6656:6662   */\n      0x00\n        /* \"#utility.yul\":6707:6709   */\n      0x1f\n        /* \"#utility.yul\":6703:6710   */\n      not\n        /* \"#utility.yul\":6698:6700   */\n      0x1f\n        /* \"#utility.yul\":6691:6696   */\n      dup4\n        /* \"#utility.yul\":6687:6701   */\n      add\n        /* \"#utility.yul\":6683:6711   */\n      and\n        /* \"#utility.yul\":6673:6711   */\n      swap1\n      pop\n        /* \"#utility.yul\":6615:6717   */\n      swap2\n      swap1\n      pop\n      jump\t// out\n        /* \"#utility.yul\":6723:6839   */\n    tag_76:\n        /* \"#utility.yul\":6793:6814   */\n      tag_161\n        /* \"#utility.yul\":6808:6813   */\n      dup2\n        /* \"#utility.yul\":6793:6814   */\n      tag_100\n      jump\t// in\n    tag_161:\n        /* \"#utility.yul\":6786:6791   */\n      dup2\n        /* \"#utility.yul\":6783:6815   */\n      eq\n        /* \"#utility.yul\":6773:6833   */\n      tag_162\n      jumpi\n        /* \"#utility.yul\":6829:6830   */\n      0x00\n        /* \"#utility.yul\":6826:6827   */\n      dup1\n        /* \"#utility.yul\":6819:6831   */\n      revert\n        /* \"#utility.yul\":6773:6833   */\n    tag_162:\n        /* \"#utility.yul\":6723:6839   */\n      pop\n      jump\t// out\n        /* \"#utility.yul\":6845:6967   */\n    tag_86:\n        /* \"#utility.yul\":6918:6942   */\n      tag_164\n        /* \"#utility.yul\":6936:6941   */\n      dup2\n        /* \"#utility.yul\":6918:6942   */\n      tag_113\n      jump\t// in\n    tag_164:\n        /* \"#utility.yul\":6911:6916   */\n      dup2\n        /* \"#utility.yul\":6908:6943   */\n      eq\n        /* \"#utility.yul\":6898:6961   */\n      tag_165\n      jumpi\n        /* \"#utility.yul\":6957:6958   */\n      0x00\n        /* \"#utility.yul\":6954:6955   */\n      dup1\n        /* \"#utility.yul\":6947:6959   */\n      revert\n        /* \"#utility.yul\":6898:6961   */\n    tag_165:\n        /* \"#utility.yul\":6845:6967   */\n      pop\n      jump\t// out\n\n    auxdata: 0xa264697066735822122033edce257bf98f3c94a8cf8d8be6d8fee8328fb8b049c8857acfc498fb51236d64736f6c63430008070033\n}\n",
				"bytecode": {
					"linkReferences": {},
					"object": "608060405234801561001057600080fd5b50610813806100206000396000f3fe608060405234801561001057600080fd5b50600436106100625760003560e01c8063253749961461006757806326a89e041461008557806364f135211461008f578063ced7b2e3146100af578063e61e4008146100cd578063f5376e03146100ed575b600080fd5b61006f61010b565b60405161007c9190610578565b60405180910390f35b61008d61011e565b005b6100976101e6565b6040516100a6939291906105d0565b60405180910390f35b6100b7610297565b6040516100c491906105b5565b60405180910390f35b6100d561029d565b6040516100e4939291906105d0565b60405180910390f35b6100f56102e7565b6040516101029190610593565b60405180910390f35b600160009054906101000a900460ff1681565b3073ffffffffffffffffffffffffffffffffffffffff1663e61e40086040518163ffffffff1660e01b815260040160006040518083038186803b15801561016457600080fd5b505afa158015610178573d6000803e3d6000fd5b505050506040513d6000823e3d601f19601f820116820180604052508101906101a191906104b2565b60008060016000600260008691905090805190602001906101c3929190610375565b508591906101000a81548160ff0219169083151502179055508491905055505050565b6000806060600054600160009054906101000a900460ff16600280805461020c906106c9565b80601f0160208091040260200160405190810160405280929190818152602001828054610238906106c9565b80156102855780601f1061025a57610100808354040283529160200191610285565b820191906000526020600020905b81548152906001019060200180831161026857829003601f168201915b50505050509050925092509250909192565b60005481565b6000806060600b60016040518060400160405280600481526020017f3333343400000000000000000000000000000000000000000000000000000000815250925092509250909192565b600280546102f4906106c9565b80601f0160208091040260200160405190810160405280929190818152602001828054610320906106c9565b801561036d5780601f106103425761010080835404028352916020019161036d565b820191906000526020600020905b81548152906001019060200180831161035057829003601f168201915b505050505081565b828054610381906106c9565b90600052602060002090601f0160209004810192826103a357600085556103ea565b82601f106103bc57805160ff19168380011785556103ea565b828001600101855582156103ea579182015b828111156103e95782518255916020019190600101906103ce565b5b5090506103f791906103fb565b5090565b5b808211156104145760008160009055506001016103fc565b5090565b600061042b61042684610633565b61060e565b9050828152602081018484840111156104475761044661078f565b5b610452848285610696565b509392505050565b600081519050610469816107af565b92915050565b600082601f8301126104845761048361078a565b5b8151610494848260208601610418565b91505092915050565b6000815190506104ac816107c6565b92915050565b6000806000606084860312156104cb576104ca610799565b5b60006104d98682870161049d565b93505060206104ea8682870161045a565b925050604084015167ffffffffffffffff81111561050b5761050a610794565b5b6105178682870161046f565b9150509250925092565b61052a81610680565b82525050565b600061053b82610664565b610545818561066f565b9350610555818560208601610696565b61055e8161079e565b840191505092915050565b6105728161068c565b82525050565b600060208201905061058d6000830184610521565b92915050565b600060208201905081810360008301526105ad8184610530565b905092915050565b60006020820190506105ca6000830184610569565b92915050565b60006060820190506105e56000830186610569565b6105f26020830185610521565b81810360408301526106048184610530565b9050949350505050565b6000610618610629565b905061062482826106fb565b919050565b6000604051905090565b600067ffffffffffffffff82111561064e5761064d61075b565b5b6106578261079e565b9050602081019050919050565b600081519050919050565b600082825260208201905092915050565b60008115159050919050565b6000819050919050565b60005b838110156106b4578082015181840152602081019050610699565b838111156106c3576000848401525b50505050565b600060028204905060018216806106e157607f821691505b602082108114156106f5576106f461072c565b5b50919050565b6107048261079e565b810181811067ffffffffffffffff821117156107235761072261075b565b5b80604052505050565b7f4e487b7100000000000000000000000000000000000000000000000000000000600052602260045260246000fd5b7f4e487b7100000000000000000000000000000000000000000000000000000000600052604160045260246000fd5b600080fd5b600080fd5b600080fd5b600080fd5b6000601f19601f8301169050919050565b6107b881610680565b81146107c357600080fd5b50565b6107cf8161068c565b81146107da57600080fd5b5056fea264697066735822122033edce257bf98f3c94a8cf8d8be6d8fee8328fb8b049c8857acfc498fb51236d64736f6c63430008070033",
					"opcodes": "PUSH1 0x80 PUSH1 0x40 MSTORE CALLVALUE DUP1 ISZERO PUSH2 0x10 JUMPI PUSH1 0x0 DUP1 REVERT JUMPDEST POP PUSH2 0x813 DUP1 PUSH2 0x20 PUSH1 0x0 CODECOPY PUSH1 0x0 RETURN INVALID PUSH1 0x80 PUSH1 0x40 MSTORE CALLVALUE DUP1 ISZERO PUSH2 0x10 JUMPI PUSH1 0x0 DUP1 REVERT JUMPDEST POP PUSH1 0x4 CALLDATASIZE LT PUSH2 0x62 JUMPI PUSH1 0x0 CALLDATALOAD PUSH1 0xE0 SHR DUP1 PUSH4 0x25374996 EQ PUSH2 0x67 JUMPI DUP1 PUSH4 0x26A89E04 EQ PUSH2 0x85 JUMPI DUP1 PUSH4 0x64F13521 EQ PUSH2 0x8F JUMPI DUP1 PUSH4 0xCED7B2E3 EQ PUSH2 0xAF JUMPI DUP1 PUSH4 0xE61E4008 EQ PUSH2 0xCD JUMPI DUP1 PUSH4 0xF5376E03 EQ PUSH2 0xED JUMPI JUMPDEST PUSH1 0x0 DUP1 REVERT JUMPDEST PUSH2 0x6F PUSH2 0x10B JUMP JUMPDEST PUSH1 0x40 MLOAD PUSH2 0x7C SWAP2 SWAP1 PUSH2 0x578 JUMP JUMPDEST PUSH1 0x40 MLOAD DUP1 SWAP2 SUB SWAP1 RETURN JUMPDEST PUSH2 0x8D PUSH2 0x11E JUMP JUMPDEST STOP JUMPDEST PUSH2 0x97 PUSH2 0x1E6 JUMP JUMPDEST PUSH1 0x40 MLOAD PUSH2 0xA6 SWAP4 SWAP3 SWAP2 SWAP1 PUSH2 0x5D0 JUMP JUMPDEST PUSH1 0x40 MLOAD DUP1 SWAP2 SUB SWAP1 RETURN JUMPDEST PUSH2 0xB7 PUSH2 0x297 JUMP JUMPDEST PUSH1 0x40 MLOAD PUSH2 0xC4 SWAP2 SWAP1 PUSH2 0x5B5 JUMP JUMPDEST PUSH1 0x40 MLOAD DUP1 SWAP2 SUB SWAP1 RETURN JUMPDEST PUSH2 0xD5 PUSH2 0x29D JUMP JUMPDEST PUSH1 0x40 MLOAD PUSH2 0xE4 SWAP4 SWAP3 SWAP2 SWAP1 PUSH2 0x5D0 JUMP JUMPDEST PUSH1 0x40 MLOAD DUP1 SWAP2 SUB SWAP1 RETURN JUMPDEST PUSH2 0xF5 PUSH2 0x2E7 JUMP JUMPDEST PUSH1 0x40 MLOAD PUSH2 0x102 SWAP2 SWAP1 PUSH2 0x593 JUMP JUMPDEST PUSH1 0x40 MLOAD DUP1 SWAP2 SUB SWAP1 RETURN JUMPDEST PUSH1 0x1 PUSH1 0x0 SWAP1 SLOAD SWAP1 PUSH2 0x100 EXP SWAP1 DIV PUSH1 0xFF AND DUP2 JUMP JUMPDEST ADDRESS PUSH20 0xFFFFFFFFFFFFFFFFFFFFFFFFFFFFFFFFFFFFFFFF AND PUSH4 0xE61E4008 PUSH1 0x40 MLOAD DUP2 PUSH4 0xFFFFFFFF AND PUSH1 0xE0 SHL DUP2 MSTORE PUSH1 0x4 ADD PUSH1 0x0 PUSH1 0x40 MLOAD DUP1 DUP4 SUB DUP2 DUP7 DUP1 EXTCODESIZE ISZERO DUP1 ISZERO PUSH2 0x164 JUMPI PUSH1 0x0 DUP1 REVERT JUMPDEST POP GAS STATICCALL ISZERO DUP1 ISZERO PUSH2 0x178 JUMPI RETURNDATASIZE PUSH1 0x0 DUP1 RETURNDATACOPY RETURNDATASIZE PUSH1 0x0 REVERT JUMPDEST POP POP POP POP PUSH1 0x40 MLOAD RETURNDATASIZE PUSH1 0x0 DUP3 RETURNDATACOPY RETURNDATASIZE PUSH1 0x1F NOT PUSH1 0x1F DUP3 ADD AND DUP3 ADD DUP1 PUSH1 0x40 MSTORE POP DUP2 ADD SWAP1 PUSH2 0x1A1 SWAP2 SWAP1 PUSH2 0x4B2 JUMP JUMPDEST PUSH1 0x0 DUP1 PUSH1 0x1 PUSH1 0x0 PUSH1 0x2 PUSH1 0x0 DUP7 SWAP2 SWAP1 POP SWAP1 DUP1 MLOAD SWAP1 PUSH1 0x20 ADD SWAP1 PUSH2 0x1C3 SWAP3 SWAP2 SWAP1 PUSH2 0x375 JUMP JUMPDEST POP DUP6 SWAP2 SWAP1 PUSH2 0x100 EXP DUP2 SLOAD DUP2 PUSH1 0xFF MUL NOT AND SWAP1 DUP4 ISZERO ISZERO MUL OR SWAP1 SSTORE POP DUP5 SWAP2 SWAP1 POP SSTORE POP POP POP JUMP JUMPDEST PUSH1 0x0 DUP1 PUSH1 0x60 PUSH1 0x0 SLOAD PUSH1 0x1 PUSH1 0x0 SWAP1 SLOAD SWAP1 PUSH2 0x100 EXP SWAP1 DIV PUSH1 0xFF AND PUSH1 0x2 DUP1 DUP1 SLOAD PUSH2 0x20C SWAP1 PUSH2 0x6C9 JUMP JUMPDEST DUP1 PUSH1 0x1F ADD PUSH1 0x20 DUP1 SWAP2 DIV MUL PUSH1 0x20 ADD PUSH1 0x40 MLOAD SWAP1 DUP2 ADD PUSH1 0x40 MSTORE DUP1 SWAP3 SWAP2 SWAP1 DUP2 DUP2 MSTORE PUSH1 0x20 ADD DUP3 DUP1 SLOAD PUSH2 0x238 SWAP1 PUSH2 0x6C9 JUMP JUMPDEST DUP1 ISZERO PUSH2 0x285 JUMPI DUP1 PUSH1 0x1F LT PUSH2 0x25A JUMPI PUSH2 0x100 DUP1 DUP4 SLOAD DIV MUL DUP4 MSTORE SWAP2 PUSH1 0x20 ADD SWAP2 PUSH2 0x285 JUMP JUMPDEST DUP3 ADD SWAP2 SWAP1 PUSH1 0x0 MSTORE PUSH1 0x20 PUSH1 0x0 KECCAK256 SWAP1 JUMPDEST DUP2 SLOAD DUP2 MSTORE SWAP1 PUSH1 0x1 ADD SWAP1 PUSH1 0x20 ADD DUP1 DUP4 GT PUSH2 0x268 JUMPI DUP3 SWAP1 SUB PUSH1 0x1F AND DUP3 ADD SWAP2 JUMPDEST POP POP POP POP POP SWAP1 POP SWAP3 POP SWAP3 POP SWAP3 POP SWAP1 SWAP2 SWAP3 JUMP JUMPDEST PUSH1 0x0 SLOAD DUP2 JUMP JUMPDEST PUSH1 0x0 DUP1 PUSH1 0x60 PUSH1 0xB PUSH1 0x1 PUSH1 0x40 MLOAD DUP1 PUSH1 0x40 ADD PUSH1 0x40 MSTORE DUP1 PUSH1 0x4 DUP2 MSTORE PUSH1 0x20 ADD PUSH32 0x3333343400000000000000000000000000000000000000000000000000000000 DUP2 MSTORE POP SWAP3 POP SWAP3 POP SWAP3 POP SWAP1 SWAP2 SWAP3 JUMP JUMPDEST PUSH1 0x2 DUP1 SLOAD PUSH2 0x2F4 SWAP1 PUSH2 0x6C9 JUMP JUMPDEST DUP1 PUSH1 0x1F ADD PUSH1 0x20 DUP1 SWAP2 DIV MUL PUSH1 0x20 ADD PUSH1 0x40 MLOAD SWAP1 DUP2 ADD PUSH1 0x40 MSTORE DUP1 SWAP3 SWAP2 SWAP1 DUP2 DUP2 MSTORE PUSH1 0x20 ADD DUP3 DUP1 SLOAD PUSH2 0x320 SWAP1 PUSH2 0x6C9 JUMP JUMPDEST DUP1 ISZERO PUSH2 0x36D JUMPI DUP1 PUSH1 0x1F LT PUSH2 0x342 JUMPI PUSH2 0x100 DUP1 DUP4 SLOAD DIV MUL DUP4 MSTORE SWAP2 PUSH1 0x20 ADD SWAP2 PUSH2 0x36D JUMP JUMPDEST DUP3 ADD SWAP2 SWAP1 PUSH1 0x0 MSTORE PUSH1 0x20 PUSH1 0x0 KECCAK256 SWAP1 JUMPDEST DUP2 SLOAD DUP2 MSTORE SWAP1 PUSH1 0x1 ADD SWAP1 PUSH1 0x20 ADD DUP1 DUP4 GT PUSH2 0x350 JUMPI DUP3 SWAP1 SUB PUSH1 0x1F AND DUP3 ADD SWAP2 JUMPDEST POP POP POP POP POP DUP2 JUMP JUMPDEST DUP3 DUP1 SLOAD PUSH2 0x381 SWAP1 PUSH2 0x6C9 JUMP JUMPDEST SWAP1 PUSH1 0x0 MSTORE PUSH1 0x20 PUSH1 0x0 KECCAK256 SWAP1 PUSH1 0x1F ADD PUSH1 0x20 SWAP1 DIV DUP2 ADD SWAP3 DUP3 PUSH2 0x3A3 JUMPI PUSH1 0x0 DUP6 SSTORE PUSH2 0x3EA JUMP JUMPDEST DUP3 PUSH1 0x1F LT PUSH2 0x3BC JUMPI DUP1 MLOAD PUSH1 0xFF NOT AND DUP4 DUP1 ADD OR DUP6 SSTORE PUSH2 0x3EA JUMP JUMPDEST DUP3 DUP1 ADD PUSH1 0x1 ADD DUP6 SSTORE DUP3 ISZERO PUSH2 0x3EA JUMPI SWAP2 DUP3 ADD JUMPDEST DUP3 DUP2 GT ISZERO PUSH2 0x3E9 JUMPI DUP3 MLOAD DUP3 SSTORE SWAP2 PUSH1 0x20 ADD SWAP2 SWAP1 PUSH1 0x1 ADD SWAP1 PUSH2 0x3CE JUMP JUMPDEST JUMPDEST POP SWAP1 POP PUSH2 0x3F7 SWAP2 SWAP1 PUSH2 0x3FB JUMP JUMPDEST POP SWAP1 JUMP JUMPDEST JUMPDEST DUP1 DUP3 GT ISZERO PUSH2 0x414 JUMPI PUSH1 0x0 DUP2 PUSH1 0x0 SWAP1 SSTORE POP PUSH1 0x1 ADD PUSH2 0x3FC JUMP JUMPDEST POP SWAP1 JUMP JUMPDEST PUSH1 0x0 PUSH2 0x42B PUSH2 0x426 DUP5 PUSH2 0x633 JUMP JUMPDEST PUSH2 0x60E JUMP JUMPDEST SWAP1 POP DUP3 DUP2 MSTORE PUSH1 0x20 DUP2 ADD DUP5 DUP5 DUP5 ADD GT ISZERO PUSH2 0x447 JUMPI PUSH2 0x446 PUSH2 0x78F JUMP JUMPDEST JUMPDEST PUSH2 0x452 DUP5 DUP3 DUP6 PUSH2 0x696 JUMP JUMPDEST POP SWAP4 SWAP3 POP POP POP JUMP JUMPDEST PUSH1 0x0 DUP2 MLOAD SWAP1 POP PUSH2 0x469 DUP2 PUSH2 0x7AF JUMP JUMPDEST SWAP3 SWAP2 POP POP JUMP JUMPDEST PUSH1 0x0 DUP3 PUSH1 0x1F DUP4 ADD SLT PUSH2 0x484 JUMPI PUSH2 0x483 PUSH2 0x78A JUMP JUMPDEST JUMPDEST DUP2 MLOAD PUSH2 0x494 DUP5 DUP3 PUSH1 0x20 DUP7 ADD PUSH2 0x418 JUMP JUMPDEST SWAP2 POP POP SWAP3 SWAP2 POP POP JUMP JUMPDEST PUSH1 0x0 DUP2 MLOAD SWAP1 POP PUSH2 0x4AC DUP2 PUSH2 0x7C6 JUMP JUMPDEST SWAP3 SWAP2 POP POP JUMP JUMPDEST PUSH1 0x0 DUP1 PUSH1 0x0 PUSH1 0x60 DUP5 DUP7 SUB SLT ISZERO PUSH2 0x4CB JUMPI PUSH2 0x4CA PUSH2 0x799 JUMP JUMPDEST JUMPDEST PUSH1 0x0 PUSH2 0x4D9 DUP7 DUP3 DUP8 ADD PUSH2 0x49D JUMP JUMPDEST SWAP4 POP POP PUSH1 0x20 PUSH2 0x4EA DUP7 DUP3 DUP8 ADD PUSH2 0x45A JUMP JUMPDEST SWAP3 POP POP PUSH1 0x40 DUP5 ADD MLOAD PUSH8 0xFFFFFFFFFFFFFFFF DUP2 GT ISZERO PUSH2 0x50B JUMPI PUSH2 0x50A PUSH2 0x794 JUMP JUMPDEST JUMPDEST PUSH2 0x517 DUP7 DUP3 DUP8 ADD PUSH2 0x46F JUMP JUMPDEST SWAP2 POP POP SWAP3 POP SWAP3 POP SWAP3 JUMP JUMPDEST PUSH2 0x52A DUP2 PUSH2 0x680 JUMP JUMPDEST DUP3 MSTORE POP POP JUMP JUMPDEST PUSH1 0x0 PUSH2 0x53B DUP3 PUSH2 0x664 JUMP JUMPDEST PUSH2 0x545 DUP2 DUP6 PUSH2 0x66F JUMP JUMPDEST SWAP4 POP PUSH2 0x555 DUP2 DUP6 PUSH1 0x20 DUP7 ADD PUSH2 0x696 JUMP JUMPDEST PUSH2 0x55E DUP2 PUSH2 0x79E JUMP JUMPDEST DUP5 ADD SWAP2 POP POP SWAP3 SWAP2 POP POP JUMP JUMPDEST PUSH2 0x572 DUP2 PUSH2 0x68C JUMP JUMPDEST DUP3 MSTORE POP POP JUMP JUMPDEST PUSH1 0x0 PUSH1 0x20 DUP3 ADD SWAP1 POP PUSH2 0x58D PUSH1 0x0 DUP4 ADD DUP5 PUSH2 0x521 JUMP JUMPDEST SWAP3 SWAP2 POP POP JUMP JUMPDEST PUSH1 0x0 PUSH1 0x20 DUP3 ADD SWAP1 POP DUP2 DUP2 SUB PUSH1 0x0 DUP4 ADD MSTORE PUSH2 0x5AD DUP2 DUP5 PUSH2 0x530 JUMP JUMPDEST SWAP1 POP SWAP3 SWAP2 POP POP JUMP JUMPDEST PUSH1 0x0 PUSH1 0x20 DUP3 ADD SWAP1 POP PUSH2 0x5CA PUSH1 0x0 DUP4 ADD DUP5 PUSH2 0x569 JUMP JUMPDEST SWAP3 SWAP2 POP POP JUMP JUMPDEST PUSH1 0x0 PUSH1 0x60 DUP3 ADD SWAP1 POP PUSH2 0x5E5 PUSH1 0x0 DUP4 ADD DUP7 PUSH2 0x569 JUMP JUMPDEST PUSH2 0x5F2 PUSH1 0x20 DUP4 ADD DUP6 PUSH2 0x521 JUMP JUMPDEST DUP2 DUP2 SUB PUSH1 0x40 DUP4 ADD MSTORE PUSH2 0x604 DUP2 DUP5 PUSH2 0x530 JUMP JUMPDEST SWAP1 POP SWAP5 SWAP4 POP POP POP POP JUMP JUMPDEST PUSH1 0x0 PUSH2 0x618 PUSH2 0x629 JUMP JUMPDEST SWAP1 POP PUSH2 0x624 DUP3 DUP3 PUSH2 0x6FB JUMP JUMPDEST SWAP2 SWAP1 POP JUMP JUMPDEST PUSH1 0x0 PUSH1 0x40 MLOAD SWAP1 POP SWAP1 JUMP JUMPDEST PUSH1 0x0 PUSH8 0xFFFFFFFFFFFFFFFF DUP3 GT ISZERO PUSH2 0x64E JUMPI PUSH2 0x64D PUSH2 0x75B JUMP JUMPDEST JUMPDEST PUSH2 0x657 DUP3 PUSH2 0x79E JUMP JUMPDEST SWAP1 POP PUSH1 0x20 DUP2 ADD SWAP1 POP SWAP2 SWAP1 POP JUMP JUMPDEST PUSH1 0x0 DUP2 MLOAD SWAP1 POP SWAP2 SWAP1 POP JUMP JUMPDEST PUSH1 0x0 DUP3 DUP3 MSTORE PUSH1 0x20 DUP3 ADD SWAP1 POP SWAP3 SWAP2 POP POP JUMP JUMPDEST PUSH1 0x0 DUP2 ISZERO ISZERO SWAP1 POP SWAP2 SWAP1 POP JUMP JUMPDEST PUSH1 0x0 DUP2 SWAP1 POP SWAP2 SWAP1 POP JUMP JUMPDEST PUSH1 0x0 JUMPDEST DUP4 DUP2 LT ISZERO PUSH2 0x6B4 JUMPI DUP1 DUP3 ADD MLOAD DUP2 DUP5 ADD MSTORE PUSH1 0x20 DUP2 ADD SWAP1 POP PUSH2 0x699 JUMP JUMPDEST DUP4 DUP2 GT ISZERO PUSH2 0x6C3 JUMPI PUSH1 0x0 DUP5 DUP5 ADD MSTORE JUMPDEST POP POP POP POP JUMP JUMPDEST PUSH1 0x0 PUSH1 0x2 DUP3 DIV SWAP1 POP PUSH1 0x1 DUP3 AND DUP1 PUSH2 0x6E1 JUMPI PUSH1 0x7F DUP3 AND SWAP2 POP JUMPDEST PUSH1 0x20 DUP3 LT DUP2 EQ ISZERO PUSH2 0x6F5 JUMPI PUSH2 0x6F4 PUSH2 0x72C JUMP JUMPDEST JUMPDEST POP SWAP2 SWAP1 POP JUMP JUMPDEST PUSH2 0x704 DUP3 PUSH2 0x79E JUMP JUMPDEST DUP2 ADD DUP2 DUP2 LT PUSH8 0xFFFFFFFFFFFFFFFF DUP3 GT OR ISZERO PUSH2 0x723 JUMPI PUSH2 0x722 PUSH2 0x75B JUMP JUMPDEST JUMPDEST DUP1 PUSH1 0x40 MSTORE POP POP POP JUMP JUMPDEST PUSH32 0x4E487B7100000000000000000000000000000000000000000000000000000000 PUSH1 0x0 MSTORE PUSH1 0x22 PUSH1 0x4 MSTORE PUSH1 0x24 PUSH1 0x0 REVERT JUMPDEST PUSH32 0x4E487B7100000000000000000000000000000000000000000000000000000000 PUSH1 0x0 MSTORE PUSH1 0x41 PUSH1 0x4 MSTORE PUSH1 0x24 PUSH1 0x0 REVERT JUMPDEST PUSH1 0x0 DUP1 REVERT JUMPDEST PUSH1 0x0 DUP1 REVERT JUMPDEST PUSH1 0x0 DUP1 REVERT JUMPDEST PUSH1 0x0 DUP1 REVERT JUMPDEST PUSH1 0x0 PUSH1 0x1F NOT PUSH1 0x1F DUP4 ADD AND SWAP1 POP SWAP2 SWAP1 POP JUMP JUMPDEST PUSH2 0x7B8 DUP2 PUSH2 0x680 JUMP JUMPDEST DUP2 EQ PUSH2 0x7C3 JUMPI PUSH1 0x0 DUP1 REVERT JUMPDEST POP JUMP JUMPDEST PUSH2 0x7CF DUP2 PUSH2 0x68C JUMP JUMPDEST DUP2 EQ PUSH2 0x7DA JUMPI PUSH1 0x0 DUP1 REVERT JUMPDEST POP JUMP INVALID LOG2 PUSH5 0x6970667358 0x22 SLT KECCAK256 CALLER 0xED 0xCE 0x25 PUSH28 0xF98F3C94A8CF8D8BE6D8FEE8328FB8B049C8857ACFC498FB51236D64 PUSH20 0x6F6C634300080700330000000000000000000000 "
				},
				"gasEstimates": {
					"creation": {
						"codeDepositCost": "413400",
						"executionCost": "449",
						"totalCost": "413849"
					},
					"external": {
						"_a()": "2473",
						"_b()": "2449",
						"_c()": "infinite",
						"captureOutputs()": "infinite",
						"displayOutputs()": "infinite",
						"returnMultiple()": "infinite"
					}
				},
				"methodIdentifiers": {
					"_a()": "ced7b2e3",
					"_b()": "25374996",
					"_c()": "f5376e03",
					"captureOutputs()": "26a89e04",
					"displayOutputs()": "64f13521",
					"returnMultiple()": "e61e4008"
				}
			},
			"storageLayout": {
				"storage": [
					{
						"astId": 3,
						"contract": "FuncOutputs.sol:FuncOutputs",
						"label": "_a",
						"offset": 0,
						"slot": "0",
						"type": "t_uint256"
					},
					{
						"astId": 5,
						"contract": "FuncOutputs.sol:FuncOutputs",
						"label": "_b",
						"offset": 0,
						"slot": "1",
						"type": "t_bool"
					},
					{
						"astId": 7,
						"contract": "FuncOutputs.sol:FuncOutputs",
						"label": "_c",
						"offset": 0,
						"slot": "2",
						"type": "t_string_storage"
					}
				],
				"types": {
					"t_bool": {
						"encoding": "inplace",
						"label": "bool",
						"numberOfBytes": "1"
					},
					"t_string_storage": {
						"encoding": "bytes",
						"label": "string",
						"numberOfBytes": "32"
					},
					"t_uint256": {
						"encoding": "inplace",
						"label": "uint256",
						"numberOfBytes": "32"
					}
				}
			},
			"userdoc": {
				"kind": "user",
				"methods": {},
				"version": 1
			}
		}
	}
}