{
	"data": {
		"bytecode": {
			"linkReferences": {},
			"object": "6080604052600160005534801561001557600080fd5b50610269806100256000396000f3fe608060405234801561001057600080fd5b50600436106100365760003560e01c80635035df811461003b5780636036251414610045575b600080fd5b61004361004f565b005b61004d61009d565b005b600080541415610094576040517f08c379a000000000000000000000000000000000000000000000000000000000815260040161008b90610120565b60405180910390fd5b60008081905550565b6000805414156100e2576040517f08c379a00000000000000000000000000000000000000000000000000000000081526004016100d990610120565b60405180910390fd5b60026000808282546100f49190610151565b92505081905550565b600061010a602883610140565b9150610115826101e4565b604082019050919050565b60006020820190508181036000830152610139816100fd565b9050919050565b600082825260208201905092915050565b600061015c826101ab565b9150610167836101ab565b9250817fffffffffffffffffffffffffffffffffffffffffffffffffffffffffffffffff04831182151516156101a05761019f6101b5565b5b828202905092915050565b6000819050919050565b7f4e487b7100000000000000000000000000000000000000000000000000000000600052601160045260246000fd5b7f6e756d626572206973207a65726f20616e642063616e6e6f742062652070726f60008201527f6365737365642e2000000000000000000000000000000000000000000000000060208201525056fea2646970667358221220920cd88f64296bdf5be8d24e21218ffa88f41ea491d247ef3ace9cf8bbcaaf0d64736f6c63430008070033",
			"opcodes": "PUSH1 0x80 PUSH1 0x40 MSTORE PUSH1 0x1 PUSH1 0x0 SSTORE CALLVALUE DUP1 ISZERO PUSH2 0x15 JUMPI PUSH1 0x0 DUP1 REVERT JUMPDEST POP PUSH2 0x269 DUP1 PUSH2 0x25 PUSH1 0x0 CODECOPY PUSH1 0x0 RETURN INVALID PUSH1 0x80 PUSH1 0x40 MSTORE CALLVALUE DUP1 ISZERO PUSH2 0x10 JUMPI PUSH1 0x0 DUP1 REVERT JUMPDEST POP PUSH1 0x4 CALLDATASIZE LT PUSH2 0x36 JUMPI PUSH1 0x0 CALLDATALOAD PUSH1 0xE0 SHR DUP1 PUSH4 0x5035DF81 EQ PUSH2 0x3B JUMPI DUP1 PUSH4 0x60362514 EQ PUSH2 0x45 JUMPI JUMPDEST PUSH1 0x0 DUP1 REVERT JUMPDEST PUSH2 0x43 PUSH2 0x4F JUMP JUMPDEST STOP JUMPDEST PUSH2 0x4D PUSH2 0x9D JUMP JUMPDEST STOP JUMPDEST PUSH1 0x0 DUP1 SLOAD EQ ISZERO PUSH2 0x94 JUMPI PUSH1 0x40 MLOAD PUSH32 0x8C379A000000000000000000000000000000000000000000000000000000000 DUP2 MSTORE PUSH1 0x4 ADD PUSH2 0x8B SWAP1 PUSH2 0x120 JUMP JUMPDEST PUSH1 0x40 MLOAD DUP1 SWAP2 SUB SWAP1 REVERT JUMPDEST PUSH1 0x0 DUP1 DUP2 SWAP1 SSTORE POP JUMP JUMPDEST PUSH1 0x0 DUP1 SLOAD EQ ISZERO PUSH2 0xE2 JUMPI PUSH1 0x40 MLOAD PUSH32 0x8C379A000000000000000000000000000000000000000000000000000000000 DUP2 MSTORE PUSH1 0x4 ADD PUSH2 0xD9 SWAP1 PUSH2 0x120 JUMP JUMPDEST PUSH1 0x40 MLOAD DUP1 SWAP2 SUB SWAP1 REVERT JUMPDEST PUSH1 0x2 PUSH1 0x0 DUP1 DUP3 DUP3 SLOAD PUSH2 0xF4 SWAP2 SWAP1 PUSH2 0x151 JUMP JUMPDEST SWAP3 POP POP DUP2 SWAP1 SSTORE POP JUMP JUMPDEST PUSH1 0x0 PUSH2 0x10A PUSH1 0x28 DUP4 PUSH2 0x140 JUMP JUMPDEST SWAP2 POP PUSH2 0x115 DUP3 PUSH2 0x1E4 JUMP JUMPDEST PUSH1 0x40 DUP3 ADD SWAP1 POP SWAP2 SWAP1 POP JUMP JUMPDEST PUSH1 0x0 PUSH1 0x20 DUP3 ADD SWAP1 POP DUP2 DUP2 SUB PUSH1 0x0 DUP4 ADD MSTORE PUSH2 0x139 DUP2 PUSH2 0xFD JUMP JUMPDEST SWAP1 POP SWAP2 SWAP1 POP JUMP JUMPDEST PUSH1 0x0 DUP3 DUP3 MSTORE PUSH1 0x20 DUP3 ADD SWAP1 POP SWAP3 SWAP2 POP POP JUMP JUMPDEST PUSH1 0x0 PUSH2 0x15C DUP3 PUSH2 0x1AB JUMP JUMPDEST SWAP2 POP PUSH2 0x167 DUP4 PUSH2 0x1AB JUMP JUMPDEST SWAP3 POP DUP2 PUSH32 0xFFFFFFFFFFFFFFFFFFFFFFFFFFFFFFFFFFFFFFFFFFFFFFFFFFFFFFFFFFFFFFFF DIV DUP4 GT DUP3 ISZERO ISZERO AND ISZERO PUSH2 0x1A0 JUMPI PUSH2 0x19F PUSH2 0x1B5 JUMP JUMPDEST JUMPDEST DUP3 DUP3 MUL SWAP1 POP SWAP3 SWAP2 POP POP JUMP JUMPDEST PUSH1 0x0 DUP2 SWAP1 POP SWAP2 SWAP1 POP JUMP JUMPDEST PUSH32 0x4E487B7100000000000000000000000000000000000000000000000000000000 PUSH1 0x0 MSTORE PUSH1 0x11 PUSH1 0x4 MSTORE PUSH1 0x24 PUSH1 0x0 REVERT JUMPDEST PUSH32 0x6E756D626572206973207A65726F20616E642063616E6E6F742062652070726F PUSH1 0x0 DUP3 ADD MSTORE PUSH32 0x6365737365642E20000000000000000000000000000000000000000000000000 PUSH1 0x20 DUP3 ADD MSTORE POP JUMP INVALID LOG2 PUSH5 0x6970667358 0x22 SLT KECCAK256 SWAP3 0xC 0xD8 DUP16 PUSH5 0x296BDF5BE8 0xD2 0x4E 0x21 0x21 DUP16 STATICCALL DUP9 DELEGATECALL 0x1E LOG4 SWAP2 0xD2 SELFBALANCE 0xEF GASPRICE 0xCE SWAP13 0xF8 0xBB 0xCA 0xAF 0xD PUSH5 0x736F6C6343 STOP ADDMOD SMOD STOP CALLER "
		},
		"gasEstimates": {
			"creation": {
				"codeDepositCost": "123400",
				"executionCost": "22277",
				"totalCost": "145677"
			},
			"external": {
				"doubleNumber()": "infinite",
				"resetNumber()": "7262"
			}
		},
		"methodIdentifiers": {
			"doubleNumber()": "60362514",
			"resetNumber()": "5035df81"
		}
	},
	"abi": [
		{
			"inputs": [],
			"name": "doubleNumber",
			"outputs": [],
			"stateMutability": "nonpayable",
			"type": "function"
		},
		{
			"inputs": [],
			"name": "resetNumber",
			"outputs": [],
			"stateMutability": "nonpayable",
			"type": "function"
		}
	]
}